{
  "contractName": "ArbiterStaking",
  "abi": [
    {
      "constant": true,
      "inputs": [],
      "name": "MINIMUM_STAKE",
      "outputs": [
        {
          "name": "",
          "type": "uint256"
        }
      ],
      "payable": false,
      "stateMutability": "view",
      "type": "function"
    },
    {
      "constant": true,
      "inputs": [
        {
          "name": "",
          "type": "address"
        }
      ],
      "name": "bountyResponses",
      "outputs": [
        {
          "name": "",
          "type": "uint256"
        }
      ],
      "payable": false,
      "stateMutability": "view",
      "type": "function"
    },
    {
      "constant": false,
      "inputs": [],
      "name": "unpause",
      "outputs": [],
      "payable": false,
      "stateMutability": "nonpayable",
      "type": "function"
    },
    {
      "constant": true,
      "inputs": [],
      "name": "stakeDuration",
      "outputs": [
        {
          "name": "",
          "type": "uint256"
        }
      ],
      "payable": false,
      "stateMutability": "view",
      "type": "function"
    },
    {
      "constant": true,
      "inputs": [],
      "name": "paused",
      "outputs": [
        {
          "name": "",
          "type": "bool"
        }
      ],
      "payable": false,
      "stateMutability": "view",
      "type": "function"
    },
    {
      "constant": true,
      "inputs": [
        {
          "name": "",
          "type": "uint128"
        },
        {
          "name": "",
          "type": "address"
        }
      ],
      "name": "bountyResponseByGuidAndAddress",
      "outputs": [
        {
          "name": "",
          "type": "bool"
        }
      ],
      "payable": false,
      "stateMutability": "view",
      "type": "function"
    },
    {
      "constant": true,
      "inputs": [],
      "name": "VOTE_RATIO_NUMERATOR",
      "outputs": [
        {
          "name": "",
          "type": "uint8"
        }
      ],
      "payable": false,
      "stateMutability": "view",
      "type": "function"
    },
    {
      "constant": false,
      "inputs": [],
      "name": "pause",
      "outputs": [],
      "payable": false,
      "stateMutability": "nonpayable",
      "type": "function"
    },
    {
      "constant": true,
      "inputs": [],
      "name": "VOTE_RATIO_DENOMINATOR",
      "outputs": [
        {
          "name": "",
          "type": "uint8"
        }
      ],
      "payable": false,
      "stateMutability": "view",
      "type": "function"
    },
    {
      "constant": true,
      "inputs": [],
      "name": "numBounties",
      "outputs": [
        {
          "name": "",
          "type": "uint256"
        }
      ],
      "payable": false,
      "stateMutability": "view",
      "type": "function"
    },
    {
      "constant": true,
      "inputs": [],
      "name": "owner",
      "outputs": [
        {
          "name": "",
          "type": "address"
        }
      ],
      "payable": false,
      "stateMutability": "view",
      "type": "function"
    },
    {
      "constant": true,
      "inputs": [],
      "name": "MAXIMUM_STAKE",
      "outputs": [
        {
          "name": "",
          "type": "uint256"
        }
      ],
      "payable": false,
      "stateMutability": "view",
      "type": "function"
    },
    {
      "constant": true,
      "inputs": [
        {
          "name": "",
          "type": "address"
        },
        {
          "name": "",
          "type": "uint256"
        }
      ],
      "name": "deposits",
      "outputs": [
        {
          "name": "blockNumber",
          "type": "uint256"
        },
        {
          "name": "value",
          "type": "uint256"
        }
      ],
      "payable": false,
      "stateMutability": "view",
      "type": "function"
    },
    {
      "constant": true,
      "inputs": [
        {
          "name": "",
          "type": "uint128"
        }
      ],
      "name": "bounties",
      "outputs": [
        {
          "name": "",
          "type": "bool"
        }
      ],
      "payable": false,
      "stateMutability": "view",
      "type": "function"
    },
    {
      "constant": false,
      "inputs": [
        {
          "name": "newOwner",
          "type": "address"
        }
      ],
      "name": "transferOwnership",
      "outputs": [],
      "payable": false,
      "stateMutability": "nonpayable",
      "type": "function"
    },
    {
      "inputs": [
        {
          "name": "_token",
          "type": "address"
        },
        {
          "name": "_stakeDuration",
          "type": "uint256"
        }
      ],
      "payable": false,
      "stateMutability": "nonpayable",
      "type": "constructor"
    },
    {
      "anonymous": false,
      "inputs": [
        {
          "indexed": true,
          "name": "from",
          "type": "address"
        },
        {
          "indexed": false,
          "name": "value",
          "type": "uint256"
        }
      ],
      "name": "NewDeposit",
      "type": "event"
    },
    {
      "anonymous": false,
      "inputs": [
        {
          "indexed": true,
          "name": "to",
          "type": "address"
        },
        {
          "indexed": false,
          "name": "value",
          "type": "uint256"
        }
      ],
      "name": "NewWithdrawal",
      "type": "event"
    },
    {
      "anonymous": false,
      "inputs": [
        {
          "indexed": true,
          "name": "guid",
          "type": "uint128"
        },
        {
          "indexed": false,
          "name": "blockNumber",
          "type": "uint256"
        }
      ],
      "name": "BountyRecorded",
      "type": "event"
    },
    {
      "anonymous": false,
      "inputs": [],
      "name": "Pause",
      "type": "event"
    },
    {
      "anonymous": false,
      "inputs": [],
      "name": "Unpause",
      "type": "event"
    },
    {
      "anonymous": false,
      "inputs": [
        {
          "indexed": true,
          "name": "previousOwner",
          "type": "address"
        },
        {
          "indexed": true,
          "name": "newOwner",
          "type": "address"
        }
      ],
      "name": "OwnershipTransferred",
      "type": "event"
    },
    {
      "constant": false,
      "inputs": [
        {
          "name": "_from",
          "type": "address"
        },
        {
          "name": "_value",
          "type": "uint256"
        },
        {
          "name": "_tokenContract",
          "type": "address"
        },
        {
          "name": "",
          "type": "bytes"
        }
      ],
      "name": "receiveApproval",
      "outputs": [
        {
          "name": "",
          "type": "bool"
        }
      ],
      "payable": false,
      "stateMutability": "nonpayable",
      "type": "function"
    },
    {
      "constant": false,
      "inputs": [
        {
          "name": "value",
          "type": "uint256"
        }
      ],
      "name": "deposit",
      "outputs": [],
      "payable": false,
      "stateMutability": "nonpayable",
      "type": "function"
    },
    {
      "constant": true,
      "inputs": [
        {
          "name": "addr",
          "type": "address"
        }
      ],
      "name": "balanceOf",
      "outputs": [
        {
          "name": "",
          "type": "uint256"
        }
      ],
      "payable": false,
      "stateMutability": "view",
      "type": "function"
    },
    {
      "constant": true,
      "inputs": [
        {
          "name": "addr",
          "type": "address"
        }
      ],
      "name": "withdrawableBalanceOf",
      "outputs": [
        {
          "name": "",
          "type": "uint256"
        }
      ],
      "payable": false,
      "stateMutability": "view",
      "type": "function"
    },
    {
      "constant": false,
      "inputs": [
        {
          "name": "value",
          "type": "uint256"
        }
      ],
      "name": "withdraw",
      "outputs": [],
      "payable": false,
      "stateMutability": "nonpayable",
      "type": "function"
    },
    {
      "constant": true,
      "inputs": [
        {
          "name": "addr",
          "type": "address"
        }
      ],
      "name": "isEligible",
      "outputs": [
        {
          "name": "",
          "type": "bool"
        }
      ],
      "payable": false,
      "stateMutability": "view",
      "type": "function"
    },
    {
      "constant": false,
      "inputs": [
        {
          "name": "arbiter",
          "type": "address"
        },
        {
          "name": "bountyGuid",
          "type": "uint128"
        },
        {
          "name": "blockNumber",
          "type": "uint256"
        }
      ],
      "name": "recordBounty",
      "outputs": [],
      "payable": false,
      "stateMutability": "nonpayable",
      "type": "function"
    },
    {
      "constant": true,
      "inputs": [
        {
          "name": "arbiter",
          "type": "address"
        }
      ],
      "name": "arbiterResponseRate",
      "outputs": [
        {
          "name": "num",
          "type": "uint256"
        },
        {
          "name": "den",
          "type": "uint256"
        }
      ],
      "payable": false,
      "stateMutability": "view",
      "type": "function"
    }
  ],
  "bytecode": "0x60806040526000805460a060020a60ff021916905534801561002057600080fd5b5060405160408061115183398101604052805160209091015160008054600160a060020a0319908116331790915560078054600160a060020a0390941693909116929092179091556006556110d78061007a6000396000f3006080604052600436106101325763ffffffff7c010000000000000000000000000000000000000000000000000000000060003504166308dbbb038114610137578063293f9f4f1461015e5780632e1a7d4d1461019957806337b3af14146101b15780633aa6c4f9146101d25780633f4ba83a146101f357806340f02ab61461020857806342feba841461021d5780635c975abb1461025757806366e305fd1461028057806369bccfae146102a157806370a08231146102d75780637fc3a926146102f85780638456cb5914610323578063873b4f861461033857806388db0f521461034d5780638da5cb5b146103625780638f4ffcb114610393578063b6b55f2514610403578063d693d2071461041b578063d6d6817714610430578063d942a54014610454578063f2fde38b1461047e575b600080fd5b34801561014357600080fd5b5061014c61049f565b60408051918252519081900360200190f35b34801561016a57600080fd5b50610197600160a060020a03600435166fffffffffffffffffffffffffffffffff602435166044356104ae565b005b3480156101a557600080fd5b50610197600435610657565b3480156101bd57600080fd5b5061014c600160a060020a0360043516610932565b3480156101de57600080fd5b5061014c600160a060020a0360043516610944565b3480156101ff57600080fd5b50610197610a03565b34801561021457600080fd5b5061014c610a79565b34801561022957600080fd5b5061023e600160a060020a0360043516610a7f565b6040805192835260208301919091528051918290030190f35b34801561026357600080fd5b5061026c610a9e565b604080519115158252519081900360200190f35b34801561028c57600080fd5b5061026c600160a060020a0360043516610aae565b3480156102ad57600080fd5b5061026c6fffffffffffffffffffffffffffffffff60043516600160a060020a0360243516610b17565b3480156102e357600080fd5b5061014c600160a060020a0360043516610b37565b34801561030457600080fd5b5061030d610ba1565b6040805160ff9092168252519081900360200190f35b34801561032f57600080fd5b50610197610ba6565b34801561034457600080fd5b5061030d610c21565b34801561035957600080fd5b5061014c610c26565b34801561036e57600080fd5b50610377610c2c565b60408051600160a060020a039092168252519081900360200190f35b34801561039f57600080fd5b50604080516020601f60643560048181013592830184900484028501840190955281845261026c94600160a060020a03813581169560248035966044359093169536956084949201918190840183828082843750949750610c3b9650505050505050565b34801561040f57600080fd5b50610197600435610d53565b34801561042757600080fd5b5061014c610da1565b34801561043c57600080fd5b5061023e600160a060020a0360043516602435610db0565b34801561046057600080fd5b5061026c6fffffffffffffffffffffffffffffffff60043516610deb565b34801561048a57600080fd5b50610197600160a060020a0360043516610e00565b6a084595161401484a00000081565b600054600160a060020a031633146104c557600080fd5b600160a060020a03831615156104da57600080fd5b8015156104e657600080fd5b6fffffffffffffffffffffffffffffffff821660009081526003602052604090205460ff16151561059e576fffffffffffffffffffffffffffffffff82166000908152600360205260409020805460ff191660019081179091556002546105529163ffffffff610e9416565b6002556040805182815290516fffffffffffffffffffffffffffffffff8416917f60e537378a858275d327faec296210d964fe5e1de58709907e8b6864a0ddd7f3919081900360200190a25b6fffffffffffffffffffffffffffffffff82166000908152600560209081526040808320600160a060020a038716845290915290205460ff161515610652576fffffffffffffffffffffffffffffffff82166000908152600560209081526040808320600160a060020a03871684528252808320805460ff191660019081179091556004909252909120546106389163ffffffff610e9416565b600160a060020a0384166000908152600460205260409020555b505050565b60008054819081908190819060a060020a900460ff161561067757600080fd5b60065486955061068e90439063ffffffff610eae16565b3360008181526001602052604090209195509093506106ac90610944565b8611156106b857600080fd5b600091505b82548210156107e9578383838154811015156106d557fe5b6000918252602090912060029091020154116107d9578483838154811015156106fa57fe5b9060005260206000209060020201600101541015156107a05761074585848481548110151561072557fe5b906000526020600020906002020160010154610eae90919063ffffffff16565b838381548110151561075357fe5b906000526020600020906002020160010181905550828281548110151561077657fe5b90600052602060002090600202016001015460001415610797576001909101905b600094506107e9565b6107d283838154811015156107b157fe5b90600052602060002090600202016001015486610eae90919063ffffffff16565b94506107de565b6107e9565b6001909101906106bd565b84156107f457600080fd5b5060005b825461080a908363ffffffff610eae16565b81101561086d5782610822828463ffffffff610e9416565b8154811061082c57fe5b9060005260206000209060020201838281548110151561084857fe5b60009182526020909120825460029092020190815560019182015490820155016107f8565b825461087f908363ffffffff610eae16565b90505b82548110156108ba57828181548110151561089957fe5b60009182526020822060029091020181815560019081019190915501610882565b82546108cc908363ffffffff610eae16565b6108d68482611060565b506007546108f490600160a060020a0316338863ffffffff610ec016565b60408051878152905133917f6e2e05fb6a732995d6952d9158ca6b75f11cc6bf5a4af943aa1eb475a249440b919081900360200190a2505050505050565b60046020526000908152604090205481565b600080600080600080935061096460065443610eae90919063ffffffff16565b600160a060020a038716600090815260016020526040812091945090925090505b81548110156109f95782828281548110151561099d57fe5b6000918252602090912060029091020154116109ec576109e582828154811015156109c457fe5b90600052602060002090600202016001015485610e9490919063ffffffff16565b93506109f1565b6109f9565b600101610985565b5091949350505050565b600054600160a060020a03163314610a1a57600080fd5b60005460a060020a900460ff161515610a3257600080fd5b6000805474ff0000000000000000000000000000000000000000191681556040517f7805862f689e2f13df9f062ff482ad3ad112aca9e0847911ed832e158c525b339190a1565b60065481565b600160a060020a03166000908152600460205260409020546002549091565b60005460a060020a900460ff1681565b6000806000610abc84610a7f565b90925090506a084595161401484a000000610ad685610b37565b10158015610b0f5750600a811080610b0f57506009610b0c82610b0085600a63ffffffff610f7016565b9063ffffffff610f9b16565b10155b949350505050565b600560209081526000928352604080842090915290825290205460ff1681565b600160a060020a03811660009081526001602052604081208190815b8154811015610b9857610b8e8282815481101515610b6d57fe5b90600052602060002090600202016001015484610e9490919063ffffffff16565b9250600101610b53565b50909392505050565b600981565b600054600160a060020a03163314610bbd57600080fd5b60005460a060020a900460ff1615610bd457600080fd5b6000805474ff0000000000000000000000000000000000000000191660a060020a1781556040517f6985a02210a168e66602d3235cb6db0e70f92b3ba4d376a33c0f3d9434bff6259190a1565b600a81565b60025481565b600054600160a060020a031681565b6000805460a060020a900460ff1615610c5357600080fd5b60008411610c6057600080fd5b600754600160a060020a03848116911614610c7a57600080fd5b6a52b7d2dcc80cd2e4000000610c9f85610c9388610b37565b9063ffffffff610e9416565b1115610caa57600080fd5b600754610cc890600160a060020a031686308763ffffffff610fb216565b600160a060020a0385166000818152600160208181526040808420815180830183524381528084018b81528254808701845592875295849020905160029092020190815593519390920192909255805187815290517f2cb77763bc1e8490c1a904905c4d74b4269919aca114464f4bb4d911e60de364929181900390910190a2506001949350505050565b60005460a060020a900460ff1615610d6a57600080fd5b600754604080516000815260208101909152610d939133918491600160a060020a031690610c3b565b1515610d9e57600080fd5b50565b6a52b7d2dcc80cd2e400000081565b600160205281600052604060002081815481101515610dcb57fe5b600091825260209091206002909102018054600190910154909250905082565b60036020526000908152604090205460ff1681565b600054600160a060020a03163314610e1757600080fd5b600160a060020a0381161515610e2c57600080fd5b60008054604051600160a060020a03808516939216917f8be0079c531659141344cd1fd0a4f28419497f9722a3daafe3b4186f6b6457e091a36000805473ffffffffffffffffffffffffffffffffffffffff1916600160a060020a0392909216919091179055565b600082820183811015610ea357fe5b8091505b5092915050565b600082821115610eba57fe5b50900390565b82600160a060020a031663a9059cbb83836040518363ffffffff167c01000000000000000000000000000000000000000000000000000000000281526004018083600160a060020a0316600160a060020a0316815260200182815260200192505050602060405180830381600087803b158015610f3c57600080fd5b505af1158015610f50573d6000803e3d6000fd5b505050506040513d6020811015610f6657600080fd5b5051151561065257fe5b600080831515610f835760009150610ea7565b50828202828482811515610f9357fe5b0414610ea357fe5b6000808284811515610fa957fe5b04949350505050565b604080517f23b872dd000000000000000000000000000000000000000000000000000000008152600160a060020a0385811660048301528481166024830152604482018490529151918616916323b872dd916064808201926020929091908290030181600087803b15801561102657600080fd5b505af115801561103a573d6000803e3d6000fd5b505050506040513d602081101561105057600080fd5b5051151561105a57fe5b50505050565b81548183558181111561065257600083815260209020610652916110a89160029182028101918502015b808211156110a4576000808255600182015560020161108a565b5090565b905600a165627a7a72305820b9234ac2005819396f4e9394976eb3ee516ba32af742e4746f522ec962ed43eb0029",
  "source": "pragma solidity ^0.4.21;\n\nimport \"zeppelin-solidity/contracts/math/SafeMath.sol\";\nimport \"zeppelin-solidity/contracts/lifecycle/Pausable.sol\";\nimport \"zeppelin-solidity/contracts/token/ERC20/SafeERC20.sol\";\nimport \"./NectarToken.sol\";\n\ncontract ArbiterStaking is Pausable {\n    using SafeMath for uint256;\n    using SafeERC20 for NectarToken;\n\n    uint256 public constant MINIMUM_STAKE = 10000000 * 10 ** 18;\n    uint256 public constant MAXIMUM_STAKE = 100000000 * 10 ** 18;\n    uint8 public constant VOTE_RATIO_NUMERATOR = 9;\n    uint8 public constant VOTE_RATIO_DENOMINATOR = 10;\n\n    // Deposits\n    struct Deposit {\n        uint256 blockNumber;\n        uint256 value;\n    }\n\n    event NewDeposit(\n        address indexed from,\n        uint256 value\n    );\n\n    event NewWithdrawal(\n        address indexed to,\n        uint256 value\n    );\n\n    mapping(address => Deposit[]) public deposits;\n\n    // Bounties\n    event BountyRecorded(\n        uint128 indexed guid,\n        uint256 blockNumber\n    );\n\n    uint256 public numBounties;\n    mapping(uint128 => bool) public bounties;\n    mapping(address => uint256) public bountyResponses;\n    mapping(uint128 => mapping(address => bool)) public bountyResponseByGuidAndAddress;\n\n    uint256 public stakeDuration;\n    NectarToken internal token;\n\n    /**\n     * Construct a new ArbiterStaking\n     *\n     * @param _token address of NCT token to use\n     */\n    constructor(address _token, uint256 _stakeDuration) Ownable() public {\n        token = NectarToken(_token);\n        stakeDuration = _stakeDuration;\n    }\n\n    /**\n     * Handle a deposit upon receiving approval for a token transfer\n     * Called from NectarToken.approveAndCall\n     *\n     * @param _from Account depositing NCT\n     * @param _value Amount of NCT being deposited\n     * @param _tokenContract Address of the NCT contract\n     * @return true if successful else false\n     */\n    function receiveApproval(\n        address _from,\n        uint256 _value,\n        address _tokenContract,\n        bytes\n    )\n        public\n        whenNotPaused\n        returns (bool)\n    {\n        // Ensure we are depositing something\n        require(_value > 0);\n        // Ensure we are called from he right token contract\n        require(_tokenContract == address(token));\n        // Ensure that we are not staking more than the maximum\n        require(balanceOf(_from).add(_value) <= MAXIMUM_STAKE);\n\n        token.safeTransferFrom(_from, this, _value);\n        deposits[_from].push(Deposit(block.number, _value));\n        emit NewDeposit(_from, _value);\n\n        return true;\n    }\n\n    /**\n     * Deposit NCT (requires prior approval)\n     *\n     * @param value The amount of NCT to deposit\n     */\n    function deposit(uint256 value) public whenNotPaused {\n        require(receiveApproval(msg.sender, value, token, new bytes(0)));\n    }\n\n    /**\n     * Retrieve the (total) current balance of staked NCT for an account\n     *\n     * @param addr The account whos balance to retrieve\n     * @return The current (total) balance of the account\n     */\n    function balanceOf(address addr) public view returns (uint256) {\n        uint256 ret = 0;\n        Deposit[] storage ds = deposits[addr];\n        for (uint256 i = 0; i < ds.length; i++) {\n            ret = ret.add(ds[i].value);\n        }\n        return ret;\n    }\n\n    /**\n     * Retrieve the withdrawable current balance of staked NCT for an account\n     *\n     * @param addr The account whos balance to retrieve\n     * @return The current withdrawable balance of the account\n     */\n    function withdrawableBalanceOf(address addr) public view returns (uint256) {\n        uint256 ret = 0;\n        uint256 latest_block = block.number.sub(stakeDuration);\n        Deposit[] storage ds = deposits[addr];\n        for (uint256 i = 0; i < ds.length; i++) {\n            if (ds[i].blockNumber <= latest_block) {\n                ret = ret.add(ds[i].value);\n            } else {\n                break;\n            }\n        }\n        return ret;\n    }\n\n    /**\n     * Withdraw staked NCT \n     * @param value The amount of NCT to withdraw\n     */\n    function withdraw(uint256 value) public whenNotPaused {\n        uint256 remaining = value;\n        uint256 latest_block = block.number.sub(stakeDuration);\n        Deposit[] storage ds = deposits[msg.sender];\n\n        require(value <= withdrawableBalanceOf(msg.sender));\n\n        // Determine which deposits we will modifiy\n        for (uint256 end = 0; end < ds.length; end++) {\n            if (ds[end].blockNumber <= latest_block) {\n                if (ds[end].value >= remaining) {\n                    ds[end].value = ds[end].value.sub(remaining);\n                    if (ds[end].value == 0) {\n                        end++;\n                    }\n                    remaining = 0;\n                    break;\n                } else {\n                    remaining = remaining.sub(ds[end].value);\n                }\n            } else {\n                break;\n            }\n        }\n\n        // If we haven't hit our value by now, we don't have enough available\n        // funds\n        require(remaining == 0);\n\n        // Delete the obsolete deposits\n        for (uint256 i = 0; i < ds.length.sub(end); i++) {\n            ds[i] = ds[i.add(end)];\n        }\n\n        for (i = ds.length.sub(end); i < ds.length; i++) {\n            delete ds[i];\n        }\n\n        ds.length = ds.length.sub(end);\n\n        // Do the transfer\n        token.safeTransfer(msg.sender, value);\n        emit NewWithdrawal(msg.sender, value);\n    }\n\n    /**\n     * Is an address an eligible arbiter?\n     * @param addr The address to validate\n     * @return true if address is eligible else false\n     */\n    function isEligible(address addr) public view returns (bool) {\n        uint256 num;\n        uint256 den;\n        (num, den) = arbiterResponseRate(addr);\n\n        return balanceOf(addr) >= MINIMUM_STAKE &&\n            (den < VOTE_RATIO_DENOMINATOR || num.mul(VOTE_RATIO_DENOMINATOR).div(den) >= VOTE_RATIO_NUMERATOR);\n    }\n\n    /**\n     * Record a bounty that an arbiter has voted on\n     *\n     * @param arbiter The address of the arbiter\n     * @param bountyGuid The guid of the bounty\n     */\n    function recordBounty(address arbiter, uint128 bountyGuid, uint256 blockNumber) public onlyOwner {\n        require(arbiter != address(0));\n        require(blockNumber != 0);\n\n        // New bounty\n        if (!bounties[bountyGuid]) {\n            bounties[bountyGuid] = true;\n            numBounties = numBounties.add(1);\n            emit BountyRecorded(bountyGuid, blockNumber);\n        }\n\n        // First response to this bounty by this arbiter\n        if (!bountyResponseByGuidAndAddress[bountyGuid][arbiter]) {\n            bountyResponseByGuidAndAddress[bountyGuid][arbiter] = true;\n            bountyResponses[arbiter] = bountyResponses[arbiter].add(1);\n        }\n    }\n\n    /**\n     * Determines the ratio of past verdicts that the arbiter has responded to\n     *\n     * @param arbiter The address of the arbiter\n     * @return number of bounties responded to, number of bounties considered\n     */\n    function arbiterResponseRate(address arbiter) public view returns (uint256 num, uint256 den) {\n        num = bountyResponses[arbiter];\n        den = numBounties;\n    }\n}\n",
  "sourcePath": "/home/user/Projects/polyswarmd/truffle/contracts/ArbiterStaking.sol",
  "compiler": {
    "name": "solc",
    "version": "0.4.24+commit.e67f0147.Emscripten.clang"
  },
  "schemaVersion": "2.0.0",
  "updatedAt": "2018-06-26T11:04:44.260Z"
}