{
  "contractName": "BountyRegistry",
  "abi": [
    {
      "constant": true,
      "inputs": [
        {
          "name": "",
          "type": "uint256"
        },
        {
          "name": "",
          "type": "uint256"
        }
      ],
      "name": "verdictCountByGuid",
      "outputs": [
        {
          "name": "",
          "type": "uint256"
        }
      ],
      "payable": false,
      "stateMutability": "view",
      "type": "function"
    },
    {
      "constant": false,
      "inputs": [],
      "name": "unpause",
      "outputs": [],
      "payable": false,
      "stateMutability": "nonpayable",
      "type": "function"
    },
    {
      "constant": true,
      "inputs": [],
      "name": "staking",
      "outputs": [
        {
          "name": "",
          "type": "address"
        }
      ],
      "payable": false,
      "stateMutability": "view",
      "type": "function"
    },
    {
      "constant": true,
      "inputs": [],
      "name": "paused",
      "outputs": [
        {
          "name": "",
          "type": "bool"
        }
      ],
      "payable": false,
      "stateMutability": "view",
      "type": "function"
    },
    {
      "constant": true,
      "inputs": [],
      "name": "STAKE_DURATION",
      "outputs": [
        {
          "name": "",
          "type": "uint256"
        }
      ],
      "payable": false,
      "stateMutability": "view",
      "type": "function"
    },
    {
      "constant": true,
      "inputs": [
        {
          "name": "",
          "type": "address"
        }
      ],
      "name": "arbiters",
      "outputs": [
        {
          "name": "",
          "type": "bool"
        }
      ],
      "payable": false,
      "stateMutability": "view",
      "type": "function"
    },
    {
      "constant": true,
      "inputs": [
        {
          "name": "",
          "type": "uint128"
        },
        {
          "name": "",
          "type": "address"
        }
      ],
      "name": "bountySettled",
      "outputs": [
        {
          "name": "",
          "type": "bool"
        }
      ],
      "payable": false,
      "stateMutability": "view",
      "type": "function"
    },
    {
      "constant": true,
      "inputs": [
        {
          "name": "",
          "type": "uint256"
        }
      ],
      "name": "bountyGuids",
      "outputs": [
        {
          "name": "",
          "type": "uint128"
        }
      ],
      "payable": false,
      "stateMutability": "view",
      "type": "function"
    },
    {
      "constant": false,
      "inputs": [],
      "name": "pause",
      "outputs": [],
      "payable": false,
      "stateMutability": "nonpayable",
      "type": "function"
    },
    {
      "constant": true,
      "inputs": [],
      "name": "owner",
      "outputs": [
        {
          "name": "",
          "type": "address"
        }
      ],
      "payable": false,
      "stateMutability": "view",
      "type": "function"
    },
    {
      "constant": true,
      "inputs": [
        {
          "name": "",
          "type": "uint256"
        },
        {
          "name": "",
          "type": "address"
        }
      ],
      "name": "arbiterVoteResgistryByGuid",
      "outputs": [
        {
          "name": "",
          "type": "bool"
        }
      ],
      "payable": false,
      "stateMutability": "view",
      "type": "function"
    },
    {
      "constant": true,
      "inputs": [],
      "name": "BOUNTY_FEE",
      "outputs": [
        {
          "name": "",
          "type": "uint256"
        }
      ],
      "payable": false,
      "stateMutability": "view",
      "type": "function"
    },
    {
      "constant": true,
      "inputs": [],
      "name": "BOUNTY_AMOUNT_MINIMUM",
      "outputs": [
        {
          "name": "",
          "type": "uint256"
        }
      ],
      "payable": false,
      "stateMutability": "view",
      "type": "function"
    },
    {
      "constant": true,
      "inputs": [],
      "name": "ARBITER_LOOKBACK_RANGE",
      "outputs": [
        {
          "name": "",
          "type": "uint256"
        }
      ],
      "payable": false,
      "stateMutability": "view",
      "type": "function"
    },
    {
      "constant": true,
      "inputs": [],
      "name": "ASSERTION_REVEAL_WINDOW",
      "outputs": [
        {
          "name": "",
          "type": "uint256"
        }
      ],
      "payable": false,
      "stateMutability": "view",
      "type": "function"
    },
    {
      "constant": true,
      "inputs": [
        {
          "name": "",
          "type": "uint128"
        },
        {
          "name": "",
          "type": "uint256"
        }
      ],
      "name": "assertionsByGuid",
      "outputs": [
        {
          "name": "author",
          "type": "address"
        },
        {
          "name": "bid",
          "type": "uint256"
        },
        {
          "name": "mask",
          "type": "uint256"
        },
        {
          "name": "commitment",
          "type": "uint256"
        },
        {
          "name": "nonce",
          "type": "uint256"
        },
        {
          "name": "verdicts",
          "type": "uint256"
        },
        {
          "name": "metadata",
          "type": "string"
        }
      ],
      "payable": false,
      "stateMutability": "view",
      "type": "function"
    },
    {
      "constant": true,
      "inputs": [
        {
          "name": "",
          "type": "uint128"
        }
      ],
      "name": "bountiesByGuid",
      "outputs": [
        {
          "name": "guid",
          "type": "uint128"
        },
        {
          "name": "author",
          "type": "address"
        },
        {
          "name": "amount",
          "type": "uint256"
        },
        {
          "name": "artifactURI",
          "type": "string"
        },
        {
          "name": "numArtifacts",
          "type": "uint256"
        },
        {
          "name": "expirationBlock",
          "type": "uint256"
        },
        {
          "name": "assignedArbiter",
          "type": "address"
        }
      ],
      "payable": false,
      "stateMutability": "view",
      "type": "function"
    },
    {
      "constant": true,
      "inputs": [],
      "name": "ASSERTION_FEE",
      "outputs": [
        {
          "name": "",
          "type": "uint256"
        }
      ],
      "payable": false,
      "stateMutability": "view",
      "type": "function"
    },
    {
      "constant": true,
      "inputs": [],
      "name": "ARBITER_VOTE_WINDOW",
      "outputs": [
        {
          "name": "",
          "type": "uint256"
        }
      ],
      "payable": false,
      "stateMutability": "view",
      "type": "function"
    },
    {
      "constant": true,
      "inputs": [],
      "name": "ASSERTION_BID_MINIMUM",
      "outputs": [
        {
          "name": "",
          "type": "uint256"
        }
      ],
      "payable": false,
      "stateMutability": "view",
      "type": "function"
    },
    {
      "constant": false,
      "inputs": [
        {
          "name": "newOwner",
          "type": "address"
        }
      ],
      "name": "transferOwnership",
      "outputs": [],
      "payable": false,
      "stateMutability": "nonpayable",
      "type": "function"
    },
    {
      "inputs": [
        {
          "name": "_token",
          "type": "address"
        }
      ],
      "payable": false,
      "stateMutability": "nonpayable",
      "type": "constructor"
    },
    {
      "anonymous": false,
      "inputs": [
        {
          "indexed": false,
          "name": "arbiter",
          "type": "address"
        },
        {
          "indexed": false,
          "name": "blockNumber",
          "type": "uint256"
        }
      ],
      "name": "AddedArbiter",
      "type": "event"
    },
    {
      "anonymous": false,
      "inputs": [
        {
          "indexed": false,
          "name": "arbiter",
          "type": "address"
        },
        {
          "indexed": false,
          "name": "blockNumber",
          "type": "uint256"
        }
      ],
      "name": "RemovedArbiter",
      "type": "event"
    },
    {
      "anonymous": false,
      "inputs": [
        {
          "indexed": false,
          "name": "guid",
          "type": "uint128"
        },
        {
          "indexed": false,
          "name": "author",
          "type": "address"
        },
        {
          "indexed": false,
          "name": "amount",
          "type": "uint256"
        },
        {
          "indexed": false,
          "name": "artifactURI",
          "type": "string"
        },
        {
          "indexed": false,
          "name": "expirationBlock",
          "type": "uint256"
        }
      ],
      "name": "NewBounty",
      "type": "event"
    },
    {
      "anonymous": false,
      "inputs": [
        {
          "indexed": false,
          "name": "bountyGuid",
          "type": "uint128"
        },
        {
          "indexed": false,
          "name": "author",
          "type": "address"
        },
        {
          "indexed": false,
          "name": "index",
          "type": "uint256"
        },
        {
          "indexed": false,
          "name": "bid",
          "type": "uint256"
        },
        {
          "indexed": false,
          "name": "mask",
          "type": "uint256"
        },
        {
          "indexed": false,
          "name": "commitment",
          "type": "uint256"
        }
      ],
      "name": "NewAssertion",
      "type": "event"
    },
    {
      "anonymous": false,
      "inputs": [
        {
          "indexed": false,
          "name": "bountyGuid",
          "type": "uint128"
        },
        {
          "indexed": false,
          "name": "author",
          "type": "address"
        },
        {
          "indexed": false,
          "name": "index",
          "type": "uint256"
        },
        {
          "indexed": false,
          "name": "nonce",
          "type": "uint256"
        },
        {
          "indexed": false,
          "name": "verdicts",
          "type": "uint256"
        },
        {
          "indexed": false,
          "name": "metadata",
          "type": "string"
        }
      ],
      "name": "RevealedAssertion",
      "type": "event"
    },
    {
      "anonymous": false,
      "inputs": [
        {
          "indexed": false,
          "name": "bountyGuid",
          "type": "uint128"
        },
        {
          "indexed": false,
          "name": "verdicts",
          "type": "uint256"
        }
      ],
      "name": "NewVerdict",
      "type": "event"
    },
    {
      "anonymous": false,
      "inputs": [],
      "name": "Pause",
      "type": "event"
    },
    {
      "anonymous": false,
      "inputs": [],
      "name": "Unpause",
      "type": "event"
    },
    {
      "anonymous": false,
      "inputs": [
        {
          "indexed": true,
          "name": "previousOwner",
          "type": "address"
        },
        {
          "indexed": true,
          "name": "newOwner",
          "type": "address"
        }
      ],
      "name": "OwnershipTransferred",
      "type": "event"
    },
    {
      "constant": true,
      "inputs": [
        {
          "name": "addr",
          "type": "address"
        }
      ],
      "name": "isArbiter",
      "outputs": [
        {
          "name": "",
          "type": "bool"
        }
      ],
      "payable": false,
      "stateMutability": "view",
      "type": "function"
    },
    {
      "constant": false,
      "inputs": [
        {
          "name": "newArbiter",
          "type": "address"
        },
        {
          "name": "blockNumber",
          "type": "uint256"
        }
      ],
      "name": "addArbiter",
      "outputs": [],
      "payable": false,
      "stateMutability": "nonpayable",
      "type": "function"
    },
    {
      "constant": false,
      "inputs": [
        {
          "name": "arbiter",
          "type": "address"
        },
        {
          "name": "blockNumber",
          "type": "uint256"
        }
      ],
      "name": "removeArbiter",
      "outputs": [],
      "payable": false,
      "stateMutability": "nonpayable",
      "type": "function"
    },
    {
      "constant": false,
      "inputs": [
        {
          "name": "guid",
          "type": "uint128"
        },
        {
          "name": "amount",
          "type": "uint256"
        },
        {
          "name": "artifactURI",
          "type": "string"
        },
        {
          "name": "numArtifacts",
          "type": "uint256"
        },
        {
          "name": "durationBlocks",
          "type": "uint256"
        },
        {
          "name": "bloom",
          "type": "uint256[8]"
        }
      ],
      "name": "postBounty",
      "outputs": [],
      "payable": false,
      "stateMutability": "nonpayable",
      "type": "function"
    },
    {
      "constant": false,
      "inputs": [
        {
          "name": "bountyGuid",
          "type": "uint128"
        },
        {
          "name": "bid",
          "type": "uint256"
        },
        {
          "name": "mask",
          "type": "uint256"
        },
        {
          "name": "commitment",
          "type": "uint256"
        }
      ],
      "name": "postAssertion",
      "outputs": [],
      "payable": false,
      "stateMutability": "nonpayable",
      "type": "function"
    },
    {
      "constant": false,
      "inputs": [
        {
          "name": "bountyGuid",
          "type": "uint128"
        },
        {
          "name": "verdicts",
          "type": "uint256"
        },
        {
          "name": "validBloom",
          "type": "bool"
        }
      ],
      "name": "voteOnBounty",
      "outputs": [],
      "payable": false,
      "stateMutability": "nonpayable",
      "type": "function"
    },
    {
      "constant": false,
      "inputs": [
        {
          "name": "bountyGuid",
          "type": "uint128"
        },
        {
          "name": "assertionId",
          "type": "uint256"
        },
        {
          "name": "nonce",
          "type": "uint256"
        },
        {
          "name": "verdicts",
          "type": "uint256"
        },
        {
          "name": "metadata",
          "type": "string"
        }
      ],
      "name": "revealAssertion",
      "outputs": [],
      "payable": false,
      "stateMutability": "nonpayable",
      "type": "function"
    },
    {
      "constant": true,
      "inputs": [
        {
          "name": "bountyGuid",
          "type": "uint128"
        }
      ],
      "name": "calculateBountyRewards",
      "outputs": [
        {
          "name": "bountyRefund",
          "type": "uint256"
        },
        {
          "name": "arbiterReward",
          "type": "uint256"
        },
        {
          "name": "expertRewards",
          "type": "uint256[]"
        }
      ],
      "payable": false,
      "stateMutability": "view",
      "type": "function"
    },
    {
      "constant": false,
      "inputs": [
        {
          "name": "bountyGuid",
          "type": "uint128"
        }
      ],
      "name": "settleBounty",
      "outputs": [],
      "payable": false,
      "stateMutability": "nonpayable",
      "type": "function"
    },
    {
      "constant": true,
      "inputs": [
        {
          "name": "bountyGuid",
          "type": "uint128"
        }
      ],
      "name": "getWeightedRandomArbiter",
      "outputs": [
        {
          "name": "voter",
          "type": "address"
        }
      ],
      "payable": false,
      "stateMutability": "view",
      "type": "function"
    },
    {
      "constant": true,
      "inputs": [],
      "name": "getNumberOfBounties",
      "outputs": [
        {
          "name": "",
          "type": "uint256"
        }
      ],
      "payable": false,
      "stateMutability": "view",
      "type": "function"
    },
    {
      "constant": true,
      "inputs": [
        {
          "name": "bountyGuid",
          "type": "uint128"
        }
      ],
      "name": "getNumberOfAssertions",
      "outputs": [
        {
          "name": "",
          "type": "uint256"
        }
      ],
      "payable": false,
      "stateMutability": "view",
      "type": "function"
    },
    {
      "constant": true,
      "inputs": [
        {
          "name": "bountyGuid",
          "type": "uint128"
        }
      ],
      "name": "getVerdictCount",
      "outputs": [
        {
          "name": "",
          "type": "uint256"
        }
      ],
      "payable": false,
      "stateMutability": "view",
      "type": "function"
    },
    {
      "constant": true,
      "inputs": [
        {
          "name": "bountyGuid",
          "type": "uint128"
        }
      ],
      "name": "getVoters",
      "outputs": [
        {
          "name": "",
          "type": "address[]"
        }
      ],
      "payable": false,
      "stateMutability": "view",
      "type": "function"
    },
    {
      "constant": true,
      "inputs": [],
      "name": "getArbiterCandidates",
      "outputs": [
        {
          "name": "",
          "type": "address[]"
        }
      ],
      "payable": false,
      "stateMutability": "view",
      "type": "function"
    }
  ],
  "bytecode": "0x60806040526000805460a060020a60ff02191690553480156200002157600080fd5b50604051602080620048aa83398101604052516000805433600160a060020a0319918216811790911617905580620ab3956200005c620000c4565b600160a060020a0390921682526020820152604080519182900301906000f0801580156200008e573d6000803e3d6000fd5b5060018054600160a060020a03928316600160a060020a03199182161790915560028054939092169216919091179055620000d5565b604051611151806200375983390190565b61367480620000e56000396000f3006080604052600436106101a85763ffffffff60e060020a600035041663029e2c7681146101ad57806327028aae146101e0578063296b11b21461020b578063357d0173146102485780633716a67f1461026c5780633f4ba83a146102875780634cf088d91461029c5780634ee29ec5146102b15780635592d687146102d25780635c975abb146102f35780636afb630a1461031c5780637435039d146103315780637bf2bb10146103b45780637e5251c6146103d5578063844b6dfc146104025780638456cb591461043657806384e192a71461044b5780638836f3ef146104b05780638da5cb5b146104c5578063965323db146104da5780639b1cdad4146104fe5780639b3544f614610537578063b5eabb1e14610561578063b769ccbf14610561578063ba6a7efb14610576578063cd997ef51461058b578063d2f1f712146105a0578063d3b92243146105c1578063d4c4e7a914610699578063d63b5a9414610561578063dadca7111461058b578063e6530b9714610750578063eceb122414610561578063f2fde38b14610774578063f5bbc6d514610795578063f8f32de6146107b6575b600080fd5b3480156101b957600080fd5b506101ce6001608060020a03600435166107ef565b60408051918252519081900360200190f35b3480156101ec57600080fd5b506102096001608060020a0360043516602435604435151561083e565b005b34801561021757600080fd5b5061022c6001608060020a0360043516610a7d565b60408051600160a060020a039092168252519081900360200190f35b34801561025457600080fd5b50610209600160a060020a0360043516602435610f0f565b34801561027857600080fd5b506101ce600435602435610f9b565b34801561029357600080fd5b50610209610fb8565b3480156102a857600080fd5b5061022c61102e565b3480156102bd57600080fd5b506101ce6001608060020a036004351661103d565b3480156102de57600080fd5b506102096001608060020a0360043516611089565b3480156102ff57600080fd5b5061030861133b565b604080519115158252519081900360200190f35b34801561032857600080fd5b506101ce61134b565b34801561033d57600080fd5b506103526001608060020a0360043516611352565b6040518084815260200183815260200180602001828103825283818151815260200191508051906020019060200280838360005b8381101561039e578181015183820152602001610386565b5050505090500194505050505060405180910390f35b3480156103c057600080fd5b50610308600160a060020a0360043516611f1e565b3480156103e157600080fd5b506103086001608060020a0360043516600160a060020a0360243516611f33565b34801561040e57600080fd5b5061041a600435611f53565b604080516001608060020a039092168252519081900360200190f35b34801561044257600080fd5b50610209611f8e565b34801561045757600080fd5b50610460612009565b60408051602080825283518183015283519192839290830191858101910280838360005b8381101561049c578181015183820152602001610484565b505050509050019250505060405180910390f35b3480156104bc57600080fd5b506101ce61235d565b3480156104d157600080fd5b5061022c612364565b3480156104e657600080fd5b50610308600435600160a060020a0360243516612373565b34801561050a57600080fd5b50610209600480356001608060020a031690602480359160443591820191013560643560843560a4612393565b34801561054357600080fd5b506102096001608060020a036004351660243560443560643561267b565b34801561056d57600080fd5b506101ce6128e2565b34801561058257600080fd5b506101ce6128ed565b34801561059757600080fd5b506101ce6128f2565b3480156105ac57600080fd5b506104606001608060020a03600435166128f7565b3480156105cd57600080fd5b506105e56001608060020a03600435166024356129fd565b6040518088600160a060020a0316600160a060020a0316815260200187815260200186815260200185815260200184815260200183815260200180602001828103825283818151815260200191508051906020019080838360005b83811015610658578181015183820152602001610640565b50505050905090810190601f1680156106855780820380516001836020036101000a031916815260200191505b509850505050505050505060405180910390f35b3480156106a557600080fd5b506106ba6001608060020a0360043516612af1565b60405180886001608060020a03166001608060020a0316815260200187600160a060020a0316600160a060020a031681526020018681526020018060200185815260200184815260200183600160a060020a0316600160a060020a031681526020018281038252868181518152602001915080519060200190808383600083811015610658578181015183820152602001610640565b34801561075c57600080fd5b50610209600160a060020a0360043516602435612bd6565b34801561078057600080fd5b50610209600160a060020a0360043516612ca0565b3480156107a157600080fd5b50610308600160a060020a0360043516612d34565b3480156107c257600080fd5b50610209600480356001608060020a03169060248035916044359160643591608435918201910135612df2565b6001608060020a038116600090815260046020526040812060010154600160a060020a0316151561081f57600080fd5b506001608060020a031660009081526004602052604090206010015490565b600061084933612d34565b151561085457600080fd5b60005460a060020a900460ff161561086b57600080fd5b506001608060020a03831660009081526004602052604090206001810154600160a060020a0316151561089d57600080fd5b60058101544310156108ae57600080fd5b600581015443906108c690601963ffffffff61317416565b116108d057600080fd5b6001608060020a038416600090815260086020908152604080832033845290915290205460ff161561090157600080fd5b6010810180546001818101835560009283526020808420909201869055600f84018054808301825590845282842001805473ffffffffffffffffffffffffffffffffffffffff19163390811790915560118501805480840182559085528385209381049093018054871515601f9095166101000a94850260ff90950219169390931790925554604080517f293f9f4f00000000000000000000000000000000000000000000000000000000815260048101939093526001608060020a038816602484015243604484015251600160a060020a03919091169263293f9f4f926064808201939182900301818387803b1580156109fb57600080fd5b505af1158015610a0f573d6000803e3d6000fd5b5050506001608060020a0385166000818152600860209081526040808320338452825291829020805460ff191660011790558151928352820186905280517f0da46f8053a8890362a6e1af70e9cbef0e3ca7881d1da3520df4e358727d49c09350918290030190a150505050565b6000610a876133f2565b6001608060020a03831660009081526004602052604081206001015481908190600160a060020a03161515610abb57600080fd5b6001608060020a0386811660009081526004602090815260409182902082516101608101845281549094168452600180820154600160a060020a0316858401526002808301548686015260038301805486516101009482161594909402600019011691909104601f810185900485028301850190955284825291936060860193919291830182828015610b8f5780601f10610b6457610100808354040283529160200191610b8f565b820191906000526020600020905b815481529060010190602001808311610b7257829003601f168201915b50505091835250506004820154602082015260058201546040808301919091526006830154600160a060020a03166060830152805161010081019182905260809092019190600784019060089082845b815481526020019060010190808311610bdf5750505050508152602001600f8201805480602002602001604051908101604052809291908181526020018280548015610c5457602002820191906000526020600020905b8154600160a060020a03168152600190910190602001808311610c36575b5050505050815260200160108201805480602002602001604051908101604052809291908181526020018280548015610cac57602002820191906000526020600020905b815481526020019060010190808311610c98575b5050505050815260200160118201805480602002602001604051908101604052809291908181526020018280548015610d2457602002820191906000526020600020906000905b825461010083900a900460ff161515815260206001928301818104948501949093039092029101808411610cf35790505b5050505050815250509350600092505b83610100015151831015610e06576001546101008501518051610df992600160a060020a0316916370a082319187908110610d6b57fe5b906020019060200201516040518263ffffffff1660e060020a0281526004018082600160a060020a0316600160a060020a03168152602001915050602060405180830381600087803b158015610dc057600080fd5b505af1158015610dd4573d6000803e3d6000fd5b505050506040513d6020811015610dea57600080fd5b5051839063ffffffff61317416565b6001909301929150610d34565b610e10438361318e565b9050600092505b83610100015151831015610f06576001546101008501518051600160a060020a03909216916370a08231919086908110610e4d57fe5b906020019060200201516040518263ffffffff1660e060020a0281526004018082600160a060020a0316600160a060020a03168152602001915050602060405180830381600087803b158015610ea257600080fd5b505af1158015610eb6573d6000803e3d6000fd5b505050506040513d6020811015610ecc57600080fd5b5051900360008113610efb57610100840151805184908110610eea57fe5b906020019060200201519450610f06565b600190920191610e17565b50505050919050565b60005460a060020a900460ff1615610f2657600080fd5b600054600160a060020a03163314610f3d57600080fd5b600160a060020a038216600081815260066020908152604091829020805460ff191690558151928352820183905280517f2275ed1cb066a3256995ce7db4914f0ceb8bc5755f46bdf6ee82c3cbbcb7c1719281900390910190a15050565b600760209081526000928352604080842090915290825290205481565b600054600160a060020a03163314610fcf57600080fd5b60005460a060020a900460ff161515610fe757600080fd5b6000805474ff0000000000000000000000000000000000000000191681556040517f7805862f689e2f13df9f062ff482ad3ad112aca9e0847911ed832e158c525b339190a1565b600154600160a060020a031681565b6001608060020a038116600090815260046020526040812060010154600160a060020a0316151561106d57600080fd5b506001608060020a031660009081526005602052604090205490565b600080600080606060008060149054906101000a900460ff161515156110ae57600080fd5b6001608060020a0387166000908152600460209081526040808320600590925290912060018201549197509550600160a060020a031615156110ef57600080fd5b6001608060020a038716600090815260096020908152604080832033845290915290205460ff161561112057600080fd5b4361114a601961113e60198a6005015461317490919063ffffffff16565b9063ffffffff61317416565b111561115557600080fd5b6006860154600160a060020a031615156111a25761117287610a7d565b60068701805473ffffffffffffffffffffffffffffffffffffffff1916600160a060020a03929092169190911790555b6111ab87611352565b6001608060020a038a1660009081526009602090815260408083203384529091529020805460ff191660011790559195509350915083158015906111fb57506001860154600160a060020a031633145b1561122557600186015460025461122591600160a060020a0391821691168663ffffffff61322916565b5060005b84548110156112ed57818181518110151561124057fe5b9060200190602002015160001415801561128157508454339086908390811061126557fe5b6000918252602090912060079091020154600160a060020a0316145b156112e5576112e5858281548110151561129757fe5b60009182526020909120600790910201548351600160a060020a03909116908490849081106112c257fe5b60209081029091010151600254600160a060020a0316919063ffffffff61322916565b600101611229565b821580159061130857506006860154600160a060020a031633145b1561133257600686015460025461133291600160a060020a0391821691168563ffffffff61322916565b50505050505050565b60005460a060020a900460ff1681565b620ab39581565b600080606061135f6133f2565b6060600080600061136e61346e565b6001608060020a038a8116600090815260046020908152604080832081516101608101835281549095168552600180820154600160a060020a0316868501526002808301548785015260038301805485516101009482161594909402600019011691909104601f810186900486028301860190945283825294958695869591946060860193928301828280156114455780601f1061141a57610100808354040283529160200191611445565b820191906000526020600020905b81548152906001019060200180831161142857829003601f168201915b50505091835250506004820154602082015260058201546040808301919091526006830154600160a060020a03166060830152805161010081019182905260809092019190600784019060089082845b8154815260200190600101908083116114955750505050508152602001600f820180548060200260200160405190810160405280929190818152602001828054801561150a57602002820191906000526020600020905b8154600160a060020a031681526001909101906020018083116114ec575b505050505081526020016010820180548060200260200160405190810160405280929190818152602001828054801561156257602002820191906000526020600020905b81548152602001906001019080831161154e575b50505050508152602001601182018054806020026020016040519081016040528092919081815260200182805480156115da57602002820191906000526020600020906000905b825461010083900a900460ff1615158152602060019283018181049485019490930390920291018084116115a95790505b5050505050815250509850600560008e6001608060020a03166001608060020a03168152602001908152602001600020805480602002602001604051908101604052809291908181526020016000905b828210156117335760008481526020908190206040805160e081018252600786029092018054600160a060020a0316835260018082015484860152600280830154858501526003830154606086015260048301546080860152600583015460a086015260068301805485516101009482161594909402600019011691909104601f81018790048702830187019094528382529394919360c0860193919290919083018282801561171b5780601f106116f05761010080835404028352916020019161171b565b820191906000526020600020905b8154815290600101906020018083116116fe57829003601f168201915b5050505050815250508152602001906001019061162a565b50505060208b015191995050600160a060020a0316151561175357600080fd5b6001608060020a038d16600090815260096020908152604080832033845290915290205460ff161561178457600080fd5b436117a2601961113e60198d60a0015161317490919063ffffffff16565b11156117ad57600080fd5b87516040519080825280602002602001820160405280156117d8578160200160208202803883390190505b50995060009650600095508751600014156118265761181f896080015161181366de0b6b3a7640008c6040015161317490919063ffffffff16565b9063ffffffff6132c516565b9b50611dcb565b6101208901515115156118ed57600095505b87518610156118e857611884888781518110151561185257fe5b90602001906020020151602001518b8881518110151561186e57fe5b602090810290910101519063ffffffff61317416565b8a8781518110151561189257fe5b60209081029091010152875160408a01516118c5916118b7919063ffffffff6132f016565b8b8881518110151561186e57fe5b8a878151811015156118d357fe5b60209081029091010152600190950194611838565b611dcb565b600096505b8860800151871015611dcb5760009450600095505b8861012001515186101561195d576101208901518051600289900a91908890811061192e57fe5b6020908102909101015116156119525761194f85600163ffffffff61317416565b94505b600190950194611907565b610120890151516119859061197987600363ffffffff6132c516565b9063ffffffff6132f016565b94508460011415611a0a57600095505b8751861015611a05576119af888781518110151561185257fe5b8a878151811015156119bd57fe5b60209081029091010152875160408a01516119e2916118b7919063ffffffff6132f016565b8a878151811015156119f057fe5b60209081029091010152600190950194611995565b611dc0565b6000955084151592505b8751861015611b6c578786815181101515611a2b57fe5b906020019060200201516080015160001480611a6957508751600288900a90899088908110611a5657fe5b9060200190602002015160400151166000145b15611a7357611b61565b8751600288900a90899088908110611a8757fe5b90602001906020020151604001518988815181101515611aa357fe5b6020908102909101015160a00151161615159150821515821415611b10578351611ad490600163ffffffff61317416565b84528751611b0690899088908110611ae857fe5b6020908102909101810151015160408601519063ffffffff61317416565b6040850152611b61565b6020840151611b2690600163ffffffff61317416565b60208501528751611b5b90899088908110611b3d57fe5b6020908102909101810151015160608601519063ffffffff61317416565b60608501525b600190950194611a14565b8351158015611b7d57506020840151155b15611be857611ba466de0b6b3a76400061113e8b604001518f61317490919063ffffffff16565b9b50600095505b8751861015611a0557611bc5888781518110151561185257fe5b8a87815181101515611bd357fe5b60209081029091010152600190950194611bab565b600095505b8751861015611dc057611c07888781518110151561185257fe5b8a87815181101515611c1557fe5b602090810290910101528751889087908110611c2d57fe5b906020019060200201516080015160001480611c6b57508751600288900a90899088908110611c5857fe5b9060200190602002015160400151166000145b15611c7557611db5565b8751600288900a90899088908110611c8957fe5b90602001906020020151604001518988815181101515611ca557fe5b6020908102909101015160a00151161615159150821515821415611d5957611cfd6118b7856040015161197987606001518c8b815181101515611ce457fe5b602090810290910181015101519063ffffffff6132c516565b8a87815181101515611d0b57fe5b602090810290910101526040808501516060860151918b0151611d3c926118b792916119799163ffffffff6132c516565b8a87815181101515611d4a57fe5b60209081029091010152611db5565b611d9c8887815181101515611d6a57fe5b90602001906020020151602001518b88815181101515611d8657fe5b602090810290910101519063ffffffff61330716565b8a87815181101515611daa57fe5b602090810290910101525b600190950194611bed565b6001909601956118f2565b611e11611e00611dec8a5166de0b6b3a7640006132c590919063ffffffff16565b66de0b6b3a7640009063ffffffff61317416565b60408b01519063ffffffff61317416565b9050600096505b8751871015611e5957611e4c8888815181101515611e3257fe5b60209081029091018101510151829063ffffffff61317416565b6001909701969050611e18565b6080890151611e6f908d9063ffffffff6132f016565b9b50611e81818d63ffffffff61330716565b9050600096505b8751871015611f0b57611ebd89608001518b89815181101515611ea757fe5b602090810290910101519063ffffffff6132f016565b8a88815181101515611ecb57fe5b602090810290910101528951611efe908b9089908110611ee757fe5b60209081029091010151829063ffffffff61330716565b6001909701969050611e88565b809a505050505050505050509193909250565b60066020526000908152604090205460ff1681565b600960209081526000928352604080842090915290825290205460ff1681565b6003805482908110611f6157fe5b9060005260206000209060029182820401919006601002915054906101000a90046001608060020a031681565b600054600160a060020a03163314611fa557600080fd5b60005460a060020a900460ff1615611fbc57600080fd5b6000805474ff0000000000000000000000000000000000000000191660a060020a1781556040517f6985a02210a168e66602d3235cb6db0e70f92b3ba4d376a33c0f3d9434bff6259190a1565b60606000606060008060008060006060600080600060038054905011151561203057600080fd5b604080516064808252610ca0820190925260009b5090816020015b612053613497565b81526020019060019003908161204b575050600354909950600098506064101561208e5760035461208b90606463ffffffff61330716565b97505b60035496505b878711156121f9576004600060036120b38a600163ffffffff61330716565b815481106120bd57fe5b6000918252602080832060028304015460019283166010026101000a90046001608060020a031684528301939093526040909101812090910154600160a060020a0316965094508493505b8984101561219d5785600160a060020a0316898581518110151561212857fe5b6020908102909101015151600160a060020a031614156121925761216e60018a8681518110151561215557fe5b602090810290910181015101519063ffffffff61317416565b898581518110151561217c57fe5b602090810290910181015101526001945061219d565b600190930192612108565b8415156121ed5760408051808201909152600160a060020a03871681526001602082015289518a908c9081106121cf57fe5b602090810290910101526121ea8a600163ffffffff61317416565b99505b60001990960195612094565b89604051908082528060200260200182016040528015612223578160200160208202803883390190505b509250600096505b825187101561234e576000915088600081518110151561224757fe5b90602001906020020151602001519050600093505b898410156122b45780898581518110151561227357fe5b906020019060200201516020015111156122a957839150888481518110151561229857fe5b906020019060200201516020015190505b60019093019261225c565b88828151811015156122c257fe5b602090810290910101515183518490899081106122db57fe5b600160a060020a03909216602092830290910190910152886123048b600163ffffffff61330716565b8151811061230e57fe5b90602001906020020151898381518110151561232657fe5b602090810290910101526123418a600163ffffffff61330716565b995060019096019561222b565b50909998505050505050505050565b6003545b90565b600054600160a060020a031681565b600860209081526000928352604080842090915290825290205460ff1681565b60005460a060020a900460ff16156123aa57600080fd5b6001608060020a038716600090815260046020526040902060010154600160a060020a0316156123d957600080fd5b66de0b6b3a7640008610156123ed57600080fd5b600084116123fa57600080fd5b61010083111561240957600080fd5b6000821161241657600080fd5b61244c33306124328966de0b6b3a76400063ffffffff61317416565b600254600160a060020a031692919063ffffffff61331916565b6001608060020a038716600081815260046020526040902080546fffffffffffffffffffffffffffffffff1916909117815560018101805473ffffffffffffffffffffffffffffffffffffffff191633179055600281018790556124b49060030186866134ae565b506001608060020a0387166000908152600460208190526040909120018390556124e4824363ffffffff61317416565b6001608060020a038816600090815260046020526040902060058101919091556125139060070182600861352c565b5060038054600180820183557fc2575a0e9e593c00f959f8c92f12db2869c3395a3b0502d05e2516446f71f85b600280840491909101805493831660100261010090810a6001608060020a03818102199096168e871691820217909255600091825260046020908152604092839020805481870154828701546005840154875193909a16808452600160a060020a039092169483018590529582018690526080820189905260a06060830181815293909a0180546000199981161590960298909801909416959095049785018890527f1836d68e5bbde3ba859b17bd89128c486fd2c707b6791706b6efa78219d8506297929691959394919260c0830190859080156126605780601f1061263557610100808354040283529160200191612660565b820191906000526020600020905b81548152906001019060200180831161264357829003601f168201915b5050965050505050505060405180910390a150505050505050565b612683613559565b6000805460a060020a900460ff161561269b57600080fd5b6001608060020a038616600090815260046020526040902060010154600160a060020a031615156126cb57600080fd5b66de0b6b3a7640008510156126df57600080fd5b6001608060020a038616600090815260046020526040902060050154431061270657600080fd5b61272233306124328866de0b6b3a76400063ffffffff61317416565b60e06040519081016040528033600160a060020a03168152602001868152602001858152602001848152602001600081526020016000815260200160206040519081016040528060008152508152509150600160056000886001608060020a03166001608060020a03168152602001908152602001600020839080600181540180825580915050906001820390600052602060002090600702016000909192909190915060008201518160000160006101000a815481600160a060020a030219169083600160a060020a031602179055506020820151816001015560408201518160020155606082015181600301556080820151816004015560a0820151816005015560c08201518160060190805190602001906128419291906135a0565b5050500390507f87d8c6d83a7138246d2626d8da2d59cec2723600e57dc71375e9ce09040ed2328683600001518385602001518660400151876060015160405180876001608060020a03166001608060020a0316815260200186600160a060020a0316600160a060020a03168152602001858152602001848152602001838152602001828152602001965050505050505060405180910390a1505050505050565b66de0b6b3a76400081565b606481565b601981565b6001608060020a0381166000908152600460205260408120600101546060919082908290600160a060020a0316151561292f57600080fd5b6001608060020a038516600090815260046020908152604091829020600f015482518181528183028101909201909252909350838015612979578160200160208202803883390190505b509150600090505b828110156129f5576001608060020a0385166000908152600460205260409020600f018054829081106129b057fe5b6000918252602090912001548251600160a060020a03909116908390839081106129d657fe5b600160a060020a03909216602092830290910190910152600101612981565b509392505050565b600560205281600052604060002081815481101515612a1857fe5b6000918252602091829020600790910201805460018083015460028085015460038601546004870154600588015460068901805460408051601f6000199b841615610100029b909b01909216979097049889018c90048c0281018c01909652878652600160a060020a039098169b50949950919790969195939491939190830182828015612ae75780601f10612abc57610100808354040283529160200191612ae7565b820191906000526020600020905b815481529060010190602001808311612aca57829003601f168201915b5050505050905087565b600460209081526000918252604091829020805460018083015460028085015460038601805489516101009682161596909602600019011692909204601f81018890048802850188019098528784526001608060020a0390941696600160a060020a0390921695939493909190830182828015612baf5780601f10612b8457610100808354040283529160200191612baf565b820191906000526020600020905b815481529060010190602001808311612b9257829003601f168201915b505050506004830154600584015460069094015492939092909150600160a060020a031687565b60005460a060020a900460ff1615612bed57600080fd5b600054600160a060020a03163314612c0457600080fd5b600160a060020a0382161515612c1957600080fd5b600160a060020a03821660009081526006602052604090205460ff1615612c3f57600080fd5b600160a060020a038216600081815260066020908152604091829020805460ff191660011790558151928352820183905280517f122303412d79144158fc7741863e5d579e967de70422912a7da11fda0865744d9281900390910190a15050565b600054600160a060020a03163314612cb757600080fd5b600160a060020a0381161515612ccc57600080fd5b60008054604051600160a060020a03808516939216917f8be0079c531659141344cd1fd0a4f28419497f9722a3daafe3b4186f6b6457e091a36000805473ffffffffffffffffffffffffffffffffffffffff1916600160a060020a0392909216919091179055565b600160a060020a03811660009081526006602052604081205460ff168015612dec5750600154604080517f66e305fd000000000000000000000000000000000000000000000000000000008152600160a060020a038581166004830152915191909216916366e305fd9160248083019260209291908290030181600087803b158015612dbf57600080fd5b505af1158015612dd3573d6000803e3d6000fd5b505050506040513d6020811015612de957600080fd5b50515b92915050565b600080548190819060a060020a900460ff1615612e0e57600080fd5b6001608060020a038916600090815260046020526040902060010154600160a060020a03161515612e3e57600080fd5b6001608060020a0389166000908152600460205260409020600501544390612e6d90601963ffffffff61317416565b1115612e7857600080fd5b6001608060020a0389166000908152600460205260409020600501544390612ead9060199061113e908263ffffffff61317416565b11612eb757600080fd5b861515612ec357600080fd5b6001608060020a0389166000908152600560205260409020548810612ee757600080fd5b6001608060020a0389166000908152600560205260409020805489908110612f0b57fe5b600091825260209091206007909102018054909350600160a060020a03163314612f3457600080fd5b600483015415612f4357600080fd5b612f4c876133c7565b6040518082805190602001908083835b60208310612f7b5780518252601f199092019160209182019101612f5c565b5181516020939093036101000a600019018019909116921691909117905260405192018290039091209450612fb5925050508683186133c7565b6040518082805190602001908083835b60208310612fe45780518252601f199092019160209182019101612fc5565b5181516020939093036101000a6000190180199091169216919091179052604051920182900390912060038701549094508414925061302591505057600080fd5b60048301879055600583018690556130416006840186866134ae565b507f2420d5b45b3c5aaacfc208e4730bc2af64eae4813442bfbec670d375ac085312898460000160009054906101000a9004600160a060020a03168a866004015487600501548860060160405180876001608060020a03166001608060020a0316815260200186600160a060020a0316600160a060020a03168152602001858152602001848152602001838152602001806020018281038252838181546001816001161561010002031660029004815260200191508054600181600116156101000203166002900480156131565780601f1061312b57610100808354040283529160200191613156565b820191906000526020600020905b81548152906001019060200180831161313957829003601f168201915b505097505050505050505060405180910390a1505050505050505050565b60008282018381101561318357fe5b8091505b5092915050565b604080516000194301406020808301919091528183018590528251808303840181526060909201928390528151600093859392909182918401908083835b602083106131eb5780518252601f1990920191602091820191016131cc565b5181516020939093036101000a600019018019909116921691909117905260405192018290039091209250505081151561322157fe5b069392505050565b82600160a060020a031663a9059cbb83836040518363ffffffff1660e060020a0281526004018083600160a060020a0316600160a060020a0316815260200182815260200192505050602060405180830381600087803b15801561328c57600080fd5b505af11580156132a0573d6000803e3d6000fd5b505050506040513d60208110156132b657600080fd5b505115156132c057fe5b505050565b6000808315156132d85760009150613187565b508282028284828115156132e857fe5b041461318357fe5b60008082848115156132fe57fe5b04949350505050565b60008282111561331357fe5b50900390565b604080517f23b872dd000000000000000000000000000000000000000000000000000000008152600160a060020a0385811660048301528481166024830152604482018490529151918616916323b872dd916064808201926020929091908290030181600087803b15801561338d57600080fd5b505af11580156133a1573d6000803e3d6000fd5b505050506040513d60208110156133b757600080fd5b505115156133c157fe5b50505050565b6040805160208082528183019092526060918082016104008038833950505060208101929092525090565b6102406040519081016040528060006001608060020a031681526020016000600160a060020a03168152602001600081526020016060815260200160008152602001600081526020016000600160a060020a0316815260200161345361360e565b81526020016060815260200160608152602001606081525090565b608060405190810160405280600081526020016000815260200160008152602001600081525090565b604080518082019091526000808252602082015290565b828054600181600116156101000203166002900490600052602060002090601f016020900481019282601f106134ef5782800160ff1982351617855561351c565b8280016001018555821561351c579182015b8281111561351c578235825591602001919060010190613501565b5061352892915061362e565b5090565b826008810192821561351c579160200282018281111561351c578235825591602001919060010190613501565b60e0604051908101604052806000600160a060020a031681526020016000815260200160008152602001600081526020016000815260200160008152602001606081525090565b828054600181600116156101000203166002900490600052602060002090601f016020900481019282601f106135e157805160ff191683800117855561351c565b8280016001018555821561351c579182015b8281111561351c5782518255916020019190600101906135f3565b610100604051908101604052806008906020820280388339509192915050565b61236191905b8082111561352857600081556001016136345600a165627a7a72305820cb4b35dc5a1f0055005d6388d46f7c305e6f4b5d1a05388bb889c90ff3cd5010002960806040526000805460a060020a60ff021916905534801561002057600080fd5b5060405160408061115183398101604052805160209091015160008054600160a060020a0319908116331790915560078054600160a060020a0390941693909116929092179091556006556110d78061007a6000396000f3006080604052600436106101325763ffffffff7c010000000000000000000000000000000000000000000000000000000060003504166308dbbb038114610137578063293f9f4f1461015e5780632e1a7d4d1461019957806337b3af14146101b15780633aa6c4f9146101d25780633f4ba83a146101f357806340f02ab61461020857806342feba841461021d5780635c975abb1461025757806366e305fd1461028057806369bccfae146102a157806370a08231146102d75780637fc3a926146102f85780638456cb5914610323578063873b4f861461033857806388db0f521461034d5780638da5cb5b146103625780638f4ffcb114610393578063b6b55f2514610403578063d693d2071461041b578063d6d6817714610430578063d942a54014610454578063f2fde38b1461047e575b600080fd5b34801561014357600080fd5b5061014c61049f565b60408051918252519081900360200190f35b34801561016a57600080fd5b50610197600160a060020a03600435166fffffffffffffffffffffffffffffffff602435166044356104ae565b005b3480156101a557600080fd5b50610197600435610657565b3480156101bd57600080fd5b5061014c600160a060020a0360043516610932565b3480156101de57600080fd5b5061014c600160a060020a0360043516610944565b3480156101ff57600080fd5b50610197610a03565b34801561021457600080fd5b5061014c610a79565b34801561022957600080fd5b5061023e600160a060020a0360043516610a7f565b6040805192835260208301919091528051918290030190f35b34801561026357600080fd5b5061026c610a9e565b604080519115158252519081900360200190f35b34801561028c57600080fd5b5061026c600160a060020a0360043516610aae565b3480156102ad57600080fd5b5061026c6fffffffffffffffffffffffffffffffff60043516600160a060020a0360243516610b17565b3480156102e357600080fd5b5061014c600160a060020a0360043516610b37565b34801561030457600080fd5b5061030d610ba1565b6040805160ff9092168252519081900360200190f35b34801561032f57600080fd5b50610197610ba6565b34801561034457600080fd5b5061030d610c21565b34801561035957600080fd5b5061014c610c26565b34801561036e57600080fd5b50610377610c2c565b60408051600160a060020a039092168252519081900360200190f35b34801561039f57600080fd5b50604080516020601f60643560048181013592830184900484028501840190955281845261026c94600160a060020a03813581169560248035966044359093169536956084949201918190840183828082843750949750610c3b9650505050505050565b34801561040f57600080fd5b50610197600435610d53565b34801561042757600080fd5b5061014c610da1565b34801561043c57600080fd5b5061023e600160a060020a0360043516602435610db0565b34801561046057600080fd5b5061026c6fffffffffffffffffffffffffffffffff60043516610deb565b34801561048a57600080fd5b50610197600160a060020a0360043516610e00565b6a084595161401484a00000081565b600054600160a060020a031633146104c557600080fd5b600160a060020a03831615156104da57600080fd5b8015156104e657600080fd5b6fffffffffffffffffffffffffffffffff821660009081526003602052604090205460ff16151561059e576fffffffffffffffffffffffffffffffff82166000908152600360205260409020805460ff191660019081179091556002546105529163ffffffff610e9416565b6002556040805182815290516fffffffffffffffffffffffffffffffff8416917f60e537378a858275d327faec296210d964fe5e1de58709907e8b6864a0ddd7f3919081900360200190a25b6fffffffffffffffffffffffffffffffff82166000908152600560209081526040808320600160a060020a038716845290915290205460ff161515610652576fffffffffffffffffffffffffffffffff82166000908152600560209081526040808320600160a060020a03871684528252808320805460ff191660019081179091556004909252909120546106389163ffffffff610e9416565b600160a060020a0384166000908152600460205260409020555b505050565b60008054819081908190819060a060020a900460ff161561067757600080fd5b60065486955061068e90439063ffffffff610eae16565b3360008181526001602052604090209195509093506106ac90610944565b8611156106b857600080fd5b600091505b82548210156107e9578383838154811015156106d557fe5b6000918252602090912060029091020154116107d9578483838154811015156106fa57fe5b9060005260206000209060020201600101541015156107a05761074585848481548110151561072557fe5b906000526020600020906002020160010154610eae90919063ffffffff16565b838381548110151561075357fe5b906000526020600020906002020160010181905550828281548110151561077657fe5b90600052602060002090600202016001015460001415610797576001909101905b600094506107e9565b6107d283838154811015156107b157fe5b90600052602060002090600202016001015486610eae90919063ffffffff16565b94506107de565b6107e9565b6001909101906106bd565b84156107f457600080fd5b5060005b825461080a908363ffffffff610eae16565b81101561086d5782610822828463ffffffff610e9416565b8154811061082c57fe5b9060005260206000209060020201838281548110151561084857fe5b60009182526020909120825460029092020190815560019182015490820155016107f8565b825461087f908363ffffffff610eae16565b90505b82548110156108ba57828181548110151561089957fe5b60009182526020822060029091020181815560019081019190915501610882565b82546108cc908363ffffffff610eae16565b6108d68482611060565b506007546108f490600160a060020a0316338863ffffffff610ec016565b60408051878152905133917f6e2e05fb6a732995d6952d9158ca6b75f11cc6bf5a4af943aa1eb475a249440b919081900360200190a2505050505050565b60046020526000908152604090205481565b600080600080600080935061096460065443610eae90919063ffffffff16565b600160a060020a038716600090815260016020526040812091945090925090505b81548110156109f95782828281548110151561099d57fe5b6000918252602090912060029091020154116109ec576109e582828154811015156109c457fe5b90600052602060002090600202016001015485610e9490919063ffffffff16565b93506109f1565b6109f9565b600101610985565b5091949350505050565b600054600160a060020a03163314610a1a57600080fd5b60005460a060020a900460ff161515610a3257600080fd5b6000805474ff0000000000000000000000000000000000000000191681556040517f7805862f689e2f13df9f062ff482ad3ad112aca9e0847911ed832e158c525b339190a1565b60065481565b600160a060020a03166000908152600460205260409020546002549091565b60005460a060020a900460ff1681565b6000806000610abc84610a7f565b90925090506a084595161401484a000000610ad685610b37565b10158015610b0f5750600a811080610b0f57506009610b0c82610b0085600a63ffffffff610f7016565b9063ffffffff610f9b16565b10155b949350505050565b600560209081526000928352604080842090915290825290205460ff1681565b600160a060020a03811660009081526001602052604081208190815b8154811015610b9857610b8e8282815481101515610b6d57fe5b90600052602060002090600202016001015484610e9490919063ffffffff16565b9250600101610b53565b50909392505050565b600981565b600054600160a060020a03163314610bbd57600080fd5b60005460a060020a900460ff1615610bd457600080fd5b6000805474ff0000000000000000000000000000000000000000191660a060020a1781556040517f6985a02210a168e66602d3235cb6db0e70f92b3ba4d376a33c0f3d9434bff6259190a1565b600a81565b60025481565b600054600160a060020a031681565b6000805460a060020a900460ff1615610c5357600080fd5b60008411610c6057600080fd5b600754600160a060020a03848116911614610c7a57600080fd5b6a52b7d2dcc80cd2e4000000610c9f85610c9388610b37565b9063ffffffff610e9416565b1115610caa57600080fd5b600754610cc890600160a060020a031686308763ffffffff610fb216565b600160a060020a0385166000818152600160208181526040808420815180830183524381528084018b81528254808701845592875295849020905160029092020190815593519390920192909255805187815290517f2cb77763bc1e8490c1a904905c4d74b4269919aca114464f4bb4d911e60de364929181900390910190a2506001949350505050565b60005460a060020a900460ff1615610d6a57600080fd5b600754604080516000815260208101909152610d939133918491600160a060020a031690610c3b565b1515610d9e57600080fd5b50565b6a52b7d2dcc80cd2e400000081565b600160205281600052604060002081815481101515610dcb57fe5b600091825260209091206002909102018054600190910154909250905082565b60036020526000908152604090205460ff1681565b600054600160a060020a03163314610e1757600080fd5b600160a060020a0381161515610e2c57600080fd5b60008054604051600160a060020a03808516939216917f8be0079c531659141344cd1fd0a4f28419497f9722a3daafe3b4186f6b6457e091a36000805473ffffffffffffffffffffffffffffffffffffffff1916600160a060020a0392909216919091179055565b600082820183811015610ea357fe5b8091505b5092915050565b600082821115610eba57fe5b50900390565b82600160a060020a031663a9059cbb83836040518363ffffffff167c01000000000000000000000000000000000000000000000000000000000281526004018083600160a060020a0316600160a060020a0316815260200182815260200192505050602060405180830381600087803b158015610f3c57600080fd5b505af1158015610f50573d6000803e3d6000fd5b505050506040513d6020811015610f6657600080fd5b5051151561065257fe5b600080831515610f835760009150610ea7565b50828202828482811515610f9357fe5b0414610ea357fe5b6000808284811515610fa957fe5b04949350505050565b604080517f23b872dd000000000000000000000000000000000000000000000000000000008152600160a060020a0385811660048301528481166024830152604482018490529151918616916323b872dd916064808201926020929091908290030181600087803b15801561102657600080fd5b505af115801561103a573d6000803e3d6000fd5b505050506040513d602081101561105057600080fd5b5051151561105a57fe5b50505050565b81548183558181111561065257600083815260209020610652916110a89160029182028101918502015b808211156110a4576000808255600182015560020161108a565b5090565b905600a165627a7a72305820b9234ac2005819396f4e9394976eb3ee516ba32af742e4746f522ec962ed43eb0029",
  "source": "pragma solidity ^0.4.21;\n\nimport \"zeppelin-solidity/contracts/lifecycle/Pausable.sol\";\nimport \"zeppelin-solidity/contracts/math/SafeMath.sol\";\nimport \"zeppelin-solidity/contracts/token/ERC20/SafeERC20.sol\";\nimport \"./ArbiterStaking.sol\";\nimport \"./NectarToken.sol\";\n\n\ncontract BountyRegistry is Pausable {\n    using SafeMath for uint256;\n    using SafeERC20 for NectarToken;\n\n    struct Bounty {\n        uint128 guid;\n        address author;\n        uint256 amount;\n        string artifactURI;\n        uint256 numArtifacts;\n        uint256 expirationBlock;\n        address assignedArbiter;\n        uint256[8] bloom;\n        address[] voters;\n        uint256[] verdicts;\n        bool[] bloomVotes;\n    }\n\n    struct Assertion {\n        address author;\n        uint256 bid;\n        uint256 mask;\n        uint256 commitment;\n        uint256 nonce;\n        uint256 verdicts;\n        string metadata;\n    }\n\n    event AddedArbiter(\n        address arbiter,\n        uint256 blockNumber\n    );\n\n    event RemovedArbiter(\n        address arbiter,\n        uint256 blockNumber\n    );\n\n    event NewBounty(\n        uint128 guid,\n        address author,\n        uint256 amount,\n        string artifactURI,\n        uint256 expirationBlock\n    );\n\n    event NewAssertion(\n        uint128 bountyGuid,\n        address author,\n        uint256 index,\n        uint256 bid,\n        uint256 mask,\n        uint256 commitment\n    );\n\n    event RevealedAssertion(\n        uint128 bountyGuid,\n        address author,\n        uint256 index,\n        uint256 nonce,\n        uint256 verdicts,\n        string metadata\n    );\n\n    event NewVerdict(\n        uint128 bountyGuid,\n        uint256 verdicts\n    );\n\n    ArbiterStaking public staking;\n    NectarToken internal token;\n\n    // 0.0625NCT (1/16)\n    uint256 public constant BOUNTY_FEE = 62500000000000000;\n    uint256 public constant ASSERTION_FEE = 62500000000000000;\n    uint256 public constant BOUNTY_AMOUNT_MINIMUM = 62500000000000000;\n    uint256 public constant ASSERTION_BID_MINIMUM = 62500000000000000;\n    uint256 public constant ARBITER_LOOKBACK_RANGE = 100;\n    uint256 public constant ARBITER_VOTE_WINDOW = 25; // BLOCKS\n    uint256 public constant ASSERTION_REVEAL_WINDOW = 25; // BLOCKS\n\n    // ~4 months in blocks\n    uint256 public constant STAKE_DURATION = 701333;\n\n    uint128[] public bountyGuids;\n    mapping (uint128 => Bounty) public bountiesByGuid;\n    mapping (uint128 => Assertion[]) public assertionsByGuid;\n    mapping (address => bool) public arbiters;\n    mapping (uint256 => mapping (uint256 => uint256)) public verdictCountByGuid;\n    mapping (uint256 => mapping (address => bool)) public arbiterVoteResgistryByGuid;\n    mapping (uint128 => mapping (address => bool)) public bountySettled;\n\n    /**\n     * Construct a new BountyRegistry\n     *\n     * @param _token address of NCT token to use\n     */\n    constructor(address _token) Ownable() public {\n        owner = msg.sender;\n        staking = new ArbiterStaking(_token, STAKE_DURATION);\n        token = NectarToken(_token);\n    }\n\n    /**\n     * Function to check if an address is a valid arbiter\n     *\n     * @param addr The address to check\n     * @return true if addr is a valid arbiter else false\n     */\n    function isArbiter(address addr) public view returns (bool) {\n        return arbiters[addr] && staking.isEligible(addr);\n    }\n\n    /** Function only callable by arbiter */\n    modifier onlyArbiter() {\n        require(isArbiter(msg.sender));\n        _;\n    }\n\n    /**\n     * Function called to add an arbiter, emits an evevnt with the added arbiter\n     * and block number used to calculate their arbiter status based on public\n     * arbiter selection algorithm.\n     *\n     * @param newArbiter the arbiter to add\n     * @param blockNumber the block number the determination to add was\n     *      calculated from\n     */\n    function addArbiter(address newArbiter, uint256 blockNumber) external whenNotPaused onlyOwner {\n        require(newArbiter != address(0));\n        require(!arbiters[newArbiter]);\n\n        arbiters[newArbiter] = true;\n        emit AddedArbiter(newArbiter, blockNumber);\n    }\n\n    /**\n     * Function called to remove an arbiter, emits an evevnt with the removed\n     * arbiter and block number used to calculate their arbiter status based on\n     * public arbiter selection algorithm.\n     *\n     * @param arbiter the arbiter to remove\n     * @param blockNumber the block number the determination to remove was\n     *      calculated from\n     */\n    function removeArbiter(address arbiter, uint256 blockNumber) external whenNotPaused onlyOwner {\n        arbiters[arbiter] = false;\n        emit RemovedArbiter(arbiter, blockNumber);\n    }\n\n    /**\n     * Function called by end users and ambassadors to post a bounty\n     *\n     * @param guid the guid of the bounty, must be unique\n     * @param amount the amount of NCT to post as a reward\n     * @param artifactURI uri of the artifacts comprising this bounty\n     * @param durationBlocks duration of this bounty in blocks\n     */\n    function postBounty(\n        uint128 guid,\n        uint256 amount,\n        string artifactURI,\n        uint256 numArtifacts,\n        uint256 durationBlocks,\n        uint256[8] bloom\n    )\n    external\n    whenNotPaused\n    {\n        // Check if a bounty with this GUID has already been initialized\n        require(bountiesByGuid[guid].author == address(0));\n        // Check that our bounty amount is sufficient\n        require(amount >= BOUNTY_AMOUNT_MINIMUM);\n        // Check that our URI is non-empty\n        require(bytes(artifactURI).length > 0);\n        // Check that our number of artifacts is valid\n        require(numArtifacts <= 256);\n        // Check that our duration is non-zero\n        require(durationBlocks > 0);\n\n        // Assess fees and transfer bounty amount into escrow\n        token.safeTransferFrom(msg.sender, address(this), amount.add(BOUNTY_FEE));\n\n        bountiesByGuid[guid].guid = guid;\n        bountiesByGuid[guid].author = msg.sender;\n        bountiesByGuid[guid].amount = amount;\n        bountiesByGuid[guid].artifactURI = artifactURI;\n        // FIXME\n        bountiesByGuid[guid].numArtifacts = numArtifacts;\n        bountiesByGuid[guid].expirationBlock = durationBlocks.add(block.number);\n        bountiesByGuid[guid].bloom = bloom;\n\n        bountyGuids.push(guid);\n\n        emit NewBounty(\n            bountiesByGuid[guid].guid,\n            bountiesByGuid[guid].author,\n            bountiesByGuid[guid].amount,\n            bountiesByGuid[guid].artifactURI,\n            bountiesByGuid[guid].expirationBlock\n        );\n    }\n\n    /**\n     * Function called by security experts to post an assertion on a bounty\n     *\n     * @param bountyGuid the guid of the bounty to assert on\n     * @param bid the amount of NCT to stake\n     * @param mask the artifacts to assert on from the set in the bounty\n     * @param commitment a commitment hash of the verdicts being asserted, equal\n     *      to keccak256(verdicts ^ keccak256(nonce)) where nonce != 0\n     */\n    function postAssertion(\n        uint128 bountyGuid,\n        uint256 bid,\n        uint256 mask,\n        uint256 commitment\n    )\n        external\n        whenNotPaused\n    {\n        // Check if this bounty has been initialized\n        require(bountiesByGuid[bountyGuid].author != address(0));\n        // Check that our bid amount is sufficient\n        require(bid >= ASSERTION_BID_MINIMUM);\n        // Check if this bounty is active\n        require(bountiesByGuid[bountyGuid].expirationBlock > block.number);\n\n        // Assess fees and transfer bid amount into escrow\n        token.safeTransferFrom(msg.sender, address(this), bid.add(ASSERTION_FEE));\n\n        Assertion memory a = Assertion(\n            msg.sender,\n            bid,\n            mask,\n            commitment,\n            0,\n            0,\n            \"\"\n        );\n\n        uint256 index = assertionsByGuid[bountyGuid].push(a) - 1;\n\n        emit NewAssertion(\n            bountyGuid,\n            a.author,\n            index,\n            a.bid,\n            a.mask,\n            a.commitment\n        );\n    }\n\n    /**\n     * Function called by arbiter after bounty expiration to settle with their\n     * ground truth determination and pay out assertion rewards\n     *\n     * @param bountyGuid the guid of the bounty to settle\n     * @param verdicts bitset of verdicts representing ground truth for the\n     *      bounty's artifacts\n     */\n\n    function voteOnBounty(\n        uint128 bountyGuid,\n        uint256 verdicts,\n        bool validBloom\n    )\n        external\n        onlyArbiter\n        whenNotPaused\n    {\n        Bounty storage bounty = bountiesByGuid[bountyGuid];\n\n        // Check if this bounty has been initialized\n        require(bounty.author != address(0));\n        // Check that the bounty has closed \n        require(bounty.expirationBlock <= block.number);\n        // Check if the voting window has closed\n        require(bounty.expirationBlock.add(ARBITER_VOTE_WINDOW) > block.number);\n        // Check to make sure arbiters can't double vote\n        require(arbiterVoteResgistryByGuid[bountyGuid][msg.sender] == false);\n\n        bounty.verdicts.push(verdicts);\n        bounty.voters.push(msg.sender);\n        bounty.bloomVotes.push(validBloom);\n\n        staking.recordBounty(msg.sender, bountyGuid, block.number);\n        arbiterVoteResgistryByGuid[bountyGuid][msg.sender] = true;\n        emit NewVerdict(bountyGuid, verdicts);\n    }\n\n    // https://ethereum.stackexchange.com/questions/4170/how-to-convert-a-uint-to-bytes-in-solidity\n    function uint256_to_bytes(uint256 x) internal pure returns (bytes b) {\n        b = new bytes(32);\n        assembly { mstore(add(b, 32), x) }\n    }\n\n    /**\n     * Function called by security experts to reveal an assertion after bounty\n     * expiration\n     *\n     * @param bountyGuid the guid of the bounty to assert on\n     * @param assertionId the id of the assertion to reveal\n     * @param nonce the nonce used to generate the commitment hash\n     * @param verdicts the verdicts making up this assertion\n     * @param metadata optional metadata to include in the assertion\n     */\n    function revealAssertion(\n        uint128 bountyGuid,\n        uint256 assertionId,\n        uint256 nonce,\n        uint256 verdicts,\n        string metadata\n    )\n        external\n        whenNotPaused\n    {\n        // Check if this bounty has been initialized\n        require(bountiesByGuid[bountyGuid].author != address(0));\n        // Check that the voting round has closed\n        require(bountiesByGuid[bountyGuid].expirationBlock.add(ARBITER_VOTE_WINDOW) <= block.number);\n        // Check if the reveal round has closed\n        require(bountiesByGuid[bountyGuid].expirationBlock.add(ARBITER_VOTE_WINDOW).add(ASSERTION_REVEAL_WINDOW) > block.number);\n        // Zero is defined as an invalid nonce\n        require(nonce != 0);\n\n        // Check our id\n        require(assertionId < assertionsByGuid[bountyGuid].length);\n\n        Assertion storage a = assertionsByGuid[bountyGuid][assertionId];\n        require(a.author == msg.sender);\n        require(a.nonce == 0);\n\n        // Check our commitment hash\n        uint256 hashed_nonce = uint256(keccak256(uint256_to_bytes(nonce)));\n        uint256 commitment = uint256(keccak256(uint256_to_bytes(verdicts ^ hashed_nonce)));\n        require(commitment == a.commitment);\n\n        a.nonce = nonce;\n        a.verdicts = verdicts;\n        a.metadata = metadata;\n\n        emit RevealedAssertion(\n            bountyGuid,\n            a.author,\n            assertionId,\n            a.nonce,\n            a.verdicts,\n            a.metadata\n        );\n    }\n\n    // This struct exists to move state from settleBounty into memory from stack\n    // to avoid solidity limitations\n    struct ArtifactPot {\n        uint256 numWinners;\n        uint256 numLosers;\n        uint256 winnerPool;\n        uint256 loserPool;\n    }\n\n    /**\n     * Function to calculate the reward disbursment of a bounty\n     *\n     * @param bountyGuid the guid of the bounty to calculate\n     * @return Rewards distributed by the bounty\n     */\n    function calculateBountyRewards(\n        uint128 bountyGuid\n    )\n        public\n        view\n        returns (uint256 bountyRefund, uint256 arbiterReward, uint256[] expertRewards)\n    {\n        Bounty memory bounty = bountiesByGuid[bountyGuid];\n        Assertion[] memory assertions = assertionsByGuid[bountyGuid];\n\n        // Check if this bountiesByGuid[bountyGuid] has been initialized\n        require(bounty.author != address(0));\n        // Check if this bounty has been previously resolved for the sender\n        require(!bountySettled[bountyGuid][msg.sender]);\n        // Check that the voting round has closed\n        require(bounty.expirationBlock.add(ARBITER_VOTE_WINDOW).add(ASSERTION_REVEAL_WINDOW) <= block.number);\n\n        expertRewards = new uint256[](assertions.length);\n\n        uint256 i = 0;\n        uint256 j = 0;\n\n        if (assertions.length == 0) {\n            // Refund the bounty amount and fees to ambassador\n            bountyRefund = bounty.amount.add(BOUNTY_FEE).mul(bounty.numArtifacts);\n        } else if (bounty.verdicts.length == 0) {\n            // Refund bids and distribute the bounty amount evenly to experts\n            for (j = 0; j < assertions.length; j++) {\n                expertRewards[j] = expertRewards[j].add(assertions[j].bid);\n                expertRewards[j] = expertRewards[j].add(bounty.amount.div(assertions.length));\n            }\n        } else {\n            for (i = 0; i < bounty.numArtifacts; i++) {\n                uint256 vote = 0;\n                for (j = 0; j < bounty.verdicts.length; j++) {\n                    if (bounty.verdicts[j] & (1 << i) != 0) {\n                        vote = vote.add(1);\n                    }\n                }\n\n                // Three cases: 0: 0 <= T < 1/3, 1: 1/3 <= T < 2/3, 2: 2/3 <= T <= 1\n                vote = vote.mul(3).div(bounty.verdicts.length);\n\n                if (vote == 1) {\n                    // failed to reach supermajority, refund expert bids and split\n                    // bounty\n                    for (j = 0; j < assertions.length; j++) {\n                        expertRewards[j] = expertRewards[j].add(assertions[j].bid);\n                        expertRewards[j] = expertRewards[j].add(bounty.amount.div(assertions.length));\n                    }\n                } else {\n                    // Otherwise, arbiters agree\n                    ArtifactPot memory ap;\n                    bool consensus = vote != 0;\n\n                    for (j = 0; j < assertions.length; j++) {\n                        // If we haven't revealed or didn't assert on this artifact\n                        if (assertions[j].nonce == 0 || assertions[j].mask & (1 << i) == 0) {\n                            continue;\n                        }\n\n                        bool malicious = (assertions[j].verdicts & assertions[j].mask) & (1 << i) != 0;\n                        if (malicious == consensus) {\n                            ap.numWinners = ap.numWinners.add(1);\n                            ap.winnerPool = ap.winnerPool.add(assertions[j].bid);\n                        } else {\n                            ap.numLosers = ap.numLosers.add(1);\n                            ap.loserPool = ap.loserPool.add(assertions[j].bid);\n                        }\n                    }\n\n                    // If nobody asserted on this artifact, refund the ambassador\n                    if (ap.numWinners == 0 && ap.numLosers == 0) {\n                        bountyRefund = bountyRefund.add(bounty.amount).add(BOUNTY_FEE);\n                        for (j = 0; j < assertions.length; j++) {\n                            expertRewards[j] = expertRewards[j].add(assertions[j].bid);\n                        }\n                    } else {\n                        for (j = 0; j < assertions.length; j++) {\n                            expertRewards[j] = expertRewards[j].add(assertions[j].bid);\n\n                            // If we haven't revealed or didn't assert on this artifact\n                            if (assertions[j].nonce == 0 || assertions[j].mask & (1 << i) == 0) {\n                                continue;\n                            }\n\n                            malicious = (assertions[j].verdicts & assertions[j].mask) & (1 << i) != 0;\n                            if (malicious == consensus) {\n                                expertRewards[j] = expertRewards[j].add(assertions[j].bid.mul(ap.loserPool).div(ap.winnerPool));\n                                expertRewards[j] = expertRewards[j].add(bounty.amount.mul(ap.loserPool).div(ap.winnerPool));\n                            } else {\n                                expertRewards[j] = expertRewards[j].sub(assertions[j].bid);\n                            }\n                        }\n                    }\n                }\n            }\n        }\n\n        // Calculate rewards\n        uint256 pot = bounty.amount.add(BOUNTY_FEE.add(ASSERTION_FEE.mul(assertions.length)));\n        for (i = 0; i < assertions.length; i++) {\n            pot = pot.add(assertions[i].bid);\n        }\n\n        bountyRefund = bountyRefund.div(bounty.numArtifacts);\n        pot = pot.sub(bountyRefund);\n\n        for (i = 0; i < assertions.length; i++) {\n            expertRewards[i] = expertRewards[i].div(bounty.numArtifacts);\n            pot = pot.sub(expertRewards[i]);\n        }\n\n        arbiterReward = pot;\n    }\n\n    /**\n     * Function called after window has closed to handle reward disbursal\n     *\n     * This function will pay out rewards if the the bounty has a super majority\n     * @param bountyGuid the guid of the bounty to settle\n     */\n    function settleBounty(uint128 bountyGuid) external whenNotPaused {\n        Bounty storage bounty = bountiesByGuid[bountyGuid];\n        Assertion[] storage assertions = assertionsByGuid[bountyGuid];\n\n        // Check if this bountiesByGuid[bountyGuid] has been initialized\n        require(bounty.author != address(0));\n        // Check if this bounty has been previously resolved for the sender\n        require(!bountySettled[bountyGuid][msg.sender]);\n        // Check that the voting round has closed\n        require(bounty.expirationBlock.add(ARBITER_VOTE_WINDOW).add(ASSERTION_REVEAL_WINDOW) <= block.number);\n\n        if (bounty.assignedArbiter == address(0)) {\n            bounty.assignedArbiter = getWeightedRandomArbiter(bountyGuid);\n        }\n\n        uint256 bountyRefund;\n        uint256 arbiterReward;\n        uint256[] memory expertRewards;\n        (bountyRefund, arbiterReward, expertRewards) = calculateBountyRewards(bountyGuid);\n\n        bountySettled[bountyGuid][msg.sender] = true;\n\n        // Disburse rewards\n        if (bountyRefund != 0 && bounty.author == msg.sender) {\n            token.safeTransfer(bounty.author, bountyRefund);\n        }\n\n        for (uint256 i = 0; i < assertions.length; i++) {\n            if (expertRewards[i] != 0 && assertions[i].author == msg.sender) {\n                token.safeTransfer(assertions[i].author, expertRewards[i]);\n            }\n        }\n\n        if (arbiterReward != 0 && bounty.assignedArbiter == msg.sender) {\n            token.safeTransfer(bounty.assignedArbiter, arbiterReward);\n        }\n    }\n\n    /**\n     *  Generates a random number from 0 to range based on the last block hash \n     *\n     *  @param seed random number for reprocucing\n     * @param range end range for random number\n     */\n    function randomGen(uint seed, uint256 range) constant private returns (int256 randomNumber) {\n        return int256(uint256(keccak256(abi.encodePacked(blockhash(block.number-1), seed))) % range);\n    }\n\n    /**\n     * Gets a random Arbiter weighted by the amount of Nectar they have\n     *\n     * @param bountyGuid the guid of the bounty\n     */\n    function getWeightedRandomArbiter(uint128 bountyGuid) public view returns (address voter) {\n        require(bountiesByGuid[bountyGuid].author != address(0));\n\n        Bounty memory bounty = bountiesByGuid[bountyGuid];\n        uint i;\n        uint256 sum;\n        int256 randomNum;\n\n        for (i = 0; i < bounty.voters.length; i++) {\n            sum = sum.add(staking.balanceOf(bounty.voters[i]));\n        }\n\n        randomNum = randomGen(block.number, sum);\n\n        for (i = 0; i < bounty.voters.length; i++) {\n            randomNum -= int256(staking.balanceOf(bounty.voters[i]));\n\n            if (randomNum <= 0) {\n                voter = bounty.voters[i];\n                break;\n            }\n        }\n\n    }\n\n    /**\n     * Get the total number of bounties tracked by the contract\n     * @return total number of bounties\n     */\n    function getNumberOfBounties() external view returns (uint) {\n        return bountyGuids.length;\n    }\n\n    /**\n     * Gets the number of assertions for a bounty\n     *\n     * @param bountyGuid the guid of the bounty\n     * @return number of assertions for the given bounty\n     */\n    function getNumberOfAssertions(uint128 bountyGuid) external view returns (uint) {\n        // Check if this bounty has been initialized\n        require(bountiesByGuid[bountyGuid].author != address(0));\n\n        return assertionsByGuid[bountyGuid].length;\n    }\n\n    /**\n     * Gets the vote count for a specific bounty\n     *\n     * @param bountyGuid the guid of the bounty\n     */\n    function getVerdictCount(uint128 bountyGuid) external view returns (uint) {\n        require(bountiesByGuid[bountyGuid].author != address(0));\n\n        return bountiesByGuid[bountyGuid].verdicts.length;\n    }\n\n    /**\n     * Gets all the voters for a specific bounty\n     *\n     * @param bountyGuid the guid of the bounty\n     */\n    function getVoters(uint128 bountyGuid) external view returns (address[]) {\n        require(bountiesByGuid[bountyGuid].author != address(0));\n\n        uint count = bountiesByGuid[bountyGuid].voters.length;\n\n        address[] memory voters = new address[](count);\n\n        for (uint i = 0; i < count; i++) {\n            voters[i] = bountiesByGuid[bountyGuid].voters[i];\n        }\n\n        return voters;\n    }\n\n    /** Candidate for future arbiter */\n    struct Candidate {\n        address addr;\n        uint256 count;\n    }\n\n    /**\n     * View function displays most active bounty posters over past\n     * ARBITER_LOOKBACK_RANGE bounties to select future arbiters\n     *\n     * @return sorted array of most active bounty posters\n     */\n    function getArbiterCandidates() external view returns (address[]) {\n        require(bountyGuids.length > 0);\n\n        uint256 count = 0;\n        Candidate[] memory candidates = new Candidate[](ARBITER_LOOKBACK_RANGE);\n\n        uint256 lastBounty = 0;\n        if (bountyGuids.length > ARBITER_LOOKBACK_RANGE) {\n            lastBounty = bountyGuids.length.sub(ARBITER_LOOKBACK_RANGE);\n        }\n\n        for (uint256 i = bountyGuids.length; i > lastBounty; i--) {\n            address addr = bountiesByGuid[bountyGuids[i.sub(1)]].author;\n            bool found = false;\n            for (uint256 j = 0; j < count; j++) {\n                if (candidates[j].addr == addr) {\n                    candidates[j].count = candidates[j].count.add(1);\n                    found = true;\n                    break;\n                }\n            }\n\n            if (!found) {\n                candidates[count] = Candidate(addr, 1);\n                count = count.add(1);\n            }\n        }\n\n        address[] memory ret = new address[](count);\n\n        for (i = 0; i < ret.length; i++) {\n            uint256 next = 0;\n            uint256 value = candidates[0].count;\n\n            for (j = 0; j < count; j++) {\n                if (candidates[j].count > value) {\n                    next = j;\n                    value = candidates[j].count;\n                }\n            }\n\n            ret[i] = candidates[next].addr;\n            candidates[next] = candidates[count.sub(1)];\n            count = count.sub(1);\n        }\n\n        return ret;\n    }\n}\n",
  "sourcePath": "/home/user/Projects/polyswarmd/truffle/contracts/BountyRegistry.sol",
  "compiler": {
    "name": "solc",
    "version": "0.4.24+commit.e67f0147.Emscripten.clang"
  },
  "schemaVersion": "2.0.0",
  "updatedAt": "2018-06-26T11:19:22.322Z"
}