{
  "contractName": "NectarToken",
  "abi": [
    {
      "constant": true,
      "inputs": [],
      "name": "mintingFinished",
      "outputs": [
        {
          "name": "",
          "type": "bool"
        }
      ],
      "payable": false,
      "stateMutability": "view",
      "type": "function"
    },
    {
      "constant": true,
      "inputs": [],
      "name": "name",
      "outputs": [
        {
          "name": "",
          "type": "string"
        }
      ],
      "payable": false,
      "stateMutability": "view",
      "type": "function"
    },
    {
      "constant": false,
      "inputs": [
        {
          "name": "_spender",
          "type": "address"
        },
        {
          "name": "_value",
          "type": "uint256"
        }
      ],
      "name": "approve",
      "outputs": [
        {
          "name": "",
          "type": "bool"
        }
      ],
      "payable": false,
      "stateMutability": "nonpayable",
      "type": "function"
    },
    {
      "constant": true,
      "inputs": [],
      "name": "totalSupply",
      "outputs": [
        {
          "name": "",
          "type": "uint256"
        }
      ],
      "payable": false,
      "stateMutability": "view",
      "type": "function"
    },
    {
      "constant": true,
      "inputs": [],
      "name": "decimals",
      "outputs": [
        {
          "name": "",
          "type": "uint8"
        }
      ],
      "payable": false,
      "stateMutability": "view",
      "type": "function"
    },
    {
      "constant": false,
      "inputs": [
        {
          "name": "_to",
          "type": "address"
        },
        {
          "name": "_amount",
          "type": "uint256"
        }
      ],
      "name": "mint",
      "outputs": [
        {
          "name": "",
          "type": "bool"
        }
      ],
      "payable": false,
      "stateMutability": "nonpayable",
      "type": "function"
    },
    {
      "constant": false,
      "inputs": [
        {
          "name": "_spender",
          "type": "address"
        },
        {
          "name": "_subtractedValue",
          "type": "uint256"
        }
      ],
      "name": "decreaseApproval",
      "outputs": [
        {
          "name": "",
          "type": "bool"
        }
      ],
      "payable": false,
      "stateMutability": "nonpayable",
      "type": "function"
    },
    {
      "constant": true,
      "inputs": [
        {
          "name": "_owner",
          "type": "address"
        }
      ],
      "name": "balanceOf",
      "outputs": [
        {
          "name": "balance",
          "type": "uint256"
        }
      ],
      "payable": false,
      "stateMutability": "view",
      "type": "function"
    },
    {
      "constant": false,
      "inputs": [],
      "name": "finishMinting",
      "outputs": [
        {
          "name": "",
          "type": "bool"
        }
      ],
      "payable": false,
      "stateMutability": "nonpayable",
      "type": "function"
    },
    {
      "constant": true,
      "inputs": [],
      "name": "owner",
      "outputs": [
        {
          "name": "",
          "type": "address"
        }
      ],
      "payable": false,
      "stateMutability": "view",
      "type": "function"
    },
    {
      "constant": true,
      "inputs": [],
      "name": "symbol",
      "outputs": [
        {
          "name": "",
          "type": "string"
        }
      ],
      "payable": false,
      "stateMutability": "view",
      "type": "function"
    },
    {
      "constant": true,
      "inputs": [],
      "name": "transfersEnabled",
      "outputs": [
        {
          "name": "",
          "type": "bool"
        }
      ],
      "payable": false,
      "stateMutability": "view",
      "type": "function"
    },
    {
      "constant": false,
      "inputs": [
        {
          "name": "_spender",
          "type": "address"
        },
        {
          "name": "_addedValue",
          "type": "uint256"
        }
      ],
      "name": "increaseApproval",
      "outputs": [
        {
          "name": "",
          "type": "bool"
        }
      ],
      "payable": false,
      "stateMutability": "nonpayable",
      "type": "function"
    },
    {
      "constant": true,
      "inputs": [
        {
          "name": "_owner",
          "type": "address"
        },
        {
          "name": "_spender",
          "type": "address"
        }
      ],
      "name": "allowance",
      "outputs": [
        {
          "name": "",
          "type": "uint256"
        }
      ],
      "payable": false,
      "stateMutability": "view",
      "type": "function"
    },
    {
      "constant": false,
      "inputs": [
        {
          "name": "newOwner",
          "type": "address"
        }
      ],
      "name": "transferOwnership",
      "outputs": [],
      "payable": false,
      "stateMutability": "nonpayable",
      "type": "function"
    },
    {
      "anonymous": false,
      "inputs": [],
      "name": "TransfersEnabled",
      "type": "event"
    },
    {
      "anonymous": false,
      "inputs": [
        {
          "indexed": true,
          "name": "to",
          "type": "address"
        },
        {
          "indexed": false,
          "name": "amount",
          "type": "uint256"
        }
      ],
      "name": "Mint",
      "type": "event"
    },
    {
      "anonymous": false,
      "inputs": [],
      "name": "MintFinished",
      "type": "event"
    },
    {
      "anonymous": false,
      "inputs": [
        {
          "indexed": true,
          "name": "previousOwner",
          "type": "address"
        },
        {
          "indexed": true,
          "name": "newOwner",
          "type": "address"
        }
      ],
      "name": "OwnershipTransferred",
      "type": "event"
    },
    {
      "anonymous": false,
      "inputs": [
        {
          "indexed": true,
          "name": "owner",
          "type": "address"
        },
        {
          "indexed": true,
          "name": "spender",
          "type": "address"
        },
        {
          "indexed": false,
          "name": "value",
          "type": "uint256"
        }
      ],
      "name": "Approval",
      "type": "event"
    },
    {
      "anonymous": false,
      "inputs": [
        {
          "indexed": true,
          "name": "from",
          "type": "address"
        },
        {
          "indexed": true,
          "name": "to",
          "type": "address"
        },
        {
          "indexed": false,
          "name": "value",
          "type": "uint256"
        }
      ],
      "name": "Transfer",
      "type": "event"
    },
    {
      "constant": false,
      "inputs": [],
      "name": "enableTransfers",
      "outputs": [],
      "payable": false,
      "stateMutability": "nonpayable",
      "type": "function"
    },
    {
      "constant": false,
      "inputs": [
        {
          "name": "to",
          "type": "address"
        },
        {
          "name": "value",
          "type": "uint256"
        }
      ],
      "name": "transfer",
      "outputs": [
        {
          "name": "",
          "type": "bool"
        }
      ],
      "payable": false,
      "stateMutability": "nonpayable",
      "type": "function"
    },
    {
      "constant": false,
      "inputs": [
        {
          "name": "from",
          "type": "address"
        },
        {
          "name": "to",
          "type": "address"
        },
        {
          "name": "value",
          "type": "uint256"
        }
      ],
      "name": "transferFrom",
      "outputs": [
        {
          "name": "",
          "type": "bool"
        }
      ],
      "payable": false,
      "stateMutability": "nonpayable",
      "type": "function"
    },
    {
      "constant": false,
      "inputs": [
        {
          "name": "_spender",
          "type": "address"
        },
        {
          "name": "_value",
          "type": "uint256"
        },
        {
          "name": "_extraData",
          "type": "bytes"
        }
      ],
      "name": "approveAndCall",
      "outputs": [
        {
          "name": "success",
          "type": "bool"
        }
      ],
      "payable": false,
      "stateMutability": "nonpayable",
      "type": "function"
    }
  ],
  "bytecode": "0x6003805460a060020a60ff021916905560c0604052600660808190527f52656b746172000000000000000000000000000000000000000000000000000060a090815261004e91600491906100bf565b506040805180820190915260038082527f524b5400000000000000000000000000000000000000000000000000000000006020909201918252610093916005916100bf565b506006805461ff001960ff1990911660121716905560038054600160a060020a0319163317905561015a565b828054600181600116156101000203166002900490600052602060002090601f016020900481019282601f1061010057805160ff191683800117855561012d565b8280016001018555821561012d579182015b8281111561012d578251825591602001919060010190610112565b5061013992915061013d565b5090565b61015791905b808211156101395760008155600101610143565b90565b610ec3806101696000396000f3006080604052600436106100ed5763ffffffff60e060020a60003504166305d2035b81146100f257806306fdde031461011b578063095ea7b3146101a557806318160ddd146101c957806323b872dd146101f0578063313ce5671461021a57806340c10f1914610245578063661884631461026957806370a082311461028d5780637d64bcb4146102ae5780638da5cb5b146102c357806395d89b41146102f4578063a9059cbb14610309578063af35c6c71461032d578063bef97c8714610344578063cae9ca5114610359578063d73dd623146103c2578063dd62ed3e146103e6578063f2fde38b1461040d575b600080fd5b3480156100fe57600080fd5b5061010761042e565b604080519115158252519081900360200190f35b34801561012757600080fd5b5061013061044f565b6040805160208082528351818301528351919283929083019185019080838360005b8381101561016a578181015183820152602001610152565b50505050905090810190601f1680156101975780820380516001836020036101000a031916815260200191505b509250505060405180910390f35b3480156101b157600080fd5b50610107600160a060020a03600435166024356104dd565b3480156101d557600080fd5b506101de610531565b60408051918252519081900360200190f35b3480156101fc57600080fd5b50610107600160a060020a0360043581169060243516604435610537565b34801561022657600080fd5b5061022f610563565b6040805160ff9092168252519081900360200190f35b34801561025157600080fd5b50610107600160a060020a036004351660243561056c565b34801561027557600080fd5b50610107600160a060020a0360043516602435610687565b34801561029957600080fd5b506101de600160a060020a0360043516610765565b3480156102ba57600080fd5b50610107610780565b3480156102cf57600080fd5b506102d8610826565b60408051600160a060020a039092168252519081900360200190f35b34801561030057600080fd5b50610130610835565b34801561031557600080fd5b50610107600160a060020a0360043516602435610890565b34801561033957600080fd5b506103426108ba565b005b34801561035057600080fd5b50610107610920565b34801561036557600080fd5b50604080516020600460443581810135601f8101849004840285018401909552848452610107948235600160a060020a031694602480359536959460649492019190819084018382808284375094975061092e9650505050505050565b3480156103ce57600080fd5b50610107600160a060020a0360043516602435610ab7565b3480156103f257600080fd5b506101de600160a060020a0360043581169060243516610b3e565b34801561041957600080fd5b50610342600160a060020a0360043516610b69565b60035474010000000000000000000000000000000000000000900460ff1681565b6004805460408051602060026001851615610100026000190190941693909304601f810184900484028201840190925281815292918301828280156104d55780601f106104aa576101008083540402835291602001916104d5565b820191906000526020600020905b8154815290600101906020018083116104b857829003601f168201915b505050505081565b336000818152600260209081526040808320600160a060020a03871680855290835281842086905581518681529151939490939092600080516020610e78833981519152928290030190a350600192915050565b60015490565b600654600090610100900460ff16151561055057600080fd5b61055b848484610bfe565b949350505050565b60065460ff1681565b600354600090600160a060020a0316331461058657600080fd5b60035474010000000000000000000000000000000000000000900460ff16156105ae57600080fd5b6001546105c1908363ffffffff610d7516565b600155600160a060020a0383166000908152602081905260409020546105ed908363ffffffff610d7516565b600160a060020a03841660008181526020818152604091829020939093558051858152905191927f0f6798a560793a54c3bcfe86a93cde1e73087d944c0ea20544137d412139688592918290030190a2604080518381529051600160a060020a038516916000917fddf252ad1be2c89b69c2b068fc378daa952ba7f163c4a11628f55a4df523b3ef9181900360200190a350600192915050565b336000908152600260209081526040808320600160a060020a0386168452909152812054808311156106dc57336000908152600260209081526040808320600160a060020a0388168452909152812055610711565b6106ec818463ffffffff610d8416565b336000908152600260209081526040808320600160a060020a03891684529091529020555b336000818152600260209081526040808320600160a060020a038916808552908352928190205481519081529051929392600080516020610e78833981519152929181900390910190a35060019392505050565b600160a060020a031660009081526020819052604090205490565b600354600090600160a060020a0316331461079a57600080fd5b60035474010000000000000000000000000000000000000000900460ff16156107c257600080fd5b6003805474ff00000000000000000000000000000000000000001916740100000000000000000000000000000000000000001790556040517fae5184fba832cb2b1f702aca6117b8d265eaf03ad33eb133f19dde0f5920fa0890600090a150600190565b600354600160a060020a031681565b6005805460408051602060026001851615610100026000190190941693909304601f810184900484028201840190925281815292918301828280156104d55780601f106104aa576101008083540402835291602001916104d5565b600654600090610100900460ff1615156108a957600080fd5b6108b38383610d96565b9392505050565b600354600160a060020a031633146108d157600080fd5b600654610100900460ff16156108e657600080fd5b6006805461ff0019166101001790556040517feadb24812ab3c9a55c774958184293ebdb6c7f6a2dbab11f397d80c86feb65d390600090a1565b600654610100900460ff1681565b336000818152600260209081526040808320600160a060020a03881680855290835281842087905581518781529151939490939092600080516020610e78833981519152928290030190a383600160a060020a031660405180807f72656365697665417070726f76616c28616464726573732c75696e743235362c81526020017f616464726573732c627974657329000000000000000000000000000000000000815250602e019050604051809103902060e060020a9004338530866040518563ffffffff1660e060020a0281526004018085600160a060020a0316600160a060020a0316815260200184815260200183600160a060020a0316600160a060020a03168152602001828051906020019080838360005b83811015610a5c578181015183820152602001610a44565b50505050905090810190601f168015610a895780820380516001836020036101000a031916815260200191505b509450505050506000604051808303816000875af1925050501515610aad57600080fd5b5060019392505050565b336000908152600260209081526040808320600160a060020a0386168452909152812054610aeb908363ffffffff610d7516565b336000818152600260209081526040808320600160a060020a038916808552908352928190208590558051948552519193600080516020610e78833981519152929081900390910190a350600192915050565b600160a060020a03918216600090815260026020908152604080832093909416825291909152205490565b600354600160a060020a03163314610b8057600080fd5b600160a060020a0381161515610b9557600080fd5b600354604051600160a060020a038084169216907f8be0079c531659141344cd1fd0a4f28419497f9722a3daafe3b4186f6b6457e090600090a36003805473ffffffffffffffffffffffffffffffffffffffff1916600160a060020a0392909216919091179055565b6000600160a060020a0383161515610c1557600080fd5b600160a060020a038416600090815260208190526040902054821115610c3a57600080fd5b600160a060020a0384166000908152600260209081526040808320338452909152902054821115610c6a57600080fd5b600160a060020a038416600090815260208190526040902054610c93908363ffffffff610d8416565b600160a060020a038086166000908152602081905260408082209390935590851681522054610cc8908363ffffffff610d7516565b600160a060020a03808516600090815260208181526040808320949094559187168152600282528281203382529091522054610d0a908363ffffffff610d8416565b600160a060020a03808616600081815260026020908152604080832033845282529182902094909455805186815290519287169391927fddf252ad1be2c89b69c2b068fc378daa952ba7f163c4a11628f55a4df523b3ef929181900390910190a35060019392505050565b6000828201838110156108b357fe5b600082821115610d9057fe5b50900390565b6000600160a060020a0383161515610dad57600080fd5b33600090815260208190526040902054821115610dc957600080fd5b33600090815260208190526040902054610de9908363ffffffff610d8416565b3360009081526020819052604080822092909255600160a060020a03851681522054610e1b908363ffffffff610d7516565b600160a060020a038416600081815260208181526040918290209390935580518581529051919233927fddf252ad1be2c89b69c2b068fc378daa952ba7f163c4a11628f55a4df523b3ef9281900390910190a35060019291505056008c5be1e5ebec7d5bd14f71427d1e84f3dd0314c0f7b2291e5b200ac8c7c3b925a165627a7a72305820f5ccdb5225c15dcbbdebc1af5c5f7d7ddbf25f4a1277cb603d7c3f1bfdde29dd0029",
  "source": "pragma solidity ^0.4.18;\n\nimport \"zeppelin-solidity/contracts/token/ERC20/MintableToken.sol\";\n\n\ncontract NectarToken is MintableToken {\n    string public name = \"Rektar\";\n    string public symbol = \"RKT\";\n    uint8 public decimals = 18;\n\n    bool public transfersEnabled = false;\n    event TransfersEnabled();\n\n    // Disable transfers until after the sale\n    modifier whenTransfersEnabled() {\n        require(transfersEnabled);\n        _;\n    }\n\n    modifier whenTransfersNotEnabled() {\n        require(!transfersEnabled);\n        _;\n    }\n\n    function enableTransfers() onlyOwner whenTransfersNotEnabled public {\n        transfersEnabled = true;\n        TransfersEnabled();\n    }\n\n    function transfer(address to, uint256 value) public whenTransfersEnabled returns (bool) {\n        return super.transfer(to, value);\n    }\n\n    function transferFrom(address from, address to, uint256 value) public whenTransfersEnabled returns (bool) {\n        return super.transferFrom(from, to, value);\n    }\n\n    // Approves and then calls the receiving contract\n    function approveAndCall(address _spender, uint256 _value, bytes _extraData) public returns (bool success) {\n        allowed[msg.sender][_spender] = _value;\n        Approval(msg.sender, _spender, _value);\n\n        // call the receiveApproval function on the contract you want to be notified. This crafts the function signature manually so one doesn't have to include a contract in here just for this.\n        // receiveApproval(address _from, uint256 _value, address _tokenContract, bytes _extraData)\n        // it is assumed that when does this that the call *should* succeed, otherwise one would use vanilla approve instead.\n\n        // solium-disable-next-line security/no-low-level-calls\n        require(_spender.call(bytes4(bytes32(keccak256(\"receiveApproval(address,uint256,address,bytes)\"))), msg.sender, _value, this, _extraData));\n        return true;\n    }\n}\n",
  "sourcePath": "/home/user/Projects/polyswarmd/truffle/contracts/NectarToken.sol",
  "compiler": {
    "name": "solc",
    "version": "0.4.24+commit.e67f0147.Emscripten.clang"
  },
  "schemaVersion": "2.0.0",
  "updatedAt": "2018-06-26T11:19:22.292Z"
}