{
  "contractName": "OfferRegistry",
  "abi": [
    {
      "constant": true,
      "inputs": [],
      "name": "nectarAddress",
      "outputs": [
        {
          "name": "",
          "type": "address"
        }
      ],
      "payable": false,
      "stateMutability": "view",
      "type": "function"
    },
    {
      "constant": true,
      "inputs": [
        {
          "name": "",
          "type": "uint128"
        }
      ],
      "name": "guidToChannel",
      "outputs": [
        {
          "name": "msig",
          "type": "address"
        },
        {
          "name": "ambassador",
          "type": "address"
        },
        {
          "name": "expert",
          "type": "address"
        }
      ],
      "payable": false,
      "stateMutability": "view",
      "type": "function"
    },
    {
      "constant": true,
      "inputs": [
        {
          "name": "",
          "type": "bytes32"
        }
      ],
      "name": "participantsToChannel",
      "outputs": [
        {
          "name": "",
          "type": "address"
        }
      ],
      "payable": false,
      "stateMutability": "view",
      "type": "function"
    },
    {
      "constant": true,
      "inputs": [
        {
          "name": "",
          "type": "uint256"
        }
      ],
      "name": "channelsGuids",
      "outputs": [
        {
          "name": "",
          "type": "uint128"
        }
      ],
      "payable": false,
      "stateMutability": "view",
      "type": "function"
    },
    {
      "constant": true,
      "inputs": [],
      "name": "offerLib",
      "outputs": [
        {
          "name": "",
          "type": "address"
        }
      ],
      "payable": false,
      "stateMutability": "view",
      "type": "function"
    },
    {
      "inputs": [
        {
          "name": "_nectarAddress",
          "type": "address"
        }
      ],
      "payable": false,
      "stateMutability": "nonpayable",
      "type": "constructor"
    },
    {
      "payable": true,
      "stateMutability": "payable",
      "type": "fallback"
    },
    {
      "anonymous": false,
      "inputs": [
        {
          "indexed": false,
          "name": "msig",
          "type": "address"
        },
        {
          "indexed": false,
          "name": "ambassador",
          "type": "address"
        },
        {
          "indexed": false,
          "name": "expert",
          "type": "address"
        },
        {
          "indexed": false,
          "name": "guid",
          "type": "uint128"
        }
      ],
      "name": "InitializedChannel",
      "type": "event"
    },
    {
      "constant": false,
      "inputs": [
        {
          "name": "guid",
          "type": "uint128"
        },
        {
          "name": "_ambassador",
          "type": "address"
        },
        {
          "name": "_expert",
          "type": "address"
        },
        {
          "name": "_settlementPeriodLength",
          "type": "uint256"
        }
      ],
      "name": "initializeOfferChannel",
      "outputs": [],
      "payable": false,
      "stateMutability": "nonpayable",
      "type": "function"
    },
    {
      "constant": true,
      "inputs": [],
      "name": "getNumberOfOffers",
      "outputs": [
        {
          "name": "",
          "type": "uint256"
        }
      ],
      "payable": false,
      "stateMutability": "view",
      "type": "function"
    },
    {
      "constant": true,
      "inputs": [
        {
          "name": "_ambassador",
          "type": "address"
        },
        {
          "name": "_expert",
          "type": "address"
        }
      ],
      "name": "getParticipantsChannel",
      "outputs": [
        {
          "name": "",
          "type": "address"
        }
      ],
      "payable": false,
      "stateMutability": "view",
      "type": "function"
    },
    {
      "constant": true,
      "inputs": [],
      "name": "getChannelsGuids",
      "outputs": [
        {
          "name": "",
          "type": "address[]"
        }
      ],
      "payable": false,
      "stateMutability": "view",
      "type": "function"
    }
  ],
  "bytecode": "0x608060405234801561001057600080fd5b50604051602080613ca98339810160405251600160a060020a038116151561003757600080fd5b61003f610090565b604051809103906000f08015801561005b573d6000803e3d6000fd5b5060038054600160a060020a03928316600160a060020a031991821617909155600480549390921692169190911790556100a0565b60405161110580612ba483390190565b612af5806100af6000396000f300608060405260043610620000a25763ffffffff7c010000000000000000000000000000000000000000000000000000000060003504166301f40bf18114620000a75780630ffbe43b14620000db57806319c6968d146200011657806350ff722b1462000165578063973bc8cf14620001cf578063dc1e913f14620001f9578063ee2815f11462000214578063fae25444146200024b578063fbd36d0b1462000275575b600080fd5b348015620000b457600080fd5b50620000bf6200028d565b60408051600160a060020a039092168252519081900360200190f35b348015620000e857600080fd5b50620001146001608060020a0360043516600160a060020a03602435811690604435166064356200029c565b005b3480156200012357600080fd5b506200013a6001608060020a036004351662000640565b60408051600160a060020a039485168152928416602084015292168183015290519081900360600190f35b3480156200017257600080fd5b506200017d62000671565b60408051602080825283518183015283519192839290830191858101910280838360005b83811015620001bb578181015183820152602001620001a1565b505050509050019250505060405180910390f35b348015620001dc57600080fd5b50620000bf600160a060020a03600435811690602435166200073c565b3480156200020657600080fd5b50620000bf60043562000791565b3480156200022157600080fd5b506200022f600435620007ac565b604080516001608060020a039092168252519081900360200190f35b3480156200025857600080fd5b5062000263620007e8565b60408051918252519081900360200190f35b3480156200028257600080fd5b50620000bf620007ee565b600454600160a060020a031681565b600080600160a060020a0384161515620002b557600080fd5b600160a060020a0385161515620002cb57600080fd5b33600160a060020a03861614620002e157600080fd5b620002ed8585620007fd565b600081815260016020526040902054909250600160a060020a031615620003b35760008281526001602090815260408083205481517f4ac252240000000000000000000000000000000000000000000000000000000081529151600160a060020a0390911693634ac2522493600480850194919392918390030190829087803b1580156200037a57600080fd5b505af11580156200038f573d6000803e3d6000fd5b505050506040513d6020811015620003a657600080fd5b505115620003b357600080fd5b600354600454600160a060020a039182169116868686620003d362000a91565b600160a060020a039586168152938516602085015291841660408085019190915293166060830152608082015290519081900360a001906000f08015801562000420573d6000803e3d6000fd5b5090508060016000846000191660001916815260200190815260200160002060006101000a815481600160a060020a030219169083600160a060020a031602179055508060026000886001608060020a03166001608060020a0316815260200190815260200160002060000160006101000a815481600160a060020a030219169083600160a060020a031602179055508460026000886001608060020a03166001608060020a0316815260200190815260200160002060010160006101000a815481600160a060020a030219169083600160a060020a031602179055508360026000886001608060020a03166001608060020a0316815260200190815260200160002060020160006101000a815481600160a060020a030219169083600160a060020a03160217905550600086908060018154018082558091505090600182039060005260206000209060029182820401919006601002909192909190916101000a8154816001608060020a0302191690836001608060020a03160217905550507fcb88e651a737f36ffc6d11856baa8f37fd04d0ce8702984d3105ae1ccc3753ba818686896040518085600160a060020a0316600160a060020a0316815260200184600160a060020a0316600160a060020a0316815260200183600160a060020a0316600160a060020a03168152602001826001608060020a03166001608060020a0316815260200194505050505060405180910390a1505050505050565b6002602081905260009182526040909120805460018201549190920154600160a060020a0392831692918216911683565b60008054606091829115156200068657600080fd5b600054604080518281526020808402820101909152908015620006b3578160200160208202803883390190505b509150600090505b60005481101562000736576000805482908110620006d557fe5b90600052602060002090600291828204019190066010029054906101000a90046001608060020a03166001608060020a031682828151811015156200071657fe5b600160a060020a03909216602092830290910190910152600101620006bb565b50919050565b6000806200074b8484620007fd565b600081815260016020526040902054909150600160a060020a031615156200077257600080fd5b600090815260016020526040902054600160a060020a03169392505050565b600160205260009081526040902054600160a060020a031681565b6000805482908110620007bb57fe5b9060005260206000209060029182820401919006601002915054906101000a90046001608060020a031681565b60005490565b600354600160a060020a031681565b60006060806200080d856200088e565b91506200081a846200088e565b905062000828828262000939565b6040518082805190602001908083835b60208310620008595780518252601f19909201916020918201910162000838565b5181516020939093036101000a6000190180199091169216919091179052604051920182900390912098975050505050505050565b60408051601480825281830190925260609182916000916020820161028080388339019050509150600090505b601481101562000932578060130360080260020a84600160a060020a0316811515620008e357fe5b0460f860020a028282815181101515620008f957fe5b9060200101907effffffffffffffffffffffffffffffffffffffffffffffffffffffffffffff1916908160001a905350600101620008bb565b5092915050565b606080606080606060008088955087945084518651016040519080825280601f01601f1916602001820160405280156200097d578160200160208202803883390190505b50935083925060009150600090505b855181101562000a06578581815181101515620009a557fe5b90602001015160f860020a900460f860020a028383806001019450815181101515620009cd57fe5b9060200101907effffffffffffffffffffffffffffffffffffffffffffffffffffffffffffff1916908160001a9053506001016200098c565b5060005b845181101562000a8457848181518110151562000a2357fe5b90602001015160f860020a900460f860020a02838380600101945081518110151562000a4b57fe5b9060200101907effffffffffffffffffffffffffffffffffffffffffffffffffffffffffffff1916908160001a90535060010162000a0a565b5090979650505050505050565b6040516120278062000aa383390190560060806040526003805460a060020a61ffff021916905534801561002157600080fd5b5060405160a080620020278339810160409081528151602083015191830151606084015160809094015191939091600160a060020a03851615156100eb57604080517f08c379a0000000000000000000000000000000000000000000000000000000008152602060048201526024808201527f4e6f206f66666572206c69622070726f766964656420746f20636f6e7374727560448201527f63746f7200000000000000000000000000000000000000000000000000000000606482015290519081900360840190fd5b600160a060020a038316151561018857604080517f08c379a000000000000000000000000000000000000000000000000000000000815260206004820152602960248201527f4e6f20616d6261737361646f72206c69622070726f766964656420746f20636f60448201527f6e7374727563746f720000000000000000000000000000000000000000000000606482015290519081900360840190fd5b600160a060020a038216151561022557604080517f08c379a000000000000000000000000000000000000000000000000000000000815260206004820152602160248201527f4e6f206578706572742070726f766964656420746f20636f6e7374727563746f60448201527f7200000000000000000000000000000000000000000000000000000000000000606482015290519081900360840190fd5b600160a060020a038416151561029c57604080517f08c379a000000000000000000000000000000000000000000000000000000000815260206004820181905260248201527f4e6f20746f6b656e2070726f766964656420746f20636f6e7374727563746f72604482015290519081900360640190fd5b603c81101580156102b057506276a7008111155b151561031d57604080517f08c379a000000000000000000000000000000000000000000000000000000000815260206004820152601a60248201527f536574746c656d656e74207065726f6964206f662072616e6765000000000000604482015290519081900360640190fd5b60038054600160a060020a03968716600160a060020a0319918216179091556001805494871694821694909417909355600280549286169284169290921790915560045560008054929093169116179055611ca9806200037e6000396000f3006080604052600436106101665763ffffffff60e060020a60003504166301f40bf1811461016b57806302e4b3be1461019c57806306232bb0146101c357806316ef9a991461022d57806320523d0d14610242578063258b5a3514610304578063386bfa83146103c65780633a78a7d6146103db57806347535d7b146103f05780634a7d9f0f146104195780634ac252241461042e578063529d15cc1461044357806361bf2c6214610458578063674ea3cb1461046d5780636bdc95461461052f5780637f5a769e14610547578063916cfd891461055c57806393bde246146105715780639c30ad7e14610586578063a03f254f1461059b578063a3f4df7e146105b0578063aa3801d81461063a578063b16661bf14610693578063c19d93fb146106fb578063c2b6b58c14610710578063c741d91114610725578063d70fb39d146107e7578063d9506c5f14610840578063fbd36d0b14610902578063ffa1ad7414610917575b600080fd5b34801561017757600080fd5b5061018061092c565b60408051600160a060020a039092168252519081900360200190f35b3480156101a857600080fd5b506101b161093b565b60408051918252519081900360200190f35b3480156101cf57600080fd5b506040805160206004803580820135601f810184900484028501840190955284845261022b9436949293602493928401919081908401838280828437509497505050833560ff1694505050602082013591604001359050610941565b005b34801561023957600080fd5b506101b1610c4d565b34801561024e57600080fd5b506040805160206004803580820135601f810184900484028501840190955284845261022b94369492936024939284019190819084018382808284375050604080518082018252959897968181019695509350600292508491508390808284375050604080518082018252949796958181019594509250600291508390839080828437505060408051808201825294979695818101959450925060029150839083908082843750939650610c5395505050505050565b34801561031057600080fd5b506040805160206004803580820135601f810184900484028501840190955284845261022b94369492936024939284019190819084018382808284375050604080518082018252959897968181019695509350600292508491508390808284375050604080518082018252949796958181019594509250600291508390839080828437505060408051808201825294979695818101959450925060029150839083908082843750939650610e3c95505050505050565b3480156103d257600080fd5b506101b1610f72565b3480156103e757600080fd5b50610180610f77565b3480156103fc57600080fd5b50610405610f86565b604080519115158252519081900360200190f35b34801561042557600080fd5b506101b1610f96565b34801561043a57600080fd5b50610405610f9d565b34801561044f57600080fd5b506101b1610fad565b34801561046457600080fd5b506101b1610fb3565b34801561047957600080fd5b506040805160206004803580820135601f810184900484028501840190955284845261022b94369492936024939284019190819084018382808284375050604080518082018252959897968181019695509350600292508491508390808284375050604080518082018252949796958181019594509250600291508390839080828437505060408051808201825294979695818101959450925060029150839083908082843750939650610fb995505050505050565b34801561053b57600080fd5b5061022b600435611172565b34801561055357600080fd5b506101b16111c4565b34801561056857600080fd5b506101b16111cb565b34801561057d57600080fd5b506101806111d1565b34801561059257600080fd5b506104056111e0565b3480156105a757600080fd5b506101b1611202565b3480156105bc57600080fd5b506105c5611208565b6040805160208082528351818301528351919283929083019185019080838360005b838110156105ff5781810151838201526020016105e7565b50505050905090810190601f16801561062c5780820380516001836020036101000a031916815260200191505b509250505060405180910390f35b34801561064657600080fd5b506040805160206004803580820135601f810184900484028501840190955284845261018094369492936024939284019190819084018382808284375094975061123f9650505050505050565b34801561069f57600080fd5b506040805160206004803580820135601f810184900484028501840190955284845261022b9436949293602493928401919081908401838280828437509497505050833560ff1694505050602082013591604001359050611247565b34801561070757600080fd5b506105c5611466565b34801561071c57600080fd5b506101b16114f4565b34801561073157600080fd5b506040805160206004803580820135601f810184900484028501840190955284845261022b943694929360249392840191908190840183828082843750506040805180820182529598979681810196955093506002925084915083908082843750506040805180820182529497969581810195945092506002915083908390808284375050604080518082018252949796958181019594509250600291508390839080828437509396506114fa95505050505050565b3480156107f357600080fd5b506040805160206004803580820135601f81018490048402850184019095528484526101b194369492936024939284019190819084018382808284375094975061172f9650505050505050565b34801561084c57600080fd5b506040805160206004803580820135601f810184900484028501840190955284845261022b9436949293602493928401919081908401838280828437505060408051808201825295989796818101969550935060029250849150839080828437505060408051808201825294979695818101959450925060029150839083908082843750506040805180820182529497969581810195945092506002915083908390808284375093965061173695505050505050565b34801561090e57600080fd5b50610180611881565b34801561092357600080fd5b506105c5611890565b600054600160a060020a031681565b60085481565b600354600090819060a060020a900460ff16156109ce576040805160e560020a62461bcd02815260206004820152602960248201527f6f70656e41677265656d656e7420616c72656164792063616c6c65642c20697360448201527f4f70656e20747275650000000000000000000000000000000000000000000000606482015290519081900360840190fd5b6003547501000000000000000000000000000000000000000000900460ff1615610a68576040805160e560020a62461bcd02815260206004820152602c60248201527f6f70656e41677265656d656e7420616c72656164792063616c6c65642c20697360448201527f50656e64696e6720747275650000000000000000000000000000000000000000606482015290519081900360840190fd5b600154600160a060020a03163314610a7f57600080fd5b600054600160a060020a0316610a948761123f565b600160a060020a031614610aa757600080fd5b610ab3868686866118c7565b600154909250600160a060020a03808416911614610ad057600080fd5b6003805475ff000000000000000000000000000000000000000000191675010000000000000000000000000000000000000000001790558551610b1a906009906020890190611be5565b50508451600354604080517f6f70656e286279746573290000000000000000000000000000000000000000008152905190819003600b01812063ffffffff60e060020a918290049081169091028252602060048301818152602484018690528a51600160a060020a03909516949293919286928c92916044909101908584019080838360005b83811015610bb8578181015183820152602001610ba0565b50505050905090810190601f168015610be55780820380516001836020036101000a031916815260200191505b509350505050600060405180830381865af4925050501515610c0657600080fd5b60015460408051600160a060020a039092168252517f99638d6d4071ab30260f8a74347aaf2a1b09cabd69e5a660607482e68b132c599181900360200190a1505050505050565b600a5481565b6001546000908190600160a060020a0316331480610c7b5750600254600160a060020a031633145b1515610c8657600080fd5b610ca3868660005b602002015186518660005b60200201516118c7565b9150610cc2868660015b60200201518660016020020151866001610c99565b600054909150600160a060020a0316610cda8761123f565b600160a060020a031614610ced57600080fd5b600854421015610cfc57600080fd5b60055415610d0957600080fd5b600754600114610d1857600080fd5b610d228282611a2d565b1515610d2d57600080fd5b856040518082805190602001908083835b60208310610d5d5780518252601f199092019160209182019101610d3e565b6001836020036101000a03801982511681845116808217855250505050505090500191505060405180910390206000191660096040518082805460018160011615610100020316600290048015610deb5780601f10610dc9576101008083540402835291820191610deb565b820191906000526020600020905b815481529060010190602001808311610dd7575b5050915050604051809103902060001916141515610e0857600080fd5b6001600555610e1686611adf565b50506003805474ff00000000000000000000000000000000000000001916905550505050565b6001546000908190600160a060020a0316331480610e645750600254600160a060020a031633145b1515610e6f57600080fd5b610e7b86866000610c8e565b9150610e8986866001610cad565b600054909150600160a060020a0316610ea18761123f565b600160a060020a031614610eb457600080fd5b610ebe8282611a2d565b1515610ec957600080fd5b600754600114610ed857600080fd5b6008544210610ee657600080fd5b600654610ef28761172f565b11610efc57600080fd5b60045442016008558551610f17906009906020890190611be5565b50610f218661172f565b600681905560085460408051338152602081019390935282810191909152517fd2f6084390507db11e9913f145c0cb1e19df01a6ae658f9214dd83870cd170469181900360600190a1505050505050565b603c81565b600154600160a060020a031681565b60035460a060020a900460ff1681565b6008545b90565b60035460a060020a900460ff1690565b60065481565b60075481565b6001546000908190600160a060020a0316331480610fe15750600254600160a060020a031633145b1515610fec57600080fd5b610ff886866000610c8e565b915061100686866001610cad565b600054909150600160a060020a031661101e8761123f565b600160a060020a03161461103157600080fd5b6005541561103e57600080fd5b6007541561104b57600080fd5b61105486611bcd565b15156110d0576040805160e560020a62461bcd02815260206004820152602b60248201527f537461746520646964206e6f7420686176652061207369676e656420636c6f7360448201527f65206f7574207374617465000000000000000000000000000000000000000000606482015290519081900360840190fd5b6110da8282611a2d565b15156110e557600080fd5b600160055585516110fd906009906020890190611be5565b5061110786611adf565b6003805474ff00000000000000000000000000000000000000001916905560408051600160a060020a0380841682528416602082015281517ff5a17d3183418573245e320283026a8f6b0cc180a0f6885a3f09bce899805032929181900390910190a1505050505050565b600154600160a060020a0316331461118957600080fd5b600a8190556040805182815290517f3be8ab9f498479a1820d3425e5c9a5ec3fbb3ff1c69cfc5c0b962ff930a713f29181900360200190a150565b6276a70081565b60045481565b600254600160a060020a031681565b6003547501000000000000000000000000000000000000000000900460ff1681565b600a5490565b60408051808201909152600e81527f4f66666572204d756c7469536967000000000000000000000000000000000000602082015281565b610100015190565b600354600090819060a060020a900460ff161561126357600080fd5b600254600160a060020a0316331461127a57600080fd5b6003547501000000000000000000000000000000000000000000900460ff1615156112a457600080fd5b600054600160a060020a03166112b98761123f565b600160a060020a0316146112cc57600080fd5b6112d8868686866118c7565b600254909250600160a060020a038084169116146112f557600080fd5b506003805475ff0000000000000000000000000000000000000000001974ff00000000000000000000000000000000000000001990911660a060020a179081169091558551604080517f6a6f696e286279746573290000000000000000000000000000000000000000008152905190819003600b01812063ffffffff60e060020a918290049081169091028252602060048301818152602484018590528a519495600160a060020a0316949293919286928c92916044909101908584019080838360005b838110156113d15781810151838201526020016113b9565b50505050905090810190601f1680156113fe5780820380516001836020036101000a031916815260200191505b509350505050600060405180830381865af492505050151561141f57600080fd5b60025460408051600160a060020a039092168252517f037b89b176abc0d049acfe9fbf18402e239ee7c62f1fdf6a16b2c663326aae5d9181900360200190a1505050505050565b6009805460408051602060026001851615610100026000190190941693909304601f810184900484028201840190925281815292918301828280156114ec5780601f106114c1576101008083540402835291602001916114ec565b820191906000526020600020905b8154815290600101906020018083116114cf57829003601f168201915b505050505081565b60055481565b60015460009081908190600160a060020a03163314806115245750600254600160a060020a031633145b151561152f57600080fd5b60035460a060020a900460ff1615156001146115bb576040805160e560020a62461bcd02815260206004820152602960248201527f547269656420616464696e6720737461746520746f206120636c6f7365206d7360448201527f69672077616c6c65740000000000000000000000000000000000000000000000606482015290519081900360840190fd5b855185516115cd918991876000610c99565b92506115eb8787600160200201518760016020020151876001610c99565b600054909250600160a060020a03166116038861123f565b600160a060020a03161461161657600080fd5b6116208383611a2d565b151561162b57600080fd5b50855161163d60096020890183611be5565b50600354604080517f75706461746528627974657329000000000000000000000000000000000000008152905190819003600d01812063ffffffff60e060020a918290049081169091028252602060048301818152602484018690528b51600160a060020a03909516949293919286928d92916044909101908386019080838360005b838110156116d85781810151838201526020016116c0565b50505050905090810190601f1680156117055780820380516001836020036101000a031916815260200191505b509350505050600060405180830381865af492505050151561172657600080fd5b50505050505050565b6040015190565b6001546000908190600160a060020a031633148061175e5750600254600160a060020a031633145b151561176957600080fd5b61177586866000610c8e565b915061178386866001610cad565b600054909150600160a060020a031661179b8761123f565b600160a060020a0316146117ae57600080fd5b33600160a060020a03821614806117cd575033600160a060020a038316145b15156117d857600080fd5b6117e28282611a2d565b15156117ed57600080fd5b600554156117fa57600080fd5b6007541561180757600080fd5b855161181a906009906020890190611be5565b506118248661172f565b600681905560016007556004544201600881905560408051338152602081019390935282810191909152517ff7320a1e16c59aacd49c58e5e0f0a358358108fa28d492a711168312b03a07ef9181900360600190a1505050505050565b600354600160a060020a031681565b60408051808201909152600581527f302e302e31000000000000000000000000000000000000000000000000000000602082015281565b6000606060008060006040805190810160405280601c81526020017f19457468657265756d205369676e6564204d6573736167653a0a3332000000008152509350886040518082805190602001908083835b602083106119385780518252601f199092019160209182019101611919565b51815160209384036101000a6000190180199092169116179052604051919093018190038120895190985089955088945090928392508501908083835b602083106119945780518252601f199092019160209182019101611975565b51815160209384036101000a6000190180199092169116179052920193845250604080519384900382018420600080865285840180845282905260ff8f1686840152606086018e9052608086018d905291519097506001955060a080860195939450601f198201938290030191865af1158015611a15573d6000803e3d6000fd5b5050604051601f1901519a9950505050505050505050565b600154600090600160a060020a038481169116148015611a5a5750600254600160a060020a038381169116145b1515611ad6576040805160e560020a62461bcd02815260206004820152602860248201527f5369676e61747572657320646f206e6f74206d6174636820706172746965732060448201527f696e207374617465000000000000000000000000000000000000000000000000606482015290519081900360840190fd5b50600192915050565b8051600354604080517f66696e616c697a652862797465732900000000000000000000000000000000008152905190819003600f01812063ffffffff60e060020a918290049081169091028252602060048301818152602484018690528651600160a060020a03909516949293919286928892916044909101908584019080838360005b83811015611b7b578181015183820152602001611b63565b50505050905090810190601f168015611ba85780820380516001836020036101000a031916815260200191505b509350505050600060405180830381865af4925050501515611bc957600080fd5b5050565b6020810151600090600160ff821614611ad657600080fd5b828054600181600116156101000203166002900490600052602060002090601f016020900481019282601f10611c2657805160ff1916838001178555611c53565b82800160010185558215611c53579182015b82811115611c53578251825591602001919060010190611c38565b50611c5f929150611c63565b5090565b610f9a91905b80821115611c5f5760008155600101611c695600a165627a7a723058201c6242aa270b2876e8b2d8640b045be0a168d1c9390061847914d6ad2e27945c0029a165627a7a7230582090d04fd41cd95fb5bda2e03a099b1044e59e06d93c4bdb980c1867571b6f275d00296110d5610030600b82828239805160001a6073146000811461002057610022565bfe5b5030600052607381538281f30073000000000000000000000000000000000000000030146080604052600436106100e35763ffffffff60e060020a6000350416630aa0bd0081146100e85780631a3cb4f514610150578063382f431b146101ae57806342cf2f811461021b5780634360f90f146102675780636170b162146102fa5780637608ff5214610346578063802ea7201461039257806383624c17146103de578063a026f01f1461042a578063a0345fca14610476578063aa3801d8146104cf578063b8a268c11461051b578063bcd4c9961461057d578063c43ed2c8146105c9578063f64623f114610622575b600080fd5b6040805160206004803580820135601f810184900484028501840190955284845261013494369492936024939284019190819084018382808284375094975061066e9650505050505050565b60408051600160a060020a039092168252519081900360200190f35b6040805160206004803580820135601f810184900484028501840190955284845261019c9436949293602493928401919081908401838280828437509497506106759650505050505050565b60408051918252519081900360200190f35b8180156101ba57600080fd5b506040805160206004803580820135601f810184900484028501840190955284845261020794369492936024939284019190819084018382808284375094975061067c9650505050505050565b604080519115158252519081900360200190f35b6040805160206004803580820135601f810184900484028501840190955284845261019c9436949293602493928401919081908401838280828437509497506108d89650505050505050565b6040805160206004803580820135601f81018490048402850184019095528484526102b39436949293602493928401919081908401838280828437509497506108df9650505050505050565b60408051998a5260208a0198909852888801969096526060880194909452608087019290925260a086015260c085015260e084015261010083015251908190036101200190f35b6040805160206004803580820135601f81018490048402850184019095528484526102079436949293602493928401919081908401838280828437509497506109269650505050505050565b6040805160206004803580820135601f8101849004840285018401909552848452610134943694929360249392840191908190840183828082843750949750610adc9650505050505050565b6040805160206004803580820135601f810184900484028501840190955284845261019c943694929360249392840191908190840183828082843750949750610ae39650505050505050565b6040805160206004803580820135601f8101849004840285018401909552848452610134943694929360249392840191908190840183828082843750949750610b169650505050505050565b6040805160206004803580820135601f810184900484028501840190955284845261019c943694929360249392840191908190840183828082843750949750610b1d9650505050505050565b81801561048257600080fd5b506040805160206004803580820135601f8101849004840285018401909552848452610207943694929360249392840191908190840183828082843750949750610b259650505050505050565b6040805160206004803580820135601f8101849004840285018401909552848452610134943694929360249392840191908190840183828082843750949750610d969650505050505050565b6040805160206004803580820135601f8101849004840285018401909552848452610567943694929360249392840191908190840183828082843750949750610d9e9650505050505050565b6040805160ff9092168252519081900360200190f35b6040805160206004803580820135601f810184900484028501840190955284845261019c943694929360249392840191908190840183828082843750949750610da59650505050505050565b8180156105d557600080fd5b506040805160206004803580820135601f8101849004840285018401909552848452610207943694929360249392840191908190840183828082843750949750610dad9650505050505050565b6040805160206004803580820135601f810184900484028501840190955284845261019c94369492936024939284019190819084018382808284375094975061108c9650505050505050565b6080015190565b60c0015190565b60008061068883610b16565b600160a060020a0316331461070d576040805160e560020a62461bcd02815260206004820152602a60248201527f5061727479204120646f6573206e6f74206d6163746368207369676e6174757260448201527f65207265636f7665727900000000000000000000000000000000000000000000606482015290519081900360840190fd5b61071683610d96565b905061072183610675565b81600160a060020a031663dd62ed3e61073986610b16565b6040805160e060020a63ffffffff8516028152600160a060020a0390921660048301523060248301525160448083019260209291908290030181600087803b15801561078457600080fd5b505af1158015610798573d6000803e3d6000fd5b505050506040513d60208110156107ae57600080fd5b50511461082b576040805160e560020a62461bcd02815260206004820152602d60248201527f76616c756520646f6573206e6f74206d6174636820616d6261737361646f722060448201527f73746174652062616c616e636500000000000000000000000000000000000000606482015290519081900360840190fd5b80600160a060020a03166323b872dd61084385610b16565b3061084d87610675565b6040805160e060020a63ffffffff8716028152600160a060020a0394851660048201529290931660248301526044820152905160648083019260209291908290030181600087803b1580156108a157600080fd5b505af11580156108b5573d6000803e3d6000fd5b505050506040513d60208110156108cb57600080fd5b5060019250505b50919050565b6040015190565b6101208101516101408201516101608301516101808401516101a08501516101c08601516101e0870151610200880151610220909801519698959794969395929491939092565b60008061093283610d96565b905061093d8361066e565b600160a060020a031633146109c2576040805160e560020a62461bcd02815260206004820152602a60248201527f5061727479204220646f6573206e6f74206d6163746368207369676e6174757260448201527f65207265636f7665727900000000000000000000000000000000000000000000606482015290519081900360840190fd5b604080517f70a082310000000000000000000000000000000000000000000000000000000081523060048201529051600160a060020a038316916370a082319160248083019260209291908290030181600087803b158015610a2357600080fd5b505af1158015610a37573d6000803e3d6000fd5b505050506040513d6020811015610a4d57600080fd5b5051610a5884610ae3565b14610ad3576040805160e560020a62461bcd02815260206004820152603260248201527f746f6b656e20746f74616c206465706f736974656420646f6573206e6f74206d60448201527f617463682073746174652062616c616e63650000000000000000000000000000606482015290519081900360840190fd5b50600192915050565b60a0015190565b6000806000610af184610675565b9150610afc8461108c565b9050610b0e828263ffffffff61109316565b949350505050565b6060015190565b6101a0015190565b600080600080610b3485610b16565b9250610b3f8561066e565b9150610b4a85610d96565b604080517f70a082310000000000000000000000000000000000000000000000000000000081523060048201529051919250600160a060020a038316916370a08231916024808201926020929091908290030181600087803b158015610baf57600080fd5b505af1158015610bc3573d6000803e3d6000fd5b505050506040513d6020811015610bd957600080fd5b5051610be486610ae3565b14610c5f576040805160e560020a62461bcd02815260206004820152603c60248201527f74726965642066696e616c697a696e6720746f6b656e2073746174652074686160448201527f7420646f6573206e6f74206d6174636820626e6465642076616c756500000000606482015290519081900360840190fd5b80600160a060020a031663a9059cbb84610c7888610675565b6040518363ffffffff1660e060020a0281526004018083600160a060020a0316600160a060020a0316815260200182815260200192505050602060405180830381600087803b158015610cca57600080fd5b505af1158015610cde573d6000803e3d6000fd5b505050506040513d6020811015610cf457600080fd5b5050600160a060020a03811663a9059cbb83610d0f8861108c565b6040518363ffffffff1660e060020a0281526004018083600160a060020a0316600160a060020a0316815260200182815260200192505050602060405180830381600087803b158015610d6157600080fd5b505af1158015610d75573d6000803e3d6000fd5b505050506040513d6020811015610d8b57600080fd5b509395945050505050565b610100015190565b6020015190565b6101c0015190565b600080610db983610d96565b9050600081600160a060020a031663dd62ed3e610dd586610b16565b6040805160e060020a63ffffffff8516028152600160a060020a0390921660048301523060248301525160448083019260209291908290030181600087803b158015610e2057600080fd5b505af1158015610e34573d6000803e3d6000fd5b505050506040513d6020811015610e4a57600080fd5b50511115610f7b5780600160a060020a03166323b872dd610e6a85610b16565b3084600160a060020a031663dd62ed3e610e8389610b16565b6040805160e060020a63ffffffff8516028152600160a060020a0390921660048301523060248301525160448083019260209291908290030181600087803b158015610ece57600080fd5b505af1158015610ee2573d6000803e3d6000fd5b505050506040513d6020811015610ef857600080fd5b50516040805160e060020a63ffffffff8716028152600160a060020a0394851660048201529290931660248301526044820152905160648083019260209291908290030181600087803b158015610f4e57600080fd5b505af1158015610f62573d6000803e3d6000fd5b505050506040513d6020811015610f7857600080fd5b50505b604080517f70a082310000000000000000000000000000000000000000000000000000000081523060048201529051600160a060020a038316916370a082319160248083019260209291908290030181600087803b158015610fdc57600080fd5b505af1158015610ff0573d6000803e3d6000fd5b505050506040513d602081101561100657600080fd5b505161101184610ae3565b146108d2576040805160e560020a62461bcd02815260206004820152603260248201527f746f6b656e20746f74616c206465706f736974656420646f6573206e6f74206d60448201527f617463682073746174652062616c616e63650000000000000000000000000000606482015290519081900360840190fd5b60e0015190565b6000828201838110156110a257fe5b93925050505600a165627a7a72305820b19a5124ef8b5024e569d0f9a85e32621bbbe268ee836b945305dbec2b020b640029",
  "source": "pragma solidity ^0.4.23;\nimport \"./OfferMultiSig.sol\";\nimport \"./OfferLib.sol\";\n\n/// @title Creates new Offer Channel contracts and keeps track of them \ncontract OfferRegistry {\n\n    struct OfferChannel {\n        address msig;\n        address ambassador;\n        address expert;\n    }\n\n    event InitializedChannel(\n        address msig,\n        address ambassador,\n        address expert,\n        uint128 guid\n    );\n\n    uint128[] public channelsGuids;\n    mapping (bytes32 => address) public participantsToChannel;\n    mapping (uint128 => OfferChannel) public guidToChannel;\n\n    address public offerLib;\n    address public nectarAddress;\n\n    constructor(address _nectarAddress) {\n        require(_nectarAddress != address(0));\n\n        offerLib = new OfferLib();\n        nectarAddress = _nectarAddress;\n    }\n\n    /**\n     * Function called by ambassador to initialize an offer contract\n     * It deploys a new offer multi sig and saves it for each participant\n     * \n     * @param _ambassador address of ambassador\n     * @param _expert address of expert\n     * @param _settlementPeriodLength how long the parties have to dispute the settlement offer channel\n     */\n\n    function initializeOfferChannel(uint128 guid, address _ambassador, address _expert, uint _settlementPeriodLength) external {\n\n        require(address(0) != _expert);\n        require(address(0) != _ambassador);\n        require(msg.sender == _ambassador);\n\n        bytes32 key = getParticipantsHash(_ambassador, _expert);\n        \n        if (participantsToChannel[key] != address(0)) {\n            /// @dev check to make sure the participants don't already have an open channel\n            require(OfferMultiSig(participantsToChannel[key]).isChannelOpen() == false);\n        }\n\n        address msig = new OfferMultiSig(offerLib, nectarAddress, _ambassador, _expert, _settlementPeriodLength);\n\n        participantsToChannel[key] = msig;\n\n        guidToChannel[guid].msig = msig;\n        guidToChannel[guid].ambassador = _ambassador;\n        guidToChannel[guid].expert = _expert;\n\n        channelsGuids.push(guid);\n\n        emit InitializedChannel(msig, _ambassador, _expert, guid);\n    }\n\n    /**\n     * Get the total number of offer channels tracked by the contract\n     *\n     * @return total number of offer channels\n     */\n\n    function getNumberOfOffers() external view returns (uint) {\n        return channelsGuids.length;\n    }\n\n    /**\n     * Function to get channel participants are on\n     * \n     * @param _ambassador the address of ambassador\n     * @param _expert the address of ambassador\n     */\n\n    function getParticipantsChannel(address _ambassador, address _expert) external view returns (address) {\n        bytes32 key = getParticipantsHash(_ambassador, _expert);\n\n        require(participantsToChannel[key] != address(0));\n        \n        return participantsToChannel[key];\n    }\n\n    /**\n     * Gets all the created channelsGuids\n     *\n     * @return list of every channel registered\n     */\n\n    function getChannelsGuids() external constant returns (address[]) {\n        require(channelsGuids.length != 0);\n        \n        address[] memory registeredChannelsGuids = new address[](channelsGuids.length);\n\n        for (uint i = 0; i < channelsGuids.length; i++) {\n            registeredChannelsGuids[i] = channelsGuids[i];\n        }\n\n        return registeredChannelsGuids;\n    }\n\n    // Internals\n\n    /**\n     * Utility function to get hash\n     * \n     * @param _ambassador address of ambassador\n     * @param _expert address of expert\n     * @return hash of ambassador and expert\n     */\n\n    function getParticipantsHash(address _ambassador, address _expert) internal pure returns (bytes32) {\n        string memory str_ambassador = toString(_ambassador);\n        string memory str_expert = toString(_expert);\n\n        return keccak256(strConcat(str_ambassador, str_expert));\n    }\n\n    function toString(address x) internal pure returns (string) {\n        bytes memory b = new bytes(20);\n        for (uint i = 0; i < 20; i++)\n            b[i] = byte(uint8(uint(x) / (2**(8*(19 - i)))));\n        return string(b);\n    }\n\n    function strConcat(string _a, string _b) internal pure returns (string){\n        bytes memory _ba = bytes(_a);\n        bytes memory _bb = bytes(_b);\n        string memory abcde = new string(_ba.length + _bb.length);\n        bytes memory babcde = bytes(abcde);\n        uint k = 0;\n        for (uint i = 0; i < _ba.length; i++) babcde[k++] = _ba[i];\n        for (i = 0; i < _bb.length; i++) babcde[k++] = _bb[i];\n        return string(babcde);\n    }\n\n    function() payable public {\n        revert();\n    }\n}\n",
  "sourcePath": "/home/user/Projects/polyswarmd/truffle/contracts/OfferRegistry.sol",
  "compiler": {
    "name": "solc",
    "version": "0.4.24+commit.e67f0147.Emscripten.clang"
  },
  "schemaVersion": "2.0.0",
  "updatedAt": "2018-06-26T11:19:22.297Z"
}