{
  "contractName": "OfferMultiSig",
  "abi": [
    {
      "constant": true,
      "inputs": [],
      "name": "nectarAddress",
      "outputs": [
        {
          "name": "",
          "type": "address"
        }
      ],
      "payable": false,
      "stateMutability": "view",
      "type": "function"
    },
    {
      "constant": true,
      "inputs": [],
      "name": "settlementPeriodEnd",
      "outputs": [
        {
          "name": "",
          "type": "uint256"
        }
      ],
      "payable": false,
      "stateMutability": "view",
      "type": "function"
    },
    {
      "constant": true,
      "inputs": [],
      "name": "websocketUri",
      "outputs": [
        {
          "name": "",
          "type": "bytes32"
        }
      ],
      "payable": false,
      "stateMutability": "view",
      "type": "function"
    },
    {
      "constant": true,
      "inputs": [],
      "name": "MIN_SETTLEMENT_PERIOD",
      "outputs": [
        {
          "name": "",
          "type": "uint256"
        }
      ],
      "payable": false,
      "stateMutability": "view",
      "type": "function"
    },
    {
      "constant": true,
      "inputs": [],
      "name": "ambassador",
      "outputs": [
        {
          "name": "",
          "type": "address"
        }
      ],
      "payable": false,
      "stateMutability": "view",
      "type": "function"
    },
    {
      "constant": true,
      "inputs": [],
      "name": "isOpen",
      "outputs": [
        {
          "name": "",
          "type": "bool"
        }
      ],
      "payable": false,
      "stateMutability": "view",
      "type": "function"
    },
    {
      "constant": true,
      "inputs": [],
      "name": "sequence",
      "outputs": [
        {
          "name": "",
          "type": "uint256"
        }
      ],
      "payable": false,
      "stateMutability": "view",
      "type": "function"
    },
    {
      "constant": true,
      "inputs": [],
      "name": "isInSettlementState",
      "outputs": [
        {
          "name": "",
          "type": "uint256"
        }
      ],
      "payable": false,
      "stateMutability": "view",
      "type": "function"
    },
    {
      "constant": true,
      "inputs": [],
      "name": "MAX_SETTLEMENT_PERIOD",
      "outputs": [
        {
          "name": "",
          "type": "uint256"
        }
      ],
      "payable": false,
      "stateMutability": "view",
      "type": "function"
    },
    {
      "constant": true,
      "inputs": [],
      "name": "settlementPeriodLength",
      "outputs": [
        {
          "name": "",
          "type": "uint256"
        }
      ],
      "payable": false,
      "stateMutability": "view",
      "type": "function"
    },
    {
      "constant": true,
      "inputs": [],
      "name": "expert",
      "outputs": [
        {
          "name": "",
          "type": "address"
        }
      ],
      "payable": false,
      "stateMutability": "view",
      "type": "function"
    },
    {
      "constant": true,
      "inputs": [],
      "name": "isPending",
      "outputs": [
        {
          "name": "",
          "type": "bool"
        }
      ],
      "payable": false,
      "stateMutability": "view",
      "type": "function"
    },
    {
      "constant": true,
      "inputs": [],
      "name": "NAME",
      "outputs": [
        {
          "name": "",
          "type": "string"
        }
      ],
      "payable": false,
      "stateMutability": "view",
      "type": "function"
    },
    {
      "constant": true,
      "inputs": [],
      "name": "state",
      "outputs": [
        {
          "name": "",
          "type": "bytes"
        }
      ],
      "payable": false,
      "stateMutability": "view",
      "type": "function"
    },
    {
      "constant": true,
      "inputs": [],
      "name": "isClosed",
      "outputs": [
        {
          "name": "",
          "type": "uint256"
        }
      ],
      "payable": false,
      "stateMutability": "view",
      "type": "function"
    },
    {
      "constant": true,
      "inputs": [],
      "name": "offerLib",
      "outputs": [
        {
          "name": "",
          "type": "address"
        }
      ],
      "payable": false,
      "stateMutability": "view",
      "type": "function"
    },
    {
      "constant": true,
      "inputs": [],
      "name": "VERSION",
      "outputs": [
        {
          "name": "",
          "type": "string"
        }
      ],
      "payable": false,
      "stateMutability": "view",
      "type": "function"
    },
    {
      "inputs": [
        {
          "name": "_offerLib",
          "type": "address"
        },
        {
          "name": "_nectarAddress",
          "type": "address"
        },
        {
          "name": "_ambassador",
          "type": "address"
        },
        {
          "name": "_expert",
          "type": "address"
        },
        {
          "name": "_settlementPeriodLength",
          "type": "uint256"
        }
      ],
      "payable": false,
      "stateMutability": "nonpayable",
      "type": "constructor"
    },
    {
      "anonymous": false,
      "inputs": [
        {
          "indexed": false,
          "name": "websocketUri",
          "type": "bytes32"
        }
      ],
      "name": "CommunicationsSet",
      "type": "event"
    },
    {
      "anonymous": false,
      "inputs": [
        {
          "indexed": false,
          "name": "_ambassador",
          "type": "address"
        }
      ],
      "name": "OpenedAgreement",
      "type": "event"
    },
    {
      "anonymous": false,
      "inputs": [
        {
          "indexed": false,
          "name": "_expert",
          "type": "address"
        }
      ],
      "name": "JoinedAgreement",
      "type": "event"
    },
    {
      "anonymous": false,
      "inputs": [
        {
          "indexed": false,
          "name": "_expert",
          "type": "address"
        },
        {
          "indexed": false,
          "name": "_ambassador",
          "type": "address"
        }
      ],
      "name": "ClosedAgreement",
      "type": "event"
    },
    {
      "anonymous": false,
      "inputs": [
        {
          "indexed": false,
          "name": "initiator",
          "type": "address"
        },
        {
          "indexed": false,
          "name": "sequence",
          "type": "uint256"
        },
        {
          "indexed": false,
          "name": "settlementPeriodEnd",
          "type": "uint256"
        }
      ],
      "name": "StartedSettle",
      "type": "event"
    },
    {
      "anonymous": false,
      "inputs": [
        {
          "indexed": false,
          "name": "challenger",
          "type": "address"
        },
        {
          "indexed": false,
          "name": "sequence",
          "type": "uint256"
        },
        {
          "indexed": false,
          "name": "settlementPeriodEnd",
          "type": "uint256"
        }
      ],
      "name": "SettleStateChallenged",
      "type": "event"
    },
    {
      "constant": false,
      "inputs": [
        {
          "name": "_state",
          "type": "bytes"
        },
        {
          "name": "_v",
          "type": "uint8"
        },
        {
          "name": "_r",
          "type": "bytes32"
        },
        {
          "name": "_s",
          "type": "bytes32"
        }
      ],
      "name": "openAgreement",
      "outputs": [],
      "payable": false,
      "stateMutability": "nonpayable",
      "type": "function"
    },
    {
      "constant": false,
      "inputs": [
        {
          "name": "_state",
          "type": "bytes"
        },
        {
          "name": "_v",
          "type": "uint8"
        },
        {
          "name": "_r",
          "type": "bytes32"
        },
        {
          "name": "_s",
          "type": "bytes32"
        }
      ],
      "name": "joinAgreement",
      "outputs": [],
      "payable": false,
      "stateMutability": "nonpayable",
      "type": "function"
    },
    {
      "constant": false,
      "inputs": [
        {
          "name": "_state",
          "type": "bytes"
        },
        {
          "name": "_sigV",
          "type": "uint8[2]"
        },
        {
          "name": "_sigR",
          "type": "bytes32[2]"
        },
        {
          "name": "_sigS",
          "type": "bytes32[2]"
        }
      ],
      "name": "depositState",
      "outputs": [],
      "payable": false,
      "stateMutability": "nonpayable",
      "type": "function"
    },
    {
      "constant": false,
      "inputs": [
        {
          "name": "_state",
          "type": "bytes"
        },
        {
          "name": "_sigV",
          "type": "uint8[2]"
        },
        {
          "name": "_sigR",
          "type": "bytes32[2]"
        },
        {
          "name": "_sigS",
          "type": "bytes32[2]"
        }
      ],
      "name": "closeAgreementWithTimeout",
      "outputs": [],
      "payable": false,
      "stateMutability": "nonpayable",
      "type": "function"
    },
    {
      "constant": false,
      "inputs": [
        {
          "name": "_state",
          "type": "bytes"
        },
        {
          "name": "_sigV",
          "type": "uint8[2]"
        },
        {
          "name": "_sigR",
          "type": "bytes32[2]"
        },
        {
          "name": "_sigS",
          "type": "bytes32[2]"
        }
      ],
      "name": "closeAgreement",
      "outputs": [],
      "payable": false,
      "stateMutability": "nonpayable",
      "type": "function"
    },
    {
      "constant": false,
      "inputs": [
        {
          "name": "_state",
          "type": "bytes"
        },
        {
          "name": "_sigV",
          "type": "uint8[2]"
        },
        {
          "name": "_sigR",
          "type": "bytes32[2]"
        },
        {
          "name": "_sigS",
          "type": "bytes32[2]"
        }
      ],
      "name": "startSettle",
      "outputs": [],
      "payable": false,
      "stateMutability": "nonpayable",
      "type": "function"
    },
    {
      "constant": false,
      "inputs": [
        {
          "name": "_state",
          "type": "bytes"
        },
        {
          "name": "_sigV",
          "type": "uint8[2]"
        },
        {
          "name": "_sigR",
          "type": "bytes32[2]"
        },
        {
          "name": "_sigS",
          "type": "bytes32[2]"
        }
      ],
      "name": "challengeSettle",
      "outputs": [],
      "payable": false,
      "stateMutability": "nonpayable",
      "type": "function"
    },
    {
      "constant": true,
      "inputs": [],
      "name": "getSettlementPeriodEnd",
      "outputs": [
        {
          "name": "",
          "type": "uint256"
        }
      ],
      "payable": false,
      "stateMutability": "view",
      "type": "function"
    },
    {
      "constant": false,
      "inputs": [
        {
          "name": "_websocketUri",
          "type": "bytes32"
        }
      ],
      "name": "setCommunicationUri",
      "outputs": [],
      "payable": false,
      "stateMutability": "nonpayable",
      "type": "function"
    },
    {
      "constant": true,
      "inputs": [
        {
          "name": "_state",
          "type": "bytes"
        }
      ],
      "name": "_getSequence",
      "outputs": [
        {
          "name": "_seq",
          "type": "uint256"
        }
      ],
      "payable": false,
      "stateMutability": "pure",
      "type": "function"
    },
    {
      "constant": true,
      "inputs": [],
      "name": "isChannelOpen",
      "outputs": [
        {
          "name": "",
          "type": "bool"
        }
      ],
      "payable": false,
      "stateMutability": "view",
      "type": "function"
    },
    {
      "constant": true,
      "inputs": [],
      "name": "getWebsocketUri",
      "outputs": [
        {
          "name": "",
          "type": "bytes32"
        }
      ],
      "payable": false,
      "stateMutability": "view",
      "type": "function"
    },
    {
      "constant": true,
      "inputs": [
        {
          "name": "_state",
          "type": "bytes"
        }
      ],
      "name": "getTokenAddress",
      "outputs": [
        {
          "name": "_token",
          "type": "address"
        }
      ],
      "payable": false,
      "stateMutability": "pure",
      "type": "function"
    }
  ],
  "bytecode": "0x60806040526003805460a060020a61ffff021916905534801561002157600080fd5b5060405160a080620020278339810160409081528151602083015191830151606084015160809094015191939091600160a060020a03851615156100eb57604080517f08c379a0000000000000000000000000000000000000000000000000000000008152602060048201526024808201527f4e6f206f66666572206c69622070726f766964656420746f20636f6e7374727560448201527f63746f7200000000000000000000000000000000000000000000000000000000606482015290519081900360840190fd5b600160a060020a038316151561018857604080517f08c379a000000000000000000000000000000000000000000000000000000000815260206004820152602960248201527f4e6f20616d6261737361646f72206c69622070726f766964656420746f20636f60448201527f6e7374727563746f720000000000000000000000000000000000000000000000606482015290519081900360840190fd5b600160a060020a038216151561022557604080517f08c379a000000000000000000000000000000000000000000000000000000000815260206004820152602160248201527f4e6f206578706572742070726f766964656420746f20636f6e7374727563746f60448201527f7200000000000000000000000000000000000000000000000000000000000000606482015290519081900360840190fd5b600160a060020a038416151561029c57604080517f08c379a000000000000000000000000000000000000000000000000000000000815260206004820181905260248201527f4e6f20746f6b656e2070726f766964656420746f20636f6e7374727563746f72604482015290519081900360640190fd5b603c81101580156102b057506276a7008111155b151561031d57604080517f08c379a000000000000000000000000000000000000000000000000000000000815260206004820152601a60248201527f536574746c656d656e74207065726f6964206f662072616e6765000000000000604482015290519081900360640190fd5b60038054600160a060020a03968716600160a060020a0319918216179091556001805494871694821694909417909355600280549286169284169290921790915560045560008054929093169116179055611ca9806200037e6000396000f3006080604052600436106101665763ffffffff60e060020a60003504166301f40bf1811461016b57806302e4b3be1461019c57806306232bb0146101c357806316ef9a991461022d57806320523d0d14610242578063258b5a3514610304578063386bfa83146103c65780633a78a7d6146103db57806347535d7b146103f05780634a7d9f0f146104195780634ac252241461042e578063529d15cc1461044357806361bf2c6214610458578063674ea3cb1461046d5780636bdc95461461052f5780637f5a769e14610547578063916cfd891461055c57806393bde246146105715780639c30ad7e14610586578063a03f254f1461059b578063a3f4df7e146105b0578063aa3801d81461063a578063b16661bf14610693578063c19d93fb146106fb578063c2b6b58c14610710578063c741d91114610725578063d70fb39d146107e7578063d9506c5f14610840578063fbd36d0b14610902578063ffa1ad7414610917575b600080fd5b34801561017757600080fd5b5061018061092c565b60408051600160a060020a039092168252519081900360200190f35b3480156101a857600080fd5b506101b161093b565b60408051918252519081900360200190f35b3480156101cf57600080fd5b506040805160206004803580820135601f810184900484028501840190955284845261022b9436949293602493928401919081908401838280828437509497505050833560ff1694505050602082013591604001359050610941565b005b34801561023957600080fd5b506101b1610c4d565b34801561024e57600080fd5b506040805160206004803580820135601f810184900484028501840190955284845261022b94369492936024939284019190819084018382808284375050604080518082018252959897968181019695509350600292508491508390808284375050604080518082018252949796958181019594509250600291508390839080828437505060408051808201825294979695818101959450925060029150839083908082843750939650610c5395505050505050565b34801561031057600080fd5b506040805160206004803580820135601f810184900484028501840190955284845261022b94369492936024939284019190819084018382808284375050604080518082018252959897968181019695509350600292508491508390808284375050604080518082018252949796958181019594509250600291508390839080828437505060408051808201825294979695818101959450925060029150839083908082843750939650610e3c95505050505050565b3480156103d257600080fd5b506101b1610f72565b3480156103e757600080fd5b50610180610f77565b3480156103fc57600080fd5b50610405610f86565b604080519115158252519081900360200190f35b34801561042557600080fd5b506101b1610f96565b34801561043a57600080fd5b50610405610f9d565b34801561044f57600080fd5b506101b1610fad565b34801561046457600080fd5b506101b1610fb3565b34801561047957600080fd5b506040805160206004803580820135601f810184900484028501840190955284845261022b94369492936024939284019190819084018382808284375050604080518082018252959897968181019695509350600292508491508390808284375050604080518082018252949796958181019594509250600291508390839080828437505060408051808201825294979695818101959450925060029150839083908082843750939650610fb995505050505050565b34801561053b57600080fd5b5061022b600435611172565b34801561055357600080fd5b506101b16111c4565b34801561056857600080fd5b506101b16111cb565b34801561057d57600080fd5b506101806111d1565b34801561059257600080fd5b506104056111e0565b3480156105a757600080fd5b506101b1611202565b3480156105bc57600080fd5b506105c5611208565b6040805160208082528351818301528351919283929083019185019080838360005b838110156105ff5781810151838201526020016105e7565b50505050905090810190601f16801561062c5780820380516001836020036101000a031916815260200191505b509250505060405180910390f35b34801561064657600080fd5b506040805160206004803580820135601f810184900484028501840190955284845261018094369492936024939284019190819084018382808284375094975061123f9650505050505050565b34801561069f57600080fd5b506040805160206004803580820135601f810184900484028501840190955284845261022b9436949293602493928401919081908401838280828437509497505050833560ff1694505050602082013591604001359050611247565b34801561070757600080fd5b506105c5611466565b34801561071c57600080fd5b506101b16114f4565b34801561073157600080fd5b506040805160206004803580820135601f810184900484028501840190955284845261022b943694929360249392840191908190840183828082843750506040805180820182529598979681810196955093506002925084915083908082843750506040805180820182529497969581810195945092506002915083908390808284375050604080518082018252949796958181019594509250600291508390839080828437509396506114fa95505050505050565b3480156107f357600080fd5b506040805160206004803580820135601f81018490048402850184019095528484526101b194369492936024939284019190819084018382808284375094975061172f9650505050505050565b34801561084c57600080fd5b506040805160206004803580820135601f810184900484028501840190955284845261022b9436949293602493928401919081908401838280828437505060408051808201825295989796818101969550935060029250849150839080828437505060408051808201825294979695818101959450925060029150839083908082843750506040805180820182529497969581810195945092506002915083908390808284375093965061173695505050505050565b34801561090e57600080fd5b50610180611881565b34801561092357600080fd5b506105c5611890565b600054600160a060020a031681565b60085481565b600354600090819060a060020a900460ff16156109ce576040805160e560020a62461bcd02815260206004820152602960248201527f6f70656e41677265656d656e7420616c72656164792063616c6c65642c20697360448201527f4f70656e20747275650000000000000000000000000000000000000000000000606482015290519081900360840190fd5b6003547501000000000000000000000000000000000000000000900460ff1615610a68576040805160e560020a62461bcd02815260206004820152602c60248201527f6f70656e41677265656d656e7420616c72656164792063616c6c65642c20697360448201527f50656e64696e6720747275650000000000000000000000000000000000000000606482015290519081900360840190fd5b600154600160a060020a03163314610a7f57600080fd5b600054600160a060020a0316610a948761123f565b600160a060020a031614610aa757600080fd5b610ab3868686866118c7565b600154909250600160a060020a03808416911614610ad057600080fd5b6003805475ff000000000000000000000000000000000000000000191675010000000000000000000000000000000000000000001790558551610b1a906009906020890190611be5565b50508451600354604080517f6f70656e286279746573290000000000000000000000000000000000000000008152905190819003600b01812063ffffffff60e060020a918290049081169091028252602060048301818152602484018690528a51600160a060020a03909516949293919286928c92916044909101908584019080838360005b83811015610bb8578181015183820152602001610ba0565b50505050905090810190601f168015610be55780820380516001836020036101000a031916815260200191505b509350505050600060405180830381865af4925050501515610c0657600080fd5b60015460408051600160a060020a039092168252517f99638d6d4071ab30260f8a74347aaf2a1b09cabd69e5a660607482e68b132c599181900360200190a1505050505050565b600a5481565b6001546000908190600160a060020a0316331480610c7b5750600254600160a060020a031633145b1515610c8657600080fd5b610ca3868660005b602002015186518660005b60200201516118c7565b9150610cc2868660015b60200201518660016020020151866001610c99565b600054909150600160a060020a0316610cda8761123f565b600160a060020a031614610ced57600080fd5b600854421015610cfc57600080fd5b60055415610d0957600080fd5b600754600114610d1857600080fd5b610d228282611a2d565b1515610d2d57600080fd5b856040518082805190602001908083835b60208310610d5d5780518252601f199092019160209182019101610d3e565b6001836020036101000a03801982511681845116808217855250505050505090500191505060405180910390206000191660096040518082805460018160011615610100020316600290048015610deb5780601f10610dc9576101008083540402835291820191610deb565b820191906000526020600020905b815481529060010190602001808311610dd7575b5050915050604051809103902060001916141515610e0857600080fd5b6001600555610e1686611adf565b50506003805474ff00000000000000000000000000000000000000001916905550505050565b6001546000908190600160a060020a0316331480610e645750600254600160a060020a031633145b1515610e6f57600080fd5b610e7b86866000610c8e565b9150610e8986866001610cad565b600054909150600160a060020a0316610ea18761123f565b600160a060020a031614610eb457600080fd5b610ebe8282611a2d565b1515610ec957600080fd5b600754600114610ed857600080fd5b6008544210610ee657600080fd5b600654610ef28761172f565b11610efc57600080fd5b60045442016008558551610f17906009906020890190611be5565b50610f218661172f565b600681905560085460408051338152602081019390935282810191909152517fd2f6084390507db11e9913f145c0cb1e19df01a6ae658f9214dd83870cd170469181900360600190a1505050505050565b603c81565b600154600160a060020a031681565b60035460a060020a900460ff1681565b6008545b90565b60035460a060020a900460ff1690565b60065481565b60075481565b6001546000908190600160a060020a0316331480610fe15750600254600160a060020a031633145b1515610fec57600080fd5b610ff886866000610c8e565b915061100686866001610cad565b600054909150600160a060020a031661101e8761123f565b600160a060020a03161461103157600080fd5b6005541561103e57600080fd5b6007541561104b57600080fd5b61105486611bcd565b15156110d0576040805160e560020a62461bcd02815260206004820152602b60248201527f537461746520646964206e6f7420686176652061207369676e656420636c6f7360448201527f65206f7574207374617465000000000000000000000000000000000000000000606482015290519081900360840190fd5b6110da8282611a2d565b15156110e557600080fd5b600160055585516110fd906009906020890190611be5565b5061110786611adf565b6003805474ff00000000000000000000000000000000000000001916905560408051600160a060020a0380841682528416602082015281517ff5a17d3183418573245e320283026a8f6b0cc180a0f6885a3f09bce899805032929181900390910190a1505050505050565b600154600160a060020a0316331461118957600080fd5b600a8190556040805182815290517f3be8ab9f498479a1820d3425e5c9a5ec3fbb3ff1c69cfc5c0b962ff930a713f29181900360200190a150565b6276a70081565b60045481565b600254600160a060020a031681565b6003547501000000000000000000000000000000000000000000900460ff1681565b600a5490565b60408051808201909152600e81527f4f66666572204d756c7469536967000000000000000000000000000000000000602082015281565b610100015190565b600354600090819060a060020a900460ff161561126357600080fd5b600254600160a060020a0316331461127a57600080fd5b6003547501000000000000000000000000000000000000000000900460ff1615156112a457600080fd5b600054600160a060020a03166112b98761123f565b600160a060020a0316146112cc57600080fd5b6112d8868686866118c7565b600254909250600160a060020a038084169116146112f557600080fd5b506003805475ff0000000000000000000000000000000000000000001974ff00000000000000000000000000000000000000001990911660a060020a179081169091558551604080517f6a6f696e286279746573290000000000000000000000000000000000000000008152905190819003600b01812063ffffffff60e060020a918290049081169091028252602060048301818152602484018590528a519495600160a060020a0316949293919286928c92916044909101908584019080838360005b838110156113d15781810151838201526020016113b9565b50505050905090810190601f1680156113fe5780820380516001836020036101000a031916815260200191505b509350505050600060405180830381865af492505050151561141f57600080fd5b60025460408051600160a060020a039092168252517f037b89b176abc0d049acfe9fbf18402e239ee7c62f1fdf6a16b2c663326aae5d9181900360200190a1505050505050565b6009805460408051602060026001851615610100026000190190941693909304601f810184900484028201840190925281815292918301828280156114ec5780601f106114c1576101008083540402835291602001916114ec565b820191906000526020600020905b8154815290600101906020018083116114cf57829003601f168201915b505050505081565b60055481565b60015460009081908190600160a060020a03163314806115245750600254600160a060020a031633145b151561152f57600080fd5b60035460a060020a900460ff1615156001146115bb576040805160e560020a62461bcd02815260206004820152602960248201527f547269656420616464696e6720737461746520746f206120636c6f7365206d7360448201527f69672077616c6c65740000000000000000000000000000000000000000000000606482015290519081900360840190fd5b855185516115cd918991876000610c99565b92506115eb8787600160200201518760016020020151876001610c99565b600054909250600160a060020a03166116038861123f565b600160a060020a03161461161657600080fd5b6116208383611a2d565b151561162b57600080fd5b50855161163d60096020890183611be5565b50600354604080517f75706461746528627974657329000000000000000000000000000000000000008152905190819003600d01812063ffffffff60e060020a918290049081169091028252602060048301818152602484018690528b51600160a060020a03909516949293919286928d92916044909101908386019080838360005b838110156116d85781810151838201526020016116c0565b50505050905090810190601f1680156117055780820380516001836020036101000a031916815260200191505b509350505050600060405180830381865af492505050151561172657600080fd5b50505050505050565b6040015190565b6001546000908190600160a060020a031633148061175e5750600254600160a060020a031633145b151561176957600080fd5b61177586866000610c8e565b915061178386866001610cad565b600054909150600160a060020a031661179b8761123f565b600160a060020a0316146117ae57600080fd5b33600160a060020a03821614806117cd575033600160a060020a038316145b15156117d857600080fd5b6117e28282611a2d565b15156117ed57600080fd5b600554156117fa57600080fd5b6007541561180757600080fd5b855161181a906009906020890190611be5565b506118248661172f565b600681905560016007556004544201600881905560408051338152602081019390935282810191909152517ff7320a1e16c59aacd49c58e5e0f0a358358108fa28d492a711168312b03a07ef9181900360600190a1505050505050565b600354600160a060020a031681565b60408051808201909152600581527f302e302e31000000000000000000000000000000000000000000000000000000602082015281565b6000606060008060006040805190810160405280601c81526020017f19457468657265756d205369676e6564204d6573736167653a0a3332000000008152509350886040518082805190602001908083835b602083106119385780518252601f199092019160209182019101611919565b51815160209384036101000a6000190180199092169116179052604051919093018190038120895190985089955088945090928392508501908083835b602083106119945780518252601f199092019160209182019101611975565b51815160209384036101000a6000190180199092169116179052920193845250604080519384900382018420600080865285840180845282905260ff8f1686840152606086018e9052608086018d905291519097506001955060a080860195939450601f198201938290030191865af1158015611a15573d6000803e3d6000fd5b5050604051601f1901519a9950505050505050505050565b600154600090600160a060020a038481169116148015611a5a5750600254600160a060020a038381169116145b1515611ad6576040805160e560020a62461bcd02815260206004820152602860248201527f5369676e61747572657320646f206e6f74206d6174636820706172746965732060448201527f696e207374617465000000000000000000000000000000000000000000000000606482015290519081900360840190fd5b50600192915050565b8051600354604080517f66696e616c697a652862797465732900000000000000000000000000000000008152905190819003600f01812063ffffffff60e060020a918290049081169091028252602060048301818152602484018690528651600160a060020a03909516949293919286928892916044909101908584019080838360005b83811015611b7b578181015183820152602001611b63565b50505050905090810190601f168015611ba85780820380516001836020036101000a031916815260200191505b509350505050600060405180830381865af4925050501515611bc957600080fd5b5050565b6020810151600090600160ff821614611ad657600080fd5b828054600181600116156101000203166002900490600052602060002090601f016020900481019282601f10611c2657805160ff1916838001178555611c53565b82800160010185558215611c53579182015b82811115611c53578251825591602001919060010190611c38565b50611c5f929150611c63565b5090565b610f9a91905b80821115611c5f5760008155600101611c695600a165627a7a723058201c6242aa270b2876e8b2d8640b045be0a168d1c9390061847914d6ad2e27945c0029",
  "source": "pragma solidity ^0.4.23;\n\ncontract OfferMultiSig {\n\n    string public constant NAME = \"Offer MultiSig\";\n    string public constant VERSION = \"0.0.1\";\n    uint256 public constant MIN_SETTLEMENT_PERIOD = 60 seconds;\n    uint256 public constant MAX_SETTLEMENT_PERIOD = 90 days;\n\n    event CommunicationsSet(\n        bytes32 websocketUri\n    );\n\n    event OpenedAgreement(\n        address _ambassador\n    );\n\n    event JoinedAgreement(\n        address _expert\n    );\n\n    event ClosedAgreement(\n        address _expert,\n        address _ambassador\n    );\n\n    event StartedSettle(\n        address initiator,\n        uint sequence,\n        uint settlementPeriodEnd\n    );\n\n    event SettleStateChallenged(\n        address challenger,\n        uint sequence,\n        uint settlementPeriodEnd\n    );\n\n    address public nectarAddress; // Address of offer nectar token\n    address public ambassador; // Address of first channel participant\n    address public expert; // Address of second channel participant\n    address public offerLib;\n    \n    bool public isOpen = false; // true when both parties have joined\n    bool public isPending = false; // true when waiting for counterparty to join agreement\n\n    uint public settlementPeriodLength; // How long challengers have to reply to settle engagement\n    uint public isClosed; // if the period has closed\n    uint public sequence; // state nonce used in during settlement\n    uint public isInSettlementState; // meta channel is in settling 1: Not settling 0\n    uint public settlementPeriodEnd; // The time when challenges are no longer accepted after\n\n    bytes public state; // the current state\n    bytes32 public websocketUri; // a geth node running whisper (shh)\n\n    constructor(address _offerLib, address _nectarAddress, address _ambassador, address _expert, uint _settlementPeriodLength) public {\n        require(_offerLib != address(0), 'No offer lib provided to constructor');\n        require(_ambassador != address(0), 'No ambassador lib provided to constructor');\n        require(_expert != address(0), 'No expert provided to constructor');\n        require(_nectarAddress != address(0), 'No token provided to constructor');\n        require(_settlementPeriodLength >= MIN_SETTLEMENT_PERIOD && _settlementPeriodLength <= MAX_SETTLEMENT_PERIOD, 'Settlement peroid of range');\n\n        offerLib = _offerLib;\n        ambassador = _ambassador;\n        expert = _expert;\n        settlementPeriodLength = _settlementPeriodLength;\n        nectarAddress = _nectarAddress;\n    }\n\n    /** Function only callable by participants */\n    modifier onlyParticipants() {\n        require(msg.sender == ambassador || msg.sender == expert);\n        _;\n    }\n\n    /**\n     * Function called by ambassador to open channel with _expert \n     * \n     * @param _state inital offer state\n     * @param _v the recovery id from signature of state\n     * @param _r output of ECDSA signature of state\n     * @param _s output of ECDSA signature of state\n     */\n\n    function openAgreement(bytes _state, uint8 _v, bytes32 _r, bytes32 _s) public {\n        // require the channel is not open yet\n        require(isOpen == false, 'openAgreement already called, isOpen true');\n        require(isPending == false, 'openAgreement already called, isPending true');\n        require(msg.sender == ambassador);\n        require(getTokenAddress(_state) == nectarAddress);\n\n        // check the account opening a channel signed the initial state\n        address initiator = _getSig(_state, _v, _r, _s);\n\n        require(ambassador == initiator);\n\n        isPending = true;\n\n        state = _state;\n\n        uint _length = _state.length;\n\n\n        // the open inerface can generalize an entry point for differenct kinds of checks\n        // on opening state\n        require(address(offerLib).delegatecall(bytes4(keccak256(\"open(bytes)\")), bytes32(32), bytes32(_length), _state));\n\n        emit OpenedAgreement(ambassador);\n    }\n\n    /**\n     * Function called by expert to complete opening the channel with an ambassador defined in the _state\n     * \n     * @param _state offer state from ambassador\n     * @param _v the recovery id from signature of state\n     * @param _r output of ECDSA signature  of state\n     * @param _s output of ECDSA signature of state\n     */\n\n    function joinAgreement(bytes _state, uint8 _v, bytes32 _r, bytes32 _s) public {\n        require(isOpen == false);\n        require(msg.sender == expert);\n        require(isPending);\n        require(getTokenAddress(_state) == nectarAddress);\n\n        // check that the state is signed by the sender and sender is in the state\n        address joiningParty = _getSig(_state, _v, _r, _s);\n\n        require(expert == joiningParty);\n\n        // no longer allow joining functions to be called\n        isOpen = true;\n\n        isPending = false;\n\n        uint _length = _state.length;\n\n\n        require(address(offerLib).delegatecall(bytes4(keccak256(\"join(bytes)\")), bytes32(32), bytes32(_length), _state));\n\n        emit JoinedAgreement(expert);\n    }\n\n    /**\n     * Function called by ambassador to update balance and add to escrow\n     * by default to escrows the allowed balance\n     * @param _state offer state from ambassador\n     * @param _sigV the recovery id from signature of state by both parties\n     * @param _sigR output of ECDSA signature  of state by both parties\n     * @param _sigS output of ECDSA signature of state by both parties\n     * @dev index 0 is the ambassador signature\n     * @dev index 1 is the expert signature\n     */\n\n    function depositState(bytes _state, uint8[2] _sigV, bytes32[2] _sigR, bytes32[2] _sigS) public onlyParticipants {\n        require(isOpen == true, 'Tried adding state to a close msig wallet');\n        address _ambassador = _getSig(_state, _sigV[0], _sigR[0], _sigS[0]);\n        address _expert = _getSig(_state, _sigV[1], _sigR[1], _sigS[1]);\n        require(getTokenAddress(_state) == nectarAddress);\n        // Require both signatures\n        require(_hasAll_Sigs(_ambassador, _expert));\n\n        uint _length = _state.length;\n\n        state = _state;\n\n        require(address(offerLib).delegatecall(bytes4(keccak256(\"update(bytes)\")), bytes32(32), bytes32(_length), _state));\n    }\n\n    /**\n     * Function called by ambassador or expert to close a their channel after a dispute has timedout\n     *\n     * @param _state final offer state agreed on by both parties through dispute settlement\n     * @param _sigV the recovery id from signature of state by both parties\n     * @param _sigR output of ECDSA signature  of state by both parties\n     * @param _sigS output of ECDSA signature of state by both parties\n     * @dev index 0 is the ambassador signature\n     * @dev index 1 is the expert signature\n     */\n\n    function closeAgreementWithTimeout(bytes _state, uint8[2] _sigV, bytes32[2] _sigR, bytes32[2] _sigS) public onlyParticipants {\n        address _ambassador = _getSig(_state, _sigV[0], _sigR[0], _sigS[0]);\n        address _expert = _getSig(_state, _sigV[1], _sigR[1], _sigS[1]);\n        require(getTokenAddress(_state) == nectarAddress);\n        require(settlementPeriodEnd <= now);\n        require(isClosed == 0);\n        require(isInSettlementState == 1);\n\n        require(_hasAll_Sigs(_ambassador, _expert));\n        require(keccak256(state) == keccak256(_state));\n\n        isClosed = 1;\n\n        _finalize(_state);\n        isOpen = false;\n    }\n\n\n    /**\n     * Function called by ambassador or expert to close a their channel with close flag\n     *\n     * @param _state final offer state agreed on by both parties with close flag\n     * @param _sigV the recovery id from signature of state by both parties\n     * @param _sigR output of ECDSA signature  of state by both parties\n     * @param _sigS output of ECDSA signature of state by both parties\n     * @dev index 0 is the ambassador signature\n     * @dev index 1 is the expert signature\n     */\n\n    function closeAgreement(bytes _state, uint8[2] _sigV, bytes32[2] _sigR, bytes32[2] _sigS) public onlyParticipants {\n        address _ambassador = _getSig(_state, _sigV[0], _sigR[0], _sigS[0]);\n        address _expert = _getSig(_state, _sigV[1], _sigR[1], _sigS[1]);\n        require(getTokenAddress(_state) == nectarAddress);\n        require(isClosed == 0);\n        \n        /// @dev make sure we're not in dispute\n        require(isInSettlementState == 0);\n\n        /// @dev must have close flag\n        require(_isClosed(_state), 'State did not have a signed close out state');\n        require(_hasAll_Sigs(_ambassador, _expert));\n\n        isClosed = 1;\n        state = _state;\n\n        _finalize(_state);\n        isOpen = false;\n\n        emit ClosedAgreement(_expert, _ambassador);\n\n    }\n\n\n    /**\n     * Function called by ambassador or expert to start initalize a disputed settlement\n     * using an agreed upon state. It starts a timeout for a reply using `settlementPeriodLength`\n     * \n     * @param _state offer state agreed on by both parties\n     * @param _sigV the recovery id from signature of state by both parties\n     * @param _sigR output of ECDSA signature  of state by both parties\n     * @param _sigS output of ECDSA signature of state by both parties\n     */\n\n    function startSettle(bytes _state, uint8[2] _sigV, bytes32[2] _sigR, bytes32[2] _sigS) public onlyParticipants {\n        address _ambassador = _getSig(_state, _sigV[0], _sigR[0], _sigS[0]);\n        address _expert = _getSig(_state, _sigV[1], _sigR[1], _sigS[1]);\n        require(getTokenAddress(_state) == nectarAddress);\n        require(msg.sender == _expert || msg.sender == _ambassador);\n\n        require(_hasAll_Sigs(_ambassador, _expert));\n\n        require(isClosed == 0);\n        require(isInSettlementState == 0);\n\n        state = _state;\n\n        sequence = _getSequence(_state);\n\n        isInSettlementState = 1;\n        settlementPeriodEnd = now + settlementPeriodLength;\n\n        emit StartedSettle(msg.sender, sequence, settlementPeriodEnd);\n    }\n\n    /**\n     * Function called by ambassador or expert to challenge a disputed state\n     * The new state is accepted if it is signed by both parties and has a higher sequence number\n     * \n     * @param _state offer state agreed on by both parties\n     * @param _sigV the recovery id from signature of state by both parties\n     * @param _sigR output of ECDSA signature  of state by both parties\n     * @param _sigS output of ECDSA signature of state by both parties\n     */\n\n    function challengeSettle(bytes _state, uint8[2] _sigV, bytes32[2] _sigR, bytes32[2] _sigS) public onlyParticipants {\n        address _ambassador = _getSig(_state, _sigV[0], _sigR[0], _sigS[0]);\n        address _expert = _getSig(_state, _sigV[1], _sigR[1], _sigS[1]);\n        require(getTokenAddress(_state) == nectarAddress);\n        require(_hasAll_Sigs(_ambassador, _expert));\n\n        require(isInSettlementState == 1);\n        require(now < settlementPeriodEnd);\n\n        require(_getSequence(_state) > sequence);\n\n        settlementPeriodEnd = now + settlementPeriodLength;\n        state = _state;\n        sequence = _getSequence(_state);\n\n        emit SettleStateChallenged(msg.sender, sequence, settlementPeriodEnd);\n    }\n\n    /**\n     * Return when the settlement period is going to end. This is the amount of time\n     * an ambassor or expert has to reply with a new state\n     */\n\n    function getSettlementPeriodEnd() public view returns (uint) {\n        return settlementPeriodEnd;\n    }\n\n    /**\n    * Function to be called by ambassador to set comunication information\n    *\n    * @param _websocketUri uri of whisper node\n    */\n\n    function setCommunicationUri(bytes32 _websocketUri) external {\n        require(msg.sender == ambassador);\n\n        websocketUri = _websocketUri;\n\n        emit CommunicationsSet(websocketUri);\n    }\n\n    /**\n     * Function called to get the state sequence\n     *\n     * @param _state offer state\n     */\n\n    function _getSequence(bytes _state) public pure returns (uint _seq) {\n        assembly {\n            _seq := mload(add(_state, 64))\n        }\n    }\n\n    function isChannelOpen() public view returns (bool) {\n        return isOpen;\n    }\n\n    function getWebsocketUri() public constant returns (bytes32) {\n        return websocketUri;\n    }\n\n\n    /**\n     * Function called by closeAgreementWithTimeout or closeAgreement to disperse payouts\n     *\n     * @param _state final offer state agreed on by both parties with close flag\n     */\n\n    function _finalize(bytes _state) internal {\n        uint _length = _state.length;\n        \n        require(address(offerLib).delegatecall(bytes4(keccak256(\"finalize(bytes)\")), bytes32(32), bytes32(_length), _state));\n    }\n\n    /**\n     * A utility function to check if both parties have signed\n     *\n     * @param _a ambassador address\n     * @param _b expert address\n     */\n\n    function _hasAll_Sigs(address _a, address _b) internal view returns (bool) {\n        require(_a == ambassador && _b == expert, 'Signatures do not match parties in state');\n\n        return true;\n    }\n\n    /**\n     * A utility function to check for the closed flag in the offer state\n     *\n     * @param _state current offer state\n     */\n\n    function _isClosed(bytes _state) internal pure returns(bool) {\n        uint8 isClosedState;\n\n        assembly {\n            isClosedState := mload(add(_state, 32))\n        }\n\n        require(isClosedState == 1);\n\n        return true;\n    }\n\n    function getTokenAddress(bytes _state) public pure returns (address _token) {\n        assembly {\n            _token := mload(add(_state,256))\n        }\n    }\n\n    /**\n     * A utility function to return the address of the person that signed the state\n     *\n     * @param _state offer state that was signed\n     * @param _v the recovery id from signature of state by both parties\n     * @param _r output of ECDSA signature  of state by both parties\n     * @param _s output of ECDSA signature of state by both parties\n     */\n    function _getSig(bytes _state, uint8 _v, bytes32 _r, bytes32 _s) internal pure returns(address) {\n        bytes memory prefix = \"\\x19Ethereum Signed Message:\\n32\";\n        bytes32 h = keccak256(_state);\n\n        bytes32 prefixedHash = keccak256(prefix, h);\n\n        address a = ecrecover(prefixedHash, _v, _r, _s);\n\n        return(a);\n    }\n}\n",
  "sourcePath": "/home/user/Projects/polyswarmd/truffle/contracts/OfferMultiSig.sol",
  "compiler": {
    "name": "solc",
    "version": "0.4.24+commit.e67f0147.Emscripten.clang"
  },
  "schemaVersion": "2.0.0",
  "updatedAt": "2018-06-26T11:04:44.283Z"
}