{
  "contractName": "OfferLib",
  "abi": [
    {
      "constant": true,
      "inputs": [
        {
          "name": "_state",
          "type": "bytes"
        }
      ],
      "name": "getCloseFlag",
      "outputs": [
        {
          "name": "_flag",
          "type": "uint8"
        }
      ],
      "payable": false,
      "stateMutability": "pure",
      "type": "function"
    },
    {
      "constant": true,
      "inputs": [
        {
          "name": "_state",
          "type": "bytes"
        }
      ],
      "name": "getSequence",
      "outputs": [
        {
          "name": "_seq",
          "type": "uint256"
        }
      ],
      "payable": false,
      "stateMutability": "pure",
      "type": "function"
    },
    {
      "constant": true,
      "inputs": [
        {
          "name": "_state",
          "type": "bytes"
        }
      ],
      "name": "getPartyA",
      "outputs": [
        {
          "name": "_ambassador",
          "type": "address"
        }
      ],
      "payable": false,
      "stateMutability": "pure",
      "type": "function"
    },
    {
      "constant": true,
      "inputs": [
        {
          "name": "_state",
          "type": "bytes"
        }
      ],
      "name": "getPartyB",
      "outputs": [
        {
          "name": "_expert",
          "type": "address"
        }
      ],
      "payable": false,
      "stateMutability": "pure",
      "type": "function"
    },
    {
      "constant": true,
      "inputs": [
        {
          "name": "_state",
          "type": "bytes"
        }
      ],
      "name": "getMultiSigAddress",
      "outputs": [
        {
          "name": "_multisig",
          "type": "address"
        }
      ],
      "payable": false,
      "stateMutability": "pure",
      "type": "function"
    },
    {
      "constant": true,
      "inputs": [
        {
          "name": "_state",
          "type": "bytes"
        }
      ],
      "name": "getBalanceA",
      "outputs": [
        {
          "name": "_balanceA",
          "type": "uint256"
        }
      ],
      "payable": false,
      "stateMutability": "pure",
      "type": "function"
    },
    {
      "constant": true,
      "inputs": [
        {
          "name": "_state",
          "type": "bytes"
        }
      ],
      "name": "getBalanceB",
      "outputs": [
        {
          "name": "_balanceB",
          "type": "uint256"
        }
      ],
      "payable": false,
      "stateMutability": "pure",
      "type": "function"
    },
    {
      "constant": true,
      "inputs": [
        {
          "name": "_state",
          "type": "bytes"
        }
      ],
      "name": "getTokenAddress",
      "outputs": [
        {
          "name": "_token",
          "type": "address"
        }
      ],
      "payable": false,
      "stateMutability": "pure",
      "type": "function"
    },
    {
      "constant": true,
      "inputs": [
        {
          "name": "_state",
          "type": "bytes"
        }
      ],
      "name": "getEngagementDeadline",
      "outputs": [
        {
          "name": "_engagementDeadline",
          "type": "uint256"
        }
      ],
      "payable": false,
      "stateMutability": "pure",
      "type": "function"
    },
    {
      "constant": true,
      "inputs": [
        {
          "name": "_state",
          "type": "bytes"
        }
      ],
      "name": "getAssertionDeadline",
      "outputs": [
        {
          "name": "_assertionDeadline",
          "type": "uint256"
        }
      ],
      "payable": false,
      "stateMutability": "pure",
      "type": "function"
    },
    {
      "constant": true,
      "inputs": [
        {
          "name": "_state",
          "type": "bytes"
        }
      ],
      "name": "getOfferState",
      "outputs": [
        {
          "name": "_guid",
          "type": "bytes32"
        },
        {
          "name": "_amount",
          "type": "uint256"
        },
        {
          "name": "_artifactHash",
          "type": "bytes32"
        },
        {
          "name": "_artifactURI",
          "type": "bytes32"
        },
        {
          "name": "_engagementDeadline",
          "type": "uint256"
        },
        {
          "name": "_assertionDeadline",
          "type": "uint256"
        },
        {
          "name": "_commitment",
          "type": "bytes32"
        },
        {
          "name": "_assertion",
          "type": "bytes32"
        },
        {
          "name": "_meta",
          "type": "bytes32"
        }
      ],
      "payable": false,
      "stateMutability": "pure",
      "type": "function"
    },
    {
      "constant": true,
      "inputs": [
        {
          "name": "_state",
          "type": "bytes"
        }
      ],
      "name": "getTotal",
      "outputs": [
        {
          "name": "",
          "type": "uint256"
        }
      ],
      "payable": false,
      "stateMutability": "pure",
      "type": "function"
    },
    {
      "constant": false,
      "inputs": [
        {
          "name": "_state",
          "type": "bytes"
        }
      ],
      "name": "open",
      "outputs": [
        {
          "name": "",
          "type": "bool"
        }
      ],
      "payable": false,
      "stateMutability": "nonpayable",
      "type": "function"
    },
    {
      "constant": true,
      "inputs": [
        {
          "name": "_state",
          "type": "bytes"
        }
      ],
      "name": "join",
      "outputs": [
        {
          "name": "",
          "type": "bool"
        }
      ],
      "payable": false,
      "stateMutability": "view",
      "type": "function"
    },
    {
      "constant": false,
      "inputs": [
        {
          "name": "_state",
          "type": "bytes"
        }
      ],
      "name": "update",
      "outputs": [
        {
          "name": "",
          "type": "bool"
        }
      ],
      "payable": false,
      "stateMutability": "nonpayable",
      "type": "function"
    },
    {
      "constant": false,
      "inputs": [
        {
          "name": "_state",
          "type": "bytes"
        }
      ],
      "name": "finalize",
      "outputs": [
        {
          "name": "",
          "type": "bool"
        }
      ],
      "payable": false,
      "stateMutability": "nonpayable",
      "type": "function"
    }
  ],
  "bytecode": "0x6110d5610030600b82828239805160001a6073146000811461002057610022565bfe5b5030600052607381538281f30073000000000000000000000000000000000000000030146080604052600436106100e35763ffffffff60e060020a6000350416630aa0bd0081146100e85780631a3cb4f514610150578063382f431b146101ae57806342cf2f811461021b5780634360f90f146102675780636170b162146102fa5780637608ff5214610346578063802ea7201461039257806383624c17146103de578063a026f01f1461042a578063a0345fca14610476578063aa3801d8146104cf578063b8a268c11461051b578063bcd4c9961461057d578063c43ed2c8146105c9578063f64623f114610622575b600080fd5b6040805160206004803580820135601f810184900484028501840190955284845261013494369492936024939284019190819084018382808284375094975061066e9650505050505050565b60408051600160a060020a039092168252519081900360200190f35b6040805160206004803580820135601f810184900484028501840190955284845261019c9436949293602493928401919081908401838280828437509497506106759650505050505050565b60408051918252519081900360200190f35b8180156101ba57600080fd5b506040805160206004803580820135601f810184900484028501840190955284845261020794369492936024939284019190819084018382808284375094975061067c9650505050505050565b604080519115158252519081900360200190f35b6040805160206004803580820135601f810184900484028501840190955284845261019c9436949293602493928401919081908401838280828437509497506108d89650505050505050565b6040805160206004803580820135601f81018490048402850184019095528484526102b39436949293602493928401919081908401838280828437509497506108df9650505050505050565b60408051998a5260208a0198909852888801969096526060880194909452608087019290925260a086015260c085015260e084015261010083015251908190036101200190f35b6040805160206004803580820135601f81018490048402850184019095528484526102079436949293602493928401919081908401838280828437509497506109269650505050505050565b6040805160206004803580820135601f8101849004840285018401909552848452610134943694929360249392840191908190840183828082843750949750610adc9650505050505050565b6040805160206004803580820135601f810184900484028501840190955284845261019c943694929360249392840191908190840183828082843750949750610ae39650505050505050565b6040805160206004803580820135601f8101849004840285018401909552848452610134943694929360249392840191908190840183828082843750949750610b169650505050505050565b6040805160206004803580820135601f810184900484028501840190955284845261019c943694929360249392840191908190840183828082843750949750610b1d9650505050505050565b81801561048257600080fd5b506040805160206004803580820135601f8101849004840285018401909552848452610207943694929360249392840191908190840183828082843750949750610b259650505050505050565b6040805160206004803580820135601f8101849004840285018401909552848452610134943694929360249392840191908190840183828082843750949750610d969650505050505050565b6040805160206004803580820135601f8101849004840285018401909552848452610567943694929360249392840191908190840183828082843750949750610d9e9650505050505050565b6040805160ff9092168252519081900360200190f35b6040805160206004803580820135601f810184900484028501840190955284845261019c943694929360249392840191908190840183828082843750949750610da59650505050505050565b8180156105d557600080fd5b506040805160206004803580820135601f8101849004840285018401909552848452610207943694929360249392840191908190840183828082843750949750610dad9650505050505050565b6040805160206004803580820135601f810184900484028501840190955284845261019c94369492936024939284019190819084018382808284375094975061108c9650505050505050565b6080015190565b60c0015190565b60008061068883610b16565b600160a060020a0316331461070d576040805160e560020a62461bcd02815260206004820152602a60248201527f5061727479204120646f6573206e6f74206d6163746368207369676e6174757260448201527f65207265636f7665727900000000000000000000000000000000000000000000606482015290519081900360840190fd5b61071683610d96565b905061072183610675565b81600160a060020a031663dd62ed3e61073986610b16565b6040805160e060020a63ffffffff8516028152600160a060020a0390921660048301523060248301525160448083019260209291908290030181600087803b15801561078457600080fd5b505af1158015610798573d6000803e3d6000fd5b505050506040513d60208110156107ae57600080fd5b50511461082b576040805160e560020a62461bcd02815260206004820152602d60248201527f76616c756520646f6573206e6f74206d6174636820616d6261737361646f722060448201527f73746174652062616c616e636500000000000000000000000000000000000000606482015290519081900360840190fd5b80600160a060020a03166323b872dd61084385610b16565b3061084d87610675565b6040805160e060020a63ffffffff8716028152600160a060020a0394851660048201529290931660248301526044820152905160648083019260209291908290030181600087803b1580156108a157600080fd5b505af11580156108b5573d6000803e3d6000fd5b505050506040513d60208110156108cb57600080fd5b5060019250505b50919050565b6040015190565b6101208101516101408201516101608301516101808401516101a08501516101c08601516101e0870151610200880151610220909801519698959794969395929491939092565b60008061093283610d96565b905061093d8361066e565b600160a060020a031633146109c2576040805160e560020a62461bcd02815260206004820152602a60248201527f5061727479204220646f6573206e6f74206d6163746368207369676e6174757260448201527f65207265636f7665727900000000000000000000000000000000000000000000606482015290519081900360840190fd5b604080517f70a082310000000000000000000000000000000000000000000000000000000081523060048201529051600160a060020a038316916370a082319160248083019260209291908290030181600087803b158015610a2357600080fd5b505af1158015610a37573d6000803e3d6000fd5b505050506040513d6020811015610a4d57600080fd5b5051610a5884610ae3565b14610ad3576040805160e560020a62461bcd02815260206004820152603260248201527f746f6b656e20746f74616c206465706f736974656420646f6573206e6f74206d60448201527f617463682073746174652062616c616e63650000000000000000000000000000606482015290519081900360840190fd5b50600192915050565b60a0015190565b6000806000610af184610675565b9150610afc8461108c565b9050610b0e828263ffffffff61109316565b949350505050565b6060015190565b6101a0015190565b600080600080610b3485610b16565b9250610b3f8561066e565b9150610b4a85610d96565b604080517f70a082310000000000000000000000000000000000000000000000000000000081523060048201529051919250600160a060020a038316916370a08231916024808201926020929091908290030181600087803b158015610baf57600080fd5b505af1158015610bc3573d6000803e3d6000fd5b505050506040513d6020811015610bd957600080fd5b5051610be486610ae3565b14610c5f576040805160e560020a62461bcd02815260206004820152603c60248201527f74726965642066696e616c697a696e6720746f6b656e2073746174652074686160448201527f7420646f6573206e6f74206d6174636820626e6465642076616c756500000000606482015290519081900360840190fd5b80600160a060020a031663a9059cbb84610c7888610675565b6040518363ffffffff1660e060020a0281526004018083600160a060020a0316600160a060020a0316815260200182815260200192505050602060405180830381600087803b158015610cca57600080fd5b505af1158015610cde573d6000803e3d6000fd5b505050506040513d6020811015610cf457600080fd5b5050600160a060020a03811663a9059cbb83610d0f8861108c565b6040518363ffffffff1660e060020a0281526004018083600160a060020a0316600160a060020a0316815260200182815260200192505050602060405180830381600087803b158015610d6157600080fd5b505af1158015610d75573d6000803e3d6000fd5b505050506040513d6020811015610d8b57600080fd5b509395945050505050565b610100015190565b6020015190565b6101c0015190565b600080610db983610d96565b9050600081600160a060020a031663dd62ed3e610dd586610b16565b6040805160e060020a63ffffffff8516028152600160a060020a0390921660048301523060248301525160448083019260209291908290030181600087803b158015610e2057600080fd5b505af1158015610e34573d6000803e3d6000fd5b505050506040513d6020811015610e4a57600080fd5b50511115610f7b5780600160a060020a03166323b872dd610e6a85610b16565b3084600160a060020a031663dd62ed3e610e8389610b16565b6040805160e060020a63ffffffff8516028152600160a060020a0390921660048301523060248301525160448083019260209291908290030181600087803b158015610ece57600080fd5b505af1158015610ee2573d6000803e3d6000fd5b505050506040513d6020811015610ef857600080fd5b50516040805160e060020a63ffffffff8716028152600160a060020a0394851660048201529290931660248301526044820152905160648083019260209291908290030181600087803b158015610f4e57600080fd5b505af1158015610f62573d6000803e3d6000fd5b505050506040513d6020811015610f7857600080fd5b50505b604080517f70a082310000000000000000000000000000000000000000000000000000000081523060048201529051600160a060020a038316916370a082319160248083019260209291908290030181600087803b158015610fdc57600080fd5b505af1158015610ff0573d6000803e3d6000fd5b505050506040513d602081101561100657600080fd5b505161101184610ae3565b146108d2576040805160e560020a62461bcd02815260206004820152603260248201527f746f6b656e20746f74616c206465706f736974656420646f6573206e6f74206d60448201527f617463682073746174652062616c616e63650000000000000000000000000000606482015290519081900360840190fd5b60e0015190565b6000828201838110156110a257fe5b93925050505600a165627a7a72305820b19a5124ef8b5024e569d0f9a85e32621bbbe268ee836b945305dbec2b020b640029",
  "source": "pragma solidity ^0.4.23;\n\nimport \"./NectarToken.sol\";\nimport \"zeppelin-solidity/contracts/math/SafeMath.sol\";\n\n/*\n    Lib for preforming actions based on offer state\n*/\n\nlibrary OfferLib {\n\n    using SafeMath for uint256;\n    \n    // TODO: Think about removing useless state varibles and or replacing with merkle root\n\n    // State Map\n    /// @dev Required State\n    // [0-31] is close flag\n    // [32-63] nonce\n    // [64-95] ambassador address\n    // [96-127] expert address\n    // [128-159] msig address\n    // [160-191] balance in nectar for ambassador\n    // [192-223] balance in nectar for expert\n    // [224-255] token address\n    // [256-287] A globally-unique identifier for the Listing.\n    // [288-319] The Offer Amount.\n\n    /// @dev Optional State\n    // [320-351] Cryptographic hash of the Artifact.\n    // [352-383] The IPFS URI of the Artifact.\n    // [384-415] Engagement Deadline\n    // [416-447] Assertion Deadline\n    // [448-479] current commitment\n    // [480-511] bitmap of verdicts\n    // [512-543] meta data\n\n\n    function getCloseFlag(bytes _state) public pure returns(uint8 _flag) {\n        assembly {\n            _flag := mload(add(_state, 32))\n        }\n    }\n\n    function getSequence(bytes _state) public pure returns(uint256 _seq) {\n        assembly {\n            _seq := mload(add(_state, 64))\n        }\n    }\n\n    function getPartyA(bytes _state) public pure returns(address _ambassador) {\n        assembly {\n            _ambassador := mload(add(_state, 96))\n        }\n    }\n\n    function getPartyB(bytes _state) public pure returns(address _expert) {\n        assembly {\n            _expert := mload(add(_state, 128))\n        }\n    }\n\n    function getMultiSigAddress(bytes _state) public pure returns(address _multisig) {\n        assembly {\n            _multisig := mload(add(_state, 160))\n        }\n    }\n\n    function getBalanceA(bytes _state) public pure returns(uint256 _balanceA) {\n        assembly {\n            _balanceA := mload(add(_state,192))\n        }\n    }\n\n    function getBalanceB(bytes _state) public pure returns(uint256 _balanceB) {\n        assembly {\n            _balanceB := mload(add(_state,224))\n        }\n    }\n\n    function getTokenAddress(bytes _state) public pure returns (address _token) {\n        assembly {\n            _token := mload(add(_state,256))\n        }\n    }\n\n    function getEngagementDeadline(bytes _state) public pure returns (uint256 _engagementDeadline) {\n        assembly {\n            _engagementDeadline := mload(add(_state, 416))\n        }\n    }\n\n    function getAssertionDeadline(bytes _state) public pure returns (uint256 _assertionDeadline) {\n        assembly {\n            _assertionDeadline := mload(add(_state, 448))\n        }\n    }\n\n    function getOfferState(bytes _state) public pure returns \n        ( bytes32 _guid, uint256 _amount, bytes32 _artifactHash, bytes32 _artifactURI,\n        uint256 _engagementDeadline, uint256 _assertionDeadline, bytes32 _commitment,\n        bytes32 _assertion, bytes32 _meta) {\n        assembly {\n            _guid := mload(add(_state, 288)) // [256-287] A globally-unique identi er for the Listing.\n            _amount := mload(add(_state, 320)) // [288-319] The Offer Amount.\n            _artifactHash := mload(add(_state, 352)) // [320-351] Cryptographic hash of the Artifact.\n            _artifactURI := mload(add(_state, 384)) // [352-383] The IPFS URI of the Artifact.\n            _engagementDeadline := mload(add(_state, 416)) // [384-415] Engagement Deadline\n            _assertionDeadline := mload(add(_state, 448)) // [416-447] Assertion Deadline\n            _commitment := mload(add(_state, 480)) // [448-479] commitment\n            _assertion := mload(add(_state, 512)) // [480-511] bitmap of verdicts\n            _meta := mload(add(_state, 544)) // [512-543] Information derived during Assertion generation\n        }\n    }\n\n    function getTotal(bytes _state) public pure returns(uint256) {\n        uint256 _a = getBalanceA(_state);\n        uint256 _b = getBalanceB(_state);\n\n        return _a.add(_b);\n    }\n\n    function open(bytes _state) public returns (bool) {\n        require(msg.sender == getPartyA(_state), 'Party A does not mactch signature recovery');\n        // get the token instance used to allow funds to msig\n        NectarToken _t = NectarToken(getTokenAddress(_state));\n        // ensure the amount sent to open channel matches the signed state balance\n        require(_t.allowance(getPartyA(_state), this) == getBalanceA(_state), 'value does not match ambassador state balance');\n        // complete the tranfer of ambassador approved tokens\n        _t.transferFrom(getPartyA(_state), this, getBalanceA(_state));\n        return true;\n    }\n\n    function join(bytes _state) public view returns (bool) {\n        // get the token instance used to allow funds to msig\n        NectarToken _t = NectarToken(getTokenAddress(_state));\n        \n        // ensure the amount sent to join channel matches the signed state balance\n        require(msg.sender == getPartyB(_state), 'Party B does not mactch signature recovery');\n\n        // Require bonded is the sum of balances in state\n        require(getTotal(_state) == _t.balanceOf(this), 'token total deposited does not match state balance');\n\n        return true;\n    }\n\n    function update(bytes _state) public returns (bool) {\n        // get the token instance used to allow funds to msig\n        NectarToken _t = NectarToken(getTokenAddress(_state));\n\n        if(_t.allowance(getPartyA(_state), this) > 0) {\n            _t.transferFrom(getPartyA(_state), this, _t.allowance(getPartyA(_state), this));\n        }\n\n        require(getTotal(_state) == _t.balanceOf(this), 'token total deposited does not match state balance');\n    }\n\n    function finalize(bytes _state) public returns (bool) {\n        address _a = getPartyA(_state);\n        address _b = getPartyB(_state);\n\n        NectarToken _t = NectarToken(getTokenAddress(_state));\n        require(getTotal(_state) == _t.balanceOf(this), 'tried finalizing token state that does not match bnded value');\n\n        _t.transfer(_a, getBalanceA(_state));\n        _t.transfer(_b, getBalanceB(_state));\n    }\n}",
  "sourcePath": "/home/user/Projects/polyswarmd/truffle/contracts/OfferLib.sol",
  "compiler": {
    "name": "solc",
    "version": "0.4.24+commit.e67f0147.Emscripten.clang"
  },
  "schemaVersion": "2.0.0",
  "updatedAt": "2018-06-26T11:04:44.269Z"
}