{
  "abi": [
    {
      "constant": true,
      "inputs": [
        {
          "name": "account",
          "type": "address"
        }
      ],
      "name": "isDeprecator",
      "outputs": [
        {
          "name": "",
          "type": "bool"
        }
      ],
      "payable": false,
      "stateMutability": "view",
      "type": "function"
    },
    {
      "constant": false,
      "inputs": [
        {
          "name": "newAssertionFee",
          "type": "uint256"
        }
      ],
      "name": "setAssertionFee",
      "outputs": [],
      "payable": false,
      "stateMutability": "nonpayable",
      "type": "function"
    },
    {
      "constant": true,
      "inputs": [
        {
          "name": "",
          "type": "uint128"
        },
        {
          "name": "",
          "type": "uint256"
        }
      ],
      "name": "quorumVotesByGuid",
      "outputs": [
        {
          "name": "",
          "type": "uint256"
        }
      ],
      "payable": false,
      "stateMutability": "view",
      "type": "function"
    },
    {
      "constant": true,
      "inputs": [
        {
          "name": "",
          "type": "uint128"
        },
        {
          "name": "",
          "type": "uint256"
        }
      ],
      "name": "bloomByGuid",
      "outputs": [
        {
          "name": "",
          "type": "uint256"
        }
      ],
      "payable": false,
      "stateMutability": "view",
      "type": "function"
    },
    {
      "constant": true,
      "inputs": [],
      "name": "VALID_HASH_PERIOD",
      "outputs": [
        {
          "name": "",
          "type": "uint256"
        }
      ],
      "payable": false,
      "stateMutability": "view",
      "type": "function"
    },
    {
      "constant": false,
      "inputs": [
        {
          "name": "bountyGuid",
          "type": "uint128"
        },
        {
          "name": "votes",
          "type": "uint256"
        },
        {
          "name": "validBloom",
          "type": "bool"
        }
      ],
      "name": "voteOnBounty",
      "outputs": [],
      "payable": false,
      "stateMutability": "nonpayable",
      "type": "function"
    },
    {
      "constant": false,
      "inputs": [
        {
          "name": "newBountyFee",
          "type": "uint256"
        }
      ],
      "name": "setBountyFee",
      "outputs": [],
      "payable": false,
      "stateMutability": "nonpayable",
      "type": "function"
    },
    {
      "constant": true,
      "inputs": [],
      "name": "PAGE_SIZE",
      "outputs": [
        {
          "name": "",
          "type": "uint256"
        }
      ],
      "payable": false,
      "stateMutability": "view",
      "type": "function"
    },
    {
      "constant": false,
      "inputs": [
        {
          "name": "account",
          "type": "address"
        },
        {
          "name": "blockNumber",
          "type": "uint256"
        }
      ],
      "name": "removeArbiter",
      "outputs": [],
      "payable": false,
      "stateMutability": "nonpayable",
      "type": "function"
    },
    {
      "constant": true,
      "inputs": [
        {
          "name": "bountyGuid",
          "type": "uint128"
        }
      ],
      "name": "getNumberOfVotes",
      "outputs": [
        {
          "name": "",
          "type": "uint256"
        }
      ],
      "payable": false,
      "stateMutability": "view",
      "type": "function"
    },
    {
      "constant": true,
      "inputs": [],
      "name": "ASSERTION_BID_ARTIFACT_MINIMUM",
      "outputs": [
        {
          "name": "",
          "type": "uint256"
        }
      ],
      "payable": false,
      "stateMutability": "view",
      "type": "function"
    },
    {
      "constant": true,
      "inputs": [],
      "name": "assertionFee",
      "outputs": [
        {
          "name": "",
          "type": "uint256"
        }
      ],
      "payable": false,
      "stateMutability": "view",
      "type": "function"
    },
    {
      "constant": false,
      "inputs": [],
      "name": "unpause",
      "outputs": [],
      "payable": false,
      "stateMutability": "nonpayable",
      "type": "function"
    },
    {
      "constant": true,
      "inputs": [
        {
          "name": "account",
          "type": "address"
        }
      ],
      "name": "isPauser",
      "outputs": [
        {
          "name": "",
          "type": "bool"
        }
      ],
      "payable": false,
      "stateMutability": "view",
      "type": "function"
    },
    {
      "constant": false,
      "inputs": [
        {
          "name": "newFeeManager",
          "type": "address"
        }
      ],
      "name": "setFeeManager",
      "outputs": [],
      "payable": false,
      "stateMutability": "nonpayable",
      "type": "function"
    },
    {
      "constant": true,
      "inputs": [
        {
          "name": "page",
          "type": "uint256"
        }
      ],
      "name": "getBountyGuids",
      "outputs": [
        {
          "name": "",
          "type": "uint128[]"
        }
      ],
      "payable": false,
      "stateMutability": "view",
      "type": "function"
    },
    {
      "constant": true,
      "inputs": [
        {
          "name": "",
          "type": "uint256"
        },
        {
          "name": "",
          "type": "address"
        }
      ],
      "name": "expertAssertionRegistryByGuid",
      "outputs": [
        {
          "name": "",
          "type": "bool"
        }
      ],
      "payable": false,
      "stateMutability": "view",
      "type": "function"
    },
    {
      "constant": true,
      "inputs": [],
      "name": "staking",
      "outputs": [
        {
          "name": "",
          "type": "address"
        }
      ],
      "payable": false,
      "stateMutability": "view",
      "type": "function"
    },
    {
      "constant": true,
      "inputs": [
        {
          "name": "bountyGuid",
          "type": "uint128"
        }
      ],
      "name": "getNumberOfAssertions",
      "outputs": [
        {
          "name": "",
          "type": "uint256"
        }
      ],
      "payable": false,
      "stateMutability": "view",
      "type": "function"
    },
    {
      "constant": false,
      "inputs": [
        {
          "name": "bountyGuid",
          "type": "uint128"
        }
      ],
      "name": "settleBounty",
      "outputs": [],
      "payable": false,
      "stateMutability": "nonpayable",
      "type": "function"
    },
    {
      "constant": false,
      "inputs": [
        {
          "name": "account",
          "type": "address"
        }
      ],
      "name": "addDeprecator",
      "outputs": [],
      "payable": false,
      "stateMutability": "nonpayable",
      "type": "function"
    },
    {
      "constant": true,
      "inputs": [],
      "name": "paused",
      "outputs": [
        {
          "name": "",
          "type": "bool"
        }
      ],
      "payable": false,
      "stateMutability": "view",
      "type": "function"
    },
    {
      "constant": false,
      "inputs": [
        {
          "name": "newAssertionRevealWindow",
          "type": "uint256"
        },
        {
          "name": "newArbiterVoteWindow",
          "type": "uint256"
        }
      ],
      "name": "setWindows",
      "outputs": [],
      "payable": false,
      "stateMutability": "nonpayable",
      "type": "function"
    },
    {
      "constant": true,
      "inputs": [
        {
          "name": "bountyGuid",
          "type": "uint128"
        }
      ],
      "name": "getCurrentRound",
      "outputs": [
        {
          "name": "",
          "type": "uint256"
        }
      ],
      "payable": false,
      "stateMutability": "view",
      "type": "function"
    },
    {
      "constant": false,
      "inputs": [],
      "name": "undeprecate",
      "outputs": [],
      "payable": false,
      "stateMutability": "nonpayable",
      "type": "function"
    },
    {
      "constant": false,
      "inputs": [],
      "name": "renouncePauser",
      "outputs": [],
      "payable": false,
      "stateMutability": "nonpayable",
      "type": "function"
    },
    {
      "constant": false,
      "inputs": [
        {
          "name": "account",
          "type": "address"
        }
      ],
      "name": "removeDeprecator",
      "outputs": [],
      "payable": false,
      "stateMutability": "nonpayable",
      "type": "function"
    },
    {
      "constant": false,
      "inputs": [],
      "name": "renounceOwnership",
      "outputs": [],
      "payable": false,
      "stateMutability": "nonpayable",
      "type": "function"
    },
    {
      "constant": true,
      "inputs": [],
      "name": "assertionRevealWindow",
      "outputs": [
        {
          "name": "",
          "type": "uint256"
        }
      ],
      "payable": false,
      "stateMutability": "view",
      "type": "function"
    },
    {
      "constant": true,
      "inputs": [
        {
          "name": "",
          "type": "uint256"
        },
        {
          "name": "",
          "type": "uint256"
        }
      ],
      "name": "voteCountByGuid",
      "outputs": [
        {
          "name": "",
          "type": "uint256"
        }
      ],
      "payable": false,
      "stateMutability": "view",
      "type": "function"
    },
    {
      "constant": true,
      "inputs": [
        {
          "name": "",
          "type": "uint128"
        },
        {
          "name": "",
          "type": "address"
        }
      ],
      "name": "bountySettled",
      "outputs": [
        {
          "name": "",
          "type": "bool"
        }
      ],
      "payable": false,
      "stateMutability": "view",
      "type": "function"
    },
    {
      "constant": true,
      "inputs": [
        {
          "name": "",
          "type": "uint128"
        },
        {
          "name": "",
          "type": "uint256"
        },
        {
          "name": "",
          "type": "uint256"
        }
      ],
      "name": "assertionBidByGuid",
      "outputs": [
        {
          "name": "",
          "type": "uint256"
        }
      ],
      "payable": false,
      "stateMutability": "view",
      "type": "function"
    },
    {
      "constant": false,
      "inputs": [
        {
          "name": "account",
          "type": "address"
        }
      ],
      "name": "addPauser",
      "outputs": [],
      "payable": false,
      "stateMutability": "nonpayable",
      "type": "function"
    },
    {
      "constant": false,
      "inputs": [],
      "name": "pause",
      "outputs": [],
      "payable": false,
      "stateMutability": "nonpayable",
      "type": "function"
    },
    {
      "constant": true,
      "inputs": [],
      "name": "getArbiterCandidates",
      "outputs": [
        {
          "name": "",
          "type": "address[]"
        }
      ],
      "payable": false,
      "stateMutability": "view",
      "type": "function"
    },
    {
      "constant": true,
      "inputs": [
        {
          "name": "bountyGuid",
          "type": "uint128"
        },
        {
          "name": "assertionId",
          "type": "uint256"
        }
      ],
      "name": "getBids",
      "outputs": [
        {
          "name": "bids",
          "type": "uint256[]"
        }
      ],
      "payable": false,
      "stateMutability": "view",
      "type": "function"
    },
    {
      "constant": true,
      "inputs": [],
      "name": "getNumberOfBounties",
      "outputs": [
        {
          "name": "",
          "type": "uint256"
        }
      ],
      "payable": false,
      "stateMutability": "view",
      "type": "function"
    },
    {
      "constant": true,
      "inputs": [],
      "name": "owner",
      "outputs": [
        {
          "name": "",
          "type": "address"
        }
      ],
      "payable": false,
      "stateMutability": "view",
      "type": "function"
    },
    {
      "constant": true,
      "inputs": [],
      "name": "isOwner",
      "outputs": [
        {
          "name": "",
          "type": "bool"
        }
      ],
      "payable": false,
      "stateMutability": "view",
      "type": "function"
    },
    {
      "constant": true,
      "inputs": [],
      "name": "ASSERTION_BID_ARTIFACT_MAXIMUM",
      "outputs": [
        {
          "name": "",
          "type": "uint256"
        }
      ],
      "payable": false,
      "stateMutability": "view",
      "type": "function"
    },
    {
      "constant": false,
      "inputs": [
        {
          "name": "_rollover",
          "type": "bool"
        }
      ],
      "name": "deprecate",
      "outputs": [],
      "payable": false,
      "stateMutability": "nonpayable",
      "type": "function"
    },
    {
      "constant": true,
      "inputs": [],
      "name": "arbiterVoteWindow",
      "outputs": [
        {
          "name": "",
          "type": "uint256"
        }
      ],
      "payable": false,
      "stateMutability": "view",
      "type": "function"
    },
    {
      "constant": true,
      "inputs": [],
      "name": "bountyFee",
      "outputs": [
        {
          "name": "",
          "type": "uint256"
        }
      ],
      "payable": false,
      "stateMutability": "view",
      "type": "function"
    },
    {
      "constant": true,
      "inputs": [],
      "name": "rollover",
      "outputs": [
        {
          "name": "",
          "type": "bool"
        }
      ],
      "payable": false,
      "stateMutability": "view",
      "type": "function"
    },
    {
      "constant": true,
      "inputs": [],
      "name": "MAX_DURATION",
      "outputs": [
        {
          "name": "",
          "type": "uint256"
        }
      ],
      "payable": false,
      "stateMutability": "view",
      "type": "function"
    },
    {
      "constant": false,
      "inputs": [
        {
          "name": "account",
          "type": "address"
        }
      ],
      "name": "addArbiterManager",
      "outputs": [],
      "payable": false,
      "stateMutability": "nonpayable",
      "type": "function"
    },
    {
      "constant": false,
      "inputs": [
        {
          "name": "guid",
          "type": "uint128"
        },
        {
          "name": "artifactType",
          "type": "uint256"
        },
        {
          "name": "amount",
          "type": "uint256"
        },
        {
          "name": "artifactURI",
          "type": "string"
        },
        {
          "name": "numArtifacts",
          "type": "uint256"
        },
        {
          "name": "durationBlocks",
          "type": "uint256"
        },
        {
          "name": "bloom",
          "type": "uint256[8]"
        },
        {
          "name": "metadata",
          "type": "string"
        }
      ],
      "name": "postBounty",
      "outputs": [],
      "payable": false,
      "stateMutability": "nonpayable",
      "type": "function"
    },
    {
      "constant": false,
      "inputs": [
        {
          "name": "newWindowManager",
          "type": "address"
        }
      ],
      "name": "setWindowManager",
      "outputs": [],
      "payable": false,
      "stateMutability": "nonpayable",
      "type": "function"
    },
    {
      "constant": true,
      "inputs": [],
      "name": "BOUNTY_AMOUNT_MINIMUM",
      "outputs": [
        {
          "name": "",
          "type": "uint256"
        }
      ],
      "payable": false,
      "stateMutability": "view",
      "type": "function"
    },
    {
      "constant": true,
      "inputs": [],
      "name": "ARBITER_LOOKBACK_RANGE",
      "outputs": [
        {
          "name": "",
          "type": "uint256"
        }
      ],
      "payable": false,
      "stateMutability": "view",
      "type": "function"
    },
    {
      "constant": true,
      "inputs": [
        {
          "name": "account",
          "type": "address"
        }
      ],
      "name": "isArbiterManager",
      "outputs": [
        {
          "name": "",
          "type": "bool"
        }
      ],
      "payable": false,
      "stateMutability": "view",
      "type": "function"
    },
    {
      "constant": true,
      "inputs": [],
      "name": "arbiterCount",
      "outputs": [
        {
          "name": "",
          "type": "uint256"
        }
      ],
      "payable": false,
      "stateMutability": "view",
      "type": "function"
    },
    {
      "constant": false,
      "inputs": [
        {
          "name": "account",
          "type": "address"
        }
      ],
      "name": "removeArbiterManager",
      "outputs": [],
      "payable": false,
      "stateMutability": "nonpayable",
      "type": "function"
    },
    {
      "constant": true,
      "inputs": [
        {
          "name": "bountyGuid",
          "type": "uint128"
        }
      ],
      "name": "getVoters",
      "outputs": [
        {
          "name": "",
          "type": "address[]"
        }
      ],
      "payable": false,
      "stateMutability": "view",
      "type": "function"
    },
    {
      "constant": true,
      "inputs": [
        {
          "name": "",
          "type": "uint128"
        },
        {
          "name": "",
          "type": "uint256"
        }
      ],
      "name": "assertionsByGuid",
      "outputs": [
        {
          "name": "author",
          "type": "address"
        },
        {
          "name": "mask",
          "type": "uint256"
        },
        {
          "name": "commitment",
          "type": "uint256"
        },
        {
          "name": "nonce",
          "type": "uint256"
        },
        {
          "name": "verdicts",
          "type": "uint256"
        },
        {
          "name": "metadata",
          "type": "string"
        }
      ],
      "payable": false,
      "stateMutability": "view",
      "type": "function"
    },
    {
      "constant": true,
      "inputs": [
        {
          "name": "",
          "type": "uint128"
        }
      ],
      "name": "bountiesByGuid",
      "outputs": [
        {
          "name": "guid",
          "type": "uint128"
        },
        {
          "name": "artifactType",
          "type": "uint8"
        },
        {
          "name": "author",
          "type": "address"
        },
        {
          "name": "amount",
          "type": "uint256"
        },
        {
          "name": "artifactURI",
          "type": "string"
        },
        {
          "name": "numArtifacts",
          "type": "uint256"
        },
        {
          "name": "expirationBlock",
          "type": "uint256"
        },
        {
          "name": "assignedArbiter",
          "type": "address"
        },
        {
          "name": "quorumReached",
          "type": "bool"
        },
        {
          "name": "quorumBlock",
          "type": "uint256"
        },
        {
          "name": "quorumMask",
          "type": "uint256"
        },
        {
          "name": "metadata",
          "type": "string"
        }
      ],
      "payable": false,
      "stateMutability": "view",
      "type": "function"
    },
    {
      "constant": true,
      "inputs": [],
      "name": "DEFAULT_BOUNTY_FEE",
      "outputs": [
        {
          "name": "",
          "type": "uint256"
        }
      ],
      "payable": false,
      "stateMutability": "view",
      "type": "function"
    },
    {
      "constant": true,
      "inputs": [],
      "name": "getActiveArbiters",
      "outputs": [
        {
          "name": "",
          "type": "address[]"
        },
        {
          "name": "",
          "type": "bool[]"
        }
      ],
      "payable": false,
      "stateMutability": "view",
      "type": "function"
    },
    {
      "constant": false,
      "inputs": [
        {
          "name": "account",
          "type": "address"
        },
        {
          "name": "blockNumber",
          "type": "uint256"
        }
      ],
      "name": "addArbiter",
      "outputs": [],
      "payable": false,
      "stateMutability": "nonpayable",
      "type": "function"
    },
    {
      "constant": true,
      "inputs": [],
      "name": "deprecatedBlock",
      "outputs": [
        {
          "name": "",
          "type": "uint256"
        }
      ],
      "payable": false,
      "stateMutability": "view",
      "type": "function"
    },
    {
      "constant": true,
      "inputs": [],
      "name": "DEFAULT_ASSERTION_FEE",
      "outputs": [
        {
          "name": "",
          "type": "uint256"
        }
      ],
      "payable": false,
      "stateMutability": "view",
      "type": "function"
    },
    {
      "constant": true,
      "inputs": [
        {
          "name": "",
          "type": "uint128"
        },
        {
          "name": "",
          "type": "uint256"
        }
      ],
      "name": "votesByGuid",
      "outputs": [
        {
          "name": "author",
          "type": "address"
        },
        {
          "name": "votes",
          "type": "uint256"
        },
        {
          "name": "validBloom",
          "type": "bool"
        }
      ],
      "payable": false,
      "stateMutability": "view",
      "type": "function"
    },
    {
      "constant": false,
      "inputs": [
        {
          "name": "bountyGuid",
          "type": "uint128"
        },
        {
          "name": "bid",
          "type": "uint256[]"
        },
        {
          "name": "mask",
          "type": "uint256"
        },
        {
          "name": "commitment",
          "type": "uint256"
        }
      ],
      "name": "postAssertion",
      "outputs": [],
      "payable": false,
      "stateMutability": "nonpayable",
      "type": "function"
    },
    {
      "constant": false,
      "inputs": [
        {
          "name": "newOwner",
          "type": "address"
        }
      ],
      "name": "transferOwnership",
      "outputs": [],
      "payable": false,
      "stateMutability": "nonpayable",
      "type": "function"
    },
    {
      "constant": true,
      "inputs": [
        {
          "name": "account",
          "type": "address"
        }
      ],
      "name": "isArbiter",
      "outputs": [
        {
          "name": "",
          "type": "bool"
        }
      ],
      "payable": false,
      "stateMutability": "view",
      "type": "function"
    },
    {
      "constant": false,
      "inputs": [
        {
          "name": "bountyGuid",
          "type": "uint128"
        },
        {
          "name": "assertionId",
          "type": "uint256"
        },
        {
          "name": "nonce",
          "type": "uint256"
        },
        {
          "name": "verdicts",
          "type": "uint256"
        },
        {
          "name": "metadata",
          "type": "string"
        }
      ],
      "name": "revealAssertion",
      "outputs": [],
      "payable": false,
      "stateMutability": "nonpayable",
      "type": "function"
    },
    {
      "constant": true,
      "inputs": [
        {
          "name": "",
          "type": "uint256"
        },
        {
          "name": "",
          "type": "address"
        }
      ],
      "name": "arbiterVoteRegistryByGuid",
      "outputs": [
        {
          "name": "",
          "type": "bool"
        }
      ],
      "payable": false,
      "stateMutability": "view",
      "type": "function"
    },
    {
      "constant": true,
      "inputs": [],
      "name": "VERSION",
      "outputs": [
        {
          "name": "",
          "type": "string"
        }
      ],
      "payable": false,
      "stateMutability": "view",
      "type": "function"
    },
    {
      "inputs": [
        {
          "name": "_token",
          "type": "address"
        },
        {
          "name": "_arbiterStaking",
          "type": "address"
        },
        {
          "name": "_arbiterVoteWindow",
          "type": "uint256"
        },
        {
          "name": "_assertionRevealWindow",
          "type": "uint256"
        }
      ],
      "payable": false,
      "stateMutability": "nonpayable",
      "type": "constructor"
    },
    {
      "anonymous": false,
      "inputs": [
        {
          "indexed": false,
          "name": "guid",
          "type": "uint128"
        },
        {
          "indexed": false,
          "name": "artifactType",
          "type": "uint256"
        },
        {
          "indexed": false,
          "name": "author",
          "type": "address"
        },
        {
          "indexed": false,
          "name": "amount",
          "type": "uint256"
        },
        {
          "indexed": false,
          "name": "artifactURI",
          "type": "string"
        },
        {
          "indexed": false,
          "name": "expirationBlock",
          "type": "uint256"
        },
        {
          "indexed": false,
          "name": "metadata",
          "type": "string"
        }
      ],
      "name": "NewBounty",
      "type": "event"
    },
    {
      "anonymous": false,
      "inputs": [
        {
          "indexed": false,
          "name": "bountyGuid",
          "type": "uint128"
        },
        {
          "indexed": false,
          "name": "author",
          "type": "address"
        },
        {
          "indexed": false,
          "name": "index",
          "type": "uint256"
        },
        {
          "indexed": false,
          "name": "bid",
          "type": "uint256[]"
        },
        {
          "indexed": false,
          "name": "mask",
          "type": "uint256"
        },
        {
          "indexed": false,
          "name": "numArtifacts",
          "type": "uint256"
        },
        {
          "indexed": false,
          "name": "commitment",
          "type": "uint256"
        }
      ],
      "name": "NewAssertion",
      "type": "event"
    },
    {
      "anonymous": false,
      "inputs": [
        {
          "indexed": false,
          "name": "bountyGuid",
          "type": "uint128"
        },
        {
          "indexed": false,
          "name": "author",
          "type": "address"
        },
        {
          "indexed": false,
          "name": "index",
          "type": "uint256"
        },
        {
          "indexed": false,
          "name": "nonce",
          "type": "uint256"
        },
        {
          "indexed": false,
          "name": "verdicts",
          "type": "uint256"
        },
        {
          "indexed": false,
          "name": "numArtifacts",
          "type": "uint256"
        },
        {
          "indexed": false,
          "name": "metadata",
          "type": "string"
        }
      ],
      "name": "RevealedAssertion",
      "type": "event"
    },
    {
      "anonymous": false,
      "inputs": [
        {
          "indexed": false,
          "name": "bountyGuid",
          "type": "uint128"
        },
        {
          "indexed": false,
          "name": "votes",
          "type": "uint256"
        },
        {
          "indexed": false,
          "name": "numArtifacts",
          "type": "uint256"
        },
        {
          "indexed": false,
          "name": "voter",
          "type": "address"
        }
      ],
      "name": "NewVote",
      "type": "event"
    },
    {
      "anonymous": false,
      "inputs": [
        {
          "indexed": false,
          "name": "bountyGuid",
          "type": "uint128"
        }
      ],
      "name": "QuorumReached",
      "type": "event"
    },
    {
      "anonymous": false,
      "inputs": [
        {
          "indexed": false,
          "name": "bountyGuid",
          "type": "uint128"
        },
        {
          "indexed": false,
          "name": "settler",
          "type": "address"
        },
        {
          "indexed": false,
          "name": "payout",
          "type": "uint256"
        }
      ],
      "name": "SettledBounty",
      "type": "event"
    },
    {
      "anonymous": false,
      "inputs": [
        {
          "indexed": false,
          "name": "bountyFee",
          "type": "uint256"
        },
        {
          "indexed": false,
          "name": "assertionFee",
          "type": "uint256"
        }
      ],
      "name": "FeesUpdated",
      "type": "event"
    },
    {
      "anonymous": false,
      "inputs": [
        {
          "indexed": false,
          "name": "assertionRevealWindow",
          "type": "uint256"
        },
        {
          "indexed": false,
          "name": "arbiterVoteWindow",
          "type": "uint256"
        }
      ],
      "name": "WindowsUpdated",
      "type": "event"
    },
    {
      "anonymous": false,
      "inputs": [
        {
          "indexed": true,
          "name": "previousOwner",
          "type": "address"
        },
        {
          "indexed": true,
          "name": "newOwner",
          "type": "address"
        }
      ],
      "name": "OwnershipTransferred",
      "type": "event"
    },
    {
      "anonymous": false,
      "inputs": [
        {
          "indexed": false,
          "name": "account",
          "type": "address"
        }
      ],
      "name": "Paused",
      "type": "event"
    },
    {
      "anonymous": false,
      "inputs": [
        {
          "indexed": false,
          "name": "account",
          "type": "address"
        }
      ],
      "name": "Unpaused",
      "type": "event"
    },
    {
      "anonymous": false,
      "inputs": [
        {
          "indexed": true,
          "name": "account",
          "type": "address"
        }
      ],
      "name": "PauserAdded",
      "type": "event"
    },
    {
      "anonymous": false,
      "inputs": [
        {
          "indexed": true,
          "name": "account",
          "type": "address"
        }
      ],
      "name": "PauserRemoved",
      "type": "event"
    },
    {
      "anonymous": false,
      "inputs": [
        {
          "indexed": false,
          "name": "rollover",
          "type": "bool"
        }
      ],
      "name": "Deprecated",
      "type": "event"
    },
    {
      "anonymous": false,
      "inputs": [],
      "name": "Undeprecated",
      "type": "event"
    },
    {
      "anonymous": false,
      "inputs": [
        {
          "indexed": true,
          "name": "account",
          "type": "address"
        }
      ],
      "name": "DeprecatorAdded",
      "type": "event"
    },
    {
      "anonymous": false,
      "inputs": [
        {
          "indexed": true,
          "name": "account",
          "type": "address"
        }
      ],
      "name": "DeprecatorRemoved",
      "type": "event"
    },
    {
      "anonymous": false,
      "inputs": [
        {
          "indexed": true,
          "name": "previousManager",
          "type": "address"
        },
        {
          "indexed": true,
          "name": "newManager",
          "type": "address"
        }
      ],
      "name": "NewWindowManager",
      "type": "event"
    },
    {
      "anonymous": false,
      "inputs": [
        {
          "indexed": true,
          "name": "previousManager",
          "type": "address"
        },
        {
          "indexed": true,
          "name": "newManager",
          "type": "address"
        }
      ],
      "name": "NewFeeManager",
      "type": "event"
    },
    {
      "anonymous": false,
      "inputs": [
        {
          "indexed": true,
          "name": "account",
          "type": "address"
        },
        {
          "indexed": false,
          "name": "blockNumber",
          "type": "uint256"
        }
      ],
      "name": "AddedArbiter",
      "type": "event"
    },
    {
      "anonymous": false,
      "inputs": [
        {
          "indexed": true,
          "name": "account",
          "type": "address"
        },
        {
          "indexed": false,
          "name": "blockNumber",
          "type": "uint256"
        }
      ],
      "name": "RemovedArbiter",
      "type": "event"
    },
    {
      "anonymous": false,
      "inputs": [
        {
          "indexed": true,
          "name": "account",
          "type": "address"
        }
      ],
      "name": "ArbiterManagerAdded",
      "type": "event"
    },
    {
      "anonymous": false,
      "inputs": [
        {
          "indexed": true,
          "name": "account",
          "type": "address"
        }
      ],
      "name": "ArbiterManagerRemoved",
      "type": "event"
    }
  ],
  "contractName": "BountyRegistry",
  "evm": {
    "bytecode": {
      "linkReferences": {},
      "object": "60806040523480156200001157600080fd5b5060405160808062005d49833981018060405260808110156200003357600080fd5b50805160208201516040830151606090930151919290916200005e3364010000000062000165810204565b60006002556003805433600160a060020a0319918216811790925560048054909116821790556200009890640100000000620001b7810204565b60006006556007805460ff19169055620000bb3364010000000062000209810204565b60098054600160a860020a0319166101003381029190911791829055604051600160a060020a039190920416906000907f8be0079c531659141344cd1fd0a4f28419497f9722a3daafe3b4186f6b6457e0908290a366de0b6b3a764000600c55666f05b59d3b2000600d55600b8054600160a060020a03958616600160a060020a031991821617909155600a805494909516931692909217909255600e91909155600f55620002ee565b6200018060008264010000000062004ec76200025b82021704565b604051600160a060020a038216907fd04992be14bdfcb19fb5a7dc0cdfeeaf1ec5dee2e45cf1885279c0f9a670983e90600090a250565b620001d260058264010000000062004ec76200025b82021704565b604051600160a060020a038216907fcaaf71e540cbbac3d0853179c2d500b98dcbed027c90b0c724045cf6e8ab5ead90600090a250565b6200022460088264010000000062004ec76200025b82021704565b604051600160a060020a038216907f6719d08c1888103bea251a4ed56406bd0c3e69723c8a1686e017e7bbe159b6f890600090a250565b600160a060020a03811615156200027157600080fd5b620002868282640100000000620002b6810204565b156200029157600080fd5b600160a060020a0316600090815260209190915260409020805460ff19166001179055565b6000600160a060020a0382161515620002ce57600080fd5b50600160a060020a03166000908152602091909152604090205460ff1690565b615a4b80620002fe6000396000f3fe608060405234801561001057600080fd5b50600436106104005760003560e060020a9004806384e192a711610219578063c15fd28211610129578063e77a964e116100bc578063f2fde38b1161008b578063f2fde38b14610ecb578063f5bbc6d514610ef1578063f8f32de614610f17578063fe78f3e414610fa8578063ffa1ad7414610fd457610400565b8063e77a964e14610ddf578063e87cb71514610de7578063e89c105414610def578063ea11731e14610e4557610400565b8063d4c4e7a9116100f8578063d4c4e7a914610b89578063dea3c9cc1461057b578063e328cc5c14610d12578063e6530b9714610db357610400565b8063c15fd28214610a5c578063ca976bc014610a64578063d2f1f71214610a8a578063d3b9224314610ab057610400565b8063a101f7cd116101ac578063b2e366a81161017b578063b2e366a814610916578063b502309414610a08578063b769ccbf14610a2e578063ba6a7efb146108e8578063baf563f114610a3657610400565b8063a101f7cd146108d8578063b056b49a146108e0578063b1724b46146108e8578063b27e80b3146108f057610400565b80638f32d59b116101e85780638f32d59b146108a15780639187f7ed146108a95780639251cff4146108b15780639e23d264146108d057610400565b806384e192a71461085d5780638605e037146108655780638836f3ef146108915780638da5cb5b1461089957610400565b80634cf088d9116103145780636ef8d66d116102a75780637d30503c116102765780637d30503c146107a55780637e5251c6146107c85780637f562ecd146107fd57806382dc1ec41461082f5780638456cb591461085557610400565b80636ef8d66d146107675780636f12b6241461076f578063715018a6146107955780637c7aa2771461079d57610400565b80635c975abb116102e35780635c975abb1461070e57806365f4bce61461071657806369ebb7e9146107395780636e45993c1461075f57610400565b80634cf088d9146106785780634ee29ec51461069c5780635592d687146106c2578063567b5ada146106e857610400565b8063357d0173116103975780633f4ba83a116103665780633f4ba83a1461058b57806346fbf68e14610593578063472d35b9146105b95780634a474b27146105df5780634a5646481461064c57610400565b8063357d0173146105295780633ca63675146105555780633e550ec11461057b5780633f192e121461058357610400565b80631c15df91116103d35780631c15df91146104c857806327028aae146104d05780632874e35d1461050457806331b286641461052157610400565b806301b86b8014610405578063029734a71461043f57806311451e001461045e578063147dda151461049c575b600080fd5b61042b6004803603602081101561041b57600080fd5b5035600160a060020a0316611051565b604080519115158252519081900360200190f35b61045c6004803603602081101561045557600080fd5b503561106c565b005b61048a6004803603604081101561047457600080fd5b506001608060020a0381351690602001356110c8565b60408051918252519081900360200190f35b61048a600480360360408110156104b257600080fd5b506001608060020a0381351690602001356110e5565b61048a611107565b61045c600480360360608110156104e657600080fd5b506001608060020a038135169060208101359060400135151561110d565b61045c6004803603602081101561051a57600080fd5b503561166a565b61048a6116c7565b61045c6004803603604081101561053f57600080fd5b50600160a060020a0381351690602001356116cc565b61048a6004803603602081101561056b57600080fd5b50356001608060020a031661174b565b61048a6117d0565b61048a6117db565b61045c6117e1565b61042b600480360360208110156105a957600080fd5b5035600160a060020a0316611845565b61045c600480360360208110156105cf57600080fd5b5035600160a060020a0316611858565b6105fc600480360360208110156105f557600080fd5b50356118c3565b60408051602080825283518183015283519192839290830191858101910280838360005b83811015610638578181015183820152602001610620565b505050509050019250505060405180910390f35b61042b6004803603604081101561066257600080fd5b5080359060200135600160a060020a03166119e3565b610680611a03565b60408051600160a060020a039092168252519081900360200190f35b61048a600480360360208110156106b257600080fd5b50356001608060020a0316611a12565b61045c600480360360208110156106d857600080fd5b50356001608060020a0316611a97565b61045c600480360360208110156106fe57600080fd5b5035600160a060020a0316611f39565b61042b611f59565b61045c6004803603604081101561072c57600080fd5b5080359060200135611f63565b61048a6004803603602081101561074f57600080fd5b50356001608060020a0316611fc3565b61045c6122f3565b61045c612350565b61045c6004803603602081101561078557600080fd5b5035600160a060020a031661235b565b61045c612364565b61048a6123d4565b61048a600480360360408110156107bb57600080fd5b50803590602001356123da565b61042b600480360360408110156107de57600080fd5b5080356001608060020a03169060200135600160a060020a03166123f7565b61048a6004803603606081101561081357600080fd5b506001608060020a038135169060208101359060400135612417565b61045c6004803603602081101561084557600080fd5b5035600160a060020a031661245f565b61045c61247c565b6105fc6124e2565b6105fc6004803603604081101561087b57600080fd5b506001608060020a03813516906020013561285a565b61048a61295d565b610680612963565b61042b612977565b61048a61298d565b61045c600480360360208110156108c757600080fd5b50351515612999565b61048a612a0d565b61048a612a13565b61042b612a19565b61048a612a22565b61045c6004803603602081101561090657600080fd5b5035600160a060020a0316612a27565b61045c60048036036101e081101561092d57600080fd5b6001608060020a03823516916020810135916040820135919081019060808101606082013564010000000081111561096457600080fd5b82018360208201111561097657600080fd5b8035906020019184600183028401116401000000008311171561099857600080fd5b919390928235926020810135926040820192909161016081019061014001356401000000008111156109c957600080fd5b8201836020820111156109db57600080fd5b803590602001918460018302840111640100000000831117156109fd57600080fd5b509092509050612a44565b61045c60048036036020811015610a1e57600080fd5b5035600160a060020a0316612fca565b61048a613035565b61042b60048036036020811015610a4c57600080fd5b5035600160a060020a0316613041565b61048a613053565b61045c60048036036020811015610a7a57600080fd5b5035600160a060020a0316613059565b6105fc60048036036020811015610aa057600080fd5b50356001608060020a0316613062565b610adc60048036036040811015610ac657600080fd5b506001608060020a0381351690602001356131ec565b6040518087600160a060020a0316600160a060020a0316815260200186815260200185815260200184815260200183815260200180602001828103825283818151815260200191508051906020019080838360005b83811015610b49578181015183820152602001610b31565b50505050905090810190601f168015610b765780820380516001836020036101000a031916815260200191505b5097505050505050505060405180910390f35b610baf60048036036020811015610b9f57600080fd5b50356001608060020a03166132da565b6040516001608060020a038d168152602081018c6002811115610bce57fe5b60ff1681526020018b600160a060020a0316600160a060020a031681526020018a81526020018060200189815260200188815260200187600160a060020a0316600160a060020a03168152602001861515151581526020018581526020018481526020018060200183810383528b818151815260200191508051906020019080838360005b83811015610c6b578181015183820152602001610c53565b50505050905090810190601f168015610c985780820380516001836020036101000a031916815260200191505b50838103825284518152845160209182019186019080838360005b83811015610ccb578181015183820152602001610cb3565b50505050905090810190601f168015610cf85780820380516001836020036101000a031916815260200191505b509e50505050505050505050505050505060405180910390f35b610d1a613480565b604051808060200180602001838103835285818151815260200191508051906020019060200280838360005b83811015610d5e578181015183820152602001610d46565b50505050905001838103825284818151815260200191508051906020019060200280838360005b83811015610d9d578181015183820152602001610d85565b5050505090500194505050505060405180910390f35b61045c60048036036040811015610dc957600080fd5b50600160a060020a03813516906020013561396e565b61048a6139ed565b61048a6139f3565b610e1b60048036036040811015610e0557600080fd5b506001608060020a0381351690602001356139fe565b60408051600160a060020a0390941684526020840192909252151582820152519081900360600190f35b61045c60048036036080811015610e5b57600080fd5b6001608060020a038235169190810190604081016020820135640100000000811115610e8657600080fd5b820183602082011115610e9857600080fd5b80359060200191846020830284011164010000000083111715610eba57600080fd5b919350915080359060200135613a4c565b61045c60048036036020811015610ee157600080fd5b5035600160a060020a0316613f1f565b61042b60048036036020811015610f0757600080fd5b5035600160a060020a0316613f3b565b61045c600480360360a0811015610f2d57600080fd5b6001608060020a038235169160208101359160408201359160608101359181019060a081016080820135640100000000811115610f6957600080fd5b820183602082011115610f7b57600080fd5b80359060200191846001830284011164010000000083111715610f9d57600080fd5b509092509050613f4e565b61042b60048036036040811015610fbe57600080fd5b5080359060200135600160a060020a03166143dd565b610fdc6143fd565b6040805160208082528351818301528351919283929083019185019080838360005b83811015611016578181015183820152602001610ffe565b50505050905090810190601f1680156110435780820380516001836020036101000a031916815260200191505b509250505060405180910390f35b600061106460058363ffffffff61443416565b90505b919050565b600354600160a060020a0316331461108357600080fd5b600d819055600c54604080519182526020820183905280517f5c6323bf1c2d7aaea2c091a4751c1c87af7f2864650c336507a77d0557af37a19281900390910190a150565b601660209081526000928352604080842090915290825290205481565b601560205260008281526040902081600881106110fe57fe5b01549150829050565b61010081565b61111633613f3b565b151561112157600080fd5b60095460ff161561113157600080fd5b6001608060020a038316600090815260116020908152604080832060149092529091206001820154600160a060020a031615156111a6576040805160e560020a62461bcd0281526020600482015260166024820152600080516020615a00833981519152604482015290519081900360640190fd5b60006111b186611fc3565b905080600214806111c25750806003145b1515611218576040805160e560020a62461bcd02815260206004820152601b60248201527f426f756e7479206e6f7420696e20766f74696e672077696e646f770000000000604482015290519081900360640190fd5b6001608060020a038616600090815260186020908152604080832033845290915290205460ff1615611294576040805160e560020a62461bcd02815260206004820152601960248201527f417262697465722068617320616c726561647920766f74656400000000000000604482015290519081900360640190fd5b61129c615730565b50604080516060810182523380825260208083018981528815158486019081526001608060020a038c1660008181526014855287812080546001808201835591835295822088516003909702018054600160a060020a031916600160a060020a0397881617815594519085015591516002909301805460ff191693151593909317909255600a5486517f293f9f4f000000000000000000000000000000000000000000000000000000008152600481019590955260248501929092524360448501529451939491169263293f9f4f92606480820193929182900301818387803b15801561138857600080fd5b505af115801561139c573d6000803e3d6000fd5b5050506001608060020a03881660008181526018602090815260408083203384528252808320805460ff19166001179055928252601690529081209091508190815b876004015481101561153c5760088801541580159061140657506008880154600282900a1615155b156114405761142661141982600161446f565b859063ffffffff61448b16565b935061143983600163ffffffff61448b16565b9250611534565b600281900a8a161561147c5760008181526020839052604090205461146c90600163ffffffff61448b16565b6000828152602084905260409020555b600081815260208390526040812054885461149c9163ffffffff6144a416565b60008381526020859052604081205460025492935090916114c29163ffffffff6144a416565b905060006114db836002546144a490919063ffffffff16565b600085815260208790526040902054909150821115806114fa57508083115b156115305761151a61150d85600161446f565b889063ffffffff61448b16565b965061152d86600163ffffffff61448b16565b95505b5050505b6001016113de565b5060088701839055600254865414806115585750866004015482145b80156115705750600687015460a060020a900460ff16155b1561160a5760068701805474ff0000000000000000000000000000000000000000191660a060020a1790556001608060020a038a166000908152601160205260409020600501546115c890439063ffffffff6144a416565b6007880155604080516001608060020a038c16815290517f1ea03b2592e477a842b82e314d6518fb90858c4e5405570ec8405e4b117517d29181900360200190a15b6004870154604080516001608060020a038d168152602081018c905280820192909252336060830152517f1d62bec22c4ae1400a6dcb3de090f5410bd8f5dd38a067142a96bcc1d2c3e49b9181900360800190a150505050505050505050565b600354600160a060020a0316331461168157600080fd5b600c819055600d5460408051838152602081019290925280517f5c6323bf1c2d7aaea2c091a4751c1c87af7f2864650c336507a77d0557af37a19281900390910190a150565b601981565b6116d533613041565b15156116e057600080fd5b6116f160018363ffffffff6144b916565b60025461170590600163ffffffff6144a416565b600255604080518281529051600160a060020a038416917f2275ed1cb066a3256995ce7db4914f0ceb8bc5755f46bdf6ee82c3cbbcb7c171919081900360200190a25050565b6001608060020a038116600090815260116020526040812060010154600160a060020a031615156117b4576040805160e560020a62461bcd0281526020600482015260166024820152600080516020615a00833981519152604482015290519081900360640190fd5b506001608060020a031660009081526014602052604090205490565b66de0b6b3a76400081565b600d5481565b6117ea33611845565b15156117f557600080fd5b60095460ff16151561180657600080fd5b6009805460ff191690556040805133815290517f5db9ee0a495bf2e6ff9c91a7834c1ba4fdd244a5e8aa4e537bd38aeae4b073aa9181900360200190a1565b600061106460088363ffffffff61443416565b600354600160a060020a0316331461186f57600080fd5b60038054600160a060020a03838116600160a060020a03198316179283905560405191811692169082907fb64dddc215b4d83b6100e7e425ba0d57f6e67562d748aa63865deb5c1578b5fe90600090a35050565b606060006118d883601963ffffffff61450516565b60105490915081106118fa575050604080516000815260208101909152611067565b6010546019908190611912908463ffffffff6144a416565b101561192e5760105461192b908363ffffffff6144a416565b90505b60608160405190808252806020026020018201604052801561195a578160200160208202803883390190505b50905060005b828110156119da57601061197a828663ffffffff61448b16565b8154811061198457fe5b90600052602060002090600291828204019190066010029054906101000a90046001608060020a031682828151811015156119bb57fe5b6001608060020a03909216602092830290910190910152600101611960565b50949350505050565b601960209081526000928352604080842090915290825290205460ff1681565b600a54600160a060020a031681565b6001608060020a038116600090815260116020526040812060010154600160a060020a03161515611a7b576040805160e560020a62461bcd0281526020600482015260166024820152600080516020615a00833981519152604482015290519081900360640190fd5b506001608060020a031660009081526012602052604090205490565b60095460ff1615611aa757600080fd5b6001608060020a038116600090815260116020908152604080832060129092529091206001820154600160a060020a03161515611b1c576040805160e560020a62461bcd0281526020600482015260166024820152600080516020615a00833981519152604482015290519081900360640190fd5b6001608060020a0383166000908152601a6020908152604080832033845290915290205460ff1615611b98576040805160e560020a62461bcd02815260206004820152601660248201527f53656e64657220616c726561647920736574746c656400000000000000000000604482015290519081900360640190fd5b6000611ba384611fc3565b90508060031480611bb45750806004145b1515611c0a576040805160e560020a62461bcd02815260206004820152601960248201527f4e6f2051756f72756d20616e6420766f74652061637469766500000000000000604482015290519081900360640190fd5b611c1333613f3b565b15611d005760048114611c70576040805160e560020a62461bcd02815260206004820152601960248201527f566f74696e6720726f756e64207374696c6c2061637469766500000000000000604482015290519081900360640190fd5b6006830154600160a060020a03161515611d005743611cb6610100611caa600e54611caa600f54896005015461448b90919063ffffffff16565b9063ffffffff61448b16565b10611ceb57611cc484614530565b600684018054600160a060020a031916600160a060020a0392909216919091179055611d00565b600683018054600160a060020a031916331790555b600080806060611d0f886149f3565b6001608060020a038b166000908152601a602090815260408083203384529091529020805460ff19166001179055919450925090508215801590611d5f57506001870154600160a060020a031633145b15611d9c576001870154600b54611d8991600160a060020a0391821691168563ffffffff614ba316565b611d99848463ffffffff61448b16565b93505b60005b8654811015611e8e578181815181101515611db657fe5b90602001906020020151600014158015611df7575086543390889083908110611ddb57fe5b6000918252602090912060069091020154600160a060020a0316145b15611e8657611e5b8782815481101515611e0d57fe5b60009182526020909120600690910201548351600160a060020a0390911690849084908110611e3857fe5b60209081029091010151600b54600160a060020a0316919063ffffffff614ba316565b611e838282815181101515611e6c57fe5b60209081029091010151869063ffffffff61448b16565b94505b600101611d9f565b508115801590611eaa57506006870154600160a060020a031633145b15611ee7576006870154600b54611ed491600160a060020a0391821691168463ffffffff614ba316565b611ee4848363ffffffff61448b16565b93505b604080516001608060020a038a16815233602082015280820186905290517f70934d8a70c66e7fe28bfa368685d0f82f882fd79f440c57ec55d15f64e2ae559181900360600190a15050505050505050565b611f4233611051565b1515611f4d57600080fd5b611f5681614c42565b50565b60095460ff165b90565b600454600160a060020a03163314611f7a57600080fd5b600e819055600f829055604080518381526020810183905281517f710c8b3bcc669d7c9862e563f43e29e3df52391f837c65b3d891f16023faf0f4929181900390910190a15050565b6001608060020a038116600090815260116020526040812060010154600160a060020a0316151561202c576040805160e560020a62461bcd0281526020600482015260166024820152600080516020615a00833981519152604482015290519081900360640190fd5b612034615750565b6001608060020a038381166000908152601160209081526040918290208251610180810190935280549384168352919290830190700100000000000000000000000000000000900460ff16600281111561208a57fe5b600281111561209557fe5b8152600182810154600160a060020a031660208084019190915260028085015460408086019190915260038601805482516101009682161596909602600019011692909204601f810184900484028501840190915280845260609094019390918301828280156121465780601f1061211b57610100808354040283529160200191612146565b820191906000526020600020905b81548152906001019060200180831161212957829003601f168201915b5050509183525050600482015460208083019190915260058301546040808401919091526006840154600160a060020a038116606085015260a060020a900460ff1615156080840152600784015460a0840152600884015460c0840152600984018054825160026101006001841615026000190190921691909104601f810185900485028201850190935282815260e0909401939290919083018282801561222f5780601f106122045761010080835404028352916020019161222f565b820191906000526020600020905b81548152906001019060200180831161221257829003601f168201915b5050505050815250509050438160c001511115612250576000915050611067565b4361226a600f548360c0015161448b90919063ffffffff16565b111561227a576001915050611067565b4361229a600e54611caa600f548560c0015161448b90919063ffffffff16565b1180156122aa5750806101000151155b156122b9576002915050611067565b436122d9600e54611caa600f548560c0015161448b90919063ffffffff16565b11156122e9576003915050611067565b6004915050611067565b6122fc33611051565b151561230757600080fd5b60065460001061231657600080fd5b600060068190556007805460ff191690556040517f7ddd36d52b57a3f725e7df4abbcd9b706fd8165aafcc76a09ecc5714fc4c54f19190a1565b61235933614c8a565b565b611f5681614cd2565b61236c612977565b151561237757600080fd5b6009546040516000916101009004600160a060020a0316907f8be0079c531659141344cd1fd0a4f28419497f9722a3daafe3b4186f6b6457e0908390a36009805474ffffffffffffffffffffffffffffffffffffffff0019169055565b600f5481565b601760209081526000928352604080842090915290825290205481565b601a60209081526000928352604080842090915290825290205460ff1681565b60136020528260005260406000208281548110151561243257fe5b906000526020600020018181548110151561244957fe5b9060005260206000200160009250925050505481565b61246833611845565b151561247357600080fd5b611f5681614d1a565b61248533611845565b151561249057600080fd5b60095460ff16156124a057600080fd5b6009805460ff191660011790556040805133815290517f62e78cea01bee320cd4e420270b5ea74000d11b0c9f74754ebdbfc544b05a2589181900360200190a1565b60105460609060001061253f576040805160e560020a62461bcd02815260206004820152601c60248201527f4e6f20626f756e746965732068617665206265656e20706c6163656400000000604482015290519081900360640190fd5b604080516064808252610ca0820190925260009160609190816020015b6125646157c6565b81526020019060019003908161255c5750506010549091506000906064101561259e5760105461259b90606463ffffffff6144a416565b90505b6010545b8181111561270157600060118160106125c285600163ffffffff6144a416565b815481106125cc57fe5b6000918252602080832060028304015460019283166010026101000a90046001608060020a031684528301939093526040909101812090910154600160a060020a03169150805b868110156126a55782600160a060020a0316868281518110151561263357fe5b6020908102909101015151600160a060020a0316141561269d576126796001878381518110151561266057fe5b602090810290910181015101519063ffffffff61448b16565b868281518110151561268757fe5b60209081029091018101510152600191506126a5565b600101612613565b508015156126f65760408051808201909152600160a060020a03831681526001602082015285518690889081106126d857fe5b602090810290910101526126f386600163ffffffff61448b16565b95505b5050600019016125a2565b5060608360405190808252806020026020018201604052801561272e578160200160208202803883390190505b50905060005b8151811015612851578351600090819086908290811061275057fe5b60209081029091018101510151905060005b878110156127b75781878281518110151561277957fe5b906020019060200201516020015111156127af57809250868181518110151561279e57fe5b906020019060200201516020015191505b600101612762565b5085828151811015156127c657fe5b602090810290910101515184518590859081106127df57fe5b600160a060020a039092166020928302909101909101528561280888600163ffffffff6144a416565b8151811061281257fe5b90602001906020020151868381518110151561282a57fe5b6020908102909101015261284587600163ffffffff6144a416565b96505050600101612734565b50935050505090565b6001608060020a038216600090815260116020526040902060010154606090600160a060020a0316158015906128a857506001608060020a0383166000908152601360205260409020548211155b15156128d8576040805160e560020a62461bcd028152602060048201526000602482015290519081900360640190fd5b6001608060020a03831660009081526013602052604090208054839081106128fc57fe5b9060005260206000200180548060200260200160405190810160405280929190818152602001828054801561295057602002820191906000526020600020905b81548152602001906001019080831161293c575b5050505050905092915050565b60105490565b6009546101009004600160a060020a031690565b6009546101009004600160a060020a0316331490565b670de0b6b3a764000081565b6129a233611051565b15156129ad57600080fd5b600654600010156129bd57600080fd5b436006556007805460ff191682151517908190556040805160ff90921615158252517f92a709fe0704b42849ae468c6c839690d63164022fbd0d6b49502f95bc6424ff916020908290030190a150565b600e5481565b600c5481565b60075460ff1681565b606481565b612a3033613041565b1515612a3b57600080fd5b611f5681614d62565b60095460ff1615612a5457600080fd5b60065460001015612a6457600080fd5b6001608060020a038a16600090815260116020526040902060010154600160a060020a031615612ade576040805160e560020a62461bcd02815260206004820152601360248201527f4755494420616c726561647920696e2075736500000000000000000000000000604482015290519081900360640190fd5b600086118015612af057506101008511155b8015612afc5750600085115b8015612b085750886002115b1515612b5e576040805160e560020a62461bcd02815260206004820152601b60248201527f496e76616c696420617274696661637420706172616d65746572730000000000604482015290519081900360640190fd5b600084118015612b6f575060648411155b1515612bc5576040805160e560020a62461bcd02815260206004820152601760248201527f496e76616c696420626f756e7479206475726174696f6e000000000000000000604482015290519081900360640190fd5b612bdd671bc16d674ec800008663ffffffff61450516565b881015612c1e5760405160e560020a62461bcd02815260040180806020018281038252602c8152602001806159d4602c913960400191505060405180910390fd5b612c523330612c38600c548c61448b90919063ffffffff16565b600b54600160a060020a031692919063ffffffff614daa16565b6001608060020a038a16600081815260116020526040902080546fffffffffffffffffffffffffffffffff19169091179055886002811115612c9057fe5b6001608060020a038b166000908152601160205260409020805470ff000000000000000000000000000000001916700100000000000000000000000000000000836002811115612cdc57fe5b02179055506001608060020a038a166000908152601160205260409020600181018054600160a060020a0319163317905560028101899055612d229060030188886157dd565b506001608060020a038a166000908152601160205260409020612d499060090183836157dd565b506001608060020a038a166000908152601160205260409020600401859055612d78844363ffffffff61448b16565b6001608060020a03808c166000818152601160209081526040808320600501959095556010805460018181018355600282047f1b6847dc741a1b0cd08d278845f9d819d87b734759afb55fe2de5cb82a9ae672018054929091169092026101000a8086029602191694909417909355908152601590915220612dfc9084600861585b565b506001608060020a038a81166000908152601160205260409020805490917f9131922187c384daa13e81999a6b48e917a94eab0fb8f64e3e749c22aa3cd54d9190811690700100000000000000000000000000000000900460ff166002811115612e6257fe5b6001848101546002808701546005880154604080516001608060020a038916815260208101889052600160a060020a039095169085018190526060850183905260a0850182905260e06080860181815260038c018054610100998116158a0260001901169690960491870182905291969395929360098c0193929160c084019184019087908015612f345780601f10612f0957610100808354040283529160200191612f34565b820191906000526020600020905b815481529060010190602001808311612f1757829003601f168201915b5050838103825284546002600019610100600184161502019091160480825260209091019085908015612fa85780601f10612f7d57610100808354040283529160200191612fa8565b820191906000526020600020905b815481529060010190602001808311612f8b57829003601f168201915b5050995050505050505050505060405180910390a15050505050505050505050565b600454600160a060020a03163314612fe157600080fd5b60048054600160a060020a03838116600160a060020a03198316179283905560405191811692169082907ff47584777a7d7b262c66c27d81f5a083da0d7bbb771c37a20d0c1f1b50f786f390600090a35050565b671bc16d674ec8000081565b6000611064818363ffffffff61443416565b60025481565b611f5681614e5b565b6001608060020a038116600090815260116020526040902060010154606090600160a060020a031615156130ce576040805160e560020a62461bcd0281526020600482015260166024820152600080516020615a00833981519152604482015290519081900360640190fd5b6001608060020a0382166000908152601460209081526040808320805482518185028101850190935280835260609492939192909184015b8282101561316057600084815260209081902060408051606081018252600386029092018054600160a060020a031683526001808201548486015260029091015460ff161515918301919091529083529092019101613106565b505050509050600081519050606081604051908082528060200260200182016040528015613198578160200160208202803883390190505b50905060005b828110156119da5783818151811015156131b457fe5b602090810290910101515182518390839081106131cd57fe5b600160a060020a0390921660209283029091019091015260010161319e565b60126020528160005260406000208181548110151561320757fe5b6000918252602091829020600691909102018054600180830154600280850154600386015460048701546005880180546040805161010099831615999099026000190190911695909504601f81018b90048b0288018b01909552848752600160a060020a039097169a5093985090969095929492939291908301828280156132d05780601f106132a5576101008083540402835291602001916132d0565b820191906000526020600020905b8154815290600101906020018083116132b357829003601f168201915b5050505050905086565b601160209081526000918252604091829020805460018083015460028085015460038601805489516101009682161596909602600019011692909204601f81018890048802850188019098528784526001608060020a0385169770010000000000000000000000000000000090950460ff1696600160a060020a039093169590949093928301828280156133af5780601f10613384576101008083540402835291602001916133af565b820191906000526020600020905b81548152906001019060200180831161339257829003601f168201915b505050506004830154600584015460068501546007860154600887015460098801805460408051602060026101006001861615026000190190941693909304601f8101849004840282018401909252818152999a9799969850600160a060020a0386169760a060020a90960460ff16969495939492918301828280156134765780601f1061344b57610100808354040283529160200191613476565b820191906000526020600020905b81548152906001019060200180831161345957829003601f168201915b505050505090508c565b60105460609081906000106134df576040805160e560020a62461bcd02815260206004820152601c60248201527f4e6f20626f756e746965732068617665206265656e20706c6163656400000000604482015290519081900360640190fd5b601054600090819061350b906009906134ff90600a63ffffffff614ea316565b9063ffffffff61450516565b9050606082604051908082528060200260200182016040528015613539578160200160208202803883390190505b509050606083604051908082528060200260200182016040528015613568578160200160208202803883390190505b50604080516064808252610ca0820190925291925060609190816020015b61358e6157c6565b815260200190600190039081613586575050601054909150600090606410156135e0576010546135c590606463ffffffff6144a416565b90506135dd60096134ff83600a63ffffffff614ea316565b94505b6010546000906135f790600163ffffffff6144a416565b90505b818111156137f05760606014600060108481548110151561361757fe5b90600052602060002090600291828204019190066010029054906101000a90046001608060020a03166001608060020a03166001608060020a03168152602001908152602001600020805480602002602001604051908101604052809291908181526020016000905b828210156136da57600084815260209081902060408051606081018252600386029092018054600160a060020a031683526001808201548486015260029091015460ff161515918301919091529083529092019101613680565b509293506000925050505b81518110156137e5578151600090819084908490811061370157fe5b6020908102909101015151905060005b8b81101561378a5781600160a060020a0316888281518110151561373157fe5b6020908102909101015151600160a060020a031614156137825761375e6001898381518110151561266057fe5b888281518110151561376c57fe5b602090810290910181015101526001925061378a565b600101613711565b508115156137db5760408051808201909152600160a060020a038216815260016020820152875188908d9081106137bd57fe5b602090810290910101526137d88b600163ffffffff61448b16565b9a505b50506001016136e5565b5050600019016135fa565b5060005b845181101561395f578251600090819085908290811061381057fe5b60209081029091018101510151905060005b898110156138775781868281518110151561383957fe5b9060200190602002015160200151111561386f57809250858181518110151561385e57fe5b906020019060200201516020015191505b600101613822565b50848281518110151561388657fe5b6020908102909101015151875188908590811061389f57fe5b90602001906020020190600160a060020a03169081600160a060020a031681525050876138f360096134ff600a89878151811015156138da57fe5b602090810290910181015101519063ffffffff614ea316565b1015868481518110151561390357fe5b91151560209283029091019091015261392389600163ffffffff6144a416565b9850848981518110151561393357fe5b90602001906020020151858381518110151561394b57fe5b6020908102909101015250506001016137f4565b50929650909450505050509091565b61397733613041565b151561398257600080fd5b61399360018363ffffffff614ec716565b6002546139a790600163ffffffff61448b16565b600255604080518281529051600160a060020a038416917f122303412d79144158fc7741863e5d579e967de70422912a7da11fda0865744d919081900360200190a25050565b60065481565b666f05b59d3b200081565b601460205281600052604060002081815481101515613a1957fe5b6000918252602090912060039091020180546001820154600290920154600160a060020a03909116935090915060ff1683565b60095460ff1615613a5c57600080fd5b6001608060020a038516600090815260116020526040902060010154600160a060020a03161515613ac5576040805160e560020a62461bcd0281526020600482015260166024820152600080516020615a00833981519152604482015290519081900360640190fd5b613ace85611fc3565b15613b23576040805160e560020a62461bcd02815260206004820152600f60248201527f426f756e747920696e6163746976650000000000000000000000000000000000604482015290519081900360640190fd5b613b2c82614f15565b8314613b82576040805160e560020a62461bcd02815260206004820152601d60248201527f42696420646f6573206e6f74206d61746368206d61736b20636f756e74000000604482015290519081900360640190fd5b6001608060020a038516600090815260196020908152604080832033845290915290205460ff1615613bfe576040805160e560020a62461bcd02815260206004820152601b60248201527f53656e6465722068617320616c72656164792061737365727465640000000000604482015290519081900360640190fd5b6000805b84811015613cd25766de0b6b3a764000868683818110613c1e57fe5b9050602002013510158015613c4d5750670de0b6b3a7640000868683818110613c4357fe5b9050602002013511155b1515613ca3576040805160e560020a62461bcd02815260206004820152601960248201527f426964206e6f74206265747765656e206d696e2026206d617800000000000000604482015290519081900360640190fd5b613cc8868683818110613cb257fe5b905060200201358361448b90919063ffffffff16565b9150600101613c02565b50613ced3330612c38600d548561448b90919063ffffffff16565b6001608060020a03861660009081526019602090815260408083203384529091529020805460ff19166001179055613d23615888565b506040805160c0810182523381526020808201868152828401868152600060608501818152608086018281528751808701895283815260a088019081526001608060020a038f16845260128752978320805460018082018084559286528886208a516006909302018054600160a060020a031916600160a060020a039093169290921782559651818801559451600286015591516003850155516004840155955180519596919593949193879392613de29260058501929101906158c8565b5050506001608060020a038a16600090815260136020908152604082208054600181018083559184529190922093909203935091613e2291018989615936565b50506000601160008a6001608060020a03166001608060020a031681526020019081526020016000206004015490507f8c8e02e3895732fddc6a8baaf2dce21b88b94f2aaecd6a5dae5c03c518693db3898460000151848b8b8860200151878a6040015160405180896001608060020a03166001608060020a0316815260200188600160a060020a0316600160a060020a03168152602001878152602001806020018581526020018481526020018381526020018281038252878782818152602001925060200280828437600083820152604051601f909101601f19169092018290039b50909950505050505050505050a1505050505050505050565b613f27612977565b1515613f3257600080fd5b611f5681614ff9565b600061106460018363ffffffff61443416565b60095460ff1615613f5e57600080fd5b6001608060020a038616600090815260116020526040902060010154600160a060020a03161515613fc7576040805160e560020a62461bcd0281526020600482015260166024820152600080516020615a00833981519152604482015290519081900360640190fd5b613fd086611fc3565b600114614027576040805160e560020a62461bcd02815260206004820152601b60248201527f426f756e7479206e6f7420696e2072657665616c2077696e646f770000000000604482015290519081900360640190fd5b6001608060020a03861660009081526011602052604090206004015484151561409a576040805160e560020a62461bcd02815260206004820152600d60248201527f496e76616c6964206e6f6e636500000000000000000000000000000000000000604482015290519081900360640190fd5b6001608060020a0387166000908152601260205260409020548610614109576040805160e560020a62461bcd02815260206004820152601460248201527f496e76616c696420617373657274696f6e204944000000000000000000000000604482015290519081900360640190fd5b6001608060020a038716600090815260126020526040812080548890811061412d57fe5b600091825260209091206006909102018054909150600160a060020a031633146141a1576040805160e560020a62461bcd02815260206004820152601a60248201527f496e636f727265637420617373657274696f6e20617574686f72000000000000604482015290519081900360640190fd5b6003810154156141fb576040805160e560020a62461bcd02815260206004820152601760248201527f426f756e747920616c72656164792072657665616c6564000000000000000000604482015290519081900360640190fd5b600061420687615082565b80516020909101209050600061421f8783183318615082565b805160209091012060028401549091508114614285576040805160e560020a62461bcd02815260206004820152601860248201527f436f6d6d69746d656e742068617368206d69736d617463680000000000000000604482015290519081900360640190fd5b60038301889055600483018790556142a16005840187876157dd565b507fff6d1bd0c214f72eea059c589e55a6434ed3011c01ccd7d7ee0d7353737937c18a8460000160009054906101000a9004600160a060020a03168b86600301548760040154898960050160405180886001608060020a03166001608060020a0316815260200187600160a060020a0316600160a060020a03168152602001868152602001858152602001848152602001838152602001806020018281038252838181546001816001161561010002031660029004815260200191508054600181600116156101000203166002900480156143bd5780601f10614392576101008083540402835291602001916143bd565b820191906000526020600020905b8154815290600101906020018083116143a057829003601f168201915b50509850505050505050505060405180910390a150505050505050505050565b601860209081526000928352604080842090915290825290205460ff1681565b60408051808201909152600581527f312e362e31000000000000000000000000000000000000000000000000000000602082015281565b6000600160a060020a038216151561444b57600080fd5b50600160a060020a03811660009081526020839052604090205460ff165b92915050565b600081156144825750600282900a614469565b50600092915050565b60008282018381101561449d57600080fd5b9392505050565b6000828211156144b357600080fd5b50900390565b600160a060020a03811615156144ce57600080fd5b6144d88282614434565b15156144e357600080fd5b600160a060020a0316600090815260209190915260409020805460ff19169055565b600082151561451657506000614469565b82820282848281151561452557fe5b041461449d57600080fd5b6001608060020a038116600090815260116020526040812060010154600160a060020a03161515614599576040805160e560020a62461bcd0281526020600482015260166024820152600080516020615a00833981519152604482015290519081900360640190fd5b6145a1615750565b6001608060020a038381166000908152601160209081526040918290208251610180810190935280549384168352919290830190700100000000000000000000000000000000900460ff1660028111156145f757fe5b600281111561460257fe5b8152600182810154600160a060020a031660208084019190915260028085015460408086019190915260038601805482516101009682161596909602600019011692909204601f810184900484028501840190915280845260609094019390918301828280156146b35780601f10614688576101008083540402835291602001916146b3565b820191906000526020600020905b81548152906001019060200180831161469657829003601f168201915b5050509183525050600482015460208083019190915260058301546040808401919091526006840154600160a060020a038116606085015260a060020a900460ff1615156080840152600784015460a0840152600884015460c0840152600984018054825160026101006001841615026000190190921691909104601f810185900485028201850190935282815260e0909401939290919083018282801561479c5780601f106147715761010080835404028352916020019161479c565b820191906000526020600020905b81548152906001019060200180831161477f57829003601f168201915b505050919092525050506001608060020a038416600090815260146020908152604080832080548251818502810185019093528083529495506060949193909284015b8282101561483957600084815260209081902060408051606081018252600386029092018054600160a060020a031683526001808201548486015260029091015460ff1615159183019190915290835290920191016147df565b505050509050600092506000815111156149ec576000809050600060608351604051908082528060200260200182016040528015614881578160200160208202803883390190505b50905060005b845181101561496357600a548551600091600160a060020a0316906370a08231908890859081106148b457fe5b6020908102909101810151516040805160e060020a63ffffffff8616028152600160a060020a0390921660048301525160248083019392829003018186803b1580156148ff57600080fd5b505afa158015614913573d6000803e3d6000fd5b505050506040513d602081101561492957600080fd5b50518351909150819084908490811061493e57fe5b60209081029091010152614958858263ffffffff61448b16565b945050600101614887565b5061498d614986600e54611caa600f548960c0015161448b90919063ffffffff16565b43856150ac565b915060005b84518110156149e75781818151811015156149a957fe5b6020908102909101015190920391600083136149df5784818151811015156149cd57fe5b602090810290910101515196506149e7565b600101614992565b505050505b5050919050565b6001608060020a0381166000908152601160209081526040808320601283528184206013845282852060149094529184208254815486956060959390929091614a3d9186916150ee565b9650861515614a77576001608060020a0388166000908152601660205260409020614a6b8585858585615130565b9098509550614aa69050565b8254604080518281526020808402820101909152908015614aa2578160200160208202803883390190505b5094505b6000614acf8560020154611caa600c54611caa8880549050600d5461450590919063ffffffff16565b905060005b8454811015614b425760008482815481101515614aed57fe5b6000918252602082200191505b8154811015614b3857614b2e8282815481101515614b1457fe5b90600052602060002001548561448b90919063ffffffff16565b9350600101614afa565b5050600101614ad4565b50614b53818963ffffffff6144a416565b905060005b8454811015614b9357614b898782815181101515614b7257fe5b60209081029091010151839063ffffffff6144a416565b9150600101614b58565b5080965050505050509193909250565b82600160a060020a031663a9059cbb83836040518363ffffffff1660e060020a0281526004018083600160a060020a0316600160a060020a0316815260200182815260200192505050602060405180830381600087803b158015614c0657600080fd5b505af1158015614c1a573d6000803e3d6000fd5b505050506040513d6020811015614c3057600080fd5b50511515614c3d57600080fd5b505050565b614c5360058263ffffffff614ec716565b604051600160a060020a038216907fcaaf71e540cbbac3d0853179c2d500b98dcbed027c90b0c724045cf6e8ab5ead90600090a250565b614c9b60088263ffffffff6144b916565b604051600160a060020a038216907fcd265ebaf09df2871cc7bd4133404a235ba12eff2041bb89d9c714a2621c7c7e90600090a250565b614ce360058263ffffffff6144b916565b604051600160a060020a038216907fcae3e32c864033f518bd5399af6dd09536236ce2b09d30f4445e1144db198ed690600090a250565b614d2b60088263ffffffff614ec716565b604051600160a060020a038216907f6719d08c1888103bea251a4ed56406bd0c3e69723c8a1686e017e7bbe159b6f890600090a250565b614d7360008263ffffffff614ec716565b604051600160a060020a038216907fd04992be14bdfcb19fb5a7dc0cdfeeaf1ec5dee2e45cf1885279c0f9a670983e90600090a250565b604080517f23b872dd000000000000000000000000000000000000000000000000000000008152600160a060020a0385811660048301528481166024830152604482018490529151918616916323b872dd916064808201926020929091908290030181600087803b158015614e1e57600080fd5b505af1158015614e32573d6000803e3d6000fd5b505050506040513d6020811015614e4857600080fd5b50511515614e5557600080fd5b50505050565b614e6c60008263ffffffff6144b916565b604051600160a060020a038216907f185bcc05fffd1c95f8177e6a0cbf6d9284be33803496b7a05b3a80c8fe5ae87490600090a250565b6000808211614eb157600080fd5b60008284811515614ebe57fe5b04949350505050565b600160a060020a0381161515614edc57600080fd5b614ee68282614434565b15614ef057600080fd5b600160a060020a0316600090815260209190915260409020805460ff19166001179055565b6000614f1f615970565b5050604080516102008101825260008082526001602083018190529282018390526002606083018190526080830184905260a0830181905260c08301819052600360e084018190526101008401949094526101208301819052610140830181905261016083018490526101808301526101a082018390526101c082019290925260046101e08201528280156149ec5760005b6040811015614ff157614fe183600f841660108110614fcc57fe5b6020020151859060ff1663ffffffff61448b16565b9350601090910490600101614fb1565b505050919050565b600160a060020a038116151561500e57600080fd5b600954604051600160a060020a0380841692610100900416907f8be0079c531659141344cd1fd0a4f28419497f9722a3daafe3b4186f6b6457e090600090a360098054600160a060020a039092166101000274ffffffffffffffffffffffffffffffffffffffff0019909216919091179055565b60408051602080825281830190925260609160208201818038833950505060208101929092525090565b6040805184406020808301919091528183018590528251808303840181526060909201909252805191012060009082908115156150e557fe5b06949350505050565b6000821580156150fc575081155b1561511f57600c5460028501546151189163ffffffff61448b16565b905061449d565b82151561449d575050506002015490565b6000606080876004015460405190808252806020026020018201604052801561516d57816020015b60608152602001906001900390816151585790505b508754604080518281526020808402820101909152919250801561519b578160200160208202803883390190505b5091506000925060006151bf89600401548a60020154614ea390919063ffffffff16565b865490915015156152d157600c54935060005b88548110156152cb57615205600d5485838151811015156151ef57fe5b602090810290910101519063ffffffff61448b16565b848281518110151561521357fe5b6020908102909101015260005b888281548110151561522e57fe5b6000918252602090912001548110156152c2576152a2898381548110151561525257fe5b906000526020600020018281548110151561526957fe5b9060005260206000200154611caa878581518110151561528557fe5b602090810290910101518d54611caa90889063ffffffff614ea316565b85838151811015156152b057fe5b60209081029091010152600101615220565b506001016151d2565b506156d9565b60005b89600401548110156156d7576152e8615990565b5060408051608081018252600080825260208083018290528284018290526060830182905284825289905291822054895491929161532b9163ffffffff6144a416565b88600085815260200190815260200160002054101590508a80549050604051908082528060200260200182016040528015615370578160200160208202803883390190505b50858481518110151561537f57fe5b6020908102909101015260005b8b548110156155525760008c828154811015156153a557fe5b9060005260206000209060060201905061542a81600101548d848154811015156153cb57fe5b9060005260206000200180548060200260200160405190810160405280929190818152602001828054801561541f57602002820191906000526020600020905b81548152602001906001019080831161540b575b5050505050876156e5565b878681518110151561543857fe5b906020019060200201518381518110151561544f57fe5b60209081029091010152865160009088908790811061546a57fe5b906020019060200201518381518110151561548157fe5b90602001906020020151905060008660019060020a02836001015416111561554857600082600301546000146154cb576001830154600484015460009116600289900a16116154ce565b84155b905084151581151514156155105785516154ef90600163ffffffff61448b16565b86526040860151615506908363ffffffff61448b16565b6040870152615546565b602086015161552690600163ffffffff61448b16565b60208701526060860151615540908363ffffffff61448b16565b60608701525b505b505060010161538c565b50815115801561556457506020820151155b1561558057615579848863ffffffff61448b16565b96506156cd565b60005b8b548110156156cb578b5460009081908e908490811061559f57fe5b9060005260206000209060060201905060008660019060020a02826001015416111561569757600081600301546000146155eb576001820154600483015416600288900a1615156155ee565b84155b90508415158115151415615695576000898881518110151561560c57fe5b906020019060200201518581518110151561562357fe5b60209081029091010151905061563f848263ffffffff61448b16565b935061567084611caa89604001516156648b606001518661450590919063ffffffff16565b9063ffffffff614ea316565b935061569184611caa89604001516156648d8661450590919063ffffffff16565b9350505b505b6156a9828a858151811015156151ef57fe5b89848151811015156156b757fe5b602090810290910101525050600101615583565b505b50506001016152d4565b505b50509550959350505050565b6000600282900a841681101561449d57600061570c61010084900360020a80870204614f15565b9050838181518110151561571c57fe5b906020019060200201519150509392505050565b604080516060810182526000808252602082018190529181019190915290565b6040805161018081019091526000808252602082019081526020016000600160a060020a03168152602001600081526020016060815260200160008152602001600081526020016000600160a060020a031681526020016000151581526020016000815260200160008152602001606081525090565b604080518082019091526000808252602082015290565b828054600181600116156101000203166002900490600052602060002090601f016020900481019282601f1061581e5782800160ff1982351617855561584b565b8280016001018555821561584b579182015b8281111561584b578235825591602001919060010190615830565b506158579291506159b9565b5090565b826008810192821561584b579160200282018281111561584b578235825591602001919060010190615830565b60c0604051908101604052806000600160a060020a0316815260200160008152602001600081526020016000815260200160008152602001606081525090565b828054600181600116156101000203166002900490600052602060002090601f016020900481019282601f1061590957805160ff191683800117855561584b565b8280016001018555821561584b579182015b8281111561584b57825182559160200191906001019061591b565b82805482825590600052602060002090810192821561584b579160200282018281111561584b578235825591602001919060010190615830565b610200604051908101604052806010906020820280388339509192915050565b608060405190810160405280600081526020016000815260200160008152602001600081525090565b611f6091905b8082111561585757600081556001016159bf56fe416d6f756e742062656c6f77206d696e696d756d20666f72206e756d626572206f6620617274696661637473426f756e7479206e6f7420696e697469616c697a656400000000000000000000a165627a7a723058200f5663685eb5e14ad9db0f1023fba07d417a42a84c4b18c694563a5dc0df73470029",
      "opcodes": "PUSH1 0x80 PUSH1 0x40 MSTORE CALLVALUE DUP1 ISZERO PUSH3 0x11 JUMPI PUSH1 0x0 DUP1 REVERT JUMPDEST POP PUSH1 0x40 MLOAD PUSH1 0x80 DUP1 PUSH3 0x5D49 DUP4 CODECOPY DUP2 ADD DUP1 PUSH1 0x40 MSTORE PUSH1 0x80 DUP2 LT ISZERO PUSH3 0x33 JUMPI PUSH1 0x0 DUP1 REVERT JUMPDEST POP DUP1 MLOAD PUSH1 0x20 DUP3 ADD MLOAD PUSH1 0x40 DUP4 ADD MLOAD PUSH1 0x60 SWAP1 SWAP4 ADD MLOAD SWAP2 SWAP3 SWAP1 SWAP2 PUSH3 0x5E CALLER PUSH5 0x100000000 PUSH3 0x165 DUP2 MUL DIV JUMP JUMPDEST PUSH1 0x0 PUSH1 0x2 SSTORE PUSH1 0x3 DUP1 SLOAD CALLER PUSH1 0x1 PUSH1 0xA0 PUSH1 0x2 EXP SUB NOT SWAP2 DUP3 AND DUP2 OR SWAP1 SWAP3 SSTORE PUSH1 0x4 DUP1 SLOAD SWAP1 SWAP2 AND DUP3 OR SWAP1 SSTORE PUSH3 0x98 SWAP1 PUSH5 0x100000000 PUSH3 0x1B7 DUP2 MUL DIV JUMP JUMPDEST PUSH1 0x0 PUSH1 0x6 SSTORE PUSH1 0x7 DUP1 SLOAD PUSH1 0xFF NOT AND SWAP1 SSTORE PUSH3 0xBB CALLER PUSH5 0x100000000 PUSH3 0x209 DUP2 MUL DIV JUMP JUMPDEST PUSH1 0x9 DUP1 SLOAD PUSH1 0x1 PUSH1 0xA8 PUSH1 0x2 EXP SUB NOT AND PUSH2 0x100 CALLER DUP2 MUL SWAP2 SWAP1 SWAP2 OR SWAP2 DUP3 SWAP1 SSTORE PUSH1 0x40 MLOAD PUSH1 0x1 PUSH1 0xA0 PUSH1 0x2 EXP SUB SWAP2 SWAP1 SWAP3 DIV AND SWAP1 PUSH1 0x0 SWAP1 PUSH32 0x8BE0079C531659141344CD1FD0A4F28419497F9722A3DAAFE3B4186F6B6457E0 SWAP1 DUP3 SWAP1 LOG3 PUSH7 0xDE0B6B3A764000 PUSH1 0xC SSTORE PUSH7 0x6F05B59D3B2000 PUSH1 0xD SSTORE PUSH1 0xB DUP1 SLOAD PUSH1 0x1 PUSH1 0xA0 PUSH1 0x2 EXP SUB SWAP6 DUP7 AND PUSH1 0x1 PUSH1 0xA0 PUSH1 0x2 EXP SUB NOT SWAP2 DUP3 AND OR SWAP1 SWAP2 SSTORE PUSH1 0xA DUP1 SLOAD SWAP5 SWAP1 SWAP6 AND SWAP4 AND SWAP3 SWAP1 SWAP3 OR SWAP1 SWAP3 SSTORE PUSH1 0xE SWAP2 SWAP1 SWAP2 SSTORE PUSH1 0xF SSTORE PUSH3 0x2EE JUMP JUMPDEST PUSH3 0x180 PUSH1 0x0 DUP3 PUSH5 0x100000000 PUSH3 0x4EC7 PUSH3 0x25B DUP3 MUL OR DIV JUMP JUMPDEST PUSH1 0x40 MLOAD PUSH1 0x1 PUSH1 0xA0 PUSH1 0x2 EXP SUB DUP3 AND SWAP1 PUSH32 0xD04992BE14BDFCB19FB5A7DC0CDFEEAF1EC5DEE2E45CF1885279C0F9A670983E SWAP1 PUSH1 0x0 SWAP1 LOG2 POP JUMP JUMPDEST PUSH3 0x1D2 PUSH1 0x5 DUP3 PUSH5 0x100000000 PUSH3 0x4EC7 PUSH3 0x25B DUP3 MUL OR DIV JUMP JUMPDEST PUSH1 0x40 MLOAD PUSH1 0x1 PUSH1 0xA0 PUSH1 0x2 EXP SUB DUP3 AND SWAP1 PUSH32 0xCAAF71E540CBBAC3D0853179C2D500B98DCBED027C90B0C724045CF6E8AB5EAD SWAP1 PUSH1 0x0 SWAP1 LOG2 POP JUMP JUMPDEST PUSH3 0x224 PUSH1 0x8 DUP3 PUSH5 0x100000000 PUSH3 0x4EC7 PUSH3 0x25B DUP3 MUL OR DIV JUMP JUMPDEST PUSH1 0x40 MLOAD PUSH1 0x1 PUSH1 0xA0 PUSH1 0x2 EXP SUB DUP3 AND SWAP1 PUSH32 0x6719D08C1888103BEA251A4ED56406BD0C3E69723C8A1686E017E7BBE159B6F8 SWAP1 PUSH1 0x0 SWAP1 LOG2 POP JUMP JUMPDEST PUSH1 0x1 PUSH1 0xA0 PUSH1 0x2 EXP SUB DUP2 AND ISZERO ISZERO PUSH3 0x271 JUMPI PUSH1 0x0 DUP1 REVERT JUMPDEST PUSH3 0x286 DUP3 DUP3 PUSH5 0x100000000 PUSH3 0x2B6 DUP2 MUL DIV JUMP JUMPDEST ISZERO PUSH3 0x291 JUMPI PUSH1 0x0 DUP1 REVERT JUMPDEST PUSH1 0x1 PUSH1 0xA0 PUSH1 0x2 EXP SUB AND PUSH1 0x0 SWAP1 DUP2 MSTORE PUSH1 0x20 SWAP2 SWAP1 SWAP2 MSTORE PUSH1 0x40 SWAP1 KECCAK256 DUP1 SLOAD PUSH1 0xFF NOT AND PUSH1 0x1 OR SWAP1 SSTORE JUMP JUMPDEST PUSH1 0x0 PUSH1 0x1 PUSH1 0xA0 PUSH1 0x2 EXP SUB DUP3 AND ISZERO ISZERO PUSH3 0x2CE JUMPI PUSH1 0x0 DUP1 REVERT JUMPDEST POP PUSH1 0x1 PUSH1 0xA0 PUSH1 0x2 EXP SUB AND PUSH1 0x0 SWAP1 DUP2 MSTORE PUSH1 0x20 SWAP2 SWAP1 SWAP2 MSTORE PUSH1 0x40 SWAP1 KECCAK256 SLOAD PUSH1 0xFF AND SWAP1 JUMP JUMPDEST PUSH2 0x5A4B DUP1 PUSH3 0x2FE PUSH1 0x0 CODECOPY PUSH1 0x0 RETURN INVALID PUSH1 0x80 PUSH1 0x40 MSTORE CALLVALUE DUP1 ISZERO PUSH2 0x10 JUMPI PUSH1 0x0 DUP1 REVERT JUMPDEST POP PUSH1 0x4 CALLDATASIZE LT PUSH2 0x400 JUMPI PUSH1 0x0 CALLDATALOAD PUSH1 0xE0 PUSH1 0x2 EXP SWAP1 DIV DUP1 PUSH4 0x84E192A7 GT PUSH2 0x219 JUMPI DUP1 PUSH4 0xC15FD282 GT PUSH2 0x129 JUMPI DUP1 PUSH4 0xE77A964E GT PUSH2 0xBC JUMPI DUP1 PUSH4 0xF2FDE38B GT PUSH2 0x8B JUMPI DUP1 PUSH4 0xF2FDE38B EQ PUSH2 0xECB JUMPI DUP1 PUSH4 0xF5BBC6D5 EQ PUSH2 0xEF1 JUMPI DUP1 PUSH4 0xF8F32DE6 EQ PUSH2 0xF17 JUMPI DUP1 PUSH4 0xFE78F3E4 EQ PUSH2 0xFA8 JUMPI DUP1 PUSH4 0xFFA1AD74 EQ PUSH2 0xFD4 JUMPI PUSH2 0x400 JUMP JUMPDEST DUP1 PUSH4 0xE77A964E EQ PUSH2 0xDDF JUMPI DUP1 PUSH4 0xE87CB715 EQ PUSH2 0xDE7 JUMPI DUP1 PUSH4 0xE89C1054 EQ PUSH2 0xDEF JUMPI DUP1 PUSH4 0xEA11731E EQ PUSH2 0xE45 JUMPI PUSH2 0x400 JUMP JUMPDEST DUP1 PUSH4 0xD4C4E7A9 GT PUSH2 0xF8 JUMPI DUP1 PUSH4 0xD4C4E7A9 EQ PUSH2 0xB89 JUMPI DUP1 PUSH4 0xDEA3C9CC EQ PUSH2 0x57B JUMPI DUP1 PUSH4 0xE328CC5C EQ PUSH2 0xD12 JUMPI DUP1 PUSH4 0xE6530B97 EQ PUSH2 0xDB3 JUMPI PUSH2 0x400 JUMP JUMPDEST DUP1 PUSH4 0xC15FD282 EQ PUSH2 0xA5C JUMPI DUP1 PUSH4 0xCA976BC0 EQ PUSH2 0xA64 JUMPI DUP1 PUSH4 0xD2F1F712 EQ PUSH2 0xA8A JUMPI DUP1 PUSH4 0xD3B92243 EQ PUSH2 0xAB0 JUMPI PUSH2 0x400 JUMP JUMPDEST DUP1 PUSH4 0xA101F7CD GT PUSH2 0x1AC JUMPI DUP1 PUSH4 0xB2E366A8 GT PUSH2 0x17B JUMPI DUP1 PUSH4 0xB2E366A8 EQ PUSH2 0x916 JUMPI DUP1 PUSH4 0xB5023094 EQ PUSH2 0xA08 JUMPI DUP1 PUSH4 0xB769CCBF EQ PUSH2 0xA2E JUMPI DUP1 PUSH4 0xBA6A7EFB EQ PUSH2 0x8E8 JUMPI DUP1 PUSH4 0xBAF563F1 EQ PUSH2 0xA36 JUMPI PUSH2 0x400 JUMP JUMPDEST DUP1 PUSH4 0xA101F7CD EQ PUSH2 0x8D8 JUMPI DUP1 PUSH4 0xB056B49A EQ PUSH2 0x8E0 JUMPI DUP1 PUSH4 0xB1724B46 EQ PUSH2 0x8E8 JUMPI DUP1 PUSH4 0xB27E80B3 EQ PUSH2 0x8F0 JUMPI PUSH2 0x400 JUMP JUMPDEST DUP1 PUSH4 0x8F32D59B GT PUSH2 0x1E8 JUMPI DUP1 PUSH4 0x8F32D59B EQ PUSH2 0x8A1 JUMPI DUP1 PUSH4 0x9187F7ED EQ PUSH2 0x8A9 JUMPI DUP1 PUSH4 0x9251CFF4 EQ PUSH2 0x8B1 JUMPI DUP1 PUSH4 0x9E23D264 EQ PUSH2 0x8D0 JUMPI PUSH2 0x400 JUMP JUMPDEST DUP1 PUSH4 0x84E192A7 EQ PUSH2 0x85D JUMPI DUP1 PUSH4 0x8605E037 EQ PUSH2 0x865 JUMPI DUP1 PUSH4 0x8836F3EF EQ PUSH2 0x891 JUMPI DUP1 PUSH4 0x8DA5CB5B EQ PUSH2 0x899 JUMPI PUSH2 0x400 JUMP JUMPDEST DUP1 PUSH4 0x4CF088D9 GT PUSH2 0x314 JUMPI DUP1 PUSH4 0x6EF8D66D GT PUSH2 0x2A7 JUMPI DUP1 PUSH4 0x7D30503C GT PUSH2 0x276 JUMPI DUP1 PUSH4 0x7D30503C EQ PUSH2 0x7A5 JUMPI DUP1 PUSH4 0x7E5251C6 EQ PUSH2 0x7C8 JUMPI DUP1 PUSH4 0x7F562ECD EQ PUSH2 0x7FD JUMPI DUP1 PUSH4 0x82DC1EC4 EQ PUSH2 0x82F JUMPI DUP1 PUSH4 0x8456CB59 EQ PUSH2 0x855 JUMPI PUSH2 0x400 JUMP JUMPDEST DUP1 PUSH4 0x6EF8D66D EQ PUSH2 0x767 JUMPI DUP1 PUSH4 0x6F12B624 EQ PUSH2 0x76F JUMPI DUP1 PUSH4 0x715018A6 EQ PUSH2 0x795 JUMPI DUP1 PUSH4 0x7C7AA277 EQ PUSH2 0x79D JUMPI PUSH2 0x400 JUMP JUMPDEST DUP1 PUSH4 0x5C975ABB GT PUSH2 0x2E3 JUMPI DUP1 PUSH4 0x5C975ABB EQ PUSH2 0x70E JUMPI DUP1 PUSH4 0x65F4BCE6 EQ PUSH2 0x716 JUMPI DUP1 PUSH4 0x69EBB7E9 EQ PUSH2 0x739 JUMPI DUP1 PUSH4 0x6E45993C EQ PUSH2 0x75F JUMPI PUSH2 0x400 JUMP JUMPDEST DUP1 PUSH4 0x4CF088D9 EQ PUSH2 0x678 JUMPI DUP1 PUSH4 0x4EE29EC5 EQ PUSH2 0x69C JUMPI DUP1 PUSH4 0x5592D687 EQ PUSH2 0x6C2 JUMPI DUP1 PUSH4 0x567B5ADA EQ PUSH2 0x6E8 JUMPI PUSH2 0x400 JUMP JUMPDEST DUP1 PUSH4 0x357D0173 GT PUSH2 0x397 JUMPI DUP1 PUSH4 0x3F4BA83A GT PUSH2 0x366 JUMPI DUP1 PUSH4 0x3F4BA83A EQ PUSH2 0x58B JUMPI DUP1 PUSH4 0x46FBF68E EQ PUSH2 0x593 JUMPI DUP1 PUSH4 0x472D35B9 EQ PUSH2 0x5B9 JUMPI DUP1 PUSH4 0x4A474B27 EQ PUSH2 0x5DF JUMPI DUP1 PUSH4 0x4A564648 EQ PUSH2 0x64C JUMPI PUSH2 0x400 JUMP JUMPDEST DUP1 PUSH4 0x357D0173 EQ PUSH2 0x529 JUMPI DUP1 PUSH4 0x3CA63675 EQ PUSH2 0x555 JUMPI DUP1 PUSH4 0x3E550EC1 EQ PUSH2 0x57B JUMPI DUP1 PUSH4 0x3F192E12 EQ PUSH2 0x583 JUMPI PUSH2 0x400 JUMP JUMPDEST DUP1 PUSH4 0x1C15DF91 GT PUSH2 0x3D3 JUMPI DUP1 PUSH4 0x1C15DF91 EQ PUSH2 0x4C8 JUMPI DUP1 PUSH4 0x27028AAE EQ PUSH2 0x4D0 JUMPI DUP1 PUSH4 0x2874E35D EQ PUSH2 0x504 JUMPI DUP1 PUSH4 0x31B28664 EQ PUSH2 0x521 JUMPI PUSH2 0x400 JUMP JUMPDEST DUP1 PUSH4 0x1B86B80 EQ PUSH2 0x405 JUMPI DUP1 PUSH4 0x29734A7 EQ PUSH2 0x43F JUMPI DUP1 PUSH4 0x11451E00 EQ PUSH2 0x45E JUMPI DUP1 PUSH4 0x147DDA15 EQ PUSH2 0x49C JUMPI JUMPDEST PUSH1 0x0 DUP1 REVERT JUMPDEST PUSH2 0x42B PUSH1 0x4 DUP1 CALLDATASIZE SUB PUSH1 0x20 DUP2 LT ISZERO PUSH2 0x41B JUMPI PUSH1 0x0 DUP1 REVERT JUMPDEST POP CALLDATALOAD PUSH1 0x1 PUSH1 0xA0 PUSH1 0x2 EXP SUB AND PUSH2 0x1051 JUMP JUMPDEST PUSH1 0x40 DUP1 MLOAD SWAP2 ISZERO ISZERO DUP3 MSTORE MLOAD SWAP1 DUP2 SWAP1 SUB PUSH1 0x20 ADD SWAP1 RETURN JUMPDEST PUSH2 0x45C PUSH1 0x4 DUP1 CALLDATASIZE SUB PUSH1 0x20 DUP2 LT ISZERO PUSH2 0x455 JUMPI PUSH1 0x0 DUP1 REVERT JUMPDEST POP CALLDATALOAD PUSH2 0x106C JUMP JUMPDEST STOP JUMPDEST PUSH2 0x48A PUSH1 0x4 DUP1 CALLDATASIZE SUB PUSH1 0x40 DUP2 LT ISZERO PUSH2 0x474 JUMPI PUSH1 0x0 DUP1 REVERT JUMPDEST POP PUSH1 0x1 PUSH1 0x80 PUSH1 0x2 EXP SUB DUP2 CALLDATALOAD AND SWAP1 PUSH1 0x20 ADD CALLDATALOAD PUSH2 0x10C8 JUMP JUMPDEST PUSH1 0x40 DUP1 MLOAD SWAP2 DUP3 MSTORE MLOAD SWAP1 DUP2 SWAP1 SUB PUSH1 0x20 ADD SWAP1 RETURN JUMPDEST PUSH2 0x48A PUSH1 0x4 DUP1 CALLDATASIZE SUB PUSH1 0x40 DUP2 LT ISZERO PUSH2 0x4B2 JUMPI PUSH1 0x0 DUP1 REVERT JUMPDEST POP PUSH1 0x1 PUSH1 0x80 PUSH1 0x2 EXP SUB DUP2 CALLDATALOAD AND SWAP1 PUSH1 0x20 ADD CALLDATALOAD PUSH2 0x10E5 JUMP JUMPDEST PUSH2 0x48A PUSH2 0x1107 JUMP JUMPDEST PUSH2 0x45C PUSH1 0x4 DUP1 CALLDATASIZE SUB PUSH1 0x60 DUP2 LT ISZERO PUSH2 0x4E6 JUMPI PUSH1 0x0 DUP1 REVERT JUMPDEST POP PUSH1 0x1 PUSH1 0x80 PUSH1 0x2 EXP SUB DUP2 CALLDATALOAD AND SWAP1 PUSH1 0x20 DUP2 ADD CALLDATALOAD SWAP1 PUSH1 0x40 ADD CALLDATALOAD ISZERO ISZERO PUSH2 0x110D JUMP JUMPDEST PUSH2 0x45C PUSH1 0x4 DUP1 CALLDATASIZE SUB PUSH1 0x20 DUP2 LT ISZERO PUSH2 0x51A JUMPI PUSH1 0x0 DUP1 REVERT JUMPDEST POP CALLDATALOAD PUSH2 0x166A JUMP JUMPDEST PUSH2 0x48A PUSH2 0x16C7 JUMP JUMPDEST PUSH2 0x45C PUSH1 0x4 DUP1 CALLDATASIZE SUB PUSH1 0x40 DUP2 LT ISZERO PUSH2 0x53F JUMPI PUSH1 0x0 DUP1 REVERT JUMPDEST POP PUSH1 0x1 PUSH1 0xA0 PUSH1 0x2 EXP SUB DUP2 CALLDATALOAD AND SWAP1 PUSH1 0x20 ADD CALLDATALOAD PUSH2 0x16CC JUMP JUMPDEST PUSH2 0x48A PUSH1 0x4 DUP1 CALLDATASIZE SUB PUSH1 0x20 DUP2 LT ISZERO PUSH2 0x56B JUMPI PUSH1 0x0 DUP1 REVERT JUMPDEST POP CALLDATALOAD PUSH1 0x1 PUSH1 0x80 PUSH1 0x2 EXP SUB AND PUSH2 0x174B JUMP JUMPDEST PUSH2 0x48A PUSH2 0x17D0 JUMP JUMPDEST PUSH2 0x48A PUSH2 0x17DB JUMP JUMPDEST PUSH2 0x45C PUSH2 0x17E1 JUMP JUMPDEST PUSH2 0x42B PUSH1 0x4 DUP1 CALLDATASIZE SUB PUSH1 0x20 DUP2 LT ISZERO PUSH2 0x5A9 JUMPI PUSH1 0x0 DUP1 REVERT JUMPDEST POP CALLDATALOAD PUSH1 0x1 PUSH1 0xA0 PUSH1 0x2 EXP SUB AND PUSH2 0x1845 JUMP JUMPDEST PUSH2 0x45C PUSH1 0x4 DUP1 CALLDATASIZE SUB PUSH1 0x20 DUP2 LT ISZERO PUSH2 0x5CF JUMPI PUSH1 0x0 DUP1 REVERT JUMPDEST POP CALLDATALOAD PUSH1 0x1 PUSH1 0xA0 PUSH1 0x2 EXP SUB AND PUSH2 0x1858 JUMP JUMPDEST PUSH2 0x5FC PUSH1 0x4 DUP1 CALLDATASIZE SUB PUSH1 0x20 DUP2 LT ISZERO PUSH2 0x5F5 JUMPI PUSH1 0x0 DUP1 REVERT JUMPDEST POP CALLDATALOAD PUSH2 0x18C3 JUMP JUMPDEST PUSH1 0x40 DUP1 MLOAD PUSH1 0x20 DUP1 DUP3 MSTORE DUP4 MLOAD DUP2 DUP4 ADD MSTORE DUP4 MLOAD SWAP2 SWAP3 DUP4 SWAP3 SWAP1 DUP4 ADD SWAP2 DUP6 DUP2 ADD SWAP2 MUL DUP1 DUP4 DUP4 PUSH1 0x0 JUMPDEST DUP4 DUP2 LT ISZERO PUSH2 0x638 JUMPI DUP2 DUP2 ADD MLOAD DUP4 DUP3 ADD MSTORE PUSH1 0x20 ADD PUSH2 0x620 JUMP JUMPDEST POP POP POP POP SWAP1 POP ADD SWAP3 POP POP POP PUSH1 0x40 MLOAD DUP1 SWAP2 SUB SWAP1 RETURN JUMPDEST PUSH2 0x42B PUSH1 0x4 DUP1 CALLDATASIZE SUB PUSH1 0x40 DUP2 LT ISZERO PUSH2 0x662 JUMPI PUSH1 0x0 DUP1 REVERT JUMPDEST POP DUP1 CALLDATALOAD SWAP1 PUSH1 0x20 ADD CALLDATALOAD PUSH1 0x1 PUSH1 0xA0 PUSH1 0x2 EXP SUB AND PUSH2 0x19E3 JUMP JUMPDEST PUSH2 0x680 PUSH2 0x1A03 JUMP JUMPDEST PUSH1 0x40 DUP1 MLOAD PUSH1 0x1 PUSH1 0xA0 PUSH1 0x2 EXP SUB SWAP1 SWAP3 AND DUP3 MSTORE MLOAD SWAP1 DUP2 SWAP1 SUB PUSH1 0x20 ADD SWAP1 RETURN JUMPDEST PUSH2 0x48A PUSH1 0x4 DUP1 CALLDATASIZE SUB PUSH1 0x20 DUP2 LT ISZERO PUSH2 0x6B2 JUMPI PUSH1 0x0 DUP1 REVERT JUMPDEST POP CALLDATALOAD PUSH1 0x1 PUSH1 0x80 PUSH1 0x2 EXP SUB AND PUSH2 0x1A12 JUMP JUMPDEST PUSH2 0x45C PUSH1 0x4 DUP1 CALLDATASIZE SUB PUSH1 0x20 DUP2 LT ISZERO PUSH2 0x6D8 JUMPI PUSH1 0x0 DUP1 REVERT JUMPDEST POP CALLDATALOAD PUSH1 0x1 PUSH1 0x80 PUSH1 0x2 EXP SUB AND PUSH2 0x1A97 JUMP JUMPDEST PUSH2 0x45C PUSH1 0x4 DUP1 CALLDATASIZE SUB PUSH1 0x20 DUP2 LT ISZERO PUSH2 0x6FE JUMPI PUSH1 0x0 DUP1 REVERT JUMPDEST POP CALLDATALOAD PUSH1 0x1 PUSH1 0xA0 PUSH1 0x2 EXP SUB AND PUSH2 0x1F39 JUMP JUMPDEST PUSH2 0x42B PUSH2 0x1F59 JUMP JUMPDEST PUSH2 0x45C PUSH1 0x4 DUP1 CALLDATASIZE SUB PUSH1 0x40 DUP2 LT ISZERO PUSH2 0x72C JUMPI PUSH1 0x0 DUP1 REVERT JUMPDEST POP DUP1 CALLDATALOAD SWAP1 PUSH1 0x20 ADD CALLDATALOAD PUSH2 0x1F63 JUMP JUMPDEST PUSH2 0x48A PUSH1 0x4 DUP1 CALLDATASIZE SUB PUSH1 0x20 DUP2 LT ISZERO PUSH2 0x74F JUMPI PUSH1 0x0 DUP1 REVERT JUMPDEST POP CALLDATALOAD PUSH1 0x1 PUSH1 0x80 PUSH1 0x2 EXP SUB AND PUSH2 0x1FC3 JUMP JUMPDEST PUSH2 0x45C PUSH2 0x22F3 JUMP JUMPDEST PUSH2 0x45C PUSH2 0x2350 JUMP JUMPDEST PUSH2 0x45C PUSH1 0x4 DUP1 CALLDATASIZE SUB PUSH1 0x20 DUP2 LT ISZERO PUSH2 0x785 JUMPI PUSH1 0x0 DUP1 REVERT JUMPDEST POP CALLDATALOAD PUSH1 0x1 PUSH1 0xA0 PUSH1 0x2 EXP SUB AND PUSH2 0x235B JUMP JUMPDEST PUSH2 0x45C PUSH2 0x2364 JUMP JUMPDEST PUSH2 0x48A PUSH2 0x23D4 JUMP JUMPDEST PUSH2 0x48A PUSH1 0x4 DUP1 CALLDATASIZE SUB PUSH1 0x40 DUP2 LT ISZERO PUSH2 0x7BB JUMPI PUSH1 0x0 DUP1 REVERT JUMPDEST POP DUP1 CALLDATALOAD SWAP1 PUSH1 0x20 ADD CALLDATALOAD PUSH2 0x23DA JUMP JUMPDEST PUSH2 0x42B PUSH1 0x4 DUP1 CALLDATASIZE SUB PUSH1 0x40 DUP2 LT ISZERO PUSH2 0x7DE JUMPI PUSH1 0x0 DUP1 REVERT JUMPDEST POP DUP1 CALLDATALOAD PUSH1 0x1 PUSH1 0x80 PUSH1 0x2 EXP SUB AND SWAP1 PUSH1 0x20 ADD CALLDATALOAD PUSH1 0x1 PUSH1 0xA0 PUSH1 0x2 EXP SUB AND PUSH2 0x23F7 JUMP JUMPDEST PUSH2 0x48A PUSH1 0x4 DUP1 CALLDATASIZE SUB PUSH1 0x60 DUP2 LT ISZERO PUSH2 0x813 JUMPI PUSH1 0x0 DUP1 REVERT JUMPDEST POP PUSH1 0x1 PUSH1 0x80 PUSH1 0x2 EXP SUB DUP2 CALLDATALOAD AND SWAP1 PUSH1 0x20 DUP2 ADD CALLDATALOAD SWAP1 PUSH1 0x40 ADD CALLDATALOAD PUSH2 0x2417 JUMP JUMPDEST PUSH2 0x45C PUSH1 0x4 DUP1 CALLDATASIZE SUB PUSH1 0x20 DUP2 LT ISZERO PUSH2 0x845 JUMPI PUSH1 0x0 DUP1 REVERT JUMPDEST POP CALLDATALOAD PUSH1 0x1 PUSH1 0xA0 PUSH1 0x2 EXP SUB AND PUSH2 0x245F JUMP JUMPDEST PUSH2 0x45C PUSH2 0x247C JUMP JUMPDEST PUSH2 0x5FC PUSH2 0x24E2 JUMP JUMPDEST PUSH2 0x5FC PUSH1 0x4 DUP1 CALLDATASIZE SUB PUSH1 0x40 DUP2 LT ISZERO PUSH2 0x87B JUMPI PUSH1 0x0 DUP1 REVERT JUMPDEST POP PUSH1 0x1 PUSH1 0x80 PUSH1 0x2 EXP SUB DUP2 CALLDATALOAD AND SWAP1 PUSH1 0x20 ADD CALLDATALOAD PUSH2 0x285A JUMP JUMPDEST PUSH2 0x48A PUSH2 0x295D JUMP JUMPDEST PUSH2 0x680 PUSH2 0x2963 JUMP JUMPDEST PUSH2 0x42B PUSH2 0x2977 JUMP JUMPDEST PUSH2 0x48A PUSH2 0x298D JUMP JUMPDEST PUSH2 0x45C PUSH1 0x4 DUP1 CALLDATASIZE SUB PUSH1 0x20 DUP2 LT ISZERO PUSH2 0x8C7 JUMPI PUSH1 0x0 DUP1 REVERT JUMPDEST POP CALLDATALOAD ISZERO ISZERO PUSH2 0x2999 JUMP JUMPDEST PUSH2 0x48A PUSH2 0x2A0D JUMP JUMPDEST PUSH2 0x48A PUSH2 0x2A13 JUMP JUMPDEST PUSH2 0x42B PUSH2 0x2A19 JUMP JUMPDEST PUSH2 0x48A PUSH2 0x2A22 JUMP JUMPDEST PUSH2 0x45C PUSH1 0x4 DUP1 CALLDATASIZE SUB PUSH1 0x20 DUP2 LT ISZERO PUSH2 0x906 JUMPI PUSH1 0x0 DUP1 REVERT JUMPDEST POP CALLDATALOAD PUSH1 0x1 PUSH1 0xA0 PUSH1 0x2 EXP SUB AND PUSH2 0x2A27 JUMP JUMPDEST PUSH2 0x45C PUSH1 0x4 DUP1 CALLDATASIZE SUB PUSH2 0x1E0 DUP2 LT ISZERO PUSH2 0x92D JUMPI PUSH1 0x0 DUP1 REVERT JUMPDEST PUSH1 0x1 PUSH1 0x80 PUSH1 0x2 EXP SUB DUP3 CALLDATALOAD AND SWAP2 PUSH1 0x20 DUP2 ADD CALLDATALOAD SWAP2 PUSH1 0x40 DUP3 ADD CALLDATALOAD SWAP2 SWAP1 DUP2 ADD SWAP1 PUSH1 0x80 DUP2 ADD PUSH1 0x60 DUP3 ADD CALLDATALOAD PUSH5 0x100000000 DUP2 GT ISZERO PUSH2 0x964 JUMPI PUSH1 0x0 DUP1 REVERT JUMPDEST DUP3 ADD DUP4 PUSH1 0x20 DUP3 ADD GT ISZERO PUSH2 0x976 JUMPI PUSH1 0x0 DUP1 REVERT JUMPDEST DUP1 CALLDATALOAD SWAP1 PUSH1 0x20 ADD SWAP2 DUP5 PUSH1 0x1 DUP4 MUL DUP5 ADD GT PUSH5 0x100000000 DUP4 GT OR ISZERO PUSH2 0x998 JUMPI PUSH1 0x0 DUP1 REVERT JUMPDEST SWAP2 SWAP4 SWAP1 SWAP3 DUP3 CALLDATALOAD SWAP3 PUSH1 0x20 DUP2 ADD CALLDATALOAD SWAP3 PUSH1 0x40 DUP3 ADD SWAP3 SWAP1 SWAP2 PUSH2 0x160 DUP2 ADD SWAP1 PUSH2 0x140 ADD CALLDATALOAD PUSH5 0x100000000 DUP2 GT ISZERO PUSH2 0x9C9 JUMPI PUSH1 0x0 DUP1 REVERT JUMPDEST DUP3 ADD DUP4 PUSH1 0x20 DUP3 ADD GT ISZERO PUSH2 0x9DB JUMPI PUSH1 0x0 DUP1 REVERT JUMPDEST DUP1 CALLDATALOAD SWAP1 PUSH1 0x20 ADD SWAP2 DUP5 PUSH1 0x1 DUP4 MUL DUP5 ADD GT PUSH5 0x100000000 DUP4 GT OR ISZERO PUSH2 0x9FD JUMPI PUSH1 0x0 DUP1 REVERT JUMPDEST POP SWAP1 SWAP3 POP SWAP1 POP PUSH2 0x2A44 JUMP JUMPDEST PUSH2 0x45C PUSH1 0x4 DUP1 CALLDATASIZE SUB PUSH1 0x20 DUP2 LT ISZERO PUSH2 0xA1E JUMPI PUSH1 0x0 DUP1 REVERT JUMPDEST POP CALLDATALOAD PUSH1 0x1 PUSH1 0xA0 PUSH1 0x2 EXP SUB AND PUSH2 0x2FCA JUMP JUMPDEST PUSH2 0x48A PUSH2 0x3035 JUMP JUMPDEST PUSH2 0x42B PUSH1 0x4 DUP1 CALLDATASIZE SUB PUSH1 0x20 DUP2 LT ISZERO PUSH2 0xA4C JUMPI PUSH1 0x0 DUP1 REVERT JUMPDEST POP CALLDATALOAD PUSH1 0x1 PUSH1 0xA0 PUSH1 0x2 EXP SUB AND PUSH2 0x3041 JUMP JUMPDEST PUSH2 0x48A PUSH2 0x3053 JUMP JUMPDEST PUSH2 0x45C PUSH1 0x4 DUP1 CALLDATASIZE SUB PUSH1 0x20 DUP2 LT ISZERO PUSH2 0xA7A JUMPI PUSH1 0x0 DUP1 REVERT JUMPDEST POP CALLDATALOAD PUSH1 0x1 PUSH1 0xA0 PUSH1 0x2 EXP SUB AND PUSH2 0x3059 JUMP JUMPDEST PUSH2 0x5FC PUSH1 0x4 DUP1 CALLDATASIZE SUB PUSH1 0x20 DUP2 LT ISZERO PUSH2 0xAA0 JUMPI PUSH1 0x0 DUP1 REVERT JUMPDEST POP CALLDATALOAD PUSH1 0x1 PUSH1 0x80 PUSH1 0x2 EXP SUB AND PUSH2 0x3062 JUMP JUMPDEST PUSH2 0xADC PUSH1 0x4 DUP1 CALLDATASIZE SUB PUSH1 0x40 DUP2 LT ISZERO PUSH2 0xAC6 JUMPI PUSH1 0x0 DUP1 REVERT JUMPDEST POP PUSH1 0x1 PUSH1 0x80 PUSH1 0x2 EXP SUB DUP2 CALLDATALOAD AND SWAP1 PUSH1 0x20 ADD CALLDATALOAD PUSH2 0x31EC JUMP JUMPDEST PUSH1 0x40 MLOAD DUP1 DUP8 PUSH1 0x1 PUSH1 0xA0 PUSH1 0x2 EXP SUB AND PUSH1 0x1 PUSH1 0xA0 PUSH1 0x2 EXP SUB AND DUP2 MSTORE PUSH1 0x20 ADD DUP7 DUP2 MSTORE PUSH1 0x20 ADD DUP6 DUP2 MSTORE PUSH1 0x20 ADD DUP5 DUP2 MSTORE PUSH1 0x20 ADD DUP4 DUP2 MSTORE PUSH1 0x20 ADD DUP1 PUSH1 0x20 ADD DUP3 DUP2 SUB DUP3 MSTORE DUP4 DUP2 DUP2 MLOAD DUP2 MSTORE PUSH1 0x20 ADD SWAP2 POP DUP1 MLOAD SWAP1 PUSH1 0x20 ADD SWAP1 DUP1 DUP4 DUP4 PUSH1 0x0 JUMPDEST DUP4 DUP2 LT ISZERO PUSH2 0xB49 JUMPI DUP2 DUP2 ADD MLOAD DUP4 DUP3 ADD MSTORE PUSH1 0x20 ADD PUSH2 0xB31 JUMP JUMPDEST POP POP POP POP SWAP1 POP SWAP1 DUP2 ADD SWAP1 PUSH1 0x1F AND DUP1 ISZERO PUSH2 0xB76 JUMPI DUP1 DUP3 SUB DUP1 MLOAD PUSH1 0x1 DUP4 PUSH1 0x20 SUB PUSH2 0x100 EXP SUB NOT AND DUP2 MSTORE PUSH1 0x20 ADD SWAP2 POP JUMPDEST POP SWAP8 POP POP POP POP POP POP POP POP PUSH1 0x40 MLOAD DUP1 SWAP2 SUB SWAP1 RETURN JUMPDEST PUSH2 0xBAF PUSH1 0x4 DUP1 CALLDATASIZE SUB PUSH1 0x20 DUP2 LT ISZERO PUSH2 0xB9F JUMPI PUSH1 0x0 DUP1 REVERT JUMPDEST POP CALLDATALOAD PUSH1 0x1 PUSH1 0x80 PUSH1 0x2 EXP SUB AND PUSH2 0x32DA JUMP JUMPDEST PUSH1 0x40 MLOAD PUSH1 0x1 PUSH1 0x80 PUSH1 0x2 EXP SUB DUP14 AND DUP2 MSTORE PUSH1 0x20 DUP2 ADD DUP13 PUSH1 0x2 DUP2 GT ISZERO PUSH2 0xBCE JUMPI INVALID JUMPDEST PUSH1 0xFF AND DUP2 MSTORE PUSH1 0x20 ADD DUP12 PUSH1 0x1 PUSH1 0xA0 PUSH1 0x2 EXP SUB AND PUSH1 0x1 PUSH1 0xA0 PUSH1 0x2 EXP SUB AND DUP2 MSTORE PUSH1 0x20 ADD DUP11 DUP2 MSTORE PUSH1 0x20 ADD DUP1 PUSH1 0x20 ADD DUP10 DUP2 MSTORE PUSH1 0x20 ADD DUP9 DUP2 MSTORE PUSH1 0x20 ADD DUP8 PUSH1 0x1 PUSH1 0xA0 PUSH1 0x2 EXP SUB AND PUSH1 0x1 PUSH1 0xA0 PUSH1 0x2 EXP SUB AND DUP2 MSTORE PUSH1 0x20 ADD DUP7 ISZERO ISZERO ISZERO ISZERO DUP2 MSTORE PUSH1 0x20 ADD DUP6 DUP2 MSTORE PUSH1 0x20 ADD DUP5 DUP2 MSTORE PUSH1 0x20 ADD DUP1 PUSH1 0x20 ADD DUP4 DUP2 SUB DUP4 MSTORE DUP12 DUP2 DUP2 MLOAD DUP2 MSTORE PUSH1 0x20 ADD SWAP2 POP DUP1 MLOAD SWAP1 PUSH1 0x20 ADD SWAP1 DUP1 DUP4 DUP4 PUSH1 0x0 JUMPDEST DUP4 DUP2 LT ISZERO PUSH2 0xC6B JUMPI DUP2 DUP2 ADD MLOAD DUP4 DUP3 ADD MSTORE PUSH1 0x20 ADD PUSH2 0xC53 JUMP JUMPDEST POP POP POP POP SWAP1 POP SWAP1 DUP2 ADD SWAP1 PUSH1 0x1F AND DUP1 ISZERO PUSH2 0xC98 JUMPI DUP1 DUP3 SUB DUP1 MLOAD PUSH1 0x1 DUP4 PUSH1 0x20 SUB PUSH2 0x100 EXP SUB NOT AND DUP2 MSTORE PUSH1 0x20 ADD SWAP2 POP JUMPDEST POP DUP4 DUP2 SUB DUP3 MSTORE DUP5 MLOAD DUP2 MSTORE DUP5 MLOAD PUSH1 0x20 SWAP2 DUP3 ADD SWAP2 DUP7 ADD SWAP1 DUP1 DUP4 DUP4 PUSH1 0x0 JUMPDEST DUP4 DUP2 LT ISZERO PUSH2 0xCCB JUMPI DUP2 DUP2 ADD MLOAD DUP4 DUP3 ADD MSTORE PUSH1 0x20 ADD PUSH2 0xCB3 JUMP JUMPDEST POP POP POP POP SWAP1 POP SWAP1 DUP2 ADD SWAP1 PUSH1 0x1F AND DUP1 ISZERO PUSH2 0xCF8 JUMPI DUP1 DUP3 SUB DUP1 MLOAD PUSH1 0x1 DUP4 PUSH1 0x20 SUB PUSH2 0x100 EXP SUB NOT AND DUP2 MSTORE PUSH1 0x20 ADD SWAP2 POP JUMPDEST POP SWAP15 POP POP POP POP POP POP POP POP POP POP POP POP POP POP POP PUSH1 0x40 MLOAD DUP1 SWAP2 SUB SWAP1 RETURN JUMPDEST PUSH2 0xD1A PUSH2 0x3480 JUMP JUMPDEST PUSH1 0x40 MLOAD DUP1 DUP1 PUSH1 0x20 ADD DUP1 PUSH1 0x20 ADD DUP4 DUP2 SUB DUP4 MSTORE DUP6 DUP2 DUP2 MLOAD DUP2 MSTORE PUSH1 0x20 ADD SWAP2 POP DUP1 MLOAD SWAP1 PUSH1 0x20 ADD SWAP1 PUSH1 0x20 MUL DUP1 DUP4 DUP4 PUSH1 0x0 JUMPDEST DUP4 DUP2 LT ISZERO PUSH2 0xD5E JUMPI DUP2 DUP2 ADD MLOAD DUP4 DUP3 ADD MSTORE PUSH1 0x20 ADD PUSH2 0xD46 JUMP JUMPDEST POP POP POP POP SWAP1 POP ADD DUP4 DUP2 SUB DUP3 MSTORE DUP5 DUP2 DUP2 MLOAD DUP2 MSTORE PUSH1 0x20 ADD SWAP2 POP DUP1 MLOAD SWAP1 PUSH1 0x20 ADD SWAP1 PUSH1 0x20 MUL DUP1 DUP4 DUP4 PUSH1 0x0 JUMPDEST DUP4 DUP2 LT ISZERO PUSH2 0xD9D JUMPI DUP2 DUP2 ADD MLOAD DUP4 DUP3 ADD MSTORE PUSH1 0x20 ADD PUSH2 0xD85 JUMP JUMPDEST POP POP POP POP SWAP1 POP ADD SWAP5 POP POP POP POP POP PUSH1 0x40 MLOAD DUP1 SWAP2 SUB SWAP1 RETURN JUMPDEST PUSH2 0x45C PUSH1 0x4 DUP1 CALLDATASIZE SUB PUSH1 0x40 DUP2 LT ISZERO PUSH2 0xDC9 JUMPI PUSH1 0x0 DUP1 REVERT JUMPDEST POP PUSH1 0x1 PUSH1 0xA0 PUSH1 0x2 EXP SUB DUP2 CALLDATALOAD AND SWAP1 PUSH1 0x20 ADD CALLDATALOAD PUSH2 0x396E JUMP JUMPDEST PUSH2 0x48A PUSH2 0x39ED JUMP JUMPDEST PUSH2 0x48A PUSH2 0x39F3 JUMP JUMPDEST PUSH2 0xE1B PUSH1 0x4 DUP1 CALLDATASIZE SUB PUSH1 0x40 DUP2 LT ISZERO PUSH2 0xE05 JUMPI PUSH1 0x0 DUP1 REVERT JUMPDEST POP PUSH1 0x1 PUSH1 0x80 PUSH1 0x2 EXP SUB DUP2 CALLDATALOAD AND SWAP1 PUSH1 0x20 ADD CALLDATALOAD PUSH2 0x39FE JUMP JUMPDEST PUSH1 0x40 DUP1 MLOAD PUSH1 0x1 PUSH1 0xA0 PUSH1 0x2 EXP SUB SWAP1 SWAP5 AND DUP5 MSTORE PUSH1 0x20 DUP5 ADD SWAP3 SWAP1 SWAP3 MSTORE ISZERO ISZERO DUP3 DUP3 ADD MSTORE MLOAD SWAP1 DUP2 SWAP1 SUB PUSH1 0x60 ADD SWAP1 RETURN JUMPDEST PUSH2 0x45C PUSH1 0x4 DUP1 CALLDATASIZE SUB PUSH1 0x80 DUP2 LT ISZERO PUSH2 0xE5B JUMPI PUSH1 0x0 DUP1 REVERT JUMPDEST PUSH1 0x1 PUSH1 0x80 PUSH1 0x2 EXP SUB DUP3 CALLDATALOAD AND SWAP2 SWAP1 DUP2 ADD SWAP1 PUSH1 0x40 DUP2 ADD PUSH1 0x20 DUP3 ADD CALLDATALOAD PUSH5 0x100000000 DUP2 GT ISZERO PUSH2 0xE86 JUMPI PUSH1 0x0 DUP1 REVERT JUMPDEST DUP3 ADD DUP4 PUSH1 0x20 DUP3 ADD GT ISZERO PUSH2 0xE98 JUMPI PUSH1 0x0 DUP1 REVERT JUMPDEST DUP1 CALLDATALOAD SWAP1 PUSH1 0x20 ADD SWAP2 DUP5 PUSH1 0x20 DUP4 MUL DUP5 ADD GT PUSH5 0x100000000 DUP4 GT OR ISZERO PUSH2 0xEBA JUMPI PUSH1 0x0 DUP1 REVERT JUMPDEST SWAP2 SWAP4 POP SWAP2 POP DUP1 CALLDATALOAD SWAP1 PUSH1 0x20 ADD CALLDATALOAD PUSH2 0x3A4C JUMP JUMPDEST PUSH2 0x45C PUSH1 0x4 DUP1 CALLDATASIZE SUB PUSH1 0x20 DUP2 LT ISZERO PUSH2 0xEE1 JUMPI PUSH1 0x0 DUP1 REVERT JUMPDEST POP CALLDATALOAD PUSH1 0x1 PUSH1 0xA0 PUSH1 0x2 EXP SUB AND PUSH2 0x3F1F JUMP JUMPDEST PUSH2 0x42B PUSH1 0x4 DUP1 CALLDATASIZE SUB PUSH1 0x20 DUP2 LT ISZERO PUSH2 0xF07 JUMPI PUSH1 0x0 DUP1 REVERT JUMPDEST POP CALLDATALOAD PUSH1 0x1 PUSH1 0xA0 PUSH1 0x2 EXP SUB AND PUSH2 0x3F3B JUMP JUMPDEST PUSH2 0x45C PUSH1 0x4 DUP1 CALLDATASIZE SUB PUSH1 0xA0 DUP2 LT ISZERO PUSH2 0xF2D JUMPI PUSH1 0x0 DUP1 REVERT JUMPDEST PUSH1 0x1 PUSH1 0x80 PUSH1 0x2 EXP SUB DUP3 CALLDATALOAD AND SWAP2 PUSH1 0x20 DUP2 ADD CALLDATALOAD SWAP2 PUSH1 0x40 DUP3 ADD CALLDATALOAD SWAP2 PUSH1 0x60 DUP2 ADD CALLDATALOAD SWAP2 DUP2 ADD SWAP1 PUSH1 0xA0 DUP2 ADD PUSH1 0x80 DUP3 ADD CALLDATALOAD PUSH5 0x100000000 DUP2 GT ISZERO PUSH2 0xF69 JUMPI PUSH1 0x0 DUP1 REVERT JUMPDEST DUP3 ADD DUP4 PUSH1 0x20 DUP3 ADD GT ISZERO PUSH2 0xF7B JUMPI PUSH1 0x0 DUP1 REVERT JUMPDEST DUP1 CALLDATALOAD SWAP1 PUSH1 0x20 ADD SWAP2 DUP5 PUSH1 0x1 DUP4 MUL DUP5 ADD GT PUSH5 0x100000000 DUP4 GT OR ISZERO PUSH2 0xF9D JUMPI PUSH1 0x0 DUP1 REVERT JUMPDEST POP SWAP1 SWAP3 POP SWAP1 POP PUSH2 0x3F4E JUMP JUMPDEST PUSH2 0x42B PUSH1 0x4 DUP1 CALLDATASIZE SUB PUSH1 0x40 DUP2 LT ISZERO PUSH2 0xFBE JUMPI PUSH1 0x0 DUP1 REVERT JUMPDEST POP DUP1 CALLDATALOAD SWAP1 PUSH1 0x20 ADD CALLDATALOAD PUSH1 0x1 PUSH1 0xA0 PUSH1 0x2 EXP SUB AND PUSH2 0x43DD JUMP JUMPDEST PUSH2 0xFDC PUSH2 0x43FD JUMP JUMPDEST PUSH1 0x40 DUP1 MLOAD PUSH1 0x20 DUP1 DUP3 MSTORE DUP4 MLOAD DUP2 DUP4 ADD MSTORE DUP4 MLOAD SWAP2 SWAP3 DUP4 SWAP3 SWAP1 DUP4 ADD SWAP2 DUP6 ADD SWAP1 DUP1 DUP4 DUP4 PUSH1 0x0 JUMPDEST DUP4 DUP2 LT ISZERO PUSH2 0x1016 JUMPI DUP2 DUP2 ADD MLOAD DUP4 DUP3 ADD MSTORE PUSH1 0x20 ADD PUSH2 0xFFE JUMP JUMPDEST POP POP POP POP SWAP1 POP SWAP1 DUP2 ADD SWAP1 PUSH1 0x1F AND DUP1 ISZERO PUSH2 0x1043 JUMPI DUP1 DUP3 SUB DUP1 MLOAD PUSH1 0x1 DUP4 PUSH1 0x20 SUB PUSH2 0x100 EXP SUB NOT AND DUP2 MSTORE PUSH1 0x20 ADD SWAP2 POP JUMPDEST POP SWAP3 POP POP POP PUSH1 0x40 MLOAD DUP1 SWAP2 SUB SWAP1 RETURN JUMPDEST PUSH1 0x0 PUSH2 0x1064 PUSH1 0x5 DUP4 PUSH4 0xFFFFFFFF PUSH2 0x4434 AND JUMP JUMPDEST SWAP1 POP JUMPDEST SWAP2 SWAP1 POP JUMP JUMPDEST PUSH1 0x3 SLOAD PUSH1 0x1 PUSH1 0xA0 PUSH1 0x2 EXP SUB AND CALLER EQ PUSH2 0x1083 JUMPI PUSH1 0x0 DUP1 REVERT JUMPDEST PUSH1 0xD DUP2 SWAP1 SSTORE PUSH1 0xC SLOAD PUSH1 0x40 DUP1 MLOAD SWAP2 DUP3 MSTORE PUSH1 0x20 DUP3 ADD DUP4 SWAP1 MSTORE DUP1 MLOAD PUSH32 0x5C6323BF1C2D7AAEA2C091A4751C1C87AF7F2864650C336507A77D0557AF37A1 SWAP3 DUP2 SWAP1 SUB SWAP1 SWAP2 ADD SWAP1 LOG1 POP JUMP JUMPDEST PUSH1 0x16 PUSH1 0x20 SWAP1 DUP2 MSTORE PUSH1 0x0 SWAP3 DUP4 MSTORE PUSH1 0x40 DUP1 DUP5 KECCAK256 SWAP1 SWAP2 MSTORE SWAP1 DUP3 MSTORE SWAP1 KECCAK256 SLOAD DUP2 JUMP JUMPDEST PUSH1 0x15 PUSH1 0x20 MSTORE PUSH1 0x0 DUP3 DUP2 MSTORE PUSH1 0x40 SWAP1 KECCAK256 DUP2 PUSH1 0x8 DUP2 LT PUSH2 0x10FE JUMPI INVALID JUMPDEST ADD SLOAD SWAP2 POP DUP3 SWAP1 POP JUMP JUMPDEST PUSH2 0x100 DUP2 JUMP JUMPDEST PUSH2 0x1116 CALLER PUSH2 0x3F3B JUMP JUMPDEST ISZERO ISZERO PUSH2 0x1121 JUMPI PUSH1 0x0 DUP1 REVERT JUMPDEST PUSH1 0x9 SLOAD PUSH1 0xFF AND ISZERO PUSH2 0x1131 JUMPI PUSH1 0x0 DUP1 REVERT JUMPDEST PUSH1 0x1 PUSH1 0x80 PUSH1 0x2 EXP SUB DUP4 AND PUSH1 0x0 SWAP1 DUP2 MSTORE PUSH1 0x11 PUSH1 0x20 SWAP1 DUP2 MSTORE PUSH1 0x40 DUP1 DUP4 KECCAK256 PUSH1 0x14 SWAP1 SWAP3 MSTORE SWAP1 SWAP2 KECCAK256 PUSH1 0x1 DUP3 ADD SLOAD PUSH1 0x1 PUSH1 0xA0 PUSH1 0x2 EXP SUB AND ISZERO ISZERO PUSH2 0x11A6 JUMPI PUSH1 0x40 DUP1 MLOAD PUSH1 0xE5 PUSH1 0x2 EXP PUSH3 0x461BCD MUL DUP2 MSTORE PUSH1 0x20 PUSH1 0x4 DUP3 ADD MSTORE PUSH1 0x16 PUSH1 0x24 DUP3 ADD MSTORE PUSH1 0x0 DUP1 MLOAD PUSH1 0x20 PUSH2 0x5A00 DUP4 CODECOPY DUP2 MLOAD SWAP2 MSTORE PUSH1 0x44 DUP3 ADD MSTORE SWAP1 MLOAD SWAP1 DUP2 SWAP1 SUB PUSH1 0x64 ADD SWAP1 REVERT JUMPDEST PUSH1 0x0 PUSH2 0x11B1 DUP7 PUSH2 0x1FC3 JUMP JUMPDEST SWAP1 POP DUP1 PUSH1 0x2 EQ DUP1 PUSH2 0x11C2 JUMPI POP DUP1 PUSH1 0x3 EQ JUMPDEST ISZERO ISZERO PUSH2 0x1218 JUMPI PUSH1 0x40 DUP1 MLOAD PUSH1 0xE5 PUSH1 0x2 EXP PUSH3 0x461BCD MUL DUP2 MSTORE PUSH1 0x20 PUSH1 0x4 DUP3 ADD MSTORE PUSH1 0x1B PUSH1 0x24 DUP3 ADD MSTORE PUSH32 0x426F756E7479206E6F7420696E20766F74696E672077696E646F770000000000 PUSH1 0x44 DUP3 ADD MSTORE SWAP1 MLOAD SWAP1 DUP2 SWAP1 SUB PUSH1 0x64 ADD SWAP1 REVERT JUMPDEST PUSH1 0x1 PUSH1 0x80 PUSH1 0x2 EXP SUB DUP7 AND PUSH1 0x0 SWAP1 DUP2 MSTORE PUSH1 0x18 PUSH1 0x20 SWAP1 DUP2 MSTORE PUSH1 0x40 DUP1 DUP4 KECCAK256 CALLER DUP5 MSTORE SWAP1 SWAP2 MSTORE SWAP1 KECCAK256 SLOAD PUSH1 0xFF AND ISZERO PUSH2 0x1294 JUMPI PUSH1 0x40 DUP1 MLOAD PUSH1 0xE5 PUSH1 0x2 EXP PUSH3 0x461BCD MUL DUP2 MSTORE PUSH1 0x20 PUSH1 0x4 DUP3 ADD MSTORE PUSH1 0x19 PUSH1 0x24 DUP3 ADD MSTORE PUSH32 0x417262697465722068617320616C726561647920766F74656400000000000000 PUSH1 0x44 DUP3 ADD MSTORE SWAP1 MLOAD SWAP1 DUP2 SWAP1 SUB PUSH1 0x64 ADD SWAP1 REVERT JUMPDEST PUSH2 0x129C PUSH2 0x5730 JUMP JUMPDEST POP PUSH1 0x40 DUP1 MLOAD PUSH1 0x60 DUP2 ADD DUP3 MSTORE CALLER DUP1 DUP3 MSTORE PUSH1 0x20 DUP1 DUP4 ADD DUP10 DUP2 MSTORE DUP9 ISZERO ISZERO DUP5 DUP7 ADD SWAP1 DUP2 MSTORE PUSH1 0x1 PUSH1 0x80 PUSH1 0x2 EXP SUB DUP13 AND PUSH1 0x0 DUP2 DUP2 MSTORE PUSH1 0x14 DUP6 MSTORE DUP8 DUP2 KECCAK256 DUP1 SLOAD PUSH1 0x1 DUP1 DUP3 ADD DUP4 SSTORE SWAP2 DUP4 MSTORE SWAP6 DUP3 KECCAK256 DUP9 MLOAD PUSH1 0x3 SWAP1 SWAP8 MUL ADD DUP1 SLOAD PUSH1 0x1 PUSH1 0xA0 PUSH1 0x2 EXP SUB NOT AND PUSH1 0x1 PUSH1 0xA0 PUSH1 0x2 EXP SUB SWAP8 DUP9 AND OR DUP2 SSTORE SWAP5 MLOAD SWAP1 DUP6 ADD SSTORE SWAP2 MLOAD PUSH1 0x2 SWAP1 SWAP4 ADD DUP1 SLOAD PUSH1 0xFF NOT AND SWAP4 ISZERO ISZERO SWAP4 SWAP1 SWAP4 OR SWAP1 SWAP3 SSTORE PUSH1 0xA SLOAD DUP7 MLOAD PUSH32 0x293F9F4F00000000000000000000000000000000000000000000000000000000 DUP2 MSTORE PUSH1 0x4 DUP2 ADD SWAP6 SWAP1 SWAP6 MSTORE PUSH1 0x24 DUP6 ADD SWAP3 SWAP1 SWAP3 MSTORE NUMBER PUSH1 0x44 DUP6 ADD MSTORE SWAP5 MLOAD SWAP4 SWAP5 SWAP2 AND SWAP3 PUSH4 0x293F9F4F SWAP3 PUSH1 0x64 DUP1 DUP3 ADD SWAP4 SWAP3 SWAP2 DUP3 SWAP1 SUB ADD DUP2 DUP4 DUP8 DUP1 EXTCODESIZE ISZERO DUP1 ISZERO PUSH2 0x1388 JUMPI PUSH1 0x0 DUP1 REVERT JUMPDEST POP GAS CALL ISZERO DUP1 ISZERO PUSH2 0x139C JUMPI RETURNDATASIZE PUSH1 0x0 DUP1 RETURNDATACOPY RETURNDATASIZE PUSH1 0x0 REVERT JUMPDEST POP POP POP PUSH1 0x1 PUSH1 0x80 PUSH1 0x2 EXP SUB DUP9 AND PUSH1 0x0 DUP2 DUP2 MSTORE PUSH1 0x18 PUSH1 0x20 SWAP1 DUP2 MSTORE PUSH1 0x40 DUP1 DUP4 KECCAK256 CALLER DUP5 MSTORE DUP3 MSTORE DUP1 DUP4 KECCAK256 DUP1 SLOAD PUSH1 0xFF NOT AND PUSH1 0x1 OR SWAP1 SSTORE SWAP3 DUP3 MSTORE PUSH1 0x16 SWAP1 MSTORE SWAP1 DUP2 KECCAK256 SWAP1 SWAP2 POP DUP2 SWAP1 DUP2 JUMPDEST DUP8 PUSH1 0x4 ADD SLOAD DUP2 LT ISZERO PUSH2 0x153C JUMPI PUSH1 0x8 DUP9 ADD SLOAD ISZERO DUP1 ISZERO SWAP1 PUSH2 0x1406 JUMPI POP PUSH1 0x8 DUP9 ADD SLOAD PUSH1 0x2 DUP3 SWAP1 EXP AND ISZERO ISZERO JUMPDEST ISZERO PUSH2 0x1440 JUMPI PUSH2 0x1426 PUSH2 0x1419 DUP3 PUSH1 0x1 PUSH2 0x446F JUMP JUMPDEST DUP6 SWAP1 PUSH4 0xFFFFFFFF PUSH2 0x448B AND JUMP JUMPDEST SWAP4 POP PUSH2 0x1439 DUP4 PUSH1 0x1 PUSH4 0xFFFFFFFF PUSH2 0x448B AND JUMP JUMPDEST SWAP3 POP PUSH2 0x1534 JUMP JUMPDEST PUSH1 0x2 DUP2 SWAP1 EXP DUP11 AND ISZERO PUSH2 0x147C JUMPI PUSH1 0x0 DUP2 DUP2 MSTORE PUSH1 0x20 DUP4 SWAP1 MSTORE PUSH1 0x40 SWAP1 KECCAK256 SLOAD PUSH2 0x146C SWAP1 PUSH1 0x1 PUSH4 0xFFFFFFFF PUSH2 0x448B AND JUMP JUMPDEST PUSH1 0x0 DUP3 DUP2 MSTORE PUSH1 0x20 DUP5 SWAP1 MSTORE PUSH1 0x40 SWAP1 KECCAK256 SSTORE JUMPDEST PUSH1 0x0 DUP2 DUP2 MSTORE PUSH1 0x20 DUP4 SWAP1 MSTORE PUSH1 0x40 DUP2 KECCAK256 SLOAD DUP9 SLOAD PUSH2 0x149C SWAP2 PUSH4 0xFFFFFFFF PUSH2 0x44A4 AND JUMP JUMPDEST PUSH1 0x0 DUP4 DUP2 MSTORE PUSH1 0x20 DUP6 SWAP1 MSTORE PUSH1 0x40 DUP2 KECCAK256 SLOAD PUSH1 0x2 SLOAD SWAP3 SWAP4 POP SWAP1 SWAP2 PUSH2 0x14C2 SWAP2 PUSH4 0xFFFFFFFF PUSH2 0x44A4 AND JUMP JUMPDEST SWAP1 POP PUSH1 0x0 PUSH2 0x14DB DUP4 PUSH1 0x2 SLOAD PUSH2 0x44A4 SWAP1 SWAP2 SWAP1 PUSH4 0xFFFFFFFF AND JUMP JUMPDEST PUSH1 0x0 DUP6 DUP2 MSTORE PUSH1 0x20 DUP8 SWAP1 MSTORE PUSH1 0x40 SWAP1 KECCAK256 SLOAD SWAP1 SWAP2 POP DUP3 GT ISZERO DUP1 PUSH2 0x14FA JUMPI POP DUP1 DUP4 GT JUMPDEST ISZERO PUSH2 0x1530 JUMPI PUSH2 0x151A PUSH2 0x150D DUP6 PUSH1 0x1 PUSH2 0x446F JUMP JUMPDEST DUP9 SWAP1 PUSH4 0xFFFFFFFF PUSH2 0x448B AND JUMP JUMPDEST SWAP7 POP PUSH2 0x152D DUP7 PUSH1 0x1 PUSH4 0xFFFFFFFF PUSH2 0x448B AND JUMP JUMPDEST SWAP6 POP JUMPDEST POP POP POP JUMPDEST PUSH1 0x1 ADD PUSH2 0x13DE JUMP JUMPDEST POP PUSH1 0x8 DUP8 ADD DUP4 SWAP1 SSTORE PUSH1 0x2 SLOAD DUP7 SLOAD EQ DUP1 PUSH2 0x1558 JUMPI POP DUP7 PUSH1 0x4 ADD SLOAD DUP3 EQ JUMPDEST DUP1 ISZERO PUSH2 0x1570 JUMPI POP PUSH1 0x6 DUP8 ADD SLOAD PUSH1 0xA0 PUSH1 0x2 EXP SWAP1 DIV PUSH1 0xFF AND ISZERO JUMPDEST ISZERO PUSH2 0x160A JUMPI PUSH1 0x6 DUP8 ADD DUP1 SLOAD PUSH21 0xFF0000000000000000000000000000000000000000 NOT AND PUSH1 0xA0 PUSH1 0x2 EXP OR SWAP1 SSTORE PUSH1 0x1 PUSH1 0x80 PUSH1 0x2 EXP SUB DUP11 AND PUSH1 0x0 SWAP1 DUP2 MSTORE PUSH1 0x11 PUSH1 0x20 MSTORE PUSH1 0x40 SWAP1 KECCAK256 PUSH1 0x5 ADD SLOAD PUSH2 0x15C8 SWAP1 NUMBER SWAP1 PUSH4 0xFFFFFFFF PUSH2 0x44A4 AND JUMP JUMPDEST PUSH1 0x7 DUP9 ADD SSTORE PUSH1 0x40 DUP1 MLOAD PUSH1 0x1 PUSH1 0x80 PUSH1 0x2 EXP SUB DUP13 AND DUP2 MSTORE SWAP1 MLOAD PUSH32 0x1EA03B2592E477A842B82E314D6518FB90858C4E5405570EC8405E4B117517D2 SWAP2 DUP2 SWAP1 SUB PUSH1 0x20 ADD SWAP1 LOG1 JUMPDEST PUSH1 0x4 DUP8 ADD SLOAD PUSH1 0x40 DUP1 MLOAD PUSH1 0x1 PUSH1 0x80 PUSH1 0x2 EXP SUB DUP14 AND DUP2 MSTORE PUSH1 0x20 DUP2 ADD DUP13 SWAP1 MSTORE DUP1 DUP3 ADD SWAP3 SWAP1 SWAP3 MSTORE CALLER PUSH1 0x60 DUP4 ADD MSTORE MLOAD PUSH32 0x1D62BEC22C4AE1400A6DCB3DE090F5410BD8F5DD38A067142A96BCC1D2C3E49B SWAP2 DUP2 SWAP1 SUB PUSH1 0x80 ADD SWAP1 LOG1 POP POP POP POP POP POP POP POP POP POP JUMP JUMPDEST PUSH1 0x3 SLOAD PUSH1 0x1 PUSH1 0xA0 PUSH1 0x2 EXP SUB AND CALLER EQ PUSH2 0x1681 JUMPI PUSH1 0x0 DUP1 REVERT JUMPDEST PUSH1 0xC DUP2 SWAP1 SSTORE PUSH1 0xD SLOAD PUSH1 0x40 DUP1 MLOAD DUP4 DUP2 MSTORE PUSH1 0x20 DUP2 ADD SWAP3 SWAP1 SWAP3 MSTORE DUP1 MLOAD PUSH32 0x5C6323BF1C2D7AAEA2C091A4751C1C87AF7F2864650C336507A77D0557AF37A1 SWAP3 DUP2 SWAP1 SUB SWAP1 SWAP2 ADD SWAP1 LOG1 POP JUMP JUMPDEST PUSH1 0x19 DUP2 JUMP JUMPDEST PUSH2 0x16D5 CALLER PUSH2 0x3041 JUMP JUMPDEST ISZERO ISZERO PUSH2 0x16E0 JUMPI PUSH1 0x0 DUP1 REVERT JUMPDEST PUSH2 0x16F1 PUSH1 0x1 DUP4 PUSH4 0xFFFFFFFF PUSH2 0x44B9 AND JUMP JUMPDEST PUSH1 0x2 SLOAD PUSH2 0x1705 SWAP1 PUSH1 0x1 PUSH4 0xFFFFFFFF PUSH2 0x44A4 AND JUMP JUMPDEST PUSH1 0x2 SSTORE PUSH1 0x40 DUP1 MLOAD DUP3 DUP2 MSTORE SWAP1 MLOAD PUSH1 0x1 PUSH1 0xA0 PUSH1 0x2 EXP SUB DUP5 AND SWAP2 PUSH32 0x2275ED1CB066A3256995CE7DB4914F0CEB8BC5755F46BDF6EE82C3CBBCB7C171 SWAP2 SWAP1 DUP2 SWAP1 SUB PUSH1 0x20 ADD SWAP1 LOG2 POP POP JUMP JUMPDEST PUSH1 0x1 PUSH1 0x80 PUSH1 0x2 EXP SUB DUP2 AND PUSH1 0x0 SWAP1 DUP2 MSTORE PUSH1 0x11 PUSH1 0x20 MSTORE PUSH1 0x40 DUP2 KECCAK256 PUSH1 0x1 ADD SLOAD PUSH1 0x1 PUSH1 0xA0 PUSH1 0x2 EXP SUB AND ISZERO ISZERO PUSH2 0x17B4 JUMPI PUSH1 0x40 DUP1 MLOAD PUSH1 0xE5 PUSH1 0x2 EXP PUSH3 0x461BCD MUL DUP2 MSTORE PUSH1 0x20 PUSH1 0x4 DUP3 ADD MSTORE PUSH1 0x16 PUSH1 0x24 DUP3 ADD MSTORE PUSH1 0x0 DUP1 MLOAD PUSH1 0x20 PUSH2 0x5A00 DUP4 CODECOPY DUP2 MLOAD SWAP2 MSTORE PUSH1 0x44 DUP3 ADD MSTORE SWAP1 MLOAD SWAP1 DUP2 SWAP1 SUB PUSH1 0x64 ADD SWAP1 REVERT JUMPDEST POP PUSH1 0x1 PUSH1 0x80 PUSH1 0x2 EXP SUB AND PUSH1 0x0 SWAP1 DUP2 MSTORE PUSH1 0x14 PUSH1 0x20 MSTORE PUSH1 0x40 SWAP1 KECCAK256 SLOAD SWAP1 JUMP JUMPDEST PUSH7 0xDE0B6B3A764000 DUP2 JUMP JUMPDEST PUSH1 0xD SLOAD DUP2 JUMP JUMPDEST PUSH2 0x17EA CALLER PUSH2 0x1845 JUMP JUMPDEST ISZERO ISZERO PUSH2 0x17F5 JUMPI PUSH1 0x0 DUP1 REVERT JUMPDEST PUSH1 0x9 SLOAD PUSH1 0xFF AND ISZERO ISZERO PUSH2 0x1806 JUMPI PUSH1 0x0 DUP1 REVERT JUMPDEST PUSH1 0x9 DUP1 SLOAD PUSH1 0xFF NOT AND SWAP1 SSTORE PUSH1 0x40 DUP1 MLOAD CALLER DUP2 MSTORE SWAP1 MLOAD PUSH32 0x5DB9EE0A495BF2E6FF9C91A7834C1BA4FDD244A5E8AA4E537BD38AEAE4B073AA SWAP2 DUP2 SWAP1 SUB PUSH1 0x20 ADD SWAP1 LOG1 JUMP JUMPDEST PUSH1 0x0 PUSH2 0x1064 PUSH1 0x8 DUP4 PUSH4 0xFFFFFFFF PUSH2 0x4434 AND JUMP JUMPDEST PUSH1 0x3 SLOAD PUSH1 0x1 PUSH1 0xA0 PUSH1 0x2 EXP SUB AND CALLER EQ PUSH2 0x186F JUMPI PUSH1 0x0 DUP1 REVERT JUMPDEST PUSH1 0x3 DUP1 SLOAD PUSH1 0x1 PUSH1 0xA0 PUSH1 0x2 EXP SUB DUP4 DUP2 AND PUSH1 0x1 PUSH1 0xA0 PUSH1 0x2 EXP SUB NOT DUP4 AND OR SWAP3 DUP4 SWAP1 SSTORE PUSH1 0x40 MLOAD SWAP2 DUP2 AND SWAP3 AND SWAP1 DUP3 SWAP1 PUSH32 0xB64DDDC215B4D83B6100E7E425BA0D57F6E67562D748AA63865DEB5C1578B5FE SWAP1 PUSH1 0x0 SWAP1 LOG3 POP POP JUMP JUMPDEST PUSH1 0x60 PUSH1 0x0 PUSH2 0x18D8 DUP4 PUSH1 0x19 PUSH4 0xFFFFFFFF PUSH2 0x4505 AND JUMP JUMPDEST PUSH1 0x10 SLOAD SWAP1 SWAP2 POP DUP2 LT PUSH2 0x18FA JUMPI POP POP PUSH1 0x40 DUP1 MLOAD PUSH1 0x0 DUP2 MSTORE PUSH1 0x20 DUP2 ADD SWAP1 SWAP2 MSTORE PUSH2 0x1067 JUMP JUMPDEST PUSH1 0x10 SLOAD PUSH1 0x19 SWAP1 DUP2 SWAP1 PUSH2 0x1912 SWAP1 DUP5 PUSH4 0xFFFFFFFF PUSH2 0x44A4 AND JUMP JUMPDEST LT ISZERO PUSH2 0x192E JUMPI PUSH1 0x10 SLOAD PUSH2 0x192B SWAP1 DUP4 PUSH4 0xFFFFFFFF PUSH2 0x44A4 AND JUMP JUMPDEST SWAP1 POP JUMPDEST PUSH1 0x60 DUP2 PUSH1 0x40 MLOAD SWAP1 DUP1 DUP3 MSTORE DUP1 PUSH1 0x20 MUL PUSH1 0x20 ADD DUP3 ADD PUSH1 0x40 MSTORE DUP1 ISZERO PUSH2 0x195A JUMPI DUP2 PUSH1 0x20 ADD PUSH1 0x20 DUP3 MUL DUP1 CODESIZE DUP4 CODECOPY ADD SWAP1 POP JUMPDEST POP SWAP1 POP PUSH1 0x0 JUMPDEST DUP3 DUP2 LT ISZERO PUSH2 0x19DA JUMPI PUSH1 0x10 PUSH2 0x197A DUP3 DUP7 PUSH4 0xFFFFFFFF PUSH2 0x448B AND JUMP JUMPDEST DUP2 SLOAD DUP2 LT PUSH2 0x1984 JUMPI INVALID JUMPDEST SWAP1 PUSH1 0x0 MSTORE PUSH1 0x20 PUSH1 0x0 KECCAK256 SWAP1 PUSH1 0x2 SWAP2 DUP3 DUP3 DIV ADD SWAP2 SWAP1 MOD PUSH1 0x10 MUL SWAP1 SLOAD SWAP1 PUSH2 0x100 EXP SWAP1 DIV PUSH1 0x1 PUSH1 0x80 PUSH1 0x2 EXP SUB AND DUP3 DUP3 DUP2 MLOAD DUP2 LT ISZERO ISZERO PUSH2 0x19BB JUMPI INVALID JUMPDEST PUSH1 0x1 PUSH1 0x80 PUSH1 0x2 EXP SUB SWAP1 SWAP3 AND PUSH1 0x20 SWAP3 DUP4 MUL SWAP1 SWAP2 ADD SWAP1 SWAP2 ADD MSTORE PUSH1 0x1 ADD PUSH2 0x1960 JUMP JUMPDEST POP SWAP5 SWAP4 POP POP POP POP JUMP JUMPDEST PUSH1 0x19 PUSH1 0x20 SWAP1 DUP2 MSTORE PUSH1 0x0 SWAP3 DUP4 MSTORE PUSH1 0x40 DUP1 DUP5 KECCAK256 SWAP1 SWAP2 MSTORE SWAP1 DUP3 MSTORE SWAP1 KECCAK256 SLOAD PUSH1 0xFF AND DUP2 JUMP JUMPDEST PUSH1 0xA SLOAD PUSH1 0x1 PUSH1 0xA0 PUSH1 0x2 EXP SUB AND DUP2 JUMP JUMPDEST PUSH1 0x1 PUSH1 0x80 PUSH1 0x2 EXP SUB DUP2 AND PUSH1 0x0 SWAP1 DUP2 MSTORE PUSH1 0x11 PUSH1 0x20 MSTORE PUSH1 0x40 DUP2 KECCAK256 PUSH1 0x1 ADD SLOAD PUSH1 0x1 PUSH1 0xA0 PUSH1 0x2 EXP SUB AND ISZERO ISZERO PUSH2 0x1A7B JUMPI PUSH1 0x40 DUP1 MLOAD PUSH1 0xE5 PUSH1 0x2 EXP PUSH3 0x461BCD MUL DUP2 MSTORE PUSH1 0x20 PUSH1 0x4 DUP3 ADD MSTORE PUSH1 0x16 PUSH1 0x24 DUP3 ADD MSTORE PUSH1 0x0 DUP1 MLOAD PUSH1 0x20 PUSH2 0x5A00 DUP4 CODECOPY DUP2 MLOAD SWAP2 MSTORE PUSH1 0x44 DUP3 ADD MSTORE SWAP1 MLOAD SWAP1 DUP2 SWAP1 SUB PUSH1 0x64 ADD SWAP1 REVERT JUMPDEST POP PUSH1 0x1 PUSH1 0x80 PUSH1 0x2 EXP SUB AND PUSH1 0x0 SWAP1 DUP2 MSTORE PUSH1 0x12 PUSH1 0x20 MSTORE PUSH1 0x40 SWAP1 KECCAK256 SLOAD SWAP1 JUMP JUMPDEST PUSH1 0x9 SLOAD PUSH1 0xFF AND ISZERO PUSH2 0x1AA7 JUMPI PUSH1 0x0 DUP1 REVERT JUMPDEST PUSH1 0x1 PUSH1 0x80 PUSH1 0x2 EXP SUB DUP2 AND PUSH1 0x0 SWAP1 DUP2 MSTORE PUSH1 0x11 PUSH1 0x20 SWAP1 DUP2 MSTORE PUSH1 0x40 DUP1 DUP4 KECCAK256 PUSH1 0x12 SWAP1 SWAP3 MSTORE SWAP1 SWAP2 KECCAK256 PUSH1 0x1 DUP3 ADD SLOAD PUSH1 0x1 PUSH1 0xA0 PUSH1 0x2 EXP SUB AND ISZERO ISZERO PUSH2 0x1B1C JUMPI PUSH1 0x40 DUP1 MLOAD PUSH1 0xE5 PUSH1 0x2 EXP PUSH3 0x461BCD MUL DUP2 MSTORE PUSH1 0x20 PUSH1 0x4 DUP3 ADD MSTORE PUSH1 0x16 PUSH1 0x24 DUP3 ADD MSTORE PUSH1 0x0 DUP1 MLOAD PUSH1 0x20 PUSH2 0x5A00 DUP4 CODECOPY DUP2 MLOAD SWAP2 MSTORE PUSH1 0x44 DUP3 ADD MSTORE SWAP1 MLOAD SWAP1 DUP2 SWAP1 SUB PUSH1 0x64 ADD SWAP1 REVERT JUMPDEST PUSH1 0x1 PUSH1 0x80 PUSH1 0x2 EXP SUB DUP4 AND PUSH1 0x0 SWAP1 DUP2 MSTORE PUSH1 0x1A PUSH1 0x20 SWAP1 DUP2 MSTORE PUSH1 0x40 DUP1 DUP4 KECCAK256 CALLER DUP5 MSTORE SWAP1 SWAP2 MSTORE SWAP1 KECCAK256 SLOAD PUSH1 0xFF AND ISZERO PUSH2 0x1B98 JUMPI PUSH1 0x40 DUP1 MLOAD PUSH1 0xE5 PUSH1 0x2 EXP PUSH3 0x461BCD MUL DUP2 MSTORE PUSH1 0x20 PUSH1 0x4 DUP3 ADD MSTORE PUSH1 0x16 PUSH1 0x24 DUP3 ADD MSTORE PUSH32 0x53656E64657220616C726561647920736574746C656400000000000000000000 PUSH1 0x44 DUP3 ADD MSTORE SWAP1 MLOAD SWAP1 DUP2 SWAP1 SUB PUSH1 0x64 ADD SWAP1 REVERT JUMPDEST PUSH1 0x0 PUSH2 0x1BA3 DUP5 PUSH2 0x1FC3 JUMP JUMPDEST SWAP1 POP DUP1 PUSH1 0x3 EQ DUP1 PUSH2 0x1BB4 JUMPI POP DUP1 PUSH1 0x4 EQ JUMPDEST ISZERO ISZERO PUSH2 0x1C0A JUMPI PUSH1 0x40 DUP1 MLOAD PUSH1 0xE5 PUSH1 0x2 EXP PUSH3 0x461BCD MUL DUP2 MSTORE PUSH1 0x20 PUSH1 0x4 DUP3 ADD MSTORE PUSH1 0x19 PUSH1 0x24 DUP3 ADD MSTORE PUSH32 0x4E6F2051756F72756D20616E6420766F74652061637469766500000000000000 PUSH1 0x44 DUP3 ADD MSTORE SWAP1 MLOAD SWAP1 DUP2 SWAP1 SUB PUSH1 0x64 ADD SWAP1 REVERT JUMPDEST PUSH2 0x1C13 CALLER PUSH2 0x3F3B JUMP JUMPDEST ISZERO PUSH2 0x1D00 JUMPI PUSH1 0x4 DUP2 EQ PUSH2 0x1C70 JUMPI PUSH1 0x40 DUP1 MLOAD PUSH1 0xE5 PUSH1 0x2 EXP PUSH3 0x461BCD MUL DUP2 MSTORE PUSH1 0x20 PUSH1 0x4 DUP3 ADD MSTORE PUSH1 0x19 PUSH1 0x24 DUP3 ADD MSTORE PUSH32 0x566F74696E6720726F756E64207374696C6C2061637469766500000000000000 PUSH1 0x44 DUP3 ADD MSTORE SWAP1 MLOAD SWAP1 DUP2 SWAP1 SUB PUSH1 0x64 ADD SWAP1 REVERT JUMPDEST PUSH1 0x6 DUP4 ADD SLOAD PUSH1 0x1 PUSH1 0xA0 PUSH1 0x2 EXP SUB AND ISZERO ISZERO PUSH2 0x1D00 JUMPI NUMBER PUSH2 0x1CB6 PUSH2 0x100 PUSH2 0x1CAA PUSH1 0xE SLOAD PUSH2 0x1CAA PUSH1 0xF SLOAD DUP10 PUSH1 0x5 ADD SLOAD PUSH2 0x448B SWAP1 SWAP2 SWAP1 PUSH4 0xFFFFFFFF AND JUMP JUMPDEST SWAP1 PUSH4 0xFFFFFFFF PUSH2 0x448B AND JUMP JUMPDEST LT PUSH2 0x1CEB JUMPI PUSH2 0x1CC4 DUP5 PUSH2 0x4530 JUMP JUMPDEST PUSH1 0x6 DUP5 ADD DUP1 SLOAD PUSH1 0x1 PUSH1 0xA0 PUSH1 0x2 EXP SUB NOT AND PUSH1 0x1 PUSH1 0xA0 PUSH1 0x2 EXP SUB SWAP3 SWAP1 SWAP3 AND SWAP2 SWAP1 SWAP2 OR SWAP1 SSTORE PUSH2 0x1D00 JUMP JUMPDEST PUSH1 0x6 DUP4 ADD DUP1 SLOAD PUSH1 0x1 PUSH1 0xA0 PUSH1 0x2 EXP SUB NOT AND CALLER OR SWAP1 SSTORE JUMPDEST PUSH1 0x0 DUP1 DUP1 PUSH1 0x60 PUSH2 0x1D0F DUP9 PUSH2 0x49F3 JUMP JUMPDEST PUSH1 0x1 PUSH1 0x80 PUSH1 0x2 EXP SUB DUP12 AND PUSH1 0x0 SWAP1 DUP2 MSTORE PUSH1 0x1A PUSH1 0x20 SWAP1 DUP2 MSTORE PUSH1 0x40 DUP1 DUP4 KECCAK256 CALLER DUP5 MSTORE SWAP1 SWAP2 MSTORE SWAP1 KECCAK256 DUP1 SLOAD PUSH1 0xFF NOT AND PUSH1 0x1 OR SWAP1 SSTORE SWAP2 SWAP5 POP SWAP3 POP SWAP1 POP DUP3 ISZERO DUP1 ISZERO SWAP1 PUSH2 0x1D5F JUMPI POP PUSH1 0x1 DUP8 ADD SLOAD PUSH1 0x1 PUSH1 0xA0 PUSH1 0x2 EXP SUB AND CALLER EQ JUMPDEST ISZERO PUSH2 0x1D9C JUMPI PUSH1 0x1 DUP8 ADD SLOAD PUSH1 0xB SLOAD PUSH2 0x1D89 SWAP2 PUSH1 0x1 PUSH1 0xA0 PUSH1 0x2 EXP SUB SWAP2 DUP3 AND SWAP2 AND DUP6 PUSH4 0xFFFFFFFF PUSH2 0x4BA3 AND JUMP JUMPDEST PUSH2 0x1D99 DUP5 DUP5 PUSH4 0xFFFFFFFF PUSH2 0x448B AND JUMP JUMPDEST SWAP4 POP JUMPDEST PUSH1 0x0 JUMPDEST DUP7 SLOAD DUP2 LT ISZERO PUSH2 0x1E8E JUMPI DUP2 DUP2 DUP2 MLOAD DUP2 LT ISZERO ISZERO PUSH2 0x1DB6 JUMPI INVALID JUMPDEST SWAP1 PUSH1 0x20 ADD SWAP1 PUSH1 0x20 MUL ADD MLOAD PUSH1 0x0 EQ ISZERO DUP1 ISZERO PUSH2 0x1DF7 JUMPI POP DUP7 SLOAD CALLER SWAP1 DUP9 SWAP1 DUP4 SWAP1 DUP2 LT PUSH2 0x1DDB JUMPI INVALID JUMPDEST PUSH1 0x0 SWAP2 DUP3 MSTORE PUSH1 0x20 SWAP1 SWAP2 KECCAK256 PUSH1 0x6 SWAP1 SWAP2 MUL ADD SLOAD PUSH1 0x1 PUSH1 0xA0 PUSH1 0x2 EXP SUB AND EQ JUMPDEST ISZERO PUSH2 0x1E86 JUMPI PUSH2 0x1E5B DUP8 DUP3 DUP2 SLOAD DUP2 LT ISZERO ISZERO PUSH2 0x1E0D JUMPI INVALID JUMPDEST PUSH1 0x0 SWAP2 DUP3 MSTORE PUSH1 0x20 SWAP1 SWAP2 KECCAK256 PUSH1 0x6 SWAP1 SWAP2 MUL ADD SLOAD DUP4 MLOAD PUSH1 0x1 PUSH1 0xA0 PUSH1 0x2 EXP SUB SWAP1 SWAP2 AND SWAP1 DUP5 SWAP1 DUP5 SWAP1 DUP2 LT PUSH2 0x1E38 JUMPI INVALID JUMPDEST PUSH1 0x20 SWAP1 DUP2 MUL SWAP1 SWAP2 ADD ADD MLOAD PUSH1 0xB SLOAD PUSH1 0x1 PUSH1 0xA0 PUSH1 0x2 EXP SUB AND SWAP2 SWAP1 PUSH4 0xFFFFFFFF PUSH2 0x4BA3 AND JUMP JUMPDEST PUSH2 0x1E83 DUP3 DUP3 DUP2 MLOAD DUP2 LT ISZERO ISZERO PUSH2 0x1E6C JUMPI INVALID JUMPDEST PUSH1 0x20 SWAP1 DUP2 MUL SWAP1 SWAP2 ADD ADD MLOAD DUP7 SWAP1 PUSH4 0xFFFFFFFF PUSH2 0x448B AND JUMP JUMPDEST SWAP5 POP JUMPDEST PUSH1 0x1 ADD PUSH2 0x1D9F JUMP JUMPDEST POP DUP2 ISZERO DUP1 ISZERO SWAP1 PUSH2 0x1EAA JUMPI POP PUSH1 0x6 DUP8 ADD SLOAD PUSH1 0x1 PUSH1 0xA0 PUSH1 0x2 EXP SUB AND CALLER EQ JUMPDEST ISZERO PUSH2 0x1EE7 JUMPI PUSH1 0x6 DUP8 ADD SLOAD PUSH1 0xB SLOAD PUSH2 0x1ED4 SWAP2 PUSH1 0x1 PUSH1 0xA0 PUSH1 0x2 EXP SUB SWAP2 DUP3 AND SWAP2 AND DUP5 PUSH4 0xFFFFFFFF PUSH2 0x4BA3 AND JUMP JUMPDEST PUSH2 0x1EE4 DUP5 DUP4 PUSH4 0xFFFFFFFF PUSH2 0x448B AND JUMP JUMPDEST SWAP4 POP JUMPDEST PUSH1 0x40 DUP1 MLOAD PUSH1 0x1 PUSH1 0x80 PUSH1 0x2 EXP SUB DUP11 AND DUP2 MSTORE CALLER PUSH1 0x20 DUP3 ADD MSTORE DUP1 DUP3 ADD DUP7 SWAP1 MSTORE SWAP1 MLOAD PUSH32 0x70934D8A70C66E7FE28BFA368685D0F82F882FD79F440C57EC55D15F64E2AE55 SWAP2 DUP2 SWAP1 SUB PUSH1 0x60 ADD SWAP1 LOG1 POP POP POP POP POP POP POP POP JUMP JUMPDEST PUSH2 0x1F42 CALLER PUSH2 0x1051 JUMP JUMPDEST ISZERO ISZERO PUSH2 0x1F4D JUMPI PUSH1 0x0 DUP1 REVERT JUMPDEST PUSH2 0x1F56 DUP2 PUSH2 0x4C42 JUMP JUMPDEST POP JUMP JUMPDEST PUSH1 0x9 SLOAD PUSH1 0xFF AND JUMPDEST SWAP1 JUMP JUMPDEST PUSH1 0x4 SLOAD PUSH1 0x1 PUSH1 0xA0 PUSH1 0x2 EXP SUB AND CALLER EQ PUSH2 0x1F7A JUMPI PUSH1 0x0 DUP1 REVERT JUMPDEST PUSH1 0xE DUP2 SWAP1 SSTORE PUSH1 0xF DUP3 SWAP1 SSTORE PUSH1 0x40 DUP1 MLOAD DUP4 DUP2 MSTORE PUSH1 0x20 DUP2 ADD DUP4 SWAP1 MSTORE DUP2 MLOAD PUSH32 0x710C8B3BCC669D7C9862E563F43E29E3DF52391F837C65B3D891F16023FAF0F4 SWAP3 SWAP2 DUP2 SWAP1 SUB SWAP1 SWAP2 ADD SWAP1 LOG1 POP POP JUMP JUMPDEST PUSH1 0x1 PUSH1 0x80 PUSH1 0x2 EXP SUB DUP2 AND PUSH1 0x0 SWAP1 DUP2 MSTORE PUSH1 0x11 PUSH1 0x20 MSTORE PUSH1 0x40 DUP2 KECCAK256 PUSH1 0x1 ADD SLOAD PUSH1 0x1 PUSH1 0xA0 PUSH1 0x2 EXP SUB AND ISZERO ISZERO PUSH2 0x202C JUMPI PUSH1 0x40 DUP1 MLOAD PUSH1 0xE5 PUSH1 0x2 EXP PUSH3 0x461BCD MUL DUP2 MSTORE PUSH1 0x20 PUSH1 0x4 DUP3 ADD MSTORE PUSH1 0x16 PUSH1 0x24 DUP3 ADD MSTORE PUSH1 0x0 DUP1 MLOAD PUSH1 0x20 PUSH2 0x5A00 DUP4 CODECOPY DUP2 MLOAD SWAP2 MSTORE PUSH1 0x44 DUP3 ADD MSTORE SWAP1 MLOAD SWAP1 DUP2 SWAP1 SUB PUSH1 0x64 ADD SWAP1 REVERT JUMPDEST PUSH2 0x2034 PUSH2 0x5750 JUMP JUMPDEST PUSH1 0x1 PUSH1 0x80 PUSH1 0x2 EXP SUB DUP4 DUP2 AND PUSH1 0x0 SWAP1 DUP2 MSTORE PUSH1 0x11 PUSH1 0x20 SWAP1 DUP2 MSTORE PUSH1 0x40 SWAP2 DUP3 SWAP1 KECCAK256 DUP3 MLOAD PUSH2 0x180 DUP2 ADD SWAP1 SWAP4 MSTORE DUP1 SLOAD SWAP4 DUP5 AND DUP4 MSTORE SWAP2 SWAP3 SWAP1 DUP4 ADD SWAP1 PUSH17 0x100000000000000000000000000000000 SWAP1 DIV PUSH1 0xFF AND PUSH1 0x2 DUP2 GT ISZERO PUSH2 0x208A JUMPI INVALID JUMPDEST PUSH1 0x2 DUP2 GT ISZERO PUSH2 0x2095 JUMPI INVALID JUMPDEST DUP2 MSTORE PUSH1 0x1 DUP3 DUP2 ADD SLOAD PUSH1 0x1 PUSH1 0xA0 PUSH1 0x2 EXP SUB AND PUSH1 0x20 DUP1 DUP5 ADD SWAP2 SWAP1 SWAP2 MSTORE PUSH1 0x2 DUP1 DUP6 ADD SLOAD PUSH1 0x40 DUP1 DUP7 ADD SWAP2 SWAP1 SWAP2 MSTORE PUSH1 0x3 DUP7 ADD DUP1 SLOAD DUP3 MLOAD PUSH2 0x100 SWAP7 DUP3 AND ISZERO SWAP7 SWAP1 SWAP7 MUL PUSH1 0x0 NOT ADD AND SWAP3 SWAP1 SWAP3 DIV PUSH1 0x1F DUP2 ADD DUP5 SWAP1 DIV DUP5 MUL DUP6 ADD DUP5 ADD SWAP1 SWAP2 MSTORE DUP1 DUP5 MSTORE PUSH1 0x60 SWAP1 SWAP5 ADD SWAP4 SWAP1 SWAP2 DUP4 ADD DUP3 DUP3 DUP1 ISZERO PUSH2 0x2146 JUMPI DUP1 PUSH1 0x1F LT PUSH2 0x211B JUMPI PUSH2 0x100 DUP1 DUP4 SLOAD DIV MUL DUP4 MSTORE SWAP2 PUSH1 0x20 ADD SWAP2 PUSH2 0x2146 JUMP JUMPDEST DUP3 ADD SWAP2 SWAP1 PUSH1 0x0 MSTORE PUSH1 0x20 PUSH1 0x0 KECCAK256 SWAP1 JUMPDEST DUP2 SLOAD DUP2 MSTORE SWAP1 PUSH1 0x1 ADD SWAP1 PUSH1 0x20 ADD DUP1 DUP4 GT PUSH2 0x2129 JUMPI DUP3 SWAP1 SUB PUSH1 0x1F AND DUP3 ADD SWAP2 JUMPDEST POP POP POP SWAP2 DUP4 MSTORE POP POP PUSH1 0x4 DUP3 ADD SLOAD PUSH1 0x20 DUP1 DUP4 ADD SWAP2 SWAP1 SWAP2 MSTORE PUSH1 0x5 DUP4 ADD SLOAD PUSH1 0x40 DUP1 DUP5 ADD SWAP2 SWAP1 SWAP2 MSTORE PUSH1 0x6 DUP5 ADD SLOAD PUSH1 0x1 PUSH1 0xA0 PUSH1 0x2 EXP SUB DUP2 AND PUSH1 0x60 DUP6 ADD MSTORE PUSH1 0xA0 PUSH1 0x2 EXP SWAP1 DIV PUSH1 0xFF AND ISZERO ISZERO PUSH1 0x80 DUP5 ADD MSTORE PUSH1 0x7 DUP5 ADD SLOAD PUSH1 0xA0 DUP5 ADD MSTORE PUSH1 0x8 DUP5 ADD SLOAD PUSH1 0xC0 DUP5 ADD MSTORE PUSH1 0x9 DUP5 ADD DUP1 SLOAD DUP3 MLOAD PUSH1 0x2 PUSH2 0x100 PUSH1 0x1 DUP5 AND ISZERO MUL PUSH1 0x0 NOT ADD SWAP1 SWAP3 AND SWAP2 SWAP1 SWAP2 DIV PUSH1 0x1F DUP2 ADD DUP6 SWAP1 DIV DUP6 MUL DUP3 ADD DUP6 ADD SWAP1 SWAP4 MSTORE DUP3 DUP2 MSTORE PUSH1 0xE0 SWAP1 SWAP5 ADD SWAP4 SWAP3 SWAP1 SWAP2 SWAP1 DUP4 ADD DUP3 DUP3 DUP1 ISZERO PUSH2 0x222F JUMPI DUP1 PUSH1 0x1F LT PUSH2 0x2204 JUMPI PUSH2 0x100 DUP1 DUP4 SLOAD DIV MUL DUP4 MSTORE SWAP2 PUSH1 0x20 ADD SWAP2 PUSH2 0x222F JUMP JUMPDEST DUP3 ADD SWAP2 SWAP1 PUSH1 0x0 MSTORE PUSH1 0x20 PUSH1 0x0 KECCAK256 SWAP1 JUMPDEST DUP2 SLOAD DUP2 MSTORE SWAP1 PUSH1 0x1 ADD SWAP1 PUSH1 0x20 ADD DUP1 DUP4 GT PUSH2 0x2212 JUMPI DUP3 SWAP1 SUB PUSH1 0x1F AND DUP3 ADD SWAP2 JUMPDEST POP POP POP POP POP DUP2 MSTORE POP POP SWAP1 POP NUMBER DUP2 PUSH1 0xC0 ADD MLOAD GT ISZERO PUSH2 0x2250 JUMPI PUSH1 0x0 SWAP2 POP POP PUSH2 0x1067 JUMP JUMPDEST NUMBER PUSH2 0x226A PUSH1 0xF SLOAD DUP4 PUSH1 0xC0 ADD MLOAD PUSH2 0x448B SWAP1 SWAP2 SWAP1 PUSH4 0xFFFFFFFF AND JUMP JUMPDEST GT ISZERO PUSH2 0x227A JUMPI PUSH1 0x1 SWAP2 POP POP PUSH2 0x1067 JUMP JUMPDEST NUMBER PUSH2 0x229A PUSH1 0xE SLOAD PUSH2 0x1CAA PUSH1 0xF SLOAD DUP6 PUSH1 0xC0 ADD MLOAD PUSH2 0x448B SWAP1 SWAP2 SWAP1 PUSH4 0xFFFFFFFF AND JUMP JUMPDEST GT DUP1 ISZERO PUSH2 0x22AA JUMPI POP DUP1 PUSH2 0x100 ADD MLOAD ISZERO JUMPDEST ISZERO PUSH2 0x22B9 JUMPI PUSH1 0x2 SWAP2 POP POP PUSH2 0x1067 JUMP JUMPDEST NUMBER PUSH2 0x22D9 PUSH1 0xE SLOAD PUSH2 0x1CAA PUSH1 0xF SLOAD DUP6 PUSH1 0xC0 ADD MLOAD PUSH2 0x448B SWAP1 SWAP2 SWAP1 PUSH4 0xFFFFFFFF AND JUMP JUMPDEST GT ISZERO PUSH2 0x22E9 JUMPI PUSH1 0x3 SWAP2 POP POP PUSH2 0x1067 JUMP JUMPDEST PUSH1 0x4 SWAP2 POP POP PUSH2 0x1067 JUMP JUMPDEST PUSH2 0x22FC CALLER PUSH2 0x1051 JUMP JUMPDEST ISZERO ISZERO PUSH2 0x2307 JUMPI PUSH1 0x0 DUP1 REVERT JUMPDEST PUSH1 0x6 SLOAD PUSH1 0x0 LT PUSH2 0x2316 JUMPI PUSH1 0x0 DUP1 REVERT JUMPDEST PUSH1 0x0 PUSH1 0x6 DUP2 SWAP1 SSTORE PUSH1 0x7 DUP1 SLOAD PUSH1 0xFF NOT AND SWAP1 SSTORE PUSH1 0x40 MLOAD PUSH32 0x7DDD36D52B57A3F725E7DF4ABBCD9B706FD8165AAFCC76A09ECC5714FC4C54F1 SWAP2 SWAP1 LOG1 JUMP JUMPDEST PUSH2 0x2359 CALLER PUSH2 0x4C8A JUMP JUMPDEST JUMP JUMPDEST PUSH2 0x1F56 DUP2 PUSH2 0x4CD2 JUMP JUMPDEST PUSH2 0x236C PUSH2 0x2977 JUMP JUMPDEST ISZERO ISZERO PUSH2 0x2377 JUMPI PUSH1 0x0 DUP1 REVERT JUMPDEST PUSH1 0x9 SLOAD PUSH1 0x40 MLOAD PUSH1 0x0 SWAP2 PUSH2 0x100 SWAP1 DIV PUSH1 0x1 PUSH1 0xA0 PUSH1 0x2 EXP SUB AND SWAP1 PUSH32 0x8BE0079C531659141344CD1FD0A4F28419497F9722A3DAAFE3B4186F6B6457E0 SWAP1 DUP4 SWAP1 LOG3 PUSH1 0x9 DUP1 SLOAD PUSH21 0xFFFFFFFFFFFFFFFFFFFFFFFFFFFFFFFFFFFFFFFF00 NOT AND SWAP1 SSTORE JUMP JUMPDEST PUSH1 0xF SLOAD DUP2 JUMP JUMPDEST PUSH1 0x17 PUSH1 0x20 SWAP1 DUP2 MSTORE PUSH1 0x0 SWAP3 DUP4 MSTORE PUSH1 0x40 DUP1 DUP5 KECCAK256 SWAP1 SWAP2 MSTORE SWAP1 DUP3 MSTORE SWAP1 KECCAK256 SLOAD DUP2 JUMP JUMPDEST PUSH1 0x1A PUSH1 0x20 SWAP1 DUP2 MSTORE PUSH1 0x0 SWAP3 DUP4 MSTORE PUSH1 0x40 DUP1 DUP5 KECCAK256 SWAP1 SWAP2 MSTORE SWAP1 DUP3 MSTORE SWAP1 KECCAK256 SLOAD PUSH1 0xFF AND DUP2 JUMP JUMPDEST PUSH1 0x13 PUSH1 0x20 MSTORE DUP3 PUSH1 0x0 MSTORE PUSH1 0x40 PUSH1 0x0 KECCAK256 DUP3 DUP2 SLOAD DUP2 LT ISZERO ISZERO PUSH2 0x2432 JUMPI INVALID JUMPDEST SWAP1 PUSH1 0x0 MSTORE PUSH1 0x20 PUSH1 0x0 KECCAK256 ADD DUP2 DUP2 SLOAD DUP2 LT ISZERO ISZERO PUSH2 0x2449 JUMPI INVALID JUMPDEST SWAP1 PUSH1 0x0 MSTORE PUSH1 0x20 PUSH1 0x0 KECCAK256 ADD PUSH1 0x0 SWAP3 POP SWAP3 POP POP POP SLOAD DUP2 JUMP JUMPDEST PUSH2 0x2468 CALLER PUSH2 0x1845 JUMP JUMPDEST ISZERO ISZERO PUSH2 0x2473 JUMPI PUSH1 0x0 DUP1 REVERT JUMPDEST PUSH2 0x1F56 DUP2 PUSH2 0x4D1A JUMP JUMPDEST PUSH2 0x2485 CALLER PUSH2 0x1845 JUMP JUMPDEST ISZERO ISZERO PUSH2 0x2490 JUMPI PUSH1 0x0 DUP1 REVERT JUMPDEST PUSH1 0x9 SLOAD PUSH1 0xFF AND ISZERO PUSH2 0x24A0 JUMPI PUSH1 0x0 DUP1 REVERT JUMPDEST PUSH1 0x9 DUP1 SLOAD PUSH1 0xFF NOT AND PUSH1 0x1 OR SWAP1 SSTORE PUSH1 0x40 DUP1 MLOAD CALLER DUP2 MSTORE SWAP1 MLOAD PUSH32 0x62E78CEA01BEE320CD4E420270B5EA74000D11B0C9F74754EBDBFC544B05A258 SWAP2 DUP2 SWAP1 SUB PUSH1 0x20 ADD SWAP1 LOG1 JUMP JUMPDEST PUSH1 0x10 SLOAD PUSH1 0x60 SWAP1 PUSH1 0x0 LT PUSH2 0x253F JUMPI PUSH1 0x40 DUP1 MLOAD PUSH1 0xE5 PUSH1 0x2 EXP PUSH3 0x461BCD MUL DUP2 MSTORE PUSH1 0x20 PUSH1 0x4 DUP3 ADD MSTORE PUSH1 0x1C PUSH1 0x24 DUP3 ADD MSTORE PUSH32 0x4E6F20626F756E746965732068617665206265656E20706C6163656400000000 PUSH1 0x44 DUP3 ADD MSTORE SWAP1 MLOAD SWAP1 DUP2 SWAP1 SUB PUSH1 0x64 ADD SWAP1 REVERT JUMPDEST PUSH1 0x40 DUP1 MLOAD PUSH1 0x64 DUP1 DUP3 MSTORE PUSH2 0xCA0 DUP3 ADD SWAP1 SWAP3 MSTORE PUSH1 0x0 SWAP2 PUSH1 0x60 SWAP2 SWAP1 DUP2 PUSH1 0x20 ADD JUMPDEST PUSH2 0x2564 PUSH2 0x57C6 JUMP JUMPDEST DUP2 MSTORE PUSH1 0x20 ADD SWAP1 PUSH1 0x1 SWAP1 SUB SWAP1 DUP2 PUSH2 0x255C JUMPI POP POP PUSH1 0x10 SLOAD SWAP1 SWAP2 POP PUSH1 0x0 SWAP1 PUSH1 0x64 LT ISZERO PUSH2 0x259E JUMPI PUSH1 0x10 SLOAD PUSH2 0x259B SWAP1 PUSH1 0x64 PUSH4 0xFFFFFFFF PUSH2 0x44A4 AND JUMP JUMPDEST SWAP1 POP JUMPDEST PUSH1 0x10 SLOAD JUMPDEST DUP2 DUP2 GT ISZERO PUSH2 0x2701 JUMPI PUSH1 0x0 PUSH1 0x11 DUP2 PUSH1 0x10 PUSH2 0x25C2 DUP6 PUSH1 0x1 PUSH4 0xFFFFFFFF PUSH2 0x44A4 AND JUMP JUMPDEST DUP2 SLOAD DUP2 LT PUSH2 0x25CC JUMPI INVALID JUMPDEST PUSH1 0x0 SWAP2 DUP3 MSTORE PUSH1 0x20 DUP1 DUP4 KECCAK256 PUSH1 0x2 DUP4 DIV ADD SLOAD PUSH1 0x1 SWAP3 DUP4 AND PUSH1 0x10 MUL PUSH2 0x100 EXP SWAP1 DIV PUSH1 0x1 PUSH1 0x80 PUSH1 0x2 EXP SUB AND DUP5 MSTORE DUP4 ADD SWAP4 SWAP1 SWAP4 MSTORE PUSH1 0x40 SWAP1 SWAP2 ADD DUP2 KECCAK256 SWAP1 SWAP2 ADD SLOAD PUSH1 0x1 PUSH1 0xA0 PUSH1 0x2 EXP SUB AND SWAP2 POP DUP1 JUMPDEST DUP7 DUP2 LT ISZERO PUSH2 0x26A5 JUMPI DUP3 PUSH1 0x1 PUSH1 0xA0 PUSH1 0x2 EXP SUB AND DUP7 DUP3 DUP2 MLOAD DUP2 LT ISZERO ISZERO PUSH2 0x2633 JUMPI INVALID JUMPDEST PUSH1 0x20 SWAP1 DUP2 MUL SWAP1 SWAP2 ADD ADD MLOAD MLOAD PUSH1 0x1 PUSH1 0xA0 PUSH1 0x2 EXP SUB AND EQ ISZERO PUSH2 0x269D JUMPI PUSH2 0x2679 PUSH1 0x1 DUP8 DUP4 DUP2 MLOAD DUP2 LT ISZERO ISZERO PUSH2 0x2660 JUMPI INVALID JUMPDEST PUSH1 0x20 SWAP1 DUP2 MUL SWAP1 SWAP2 ADD DUP2 ADD MLOAD ADD MLOAD SWAP1 PUSH4 0xFFFFFFFF PUSH2 0x448B AND JUMP JUMPDEST DUP7 DUP3 DUP2 MLOAD DUP2 LT ISZERO ISZERO PUSH2 0x2687 JUMPI INVALID JUMPDEST PUSH1 0x20 SWAP1 DUP2 MUL SWAP1 SWAP2 ADD DUP2 ADD MLOAD ADD MSTORE PUSH1 0x1 SWAP2 POP PUSH2 0x26A5 JUMP JUMPDEST PUSH1 0x1 ADD PUSH2 0x2613 JUMP JUMPDEST POP DUP1 ISZERO ISZERO PUSH2 0x26F6 JUMPI PUSH1 0x40 DUP1 MLOAD DUP1 DUP3 ADD SWAP1 SWAP2 MSTORE PUSH1 0x1 PUSH1 0xA0 PUSH1 0x2 EXP SUB DUP4 AND DUP2 MSTORE PUSH1 0x1 PUSH1 0x20 DUP3 ADD MSTORE DUP6 MLOAD DUP7 SWAP1 DUP9 SWAP1 DUP2 LT PUSH2 0x26D8 JUMPI INVALID JUMPDEST PUSH1 0x20 SWAP1 DUP2 MUL SWAP1 SWAP2 ADD ADD MSTORE PUSH2 0x26F3 DUP7 PUSH1 0x1 PUSH4 0xFFFFFFFF PUSH2 0x448B AND JUMP JUMPDEST SWAP6 POP JUMPDEST POP POP PUSH1 0x0 NOT ADD PUSH2 0x25A2 JUMP JUMPDEST POP PUSH1 0x60 DUP4 PUSH1 0x40 MLOAD SWAP1 DUP1 DUP3 MSTORE DUP1 PUSH1 0x20 MUL PUSH1 0x20 ADD DUP3 ADD PUSH1 0x40 MSTORE DUP1 ISZERO PUSH2 0x272E JUMPI DUP2 PUSH1 0x20 ADD PUSH1 0x20 DUP3 MUL DUP1 CODESIZE DUP4 CODECOPY ADD SWAP1 POP JUMPDEST POP SWAP1 POP PUSH1 0x0 JUMPDEST DUP2 MLOAD DUP2 LT ISZERO PUSH2 0x2851 JUMPI DUP4 MLOAD PUSH1 0x0 SWAP1 DUP2 SWAP1 DUP7 SWAP1 DUP3 SWAP1 DUP2 LT PUSH2 0x2750 JUMPI INVALID JUMPDEST PUSH1 0x20 SWAP1 DUP2 MUL SWAP1 SWAP2 ADD DUP2 ADD MLOAD ADD MLOAD SWAP1 POP PUSH1 0x0 JUMPDEST DUP8 DUP2 LT ISZERO PUSH2 0x27B7 JUMPI DUP2 DUP8 DUP3 DUP2 MLOAD DUP2 LT ISZERO ISZERO PUSH2 0x2779 JUMPI INVALID JUMPDEST SWAP1 PUSH1 0x20 ADD SWAP1 PUSH1 0x20 MUL ADD MLOAD PUSH1 0x20 ADD MLOAD GT ISZERO PUSH2 0x27AF JUMPI DUP1 SWAP3 POP DUP7 DUP2 DUP2 MLOAD DUP2 LT ISZERO ISZERO PUSH2 0x279E JUMPI INVALID JUMPDEST SWAP1 PUSH1 0x20 ADD SWAP1 PUSH1 0x20 MUL ADD MLOAD PUSH1 0x20 ADD MLOAD SWAP2 POP JUMPDEST PUSH1 0x1 ADD PUSH2 0x2762 JUMP JUMPDEST POP DUP6 DUP3 DUP2 MLOAD DUP2 LT ISZERO ISZERO PUSH2 0x27C6 JUMPI INVALID JUMPDEST PUSH1 0x20 SWAP1 DUP2 MUL SWAP1 SWAP2 ADD ADD MLOAD MLOAD DUP5 MLOAD DUP6 SWAP1 DUP6 SWAP1 DUP2 LT PUSH2 0x27DF JUMPI INVALID JUMPDEST PUSH1 0x1 PUSH1 0xA0 PUSH1 0x2 EXP SUB SWAP1 SWAP3 AND PUSH1 0x20 SWAP3 DUP4 MUL SWAP1 SWAP2 ADD SWAP1 SWAP2 ADD MSTORE DUP6 PUSH2 0x2808 DUP9 PUSH1 0x1 PUSH4 0xFFFFFFFF PUSH2 0x44A4 AND JUMP JUMPDEST DUP2 MLOAD DUP2 LT PUSH2 0x2812 JUMPI INVALID JUMPDEST SWAP1 PUSH1 0x20 ADD SWAP1 PUSH1 0x20 MUL ADD MLOAD DUP7 DUP4 DUP2 MLOAD DUP2 LT ISZERO ISZERO PUSH2 0x282A JUMPI INVALID JUMPDEST PUSH1 0x20 SWAP1 DUP2 MUL SWAP1 SWAP2 ADD ADD MSTORE PUSH2 0x2845 DUP8 PUSH1 0x1 PUSH4 0xFFFFFFFF PUSH2 0x44A4 AND JUMP JUMPDEST SWAP7 POP POP POP PUSH1 0x1 ADD PUSH2 0x2734 JUMP JUMPDEST POP SWAP4 POP POP POP POP SWAP1 JUMP JUMPDEST PUSH1 0x1 PUSH1 0x80 PUSH1 0x2 EXP SUB DUP3 AND PUSH1 0x0 SWAP1 DUP2 MSTORE PUSH1 0x11 PUSH1 0x20 MSTORE PUSH1 0x40 SWAP1 KECCAK256 PUSH1 0x1 ADD SLOAD PUSH1 0x60 SWAP1 PUSH1 0x1 PUSH1 0xA0 PUSH1 0x2 EXP SUB AND ISZERO DUP1 ISZERO SWAP1 PUSH2 0x28A8 JUMPI POP PUSH1 0x1 PUSH1 0x80 PUSH1 0x2 EXP SUB DUP4 AND PUSH1 0x0 SWAP1 DUP2 MSTORE PUSH1 0x13 PUSH1 0x20 MSTORE PUSH1 0x40 SWAP1 KECCAK256 SLOAD DUP3 GT ISZERO JUMPDEST ISZERO ISZERO PUSH2 0x28D8 JUMPI PUSH1 0x40 DUP1 MLOAD PUSH1 0xE5 PUSH1 0x2 EXP PUSH3 0x461BCD MUL DUP2 MSTORE PUSH1 0x20 PUSH1 0x4 DUP3 ADD MSTORE PUSH1 0x0 PUSH1 0x24 DUP3 ADD MSTORE SWAP1 MLOAD SWAP1 DUP2 SWAP1 SUB PUSH1 0x64 ADD SWAP1 REVERT JUMPDEST PUSH1 0x1 PUSH1 0x80 PUSH1 0x2 EXP SUB DUP4 AND PUSH1 0x0 SWAP1 DUP2 MSTORE PUSH1 0x13 PUSH1 0x20 MSTORE PUSH1 0x40 SWAP1 KECCAK256 DUP1 SLOAD DUP4 SWAP1 DUP2 LT PUSH2 0x28FC JUMPI INVALID JUMPDEST SWAP1 PUSH1 0x0 MSTORE PUSH1 0x20 PUSH1 0x0 KECCAK256 ADD DUP1 SLOAD DUP1 PUSH1 0x20 MUL PUSH1 0x20 ADD PUSH1 0x40 MLOAD SWAP1 DUP2 ADD PUSH1 0x40 MSTORE DUP1 SWAP3 SWAP2 SWAP1 DUP2 DUP2 MSTORE PUSH1 0x20 ADD DUP3 DUP1 SLOAD DUP1 ISZERO PUSH2 0x2950 JUMPI PUSH1 0x20 MUL DUP3 ADD SWAP2 SWAP1 PUSH1 0x0 MSTORE PUSH1 0x20 PUSH1 0x0 KECCAK256 SWAP1 JUMPDEST DUP2 SLOAD DUP2 MSTORE PUSH1 0x20 ADD SWAP1 PUSH1 0x1 ADD SWAP1 DUP1 DUP4 GT PUSH2 0x293C JUMPI JUMPDEST POP POP POP POP POP SWAP1 POP SWAP3 SWAP2 POP POP JUMP JUMPDEST PUSH1 0x10 SLOAD SWAP1 JUMP JUMPDEST PUSH1 0x9 SLOAD PUSH2 0x100 SWAP1 DIV PUSH1 0x1 PUSH1 0xA0 PUSH1 0x2 EXP SUB AND SWAP1 JUMP JUMPDEST PUSH1 0x9 SLOAD PUSH2 0x100 SWAP1 DIV PUSH1 0x1 PUSH1 0xA0 PUSH1 0x2 EXP SUB AND CALLER EQ SWAP1 JUMP JUMPDEST PUSH8 0xDE0B6B3A7640000 DUP2 JUMP JUMPDEST PUSH2 0x29A2 CALLER PUSH2 0x1051 JUMP JUMPDEST ISZERO ISZERO PUSH2 0x29AD JUMPI PUSH1 0x0 DUP1 REVERT JUMPDEST PUSH1 0x6 SLOAD PUSH1 0x0 LT ISZERO PUSH2 0x29BD JUMPI PUSH1 0x0 DUP1 REVERT JUMPDEST NUMBER PUSH1 0x6 SSTORE PUSH1 0x7 DUP1 SLOAD PUSH1 0xFF NOT AND DUP3 ISZERO ISZERO OR SWAP1 DUP2 SWAP1 SSTORE PUSH1 0x40 DUP1 MLOAD PUSH1 0xFF SWAP1 SWAP3 AND ISZERO ISZERO DUP3 MSTORE MLOAD PUSH32 0x92A709FE0704B42849AE468C6C839690D63164022FBD0D6B49502F95BC6424FF SWAP2 PUSH1 0x20 SWAP1 DUP3 SWAP1 SUB ADD SWAP1 LOG1 POP JUMP JUMPDEST PUSH1 0xE SLOAD DUP2 JUMP JUMPDEST PUSH1 0xC SLOAD DUP2 JUMP JUMPDEST PUSH1 0x7 SLOAD PUSH1 0xFF AND DUP2 JUMP JUMPDEST PUSH1 0x64 DUP2 JUMP JUMPDEST PUSH2 0x2A30 CALLER PUSH2 0x3041 JUMP JUMPDEST ISZERO ISZERO PUSH2 0x2A3B JUMPI PUSH1 0x0 DUP1 REVERT JUMPDEST PUSH2 0x1F56 DUP2 PUSH2 0x4D62 JUMP JUMPDEST PUSH1 0x9 SLOAD PUSH1 0xFF AND ISZERO PUSH2 0x2A54 JUMPI PUSH1 0x0 DUP1 REVERT JUMPDEST PUSH1 0x6 SLOAD PUSH1 0x0 LT ISZERO PUSH2 0x2A64 JUMPI PUSH1 0x0 DUP1 REVERT JUMPDEST PUSH1 0x1 PUSH1 0x80 PUSH1 0x2 EXP SUB DUP11 AND PUSH1 0x0 SWAP1 DUP2 MSTORE PUSH1 0x11 PUSH1 0x20 MSTORE PUSH1 0x40 SWAP1 KECCAK256 PUSH1 0x1 ADD SLOAD PUSH1 0x1 PUSH1 0xA0 PUSH1 0x2 EXP SUB AND ISZERO PUSH2 0x2ADE JUMPI PUSH1 0x40 DUP1 MLOAD PUSH1 0xE5 PUSH1 0x2 EXP PUSH3 0x461BCD MUL DUP2 MSTORE PUSH1 0x20 PUSH1 0x4 DUP3 ADD MSTORE PUSH1 0x13 PUSH1 0x24 DUP3 ADD MSTORE PUSH32 0x4755494420616C726561647920696E2075736500000000000000000000000000 PUSH1 0x44 DUP3 ADD MSTORE SWAP1 MLOAD SWAP1 DUP2 SWAP1 SUB PUSH1 0x64 ADD SWAP1 REVERT JUMPDEST PUSH1 0x0 DUP7 GT DUP1 ISZERO PUSH2 0x2AF0 JUMPI POP PUSH2 0x100 DUP6 GT ISZERO JUMPDEST DUP1 ISZERO PUSH2 0x2AFC JUMPI POP PUSH1 0x0 DUP6 GT JUMPDEST DUP1 ISZERO PUSH2 0x2B08 JUMPI POP DUP9 PUSH1 0x2 GT JUMPDEST ISZERO ISZERO PUSH2 0x2B5E JUMPI PUSH1 0x40 DUP1 MLOAD PUSH1 0xE5 PUSH1 0x2 EXP PUSH3 0x461BCD MUL DUP2 MSTORE PUSH1 0x20 PUSH1 0x4 DUP3 ADD MSTORE PUSH1 0x1B PUSH1 0x24 DUP3 ADD MSTORE PUSH32 0x496E76616C696420617274696661637420706172616D65746572730000000000 PUSH1 0x44 DUP3 ADD MSTORE SWAP1 MLOAD SWAP1 DUP2 SWAP1 SUB PUSH1 0x64 ADD SWAP1 REVERT JUMPDEST PUSH1 0x0 DUP5 GT DUP1 ISZERO PUSH2 0x2B6F JUMPI POP PUSH1 0x64 DUP5 GT ISZERO JUMPDEST ISZERO ISZERO PUSH2 0x2BC5 JUMPI PUSH1 0x40 DUP1 MLOAD PUSH1 0xE5 PUSH1 0x2 EXP PUSH3 0x461BCD MUL DUP2 MSTORE PUSH1 0x20 PUSH1 0x4 DUP3 ADD MSTORE PUSH1 0x17 PUSH1 0x24 DUP3 ADD MSTORE PUSH32 0x496E76616C696420626F756E7479206475726174696F6E000000000000000000 PUSH1 0x44 DUP3 ADD MSTORE SWAP1 MLOAD SWAP1 DUP2 SWAP1 SUB PUSH1 0x64 ADD SWAP1 REVERT JUMPDEST PUSH2 0x2BDD PUSH8 0x1BC16D674EC80000 DUP7 PUSH4 0xFFFFFFFF PUSH2 0x4505 AND JUMP JUMPDEST DUP9 LT ISZERO PUSH2 0x2C1E JUMPI PUSH1 0x40 MLOAD PUSH1 0xE5 PUSH1 0x2 EXP PUSH3 0x461BCD MUL DUP2 MSTORE PUSH1 0x4 ADD DUP1 DUP1 PUSH1 0x20 ADD DUP3 DUP2 SUB DUP3 MSTORE PUSH1 0x2C DUP2 MSTORE PUSH1 0x20 ADD DUP1 PUSH2 0x59D4 PUSH1 0x2C SWAP2 CODECOPY PUSH1 0x40 ADD SWAP2 POP POP PUSH1 0x40 MLOAD DUP1 SWAP2 SUB SWAP1 REVERT JUMPDEST PUSH2 0x2C52 CALLER ADDRESS PUSH2 0x2C38 PUSH1 0xC SLOAD DUP13 PUSH2 0x448B SWAP1 SWAP2 SWAP1 PUSH4 0xFFFFFFFF AND JUMP JUMPDEST PUSH1 0xB SLOAD PUSH1 0x1 PUSH1 0xA0 PUSH1 0x2 EXP SUB AND SWAP3 SWAP2 SWAP1 PUSH4 0xFFFFFFFF PUSH2 0x4DAA AND JUMP JUMPDEST PUSH1 0x1 PUSH1 0x80 PUSH1 0x2 EXP SUB DUP11 AND PUSH1 0x0 DUP2 DUP2 MSTORE PUSH1 0x11 PUSH1 0x20 MSTORE PUSH1 0x40 SWAP1 KECCAK256 DUP1 SLOAD PUSH16 0xFFFFFFFFFFFFFFFFFFFFFFFFFFFFFFFF NOT AND SWAP1 SWAP2 OR SWAP1 SSTORE DUP9 PUSH1 0x2 DUP2 GT ISZERO PUSH2 0x2C90 JUMPI INVALID JUMPDEST PUSH1 0x1 PUSH1 0x80 PUSH1 0x2 EXP SUB DUP12 AND PUSH1 0x0 SWAP1 DUP2 MSTORE PUSH1 0x11 PUSH1 0x20 MSTORE PUSH1 0x40 SWAP1 KECCAK256 DUP1 SLOAD PUSH17 0xFF00000000000000000000000000000000 NOT AND PUSH17 0x100000000000000000000000000000000 DUP4 PUSH1 0x2 DUP2 GT ISZERO PUSH2 0x2CDC JUMPI INVALID JUMPDEST MUL OR SWAP1 SSTORE POP PUSH1 0x1 PUSH1 0x80 PUSH1 0x2 EXP SUB DUP11 AND PUSH1 0x0 SWAP1 DUP2 MSTORE PUSH1 0x11 PUSH1 0x20 MSTORE PUSH1 0x40 SWAP1 KECCAK256 PUSH1 0x1 DUP2 ADD DUP1 SLOAD PUSH1 0x1 PUSH1 0xA0 PUSH1 0x2 EXP SUB NOT AND CALLER OR SWAP1 SSTORE PUSH1 0x2 DUP2 ADD DUP10 SWAP1 SSTORE PUSH2 0x2D22 SWAP1 PUSH1 0x3 ADD DUP9 DUP9 PUSH2 0x57DD JUMP JUMPDEST POP PUSH1 0x1 PUSH1 0x80 PUSH1 0x2 EXP SUB DUP11 AND PUSH1 0x0 SWAP1 DUP2 MSTORE PUSH1 0x11 PUSH1 0x20 MSTORE PUSH1 0x40 SWAP1 KECCAK256 PUSH2 0x2D49 SWAP1 PUSH1 0x9 ADD DUP4 DUP4 PUSH2 0x57DD JUMP JUMPDEST POP PUSH1 0x1 PUSH1 0x80 PUSH1 0x2 EXP SUB DUP11 AND PUSH1 0x0 SWAP1 DUP2 MSTORE PUSH1 0x11 PUSH1 0x20 MSTORE PUSH1 0x40 SWAP1 KECCAK256 PUSH1 0x4 ADD DUP6 SWAP1 SSTORE PUSH2 0x2D78 DUP5 NUMBER PUSH4 0xFFFFFFFF PUSH2 0x448B AND JUMP JUMPDEST PUSH1 0x1 PUSH1 0x80 PUSH1 0x2 EXP SUB DUP1 DUP13 AND PUSH1 0x0 DUP2 DUP2 MSTORE PUSH1 0x11 PUSH1 0x20 SWAP1 DUP2 MSTORE PUSH1 0x40 DUP1 DUP4 KECCAK256 PUSH1 0x5 ADD SWAP6 SWAP1 SWAP6 SSTORE PUSH1 0x10 DUP1 SLOAD PUSH1 0x1 DUP2 DUP2 ADD DUP4 SSTORE PUSH1 0x2 DUP3 DIV PUSH32 0x1B6847DC741A1B0CD08D278845F9D819D87B734759AFB55FE2DE5CB82A9AE672 ADD DUP1 SLOAD SWAP3 SWAP1 SWAP2 AND SWAP1 SWAP3 MUL PUSH2 0x100 EXP DUP1 DUP7 MUL SWAP7 MUL NOT AND SWAP5 SWAP1 SWAP5 OR SWAP1 SWAP4 SSTORE SWAP1 DUP2 MSTORE PUSH1 0x15 SWAP1 SWAP2 MSTORE KECCAK256 PUSH2 0x2DFC SWAP1 DUP5 PUSH1 0x8 PUSH2 0x585B JUMP JUMPDEST POP PUSH1 0x1 PUSH1 0x80 PUSH1 0x2 EXP SUB DUP11 DUP2 AND PUSH1 0x0 SWAP1 DUP2 MSTORE PUSH1 0x11 PUSH1 0x20 MSTORE PUSH1 0x40 SWAP1 KECCAK256 DUP1 SLOAD SWAP1 SWAP2 PUSH32 0x9131922187C384DAA13E81999A6B48E917A94EAB0FB8F64E3E749C22AA3CD54D SWAP2 SWAP1 DUP2 AND SWAP1 PUSH17 0x100000000000000000000000000000000 SWAP1 DIV PUSH1 0xFF AND PUSH1 0x2 DUP2 GT ISZERO PUSH2 0x2E62 JUMPI INVALID JUMPDEST PUSH1 0x1 DUP5 DUP2 ADD SLOAD PUSH1 0x2 DUP1 DUP8 ADD SLOAD PUSH1 0x5 DUP9 ADD SLOAD PUSH1 0x40 DUP1 MLOAD PUSH1 0x1 PUSH1 0x80 PUSH1 0x2 EXP SUB DUP10 AND DUP2 MSTORE PUSH1 0x20 DUP2 ADD DUP9 SWAP1 MSTORE PUSH1 0x1 PUSH1 0xA0 PUSH1 0x2 EXP SUB SWAP1 SWAP6 AND SWAP1 DUP6 ADD DUP2 SWAP1 MSTORE PUSH1 0x60 DUP6 ADD DUP4 SWAP1 MSTORE PUSH1 0xA0 DUP6 ADD DUP3 SWAP1 MSTORE PUSH1 0xE0 PUSH1 0x80 DUP7 ADD DUP2 DUP2 MSTORE PUSH1 0x3 DUP13 ADD DUP1 SLOAD PUSH2 0x100 SWAP10 DUP2 AND ISZERO DUP11 MUL PUSH1 0x0 NOT ADD AND SWAP7 SWAP1 SWAP7 DIV SWAP2 DUP8 ADD DUP3 SWAP1 MSTORE SWAP2 SWAP7 SWAP4 SWAP6 SWAP3 SWAP4 PUSH1 0x9 DUP13 ADD SWAP4 SWAP3 SWAP2 PUSH1 0xC0 DUP5 ADD SWAP2 DUP5 ADD SWAP1 DUP8 SWAP1 DUP1 ISZERO PUSH2 0x2F34 JUMPI DUP1 PUSH1 0x1F LT PUSH2 0x2F09 JUMPI PUSH2 0x100 DUP1 DUP4 SLOAD DIV MUL DUP4 MSTORE SWAP2 PUSH1 0x20 ADD SWAP2 PUSH2 0x2F34 JUMP JUMPDEST DUP3 ADD SWAP2 SWAP1 PUSH1 0x0 MSTORE PUSH1 0x20 PUSH1 0x0 KECCAK256 SWAP1 JUMPDEST DUP2 SLOAD DUP2 MSTORE SWAP1 PUSH1 0x1 ADD SWAP1 PUSH1 0x20 ADD DUP1 DUP4 GT PUSH2 0x2F17 JUMPI DUP3 SWAP1 SUB PUSH1 0x1F AND DUP3 ADD SWAP2 JUMPDEST POP POP DUP4 DUP2 SUB DUP3 MSTORE DUP5 SLOAD PUSH1 0x2 PUSH1 0x0 NOT PUSH2 0x100 PUSH1 0x1 DUP5 AND ISZERO MUL ADD SWAP1 SWAP2 AND DIV DUP1 DUP3 MSTORE PUSH1 0x20 SWAP1 SWAP2 ADD SWAP1 DUP6 SWAP1 DUP1 ISZERO PUSH2 0x2FA8 JUMPI DUP1 PUSH1 0x1F LT PUSH2 0x2F7D JUMPI PUSH2 0x100 DUP1 DUP4 SLOAD DIV MUL DUP4 MSTORE SWAP2 PUSH1 0x20 ADD SWAP2 PUSH2 0x2FA8 JUMP JUMPDEST DUP3 ADD SWAP2 SWAP1 PUSH1 0x0 MSTORE PUSH1 0x20 PUSH1 0x0 KECCAK256 SWAP1 JUMPDEST DUP2 SLOAD DUP2 MSTORE SWAP1 PUSH1 0x1 ADD SWAP1 PUSH1 0x20 ADD DUP1 DUP4 GT PUSH2 0x2F8B JUMPI DUP3 SWAP1 SUB PUSH1 0x1F AND DUP3 ADD SWAP2 JUMPDEST POP POP SWAP10 POP POP POP POP POP POP POP POP POP POP PUSH1 0x40 MLOAD DUP1 SWAP2 SUB SWAP1 LOG1 POP POP POP POP POP POP POP POP POP POP POP JUMP JUMPDEST PUSH1 0x4 SLOAD PUSH1 0x1 PUSH1 0xA0 PUSH1 0x2 EXP SUB AND CALLER EQ PUSH2 0x2FE1 JUMPI PUSH1 0x0 DUP1 REVERT JUMPDEST PUSH1 0x4 DUP1 SLOAD PUSH1 0x1 PUSH1 0xA0 PUSH1 0x2 EXP SUB DUP4 DUP2 AND PUSH1 0x1 PUSH1 0xA0 PUSH1 0x2 EXP SUB NOT DUP4 AND OR SWAP3 DUP4 SWAP1 SSTORE PUSH1 0x40 MLOAD SWAP2 DUP2 AND SWAP3 AND SWAP1 DUP3 SWAP1 PUSH32 0xF47584777A7D7B262C66C27D81F5A083DA0D7BBB771C37A20D0C1F1B50F786F3 SWAP1 PUSH1 0x0 SWAP1 LOG3 POP POP JUMP JUMPDEST PUSH8 0x1BC16D674EC80000 DUP2 JUMP JUMPDEST PUSH1 0x0 PUSH2 0x1064 DUP2 DUP4 PUSH4 0xFFFFFFFF PUSH2 0x4434 AND JUMP JUMPDEST PUSH1 0x2 SLOAD DUP2 JUMP JUMPDEST PUSH2 0x1F56 DUP2 PUSH2 0x4E5B JUMP JUMPDEST PUSH1 0x1 PUSH1 0x80 PUSH1 0x2 EXP SUB DUP2 AND PUSH1 0x0 SWAP1 DUP2 MSTORE PUSH1 0x11 PUSH1 0x20 MSTORE PUSH1 0x40 SWAP1 KECCAK256 PUSH1 0x1 ADD SLOAD PUSH1 0x60 SWAP1 PUSH1 0x1 PUSH1 0xA0 PUSH1 0x2 EXP SUB AND ISZERO ISZERO PUSH2 0x30CE JUMPI PUSH1 0x40 DUP1 MLOAD PUSH1 0xE5 PUSH1 0x2 EXP PUSH3 0x461BCD MUL DUP2 MSTORE PUSH1 0x20 PUSH1 0x4 DUP3 ADD MSTORE PUSH1 0x16 PUSH1 0x24 DUP3 ADD MSTORE PUSH1 0x0 DUP1 MLOAD PUSH1 0x20 PUSH2 0x5A00 DUP4 CODECOPY DUP2 MLOAD SWAP2 MSTORE PUSH1 0x44 DUP3 ADD MSTORE SWAP1 MLOAD SWAP1 DUP2 SWAP1 SUB PUSH1 0x64 ADD SWAP1 REVERT JUMPDEST PUSH1 0x1 PUSH1 0x80 PUSH1 0x2 EXP SUB DUP3 AND PUSH1 0x0 SWAP1 DUP2 MSTORE PUSH1 0x14 PUSH1 0x20 SWAP1 DUP2 MSTORE PUSH1 0x40 DUP1 DUP4 KECCAK256 DUP1 SLOAD DUP3 MLOAD DUP2 DUP6 MUL DUP2 ADD DUP6 ADD SWAP1 SWAP4 MSTORE DUP1 DUP4 MSTORE PUSH1 0x60 SWAP5 SWAP3 SWAP4 SWAP2 SWAP3 SWAP1 SWAP2 DUP5 ADD JUMPDEST DUP3 DUP3 LT ISZERO PUSH2 0x3160 JUMPI PUSH1 0x0 DUP5 DUP2 MSTORE PUSH1 0x20 SWAP1 DUP2 SWAP1 KECCAK256 PUSH1 0x40 DUP1 MLOAD PUSH1 0x60 DUP2 ADD DUP3 MSTORE PUSH1 0x3 DUP7 MUL SWAP1 SWAP3 ADD DUP1 SLOAD PUSH1 0x1 PUSH1 0xA0 PUSH1 0x2 EXP SUB AND DUP4 MSTORE PUSH1 0x1 DUP1 DUP3 ADD SLOAD DUP5 DUP7 ADD MSTORE PUSH1 0x2 SWAP1 SWAP2 ADD SLOAD PUSH1 0xFF AND ISZERO ISZERO SWAP2 DUP4 ADD SWAP2 SWAP1 SWAP2 MSTORE SWAP1 DUP4 MSTORE SWAP1 SWAP3 ADD SWAP2 ADD PUSH2 0x3106 JUMP JUMPDEST POP POP POP POP SWAP1 POP PUSH1 0x0 DUP2 MLOAD SWAP1 POP PUSH1 0x60 DUP2 PUSH1 0x40 MLOAD SWAP1 DUP1 DUP3 MSTORE DUP1 PUSH1 0x20 MUL PUSH1 0x20 ADD DUP3 ADD PUSH1 0x40 MSTORE DUP1 ISZERO PUSH2 0x3198 JUMPI DUP2 PUSH1 0x20 ADD PUSH1 0x20 DUP3 MUL DUP1 CODESIZE DUP4 CODECOPY ADD SWAP1 POP JUMPDEST POP SWAP1 POP PUSH1 0x0 JUMPDEST DUP3 DUP2 LT ISZERO PUSH2 0x19DA JUMPI DUP4 DUP2 DUP2 MLOAD DUP2 LT ISZERO ISZERO PUSH2 0x31B4 JUMPI INVALID JUMPDEST PUSH1 0x20 SWAP1 DUP2 MUL SWAP1 SWAP2 ADD ADD MLOAD MLOAD DUP3 MLOAD DUP4 SWAP1 DUP4 SWAP1 DUP2 LT PUSH2 0x31CD JUMPI INVALID JUMPDEST PUSH1 0x1 PUSH1 0xA0 PUSH1 0x2 EXP SUB SWAP1 SWAP3 AND PUSH1 0x20 SWAP3 DUP4 MUL SWAP1 SWAP2 ADD SWAP1 SWAP2 ADD MSTORE PUSH1 0x1 ADD PUSH2 0x319E JUMP JUMPDEST PUSH1 0x12 PUSH1 0x20 MSTORE DUP2 PUSH1 0x0 MSTORE PUSH1 0x40 PUSH1 0x0 KECCAK256 DUP2 DUP2 SLOAD DUP2 LT ISZERO ISZERO PUSH2 0x3207 JUMPI INVALID JUMPDEST PUSH1 0x0 SWAP2 DUP3 MSTORE PUSH1 0x20 SWAP2 DUP3 SWAP1 KECCAK256 PUSH1 0x6 SWAP2 SWAP1 SWAP2 MUL ADD DUP1 SLOAD PUSH1 0x1 DUP1 DUP4 ADD SLOAD PUSH1 0x2 DUP1 DUP6 ADD SLOAD PUSH1 0x3 DUP7 ADD SLOAD PUSH1 0x4 DUP8 ADD SLOAD PUSH1 0x5 DUP9 ADD DUP1 SLOAD PUSH1 0x40 DUP1 MLOAD PUSH2 0x100 SWAP10 DUP4 AND ISZERO SWAP10 SWAP1 SWAP10 MUL PUSH1 0x0 NOT ADD SWAP1 SWAP2 AND SWAP6 SWAP1 SWAP6 DIV PUSH1 0x1F DUP2 ADD DUP12 SWAP1 DIV DUP12 MUL DUP9 ADD DUP12 ADD SWAP1 SWAP6 MSTORE DUP5 DUP8 MSTORE PUSH1 0x1 PUSH1 0xA0 PUSH1 0x2 EXP SUB SWAP1 SWAP8 AND SWAP11 POP SWAP4 SWAP9 POP SWAP1 SWAP7 SWAP1 SWAP6 SWAP3 SWAP5 SWAP3 SWAP4 SWAP3 SWAP2 SWAP1 DUP4 ADD DUP3 DUP3 DUP1 ISZERO PUSH2 0x32D0 JUMPI DUP1 PUSH1 0x1F LT PUSH2 0x32A5 JUMPI PUSH2 0x100 DUP1 DUP4 SLOAD DIV MUL DUP4 MSTORE SWAP2 PUSH1 0x20 ADD SWAP2 PUSH2 0x32D0 JUMP JUMPDEST DUP3 ADD SWAP2 SWAP1 PUSH1 0x0 MSTORE PUSH1 0x20 PUSH1 0x0 KECCAK256 SWAP1 JUMPDEST DUP2 SLOAD DUP2 MSTORE SWAP1 PUSH1 0x1 ADD SWAP1 PUSH1 0x20 ADD DUP1 DUP4 GT PUSH2 0x32B3 JUMPI DUP3 SWAP1 SUB PUSH1 0x1F AND DUP3 ADD SWAP2 JUMPDEST POP POP POP POP POP SWAP1 POP DUP7 JUMP JUMPDEST PUSH1 0x11 PUSH1 0x20 SWAP1 DUP2 MSTORE PUSH1 0x0 SWAP2 DUP3 MSTORE PUSH1 0x40 SWAP2 DUP3 SWAP1 KECCAK256 DUP1 SLOAD PUSH1 0x1 DUP1 DUP4 ADD SLOAD PUSH1 0x2 DUP1 DUP6 ADD SLOAD PUSH1 0x3 DUP7 ADD DUP1 SLOAD DUP10 MLOAD PUSH2 0x100 SWAP7 DUP3 AND ISZERO SWAP7 SWAP1 SWAP7 MUL PUSH1 0x0 NOT ADD AND SWAP3 SWAP1 SWAP3 DIV PUSH1 0x1F DUP2 ADD DUP9 SWAP1 DIV DUP9 MUL DUP6 ADD DUP9 ADD SWAP1 SWAP9 MSTORE DUP8 DUP5 MSTORE PUSH1 0x1 PUSH1 0x80 PUSH1 0x2 EXP SUB DUP6 AND SWAP8 PUSH17 0x100000000000000000000000000000000 SWAP1 SWAP6 DIV PUSH1 0xFF AND SWAP7 PUSH1 0x1 PUSH1 0xA0 PUSH1 0x2 EXP SUB SWAP1 SWAP4 AND SWAP6 SWAP1 SWAP5 SWAP1 SWAP4 SWAP3 DUP4 ADD DUP3 DUP3 DUP1 ISZERO PUSH2 0x33AF JUMPI DUP1 PUSH1 0x1F LT PUSH2 0x3384 JUMPI PUSH2 0x100 DUP1 DUP4 SLOAD DIV MUL DUP4 MSTORE SWAP2 PUSH1 0x20 ADD SWAP2 PUSH2 0x33AF JUMP JUMPDEST DUP3 ADD SWAP2 SWAP1 PUSH1 0x0 MSTORE PUSH1 0x20 PUSH1 0x0 KECCAK256 SWAP1 JUMPDEST DUP2 SLOAD DUP2 MSTORE SWAP1 PUSH1 0x1 ADD SWAP1 PUSH1 0x20 ADD DUP1 DUP4 GT PUSH2 0x3392 JUMPI DUP3 SWAP1 SUB PUSH1 0x1F AND DUP3 ADD SWAP2 JUMPDEST POP POP POP POP PUSH1 0x4 DUP4 ADD SLOAD PUSH1 0x5 DUP5 ADD SLOAD PUSH1 0x6 DUP6 ADD SLOAD PUSH1 0x7 DUP7 ADD SLOAD PUSH1 0x8 DUP8 ADD SLOAD PUSH1 0x9 DUP9 ADD DUP1 SLOAD PUSH1 0x40 DUP1 MLOAD PUSH1 0x20 PUSH1 0x2 PUSH2 0x100 PUSH1 0x1 DUP7 AND ISZERO MUL PUSH1 0x0 NOT ADD SWAP1 SWAP5 AND SWAP4 SWAP1 SWAP4 DIV PUSH1 0x1F DUP2 ADD DUP5 SWAP1 DIV DUP5 MUL DUP3 ADD DUP5 ADD SWAP1 SWAP3 MSTORE DUP2 DUP2 MSTORE SWAP10 SWAP11 SWAP8 SWAP10 SWAP7 SWAP9 POP PUSH1 0x1 PUSH1 0xA0 PUSH1 0x2 EXP SUB DUP7 AND SWAP8 PUSH1 0xA0 PUSH1 0x2 EXP SWAP1 SWAP7 DIV PUSH1 0xFF AND SWAP7 SWAP5 SWAP6 SWAP4 SWAP5 SWAP3 SWAP2 DUP4 ADD DUP3 DUP3 DUP1 ISZERO PUSH2 0x3476 JUMPI DUP1 PUSH1 0x1F LT PUSH2 0x344B JUMPI PUSH2 0x100 DUP1 DUP4 SLOAD DIV MUL DUP4 MSTORE SWAP2 PUSH1 0x20 ADD SWAP2 PUSH2 0x3476 JUMP JUMPDEST DUP3 ADD SWAP2 SWAP1 PUSH1 0x0 MSTORE PUSH1 0x20 PUSH1 0x0 KECCAK256 SWAP1 JUMPDEST DUP2 SLOAD DUP2 MSTORE SWAP1 PUSH1 0x1 ADD SWAP1 PUSH1 0x20 ADD DUP1 DUP4 GT PUSH2 0x3459 JUMPI DUP3 SWAP1 SUB PUSH1 0x1F AND DUP3 ADD SWAP2 JUMPDEST POP POP POP POP POP SWAP1 POP DUP13 JUMP JUMPDEST PUSH1 0x10 SLOAD PUSH1 0x60 SWAP1 DUP2 SWAP1 PUSH1 0x0 LT PUSH2 0x34DF JUMPI PUSH1 0x40 DUP1 MLOAD PUSH1 0xE5 PUSH1 0x2 EXP PUSH3 0x461BCD MUL DUP2 MSTORE PUSH1 0x20 PUSH1 0x4 DUP3 ADD MSTORE PUSH1 0x1C PUSH1 0x24 DUP3 ADD MSTORE PUSH32 0x4E6F20626F756E746965732068617665206265656E20706C6163656400000000 PUSH1 0x44 DUP3 ADD MSTORE SWAP1 MLOAD SWAP1 DUP2 SWAP1 SUB PUSH1 0x64 ADD SWAP1 REVERT JUMPDEST PUSH1 0x10 SLOAD PUSH1 0x0 SWAP1 DUP2 SWAP1 PUSH2 0x350B SWAP1 PUSH1 0x9 SWAP1 PUSH2 0x34FF SWAP1 PUSH1 0xA PUSH4 0xFFFFFFFF PUSH2 0x4EA3 AND JUMP JUMPDEST SWAP1 PUSH4 0xFFFFFFFF PUSH2 0x4505 AND JUMP JUMPDEST SWAP1 POP PUSH1 0x60 DUP3 PUSH1 0x40 MLOAD SWAP1 DUP1 DUP3 MSTORE DUP1 PUSH1 0x20 MUL PUSH1 0x20 ADD DUP3 ADD PUSH1 0x40 MSTORE DUP1 ISZERO PUSH2 0x3539 JUMPI DUP2 PUSH1 0x20 ADD PUSH1 0x20 DUP3 MUL DUP1 CODESIZE DUP4 CODECOPY ADD SWAP1 POP JUMPDEST POP SWAP1 POP PUSH1 0x60 DUP4 PUSH1 0x40 MLOAD SWAP1 DUP1 DUP3 MSTORE DUP1 PUSH1 0x20 MUL PUSH1 0x20 ADD DUP3 ADD PUSH1 0x40 MSTORE DUP1 ISZERO PUSH2 0x3568 JUMPI DUP2 PUSH1 0x20 ADD PUSH1 0x20 DUP3 MUL DUP1 CODESIZE DUP4 CODECOPY ADD SWAP1 POP JUMPDEST POP PUSH1 0x40 DUP1 MLOAD PUSH1 0x64 DUP1 DUP3 MSTORE PUSH2 0xCA0 DUP3 ADD SWAP1 SWAP3 MSTORE SWAP2 SWAP3 POP PUSH1 0x60 SWAP2 SWAP1 DUP2 PUSH1 0x20 ADD JUMPDEST PUSH2 0x358E PUSH2 0x57C6 JUMP JUMPDEST DUP2 MSTORE PUSH1 0x20 ADD SWAP1 PUSH1 0x1 SWAP1 SUB SWAP1 DUP2 PUSH2 0x3586 JUMPI POP POP PUSH1 0x10 SLOAD SWAP1 SWAP2 POP PUSH1 0x0 SWAP1 PUSH1 0x64 LT ISZERO PUSH2 0x35E0 JUMPI PUSH1 0x10 SLOAD PUSH2 0x35C5 SWAP1 PUSH1 0x64 PUSH4 0xFFFFFFFF PUSH2 0x44A4 AND JUMP JUMPDEST SWAP1 POP PUSH2 0x35DD PUSH1 0x9 PUSH2 0x34FF DUP4 PUSH1 0xA PUSH4 0xFFFFFFFF PUSH2 0x4EA3 AND JUMP JUMPDEST SWAP5 POP JUMPDEST PUSH1 0x10 SLOAD PUSH1 0x0 SWAP1 PUSH2 0x35F7 SWAP1 PUSH1 0x1 PUSH4 0xFFFFFFFF PUSH2 0x44A4 AND JUMP JUMPDEST SWAP1 POP JUMPDEST DUP2 DUP2 GT ISZERO PUSH2 0x37F0 JUMPI PUSH1 0x60 PUSH1 0x14 PUSH1 0x0 PUSH1 0x10 DUP5 DUP2 SLOAD DUP2 LT ISZERO ISZERO PUSH2 0x3617 JUMPI INVALID JUMPDEST SWAP1 PUSH1 0x0 MSTORE PUSH1 0x20 PUSH1 0x0 KECCAK256 SWAP1 PUSH1 0x2 SWAP2 DUP3 DUP3 DIV ADD SWAP2 SWAP1 MOD PUSH1 0x10 MUL SWAP1 SLOAD SWAP1 PUSH2 0x100 EXP SWAP1 DIV PUSH1 0x1 PUSH1 0x80 PUSH1 0x2 EXP SUB AND PUSH1 0x1 PUSH1 0x80 PUSH1 0x2 EXP SUB AND PUSH1 0x1 PUSH1 0x80 PUSH1 0x2 EXP SUB AND DUP2 MSTORE PUSH1 0x20 ADD SWAP1 DUP2 MSTORE PUSH1 0x20 ADD PUSH1 0x0 KECCAK256 DUP1 SLOAD DUP1 PUSH1 0x20 MUL PUSH1 0x20 ADD PUSH1 0x40 MLOAD SWAP1 DUP2 ADD PUSH1 0x40 MSTORE DUP1 SWAP3 SWAP2 SWAP1 DUP2 DUP2 MSTORE PUSH1 0x20 ADD PUSH1 0x0 SWAP1 JUMPDEST DUP3 DUP3 LT ISZERO PUSH2 0x36DA JUMPI PUSH1 0x0 DUP5 DUP2 MSTORE PUSH1 0x20 SWAP1 DUP2 SWAP1 KECCAK256 PUSH1 0x40 DUP1 MLOAD PUSH1 0x60 DUP2 ADD DUP3 MSTORE PUSH1 0x3 DUP7 MUL SWAP1 SWAP3 ADD DUP1 SLOAD PUSH1 0x1 PUSH1 0xA0 PUSH1 0x2 EXP SUB AND DUP4 MSTORE PUSH1 0x1 DUP1 DUP3 ADD SLOAD DUP5 DUP7 ADD MSTORE PUSH1 0x2 SWAP1 SWAP2 ADD SLOAD PUSH1 0xFF AND ISZERO ISZERO SWAP2 DUP4 ADD SWAP2 SWAP1 SWAP2 MSTORE SWAP1 DUP4 MSTORE SWAP1 SWAP3 ADD SWAP2 ADD PUSH2 0x3680 JUMP JUMPDEST POP SWAP3 SWAP4 POP PUSH1 0x0 SWAP3 POP POP POP JUMPDEST DUP2 MLOAD DUP2 LT ISZERO PUSH2 0x37E5 JUMPI DUP2 MLOAD PUSH1 0x0 SWAP1 DUP2 SWAP1 DUP5 SWAP1 DUP5 SWAP1 DUP2 LT PUSH2 0x3701 JUMPI INVALID JUMPDEST PUSH1 0x20 SWAP1 DUP2 MUL SWAP1 SWAP2 ADD ADD MLOAD MLOAD SWAP1 POP PUSH1 0x0 JUMPDEST DUP12 DUP2 LT ISZERO PUSH2 0x378A JUMPI DUP2 PUSH1 0x1 PUSH1 0xA0 PUSH1 0x2 EXP SUB AND DUP9 DUP3 DUP2 MLOAD DUP2 LT ISZERO ISZERO PUSH2 0x3731 JUMPI INVALID JUMPDEST PUSH1 0x20 SWAP1 DUP2 MUL SWAP1 SWAP2 ADD ADD MLOAD MLOAD PUSH1 0x1 PUSH1 0xA0 PUSH1 0x2 EXP SUB AND EQ ISZERO PUSH2 0x3782 JUMPI PUSH2 0x375E PUSH1 0x1 DUP10 DUP4 DUP2 MLOAD DUP2 LT ISZERO ISZERO PUSH2 0x2660 JUMPI INVALID JUMPDEST DUP9 DUP3 DUP2 MLOAD DUP2 LT ISZERO ISZERO PUSH2 0x376C JUMPI INVALID JUMPDEST PUSH1 0x20 SWAP1 DUP2 MUL SWAP1 SWAP2 ADD DUP2 ADD MLOAD ADD MSTORE PUSH1 0x1 SWAP3 POP PUSH2 0x378A JUMP JUMPDEST PUSH1 0x1 ADD PUSH2 0x3711 JUMP JUMPDEST POP DUP2 ISZERO ISZERO PUSH2 0x37DB JUMPI PUSH1 0x40 DUP1 MLOAD DUP1 DUP3 ADD SWAP1 SWAP2 MSTORE PUSH1 0x1 PUSH1 0xA0 PUSH1 0x2 EXP SUB DUP3 AND DUP2 MSTORE PUSH1 0x1 PUSH1 0x20 DUP3 ADD MSTORE DUP8 MLOAD DUP9 SWAP1 DUP14 SWAP1 DUP2 LT PUSH2 0x37BD JUMPI INVALID JUMPDEST PUSH1 0x20 SWAP1 DUP2 MUL SWAP1 SWAP2 ADD ADD MSTORE PUSH2 0x37D8 DUP12 PUSH1 0x1 PUSH4 0xFFFFFFFF PUSH2 0x448B AND JUMP JUMPDEST SWAP11 POP JUMPDEST POP POP PUSH1 0x1 ADD PUSH2 0x36E5 JUMP JUMPDEST POP POP PUSH1 0x0 NOT ADD PUSH2 0x35FA JUMP JUMPDEST POP PUSH1 0x0 JUMPDEST DUP5 MLOAD DUP2 LT ISZERO PUSH2 0x395F JUMPI DUP3 MLOAD PUSH1 0x0 SWAP1 DUP2 SWAP1 DUP6 SWAP1 DUP3 SWAP1 DUP2 LT PUSH2 0x3810 JUMPI INVALID JUMPDEST PUSH1 0x20 SWAP1 DUP2 MUL SWAP1 SWAP2 ADD DUP2 ADD MLOAD ADD MLOAD SWAP1 POP PUSH1 0x0 JUMPDEST DUP10 DUP2 LT ISZERO PUSH2 0x3877 JUMPI DUP2 DUP7 DUP3 DUP2 MLOAD DUP2 LT ISZERO ISZERO PUSH2 0x3839 JUMPI INVALID JUMPDEST SWAP1 PUSH1 0x20 ADD SWAP1 PUSH1 0x20 MUL ADD MLOAD PUSH1 0x20 ADD MLOAD GT ISZERO PUSH2 0x386F JUMPI DUP1 SWAP3 POP DUP6 DUP2 DUP2 MLOAD DUP2 LT ISZERO ISZERO PUSH2 0x385E JUMPI INVALID JUMPDEST SWAP1 PUSH1 0x20 ADD SWAP1 PUSH1 0x20 MUL ADD MLOAD PUSH1 0x20 ADD MLOAD SWAP2 POP JUMPDEST PUSH1 0x1 ADD PUSH2 0x3822 JUMP JUMPDEST POP DUP5 DUP3 DUP2 MLOAD DUP2 LT ISZERO ISZERO PUSH2 0x3886 JUMPI INVALID JUMPDEST PUSH1 0x20 SWAP1 DUP2 MUL SWAP1 SWAP2 ADD ADD MLOAD MLOAD DUP8 MLOAD DUP9 SWAP1 DUP6 SWAP1 DUP2 LT PUSH2 0x389F JUMPI INVALID JUMPDEST SWAP1 PUSH1 0x20 ADD SWAP1 PUSH1 0x20 MUL ADD SWAP1 PUSH1 0x1 PUSH1 0xA0 PUSH1 0x2 EXP SUB AND SWAP1 DUP2 PUSH1 0x1 PUSH1 0xA0 PUSH1 0x2 EXP SUB AND DUP2 MSTORE POP POP DUP8 PUSH2 0x38F3 PUSH1 0x9 PUSH2 0x34FF PUSH1 0xA DUP10 DUP8 DUP2 MLOAD DUP2 LT ISZERO ISZERO PUSH2 0x38DA JUMPI INVALID JUMPDEST PUSH1 0x20 SWAP1 DUP2 MUL SWAP1 SWAP2 ADD DUP2 ADD MLOAD ADD MLOAD SWAP1 PUSH4 0xFFFFFFFF PUSH2 0x4EA3 AND JUMP JUMPDEST LT ISZERO DUP7 DUP5 DUP2 MLOAD DUP2 LT ISZERO ISZERO PUSH2 0x3903 JUMPI INVALID JUMPDEST SWAP2 ISZERO ISZERO PUSH1 0x20 SWAP3 DUP4 MUL SWAP1 SWAP2 ADD SWAP1 SWAP2 ADD MSTORE PUSH2 0x3923 DUP10 PUSH1 0x1 PUSH4 0xFFFFFFFF PUSH2 0x44A4 AND JUMP JUMPDEST SWAP9 POP DUP5 DUP10 DUP2 MLOAD DUP2 LT ISZERO ISZERO PUSH2 0x3933 JUMPI INVALID JUMPDEST SWAP1 PUSH1 0x20 ADD SWAP1 PUSH1 0x20 MUL ADD MLOAD DUP6 DUP4 DUP2 MLOAD DUP2 LT ISZERO ISZERO PUSH2 0x394B JUMPI INVALID JUMPDEST PUSH1 0x20 SWAP1 DUP2 MUL SWAP1 SWAP2 ADD ADD MSTORE POP POP PUSH1 0x1 ADD PUSH2 0x37F4 JUMP JUMPDEST POP SWAP3 SWAP7 POP SWAP1 SWAP5 POP POP POP POP POP SWAP1 SWAP2 JUMP JUMPDEST PUSH2 0x3977 CALLER PUSH2 0x3041 JUMP JUMPDEST ISZERO ISZERO PUSH2 0x3982 JUMPI PUSH1 0x0 DUP1 REVERT JUMPDEST PUSH2 0x3993 PUSH1 0x1 DUP4 PUSH4 0xFFFFFFFF PUSH2 0x4EC7 AND JUMP JUMPDEST PUSH1 0x2 SLOAD PUSH2 0x39A7 SWAP1 PUSH1 0x1 PUSH4 0xFFFFFFFF PUSH2 0x448B AND JUMP JUMPDEST PUSH1 0x2 SSTORE PUSH1 0x40 DUP1 MLOAD DUP3 DUP2 MSTORE SWAP1 MLOAD PUSH1 0x1 PUSH1 0xA0 PUSH1 0x2 EXP SUB DUP5 AND SWAP2 PUSH32 0x122303412D79144158FC7741863E5D579E967DE70422912A7DA11FDA0865744D SWAP2 SWAP1 DUP2 SWAP1 SUB PUSH1 0x20 ADD SWAP1 LOG2 POP POP JUMP JUMPDEST PUSH1 0x6 SLOAD DUP2 JUMP JUMPDEST PUSH7 0x6F05B59D3B2000 DUP2 JUMP JUMPDEST PUSH1 0x14 PUSH1 0x20 MSTORE DUP2 PUSH1 0x0 MSTORE PUSH1 0x40 PUSH1 0x0 KECCAK256 DUP2 DUP2 SLOAD DUP2 LT ISZERO ISZERO PUSH2 0x3A19 JUMPI INVALID JUMPDEST PUSH1 0x0 SWAP2 DUP3 MSTORE PUSH1 0x20 SWAP1 SWAP2 KECCAK256 PUSH1 0x3 SWAP1 SWAP2 MUL ADD DUP1 SLOAD PUSH1 0x1 DUP3 ADD SLOAD PUSH1 0x2 SWAP1 SWAP3 ADD SLOAD PUSH1 0x1 PUSH1 0xA0 PUSH1 0x2 EXP SUB SWAP1 SWAP2 AND SWAP4 POP SWAP1 SWAP2 POP PUSH1 0xFF AND DUP4 JUMP JUMPDEST PUSH1 0x9 SLOAD PUSH1 0xFF AND ISZERO PUSH2 0x3A5C JUMPI PUSH1 0x0 DUP1 REVERT JUMPDEST PUSH1 0x1 PUSH1 0x80 PUSH1 0x2 EXP SUB DUP6 AND PUSH1 0x0 SWAP1 DUP2 MSTORE PUSH1 0x11 PUSH1 0x20 MSTORE PUSH1 0x40 SWAP1 KECCAK256 PUSH1 0x1 ADD SLOAD PUSH1 0x1 PUSH1 0xA0 PUSH1 0x2 EXP SUB AND ISZERO ISZERO PUSH2 0x3AC5 JUMPI PUSH1 0x40 DUP1 MLOAD PUSH1 0xE5 PUSH1 0x2 EXP PUSH3 0x461BCD MUL DUP2 MSTORE PUSH1 0x20 PUSH1 0x4 DUP3 ADD MSTORE PUSH1 0x16 PUSH1 0x24 DUP3 ADD MSTORE PUSH1 0x0 DUP1 MLOAD PUSH1 0x20 PUSH2 0x5A00 DUP4 CODECOPY DUP2 MLOAD SWAP2 MSTORE PUSH1 0x44 DUP3 ADD MSTORE SWAP1 MLOAD SWAP1 DUP2 SWAP1 SUB PUSH1 0x64 ADD SWAP1 REVERT JUMPDEST PUSH2 0x3ACE DUP6 PUSH2 0x1FC3 JUMP JUMPDEST ISZERO PUSH2 0x3B23 JUMPI PUSH1 0x40 DUP1 MLOAD PUSH1 0xE5 PUSH1 0x2 EXP PUSH3 0x461BCD MUL DUP2 MSTORE PUSH1 0x20 PUSH1 0x4 DUP3 ADD MSTORE PUSH1 0xF PUSH1 0x24 DUP3 ADD MSTORE PUSH32 0x426F756E747920696E6163746976650000000000000000000000000000000000 PUSH1 0x44 DUP3 ADD MSTORE SWAP1 MLOAD SWAP1 DUP2 SWAP1 SUB PUSH1 0x64 ADD SWAP1 REVERT JUMPDEST PUSH2 0x3B2C DUP3 PUSH2 0x4F15 JUMP JUMPDEST DUP4 EQ PUSH2 0x3B82 JUMPI PUSH1 0x40 DUP1 MLOAD PUSH1 0xE5 PUSH1 0x2 EXP PUSH3 0x461BCD MUL DUP2 MSTORE PUSH1 0x20 PUSH1 0x4 DUP3 ADD MSTORE PUSH1 0x1D PUSH1 0x24 DUP3 ADD MSTORE PUSH32 0x42696420646F6573206E6F74206D61746368206D61736B20636F756E74000000 PUSH1 0x44 DUP3 ADD MSTORE SWAP1 MLOAD SWAP1 DUP2 SWAP1 SUB PUSH1 0x64 ADD SWAP1 REVERT JUMPDEST PUSH1 0x1 PUSH1 0x80 PUSH1 0x2 EXP SUB DUP6 AND PUSH1 0x0 SWAP1 DUP2 MSTORE PUSH1 0x19 PUSH1 0x20 SWAP1 DUP2 MSTORE PUSH1 0x40 DUP1 DUP4 KECCAK256 CALLER DUP5 MSTORE SWAP1 SWAP2 MSTORE SWAP1 KECCAK256 SLOAD PUSH1 0xFF AND ISZERO PUSH2 0x3BFE JUMPI PUSH1 0x40 DUP1 MLOAD PUSH1 0xE5 PUSH1 0x2 EXP PUSH3 0x461BCD MUL DUP2 MSTORE PUSH1 0x20 PUSH1 0x4 DUP3 ADD MSTORE PUSH1 0x1B PUSH1 0x24 DUP3 ADD MSTORE PUSH32 0x53656E6465722068617320616C72656164792061737365727465640000000000 PUSH1 0x44 DUP3 ADD MSTORE SWAP1 MLOAD SWAP1 DUP2 SWAP1 SUB PUSH1 0x64 ADD SWAP1 REVERT JUMPDEST PUSH1 0x0 DUP1 JUMPDEST DUP5 DUP2 LT ISZERO PUSH2 0x3CD2 JUMPI PUSH7 0xDE0B6B3A764000 DUP7 DUP7 DUP4 DUP2 DUP2 LT PUSH2 0x3C1E JUMPI INVALID JUMPDEST SWAP1 POP PUSH1 0x20 MUL ADD CALLDATALOAD LT ISZERO DUP1 ISZERO PUSH2 0x3C4D JUMPI POP PUSH8 0xDE0B6B3A7640000 DUP7 DUP7 DUP4 DUP2 DUP2 LT PUSH2 0x3C43 JUMPI INVALID JUMPDEST SWAP1 POP PUSH1 0x20 MUL ADD CALLDATALOAD GT ISZERO JUMPDEST ISZERO ISZERO PUSH2 0x3CA3 JUMPI PUSH1 0x40 DUP1 MLOAD PUSH1 0xE5 PUSH1 0x2 EXP PUSH3 0x461BCD MUL DUP2 MSTORE PUSH1 0x20 PUSH1 0x4 DUP3 ADD MSTORE PUSH1 0x19 PUSH1 0x24 DUP3 ADD MSTORE PUSH32 0x426964206E6F74206265747765656E206D696E2026206D617800000000000000 PUSH1 0x44 DUP3 ADD MSTORE SWAP1 MLOAD SWAP1 DUP2 SWAP1 SUB PUSH1 0x64 ADD SWAP1 REVERT JUMPDEST PUSH2 0x3CC8 DUP7 DUP7 DUP4 DUP2 DUP2 LT PUSH2 0x3CB2 JUMPI INVALID JUMPDEST SWAP1 POP PUSH1 0x20 MUL ADD CALLDATALOAD DUP4 PUSH2 0x448B SWAP1 SWAP2 SWAP1 PUSH4 0xFFFFFFFF AND JUMP JUMPDEST SWAP2 POP PUSH1 0x1 ADD PUSH2 0x3C02 JUMP JUMPDEST POP PUSH2 0x3CED CALLER ADDRESS PUSH2 0x2C38 PUSH1 0xD SLOAD DUP6 PUSH2 0x448B SWAP1 SWAP2 SWAP1 PUSH4 0xFFFFFFFF AND JUMP JUMPDEST PUSH1 0x1 PUSH1 0x80 PUSH1 0x2 EXP SUB DUP7 AND PUSH1 0x0 SWAP1 DUP2 MSTORE PUSH1 0x19 PUSH1 0x20 SWAP1 DUP2 MSTORE PUSH1 0x40 DUP1 DUP4 KECCAK256 CALLER DUP5 MSTORE SWAP1 SWAP2 MSTORE SWAP1 KECCAK256 DUP1 SLOAD PUSH1 0xFF NOT AND PUSH1 0x1 OR SWAP1 SSTORE PUSH2 0x3D23 PUSH2 0x5888 JUMP JUMPDEST POP PUSH1 0x40 DUP1 MLOAD PUSH1 0xC0 DUP2 ADD DUP3 MSTORE CALLER DUP2 MSTORE PUSH1 0x20 DUP1 DUP3 ADD DUP7 DUP2 MSTORE DUP3 DUP5 ADD DUP7 DUP2 MSTORE PUSH1 0x0 PUSH1 0x60 DUP6 ADD DUP2 DUP2 MSTORE PUSH1 0x80 DUP7 ADD DUP3 DUP2 MSTORE DUP8 MLOAD DUP1 DUP8 ADD DUP10 MSTORE DUP4 DUP2 MSTORE PUSH1 0xA0 DUP9 ADD SWAP1 DUP2 MSTORE PUSH1 0x1 PUSH1 0x80 PUSH1 0x2 EXP SUB DUP16 AND DUP5 MSTORE PUSH1 0x12 DUP8 MSTORE SWAP8 DUP4 KECCAK256 DUP1 SLOAD PUSH1 0x1 DUP1 DUP3 ADD DUP1 DUP5 SSTORE SWAP3 DUP7 MSTORE DUP9 DUP7 KECCAK256 DUP11 MLOAD PUSH1 0x6 SWAP1 SWAP4 MUL ADD DUP1 SLOAD PUSH1 0x1 PUSH1 0xA0 PUSH1 0x2 EXP SUB NOT AND PUSH1 0x1 PUSH1 0xA0 PUSH1 0x2 EXP SUB SWAP1 SWAP4 AND SWAP3 SWAP1 SWAP3 OR DUP3 SSTORE SWAP7 MLOAD DUP2 DUP9 ADD SSTORE SWAP5 MLOAD PUSH1 0x2 DUP7 ADD SSTORE SWAP2 MLOAD PUSH1 0x3 DUP6 ADD SSTORE MLOAD PUSH1 0x4 DUP5 ADD SSTORE SWAP6 MLOAD DUP1 MLOAD SWAP6 SWAP7 SWAP2 SWAP6 SWAP4 SWAP5 SWAP2 SWAP4 DUP8 SWAP4 SWAP3 PUSH2 0x3DE2 SWAP3 PUSH1 0x5 DUP6 ADD SWAP3 SWAP2 ADD SWAP1 PUSH2 0x58C8 JUMP JUMPDEST POP POP POP PUSH1 0x1 PUSH1 0x80 PUSH1 0x2 EXP SUB DUP11 AND PUSH1 0x0 SWAP1 DUP2 MSTORE PUSH1 0x13 PUSH1 0x20 SWAP1 DUP2 MSTORE PUSH1 0x40 DUP3 KECCAK256 DUP1 SLOAD PUSH1 0x1 DUP2 ADD DUP1 DUP4 SSTORE SWAP2 DUP5 MSTORE SWAP2 SWAP1 SWAP3 KECCAK256 SWAP4 SWAP1 SWAP3 SUB SWAP4 POP SWAP2 PUSH2 0x3E22 SWAP2 ADD DUP10 DUP10 PUSH2 0x5936 JUMP JUMPDEST POP POP PUSH1 0x0 PUSH1 0x11 PUSH1 0x0 DUP11 PUSH1 0x1 PUSH1 0x80 PUSH1 0x2 EXP SUB AND PUSH1 0x1 PUSH1 0x80 PUSH1 0x2 EXP SUB AND DUP2 MSTORE PUSH1 0x20 ADD SWAP1 DUP2 MSTORE PUSH1 0x20 ADD PUSH1 0x0 KECCAK256 PUSH1 0x4 ADD SLOAD SWAP1 POP PUSH32 0x8C8E02E3895732FDDC6A8BAAF2DCE21B88B94F2AAECD6A5DAE5C03C518693DB3 DUP10 DUP5 PUSH1 0x0 ADD MLOAD DUP5 DUP12 DUP12 DUP9 PUSH1 0x20 ADD MLOAD DUP8 DUP11 PUSH1 0x40 ADD MLOAD PUSH1 0x40 MLOAD DUP1 DUP10 PUSH1 0x1 PUSH1 0x80 PUSH1 0x2 EXP SUB AND PUSH1 0x1 PUSH1 0x80 PUSH1 0x2 EXP SUB AND DUP2 MSTORE PUSH1 0x20 ADD DUP9 PUSH1 0x1 PUSH1 0xA0 PUSH1 0x2 EXP SUB AND PUSH1 0x1 PUSH1 0xA0 PUSH1 0x2 EXP SUB AND DUP2 MSTORE PUSH1 0x20 ADD DUP8 DUP2 MSTORE PUSH1 0x20 ADD DUP1 PUSH1 0x20 ADD DUP6 DUP2 MSTORE PUSH1 0x20 ADD DUP5 DUP2 MSTORE PUSH1 0x20 ADD DUP4 DUP2 MSTORE PUSH1 0x20 ADD DUP3 DUP2 SUB DUP3 MSTORE DUP8 DUP8 DUP3 DUP2 DUP2 MSTORE PUSH1 0x20 ADD SWAP3 POP PUSH1 0x20 MUL DUP1 DUP3 DUP5 CALLDATACOPY PUSH1 0x0 DUP4 DUP3 ADD MSTORE PUSH1 0x40 MLOAD PUSH1 0x1F SWAP1 SWAP2 ADD PUSH1 0x1F NOT AND SWAP1 SWAP3 ADD DUP3 SWAP1 SUB SWAP12 POP SWAP1 SWAP10 POP POP POP POP POP POP POP POP POP POP LOG1 POP POP POP POP POP POP POP POP POP JUMP JUMPDEST PUSH2 0x3F27 PUSH2 0x2977 JUMP JUMPDEST ISZERO ISZERO PUSH2 0x3F32 JUMPI PUSH1 0x0 DUP1 REVERT JUMPDEST PUSH2 0x1F56 DUP2 PUSH2 0x4FF9 JUMP JUMPDEST PUSH1 0x0 PUSH2 0x1064 PUSH1 0x1 DUP4 PUSH4 0xFFFFFFFF PUSH2 0x4434 AND JUMP JUMPDEST PUSH1 0x9 SLOAD PUSH1 0xFF AND ISZERO PUSH2 0x3F5E JUMPI PUSH1 0x0 DUP1 REVERT JUMPDEST PUSH1 0x1 PUSH1 0x80 PUSH1 0x2 EXP SUB DUP7 AND PUSH1 0x0 SWAP1 DUP2 MSTORE PUSH1 0x11 PUSH1 0x20 MSTORE PUSH1 0x40 SWAP1 KECCAK256 PUSH1 0x1 ADD SLOAD PUSH1 0x1 PUSH1 0xA0 PUSH1 0x2 EXP SUB AND ISZERO ISZERO PUSH2 0x3FC7 JUMPI PUSH1 0x40 DUP1 MLOAD PUSH1 0xE5 PUSH1 0x2 EXP PUSH3 0x461BCD MUL DUP2 MSTORE PUSH1 0x20 PUSH1 0x4 DUP3 ADD MSTORE PUSH1 0x16 PUSH1 0x24 DUP3 ADD MSTORE PUSH1 0x0 DUP1 MLOAD PUSH1 0x20 PUSH2 0x5A00 DUP4 CODECOPY DUP2 MLOAD SWAP2 MSTORE PUSH1 0x44 DUP3 ADD MSTORE SWAP1 MLOAD SWAP1 DUP2 SWAP1 SUB PUSH1 0x64 ADD SWAP1 REVERT JUMPDEST PUSH2 0x3FD0 DUP7 PUSH2 0x1FC3 JUMP JUMPDEST PUSH1 0x1 EQ PUSH2 0x4027 JUMPI PUSH1 0x40 DUP1 MLOAD PUSH1 0xE5 PUSH1 0x2 EXP PUSH3 0x461BCD MUL DUP2 MSTORE PUSH1 0x20 PUSH1 0x4 DUP3 ADD MSTORE PUSH1 0x1B PUSH1 0x24 DUP3 ADD MSTORE PUSH32 0x426F756E7479206E6F7420696E2072657665616C2077696E646F770000000000 PUSH1 0x44 DUP3 ADD MSTORE SWAP1 MLOAD SWAP1 DUP2 SWAP1 SUB PUSH1 0x64 ADD SWAP1 REVERT JUMPDEST PUSH1 0x1 PUSH1 0x80 PUSH1 0x2 EXP SUB DUP7 AND PUSH1 0x0 SWAP1 DUP2 MSTORE PUSH1 0x11 PUSH1 0x20 MSTORE PUSH1 0x40 SWAP1 KECCAK256 PUSH1 0x4 ADD SLOAD DUP5 ISZERO ISZERO PUSH2 0x409A JUMPI PUSH1 0x40 DUP1 MLOAD PUSH1 0xE5 PUSH1 0x2 EXP PUSH3 0x461BCD MUL DUP2 MSTORE PUSH1 0x20 PUSH1 0x4 DUP3 ADD MSTORE PUSH1 0xD PUSH1 0x24 DUP3 ADD MSTORE PUSH32 0x496E76616C6964206E6F6E636500000000000000000000000000000000000000 PUSH1 0x44 DUP3 ADD MSTORE SWAP1 MLOAD SWAP1 DUP2 SWAP1 SUB PUSH1 0x64 ADD SWAP1 REVERT JUMPDEST PUSH1 0x1 PUSH1 0x80 PUSH1 0x2 EXP SUB DUP8 AND PUSH1 0x0 SWAP1 DUP2 MSTORE PUSH1 0x12 PUSH1 0x20 MSTORE PUSH1 0x40 SWAP1 KECCAK256 SLOAD DUP7 LT PUSH2 0x4109 JUMPI PUSH1 0x40 DUP1 MLOAD PUSH1 0xE5 PUSH1 0x2 EXP PUSH3 0x461BCD MUL DUP2 MSTORE PUSH1 0x20 PUSH1 0x4 DUP3 ADD MSTORE PUSH1 0x14 PUSH1 0x24 DUP3 ADD MSTORE PUSH32 0x496E76616C696420617373657274696F6E204944000000000000000000000000 PUSH1 0x44 DUP3 ADD MSTORE SWAP1 MLOAD SWAP1 DUP2 SWAP1 SUB PUSH1 0x64 ADD SWAP1 REVERT JUMPDEST PUSH1 0x1 PUSH1 0x80 PUSH1 0x2 EXP SUB DUP8 AND PUSH1 0x0 SWAP1 DUP2 MSTORE PUSH1 0x12 PUSH1 0x20 MSTORE PUSH1 0x40 DUP2 KECCAK256 DUP1 SLOAD DUP9 SWAP1 DUP2 LT PUSH2 0x412D JUMPI INVALID JUMPDEST PUSH1 0x0 SWAP2 DUP3 MSTORE PUSH1 0x20 SWAP1 SWAP2 KECCAK256 PUSH1 0x6 SWAP1 SWAP2 MUL ADD DUP1 SLOAD SWAP1 SWAP2 POP PUSH1 0x1 PUSH1 0xA0 PUSH1 0x2 EXP SUB AND CALLER EQ PUSH2 0x41A1 JUMPI PUSH1 0x40 DUP1 MLOAD PUSH1 0xE5 PUSH1 0x2 EXP PUSH3 0x461BCD MUL DUP2 MSTORE PUSH1 0x20 PUSH1 0x4 DUP3 ADD MSTORE PUSH1 0x1A PUSH1 0x24 DUP3 ADD MSTORE PUSH32 0x496E636F727265637420617373657274696F6E20617574686F72000000000000 PUSH1 0x44 DUP3 ADD MSTORE SWAP1 MLOAD SWAP1 DUP2 SWAP1 SUB PUSH1 0x64 ADD SWAP1 REVERT JUMPDEST PUSH1 0x3 DUP2 ADD SLOAD ISZERO PUSH2 0x41FB JUMPI PUSH1 0x40 DUP1 MLOAD PUSH1 0xE5 PUSH1 0x2 EXP PUSH3 0x461BCD MUL DUP2 MSTORE PUSH1 0x20 PUSH1 0x4 DUP3 ADD MSTORE PUSH1 0x17 PUSH1 0x24 DUP3 ADD MSTORE PUSH32 0x426F756E747920616C72656164792072657665616C6564000000000000000000 PUSH1 0x44 DUP3 ADD MSTORE SWAP1 MLOAD SWAP1 DUP2 SWAP1 SUB PUSH1 0x64 ADD SWAP1 REVERT JUMPDEST PUSH1 0x0 PUSH2 0x4206 DUP8 PUSH2 0x5082 JUMP JUMPDEST DUP1 MLOAD PUSH1 0x20 SWAP1 SWAP2 ADD KECCAK256 SWAP1 POP PUSH1 0x0 PUSH2 0x421F DUP8 DUP4 XOR CALLER XOR PUSH2 0x5082 JUMP JUMPDEST DUP1 MLOAD PUSH1 0x20 SWAP1 SWAP2 ADD KECCAK256 PUSH1 0x2 DUP5 ADD SLOAD SWAP1 SWAP2 POP DUP2 EQ PUSH2 0x4285 JUMPI PUSH1 0x40 DUP1 MLOAD PUSH1 0xE5 PUSH1 0x2 EXP PUSH3 0x461BCD MUL DUP2 MSTORE PUSH1 0x20 PUSH1 0x4 DUP3 ADD MSTORE PUSH1 0x18 PUSH1 0x24 DUP3 ADD MSTORE PUSH32 0x436F6D6D69746D656E742068617368206D69736D617463680000000000000000 PUSH1 0x44 DUP3 ADD MSTORE SWAP1 MLOAD SWAP1 DUP2 SWAP1 SUB PUSH1 0x64 ADD SWAP1 REVERT JUMPDEST PUSH1 0x3 DUP4 ADD DUP9 SWAP1 SSTORE PUSH1 0x4 DUP4 ADD DUP8 SWAP1 SSTORE PUSH2 0x42A1 PUSH1 0x5 DUP5 ADD DUP8 DUP8 PUSH2 0x57DD JUMP JUMPDEST POP PUSH32 0xFF6D1BD0C214F72EEA059C589E55A6434ED3011C01CCD7D7EE0D7353737937C1 DUP11 DUP5 PUSH1 0x0 ADD PUSH1 0x0 SWAP1 SLOAD SWAP1 PUSH2 0x100 EXP SWAP1 DIV PUSH1 0x1 PUSH1 0xA0 PUSH1 0x2 EXP SUB AND DUP12 DUP7 PUSH1 0x3 ADD SLOAD DUP8 PUSH1 0x4 ADD SLOAD DUP10 DUP10 PUSH1 0x5 ADD PUSH1 0x40 MLOAD DUP1 DUP9 PUSH1 0x1 PUSH1 0x80 PUSH1 0x2 EXP SUB AND PUSH1 0x1 PUSH1 0x80 PUSH1 0x2 EXP SUB AND DUP2 MSTORE PUSH1 0x20 ADD DUP8 PUSH1 0x1 PUSH1 0xA0 PUSH1 0x2 EXP SUB AND PUSH1 0x1 PUSH1 0xA0 PUSH1 0x2 EXP SUB AND DUP2 MSTORE PUSH1 0x20 ADD DUP7 DUP2 MSTORE PUSH1 0x20 ADD DUP6 DUP2 MSTORE PUSH1 0x20 ADD DUP5 DUP2 MSTORE PUSH1 0x20 ADD DUP4 DUP2 MSTORE PUSH1 0x20 ADD DUP1 PUSH1 0x20 ADD DUP3 DUP2 SUB DUP3 MSTORE DUP4 DUP2 DUP2 SLOAD PUSH1 0x1 DUP2 PUSH1 0x1 AND ISZERO PUSH2 0x100 MUL SUB AND PUSH1 0x2 SWAP1 DIV DUP2 MSTORE PUSH1 0x20 ADD SWAP2 POP DUP1 SLOAD PUSH1 0x1 DUP2 PUSH1 0x1 AND ISZERO PUSH2 0x100 MUL SUB AND PUSH1 0x2 SWAP1 DIV DUP1 ISZERO PUSH2 0x43BD JUMPI DUP1 PUSH1 0x1F LT PUSH2 0x4392 JUMPI PUSH2 0x100 DUP1 DUP4 SLOAD DIV MUL DUP4 MSTORE SWAP2 PUSH1 0x20 ADD SWAP2 PUSH2 0x43BD JUMP JUMPDEST DUP3 ADD SWAP2 SWAP1 PUSH1 0x0 MSTORE PUSH1 0x20 PUSH1 0x0 KECCAK256 SWAP1 JUMPDEST DUP2 SLOAD DUP2 MSTORE SWAP1 PUSH1 0x1 ADD SWAP1 PUSH1 0x20 ADD DUP1 DUP4 GT PUSH2 0x43A0 JUMPI DUP3 SWAP1 SUB PUSH1 0x1F AND DUP3 ADD SWAP2 JUMPDEST POP POP SWAP9 POP POP POP POP POP POP POP POP POP PUSH1 0x40 MLOAD DUP1 SWAP2 SUB SWAP1 LOG1 POP POP POP POP POP POP POP POP POP POP JUMP JUMPDEST PUSH1 0x18 PUSH1 0x20 SWAP1 DUP2 MSTORE PUSH1 0x0 SWAP3 DUP4 MSTORE PUSH1 0x40 DUP1 DUP5 KECCAK256 SWAP1 SWAP2 MSTORE SWAP1 DUP3 MSTORE SWAP1 KECCAK256 SLOAD PUSH1 0xFF AND DUP2 JUMP JUMPDEST PUSH1 0x40 DUP1 MLOAD DUP1 DUP3 ADD SWAP1 SWAP2 MSTORE PUSH1 0x5 DUP2 MSTORE PUSH32 0x312E362E31000000000000000000000000000000000000000000000000000000 PUSH1 0x20 DUP3 ADD MSTORE DUP2 JUMP JUMPDEST PUSH1 0x0 PUSH1 0x1 PUSH1 0xA0 PUSH1 0x2 EXP SUB DUP3 AND ISZERO ISZERO PUSH2 0x444B JUMPI PUSH1 0x0 DUP1 REVERT JUMPDEST POP PUSH1 0x1 PUSH1 0xA0 PUSH1 0x2 EXP SUB DUP2 AND PUSH1 0x0 SWAP1 DUP2 MSTORE PUSH1 0x20 DUP4 SWAP1 MSTORE PUSH1 0x40 SWAP1 KECCAK256 SLOAD PUSH1 0xFF AND JUMPDEST SWAP3 SWAP2 POP POP JUMP JUMPDEST PUSH1 0x0 DUP2 ISZERO PUSH2 0x4482 JUMPI POP PUSH1 0x2 DUP3 SWAP1 EXP PUSH2 0x4469 JUMP JUMPDEST POP PUSH1 0x0 SWAP3 SWAP2 POP POP JUMP JUMPDEST PUSH1 0x0 DUP3 DUP3 ADD DUP4 DUP2 LT ISZERO PUSH2 0x449D JUMPI PUSH1 0x0 DUP1 REVERT JUMPDEST SWAP4 SWAP3 POP POP POP JUMP JUMPDEST PUSH1 0x0 DUP3 DUP3 GT ISZERO PUSH2 0x44B3 JUMPI PUSH1 0x0 DUP1 REVERT JUMPDEST POP SWAP1 SUB SWAP1 JUMP JUMPDEST PUSH1 0x1 PUSH1 0xA0 PUSH1 0x2 EXP SUB DUP2 AND ISZERO ISZERO PUSH2 0x44CE JUMPI PUSH1 0x0 DUP1 REVERT JUMPDEST PUSH2 0x44D8 DUP3 DUP3 PUSH2 0x4434 JUMP JUMPDEST ISZERO ISZERO PUSH2 0x44E3 JUMPI PUSH1 0x0 DUP1 REVERT JUMPDEST PUSH1 0x1 PUSH1 0xA0 PUSH1 0x2 EXP SUB AND PUSH1 0x0 SWAP1 DUP2 MSTORE PUSH1 0x20 SWAP2 SWAP1 SWAP2 MSTORE PUSH1 0x40 SWAP1 KECCAK256 DUP1 SLOAD PUSH1 0xFF NOT AND SWAP1 SSTORE JUMP JUMPDEST PUSH1 0x0 DUP3 ISZERO ISZERO PUSH2 0x4516 JUMPI POP PUSH1 0x0 PUSH2 0x4469 JUMP JUMPDEST DUP3 DUP3 MUL DUP3 DUP5 DUP3 DUP2 ISZERO ISZERO PUSH2 0x4525 JUMPI INVALID JUMPDEST DIV EQ PUSH2 0x449D JUMPI PUSH1 0x0 DUP1 REVERT JUMPDEST PUSH1 0x1 PUSH1 0x80 PUSH1 0x2 EXP SUB DUP2 AND PUSH1 0x0 SWAP1 DUP2 MSTORE PUSH1 0x11 PUSH1 0x20 MSTORE PUSH1 0x40 DUP2 KECCAK256 PUSH1 0x1 ADD SLOAD PUSH1 0x1 PUSH1 0xA0 PUSH1 0x2 EXP SUB AND ISZERO ISZERO PUSH2 0x4599 JUMPI PUSH1 0x40 DUP1 MLOAD PUSH1 0xE5 PUSH1 0x2 EXP PUSH3 0x461BCD MUL DUP2 MSTORE PUSH1 0x20 PUSH1 0x4 DUP3 ADD MSTORE PUSH1 0x16 PUSH1 0x24 DUP3 ADD MSTORE PUSH1 0x0 DUP1 MLOAD PUSH1 0x20 PUSH2 0x5A00 DUP4 CODECOPY DUP2 MLOAD SWAP2 MSTORE PUSH1 0x44 DUP3 ADD MSTORE SWAP1 MLOAD SWAP1 DUP2 SWAP1 SUB PUSH1 0x64 ADD SWAP1 REVERT JUMPDEST PUSH2 0x45A1 PUSH2 0x5750 JUMP JUMPDEST PUSH1 0x1 PUSH1 0x80 PUSH1 0x2 EXP SUB DUP4 DUP2 AND PUSH1 0x0 SWAP1 DUP2 MSTORE PUSH1 0x11 PUSH1 0x20 SWAP1 DUP2 MSTORE PUSH1 0x40 SWAP2 DUP3 SWAP1 KECCAK256 DUP3 MLOAD PUSH2 0x180 DUP2 ADD SWAP1 SWAP4 MSTORE DUP1 SLOAD SWAP4 DUP5 AND DUP4 MSTORE SWAP2 SWAP3 SWAP1 DUP4 ADD SWAP1 PUSH17 0x100000000000000000000000000000000 SWAP1 DIV PUSH1 0xFF AND PUSH1 0x2 DUP2 GT ISZERO PUSH2 0x45F7 JUMPI INVALID JUMPDEST PUSH1 0x2 DUP2 GT ISZERO PUSH2 0x4602 JUMPI INVALID JUMPDEST DUP2 MSTORE PUSH1 0x1 DUP3 DUP2 ADD SLOAD PUSH1 0x1 PUSH1 0xA0 PUSH1 0x2 EXP SUB AND PUSH1 0x20 DUP1 DUP5 ADD SWAP2 SWAP1 SWAP2 MSTORE PUSH1 0x2 DUP1 DUP6 ADD SLOAD PUSH1 0x40 DUP1 DUP7 ADD SWAP2 SWAP1 SWAP2 MSTORE PUSH1 0x3 DUP7 ADD DUP1 SLOAD DUP3 MLOAD PUSH2 0x100 SWAP7 DUP3 AND ISZERO SWAP7 SWAP1 SWAP7 MUL PUSH1 0x0 NOT ADD AND SWAP3 SWAP1 SWAP3 DIV PUSH1 0x1F DUP2 ADD DUP5 SWAP1 DIV DUP5 MUL DUP6 ADD DUP5 ADD SWAP1 SWAP2 MSTORE DUP1 DUP5 MSTORE PUSH1 0x60 SWAP1 SWAP5 ADD SWAP4 SWAP1 SWAP2 DUP4 ADD DUP3 DUP3 DUP1 ISZERO PUSH2 0x46B3 JUMPI DUP1 PUSH1 0x1F LT PUSH2 0x4688 JUMPI PUSH2 0x100 DUP1 DUP4 SLOAD DIV MUL DUP4 MSTORE SWAP2 PUSH1 0x20 ADD SWAP2 PUSH2 0x46B3 JUMP JUMPDEST DUP3 ADD SWAP2 SWAP1 PUSH1 0x0 MSTORE PUSH1 0x20 PUSH1 0x0 KECCAK256 SWAP1 JUMPDEST DUP2 SLOAD DUP2 MSTORE SWAP1 PUSH1 0x1 ADD SWAP1 PUSH1 0x20 ADD DUP1 DUP4 GT PUSH2 0x4696 JUMPI DUP3 SWAP1 SUB PUSH1 0x1F AND DUP3 ADD SWAP2 JUMPDEST POP POP POP SWAP2 DUP4 MSTORE POP POP PUSH1 0x4 DUP3 ADD SLOAD PUSH1 0x20 DUP1 DUP4 ADD SWAP2 SWAP1 SWAP2 MSTORE PUSH1 0x5 DUP4 ADD SLOAD PUSH1 0x40 DUP1 DUP5 ADD SWAP2 SWAP1 SWAP2 MSTORE PUSH1 0x6 DUP5 ADD SLOAD PUSH1 0x1 PUSH1 0xA0 PUSH1 0x2 EXP SUB DUP2 AND PUSH1 0x60 DUP6 ADD MSTORE PUSH1 0xA0 PUSH1 0x2 EXP SWAP1 DIV PUSH1 0xFF AND ISZERO ISZERO PUSH1 0x80 DUP5 ADD MSTORE PUSH1 0x7 DUP5 ADD SLOAD PUSH1 0xA0 DUP5 ADD MSTORE PUSH1 0x8 DUP5 ADD SLOAD PUSH1 0xC0 DUP5 ADD MSTORE PUSH1 0x9 DUP5 ADD DUP1 SLOAD DUP3 MLOAD PUSH1 0x2 PUSH2 0x100 PUSH1 0x1 DUP5 AND ISZERO MUL PUSH1 0x0 NOT ADD SWAP1 SWAP3 AND SWAP2 SWAP1 SWAP2 DIV PUSH1 0x1F DUP2 ADD DUP6 SWAP1 DIV DUP6 MUL DUP3 ADD DUP6 ADD SWAP1 SWAP4 MSTORE DUP3 DUP2 MSTORE PUSH1 0xE0 SWAP1 SWAP5 ADD SWAP4 SWAP3 SWAP1 SWAP2 SWAP1 DUP4 ADD DUP3 DUP3 DUP1 ISZERO PUSH2 0x479C JUMPI DUP1 PUSH1 0x1F LT PUSH2 0x4771 JUMPI PUSH2 0x100 DUP1 DUP4 SLOAD DIV MUL DUP4 MSTORE SWAP2 PUSH1 0x20 ADD SWAP2 PUSH2 0x479C JUMP JUMPDEST DUP3 ADD SWAP2 SWAP1 PUSH1 0x0 MSTORE PUSH1 0x20 PUSH1 0x0 KECCAK256 SWAP1 JUMPDEST DUP2 SLOAD DUP2 MSTORE SWAP1 PUSH1 0x1 ADD SWAP1 PUSH1 0x20 ADD DUP1 DUP4 GT PUSH2 0x477F JUMPI DUP3 SWAP1 SUB PUSH1 0x1F AND DUP3 ADD SWAP2 JUMPDEST POP POP POP SWAP2 SWAP1 SWAP3 MSTORE POP POP POP PUSH1 0x1 PUSH1 0x80 PUSH1 0x2 EXP SUB DUP5 AND PUSH1 0x0 SWAP1 DUP2 MSTORE PUSH1 0x14 PUSH1 0x20 SWAP1 DUP2 MSTORE PUSH1 0x40 DUP1 DUP4 KECCAK256 DUP1 SLOAD DUP3 MLOAD DUP2 DUP6 MUL DUP2 ADD DUP6 ADD SWAP1 SWAP4 MSTORE DUP1 DUP4 MSTORE SWAP5 SWAP6 POP PUSH1 0x60 SWAP5 SWAP2 SWAP4 SWAP1 SWAP3 DUP5 ADD JUMPDEST DUP3 DUP3 LT ISZERO PUSH2 0x4839 JUMPI PUSH1 0x0 DUP5 DUP2 MSTORE PUSH1 0x20 SWAP1 DUP2 SWAP1 KECCAK256 PUSH1 0x40 DUP1 MLOAD PUSH1 0x60 DUP2 ADD DUP3 MSTORE PUSH1 0x3 DUP7 MUL SWAP1 SWAP3 ADD DUP1 SLOAD PUSH1 0x1 PUSH1 0xA0 PUSH1 0x2 EXP SUB AND DUP4 MSTORE PUSH1 0x1 DUP1 DUP3 ADD SLOAD DUP5 DUP7 ADD MSTORE PUSH1 0x2 SWAP1 SWAP2 ADD SLOAD PUSH1 0xFF AND ISZERO ISZERO SWAP2 DUP4 ADD SWAP2 SWAP1 SWAP2 MSTORE SWAP1 DUP4 MSTORE SWAP1 SWAP3 ADD SWAP2 ADD PUSH2 0x47DF JUMP JUMPDEST POP POP POP POP SWAP1 POP PUSH1 0x0 SWAP3 POP PUSH1 0x0 DUP2 MLOAD GT ISZERO PUSH2 0x49EC JUMPI PUSH1 0x0 DUP1 SWAP1 POP PUSH1 0x0 PUSH1 0x60 DUP4 MLOAD PUSH1 0x40 MLOAD SWAP1 DUP1 DUP3 MSTORE DUP1 PUSH1 0x20 MUL PUSH1 0x20 ADD DUP3 ADD PUSH1 0x40 MSTORE DUP1 ISZERO PUSH2 0x4881 JUMPI DUP2 PUSH1 0x20 ADD PUSH1 0x20 DUP3 MUL DUP1 CODESIZE DUP4 CODECOPY ADD SWAP1 POP JUMPDEST POP SWAP1 POP PUSH1 0x0 JUMPDEST DUP5 MLOAD DUP2 LT ISZERO PUSH2 0x4963 JUMPI PUSH1 0xA SLOAD DUP6 MLOAD PUSH1 0x0 SWAP2 PUSH1 0x1 PUSH1 0xA0 PUSH1 0x2 EXP SUB AND SWAP1 PUSH4 0x70A08231 SWAP1 DUP9 SWAP1 DUP6 SWAP1 DUP2 LT PUSH2 0x48B4 JUMPI INVALID JUMPDEST PUSH1 0x20 SWAP1 DUP2 MUL SWAP1 SWAP2 ADD DUP2 ADD MLOAD MLOAD PUSH1 0x40 DUP1 MLOAD PUSH1 0xE0 PUSH1 0x2 EXP PUSH4 0xFFFFFFFF DUP7 AND MUL DUP2 MSTORE PUSH1 0x1 PUSH1 0xA0 PUSH1 0x2 EXP SUB SWAP1 SWAP3 AND PUSH1 0x4 DUP4 ADD MSTORE MLOAD PUSH1 0x24 DUP1 DUP4 ADD SWAP4 SWAP3 DUP3 SWAP1 SUB ADD DUP2 DUP7 DUP1 EXTCODESIZE ISZERO DUP1 ISZERO PUSH2 0x48FF JUMPI PUSH1 0x0 DUP1 REVERT JUMPDEST POP GAS STATICCALL ISZERO DUP1 ISZERO PUSH2 0x4913 JUMPI RETURNDATASIZE PUSH1 0x0 DUP1 RETURNDATACOPY RETURNDATASIZE PUSH1 0x0 REVERT JUMPDEST POP POP POP POP PUSH1 0x40 MLOAD RETURNDATASIZE PUSH1 0x20 DUP2 LT ISZERO PUSH2 0x4929 JUMPI PUSH1 0x0 DUP1 REVERT JUMPDEST POP MLOAD DUP4 MLOAD SWAP1 SWAP2 POP DUP2 SWAP1 DUP5 SWAP1 DUP5 SWAP1 DUP2 LT PUSH2 0x493E JUMPI INVALID JUMPDEST PUSH1 0x20 SWAP1 DUP2 MUL SWAP1 SWAP2 ADD ADD MSTORE PUSH2 0x4958 DUP6 DUP3 PUSH4 0xFFFFFFFF PUSH2 0x448B AND JUMP JUMPDEST SWAP5 POP POP PUSH1 0x1 ADD PUSH2 0x4887 JUMP JUMPDEST POP PUSH2 0x498D PUSH2 0x4986 PUSH1 0xE SLOAD PUSH2 0x1CAA PUSH1 0xF SLOAD DUP10 PUSH1 0xC0 ADD MLOAD PUSH2 0x448B SWAP1 SWAP2 SWAP1 PUSH4 0xFFFFFFFF AND JUMP JUMPDEST NUMBER DUP6 PUSH2 0x50AC JUMP JUMPDEST SWAP2 POP PUSH1 0x0 JUMPDEST DUP5 MLOAD DUP2 LT ISZERO PUSH2 0x49E7 JUMPI DUP2 DUP2 DUP2 MLOAD DUP2 LT ISZERO ISZERO PUSH2 0x49A9 JUMPI INVALID JUMPDEST PUSH1 0x20 SWAP1 DUP2 MUL SWAP1 SWAP2 ADD ADD MLOAD SWAP1 SWAP3 SUB SWAP2 PUSH1 0x0 DUP4 SGT PUSH2 0x49DF JUMPI DUP5 DUP2 DUP2 MLOAD DUP2 LT ISZERO ISZERO PUSH2 0x49CD JUMPI INVALID JUMPDEST PUSH1 0x20 SWAP1 DUP2 MUL SWAP1 SWAP2 ADD ADD MLOAD MLOAD SWAP7 POP PUSH2 0x49E7 JUMP JUMPDEST PUSH1 0x1 ADD PUSH2 0x4992 JUMP JUMPDEST POP POP POP POP JUMPDEST POP POP SWAP2 SWAP1 POP JUMP JUMPDEST PUSH1 0x1 PUSH1 0x80 PUSH1 0x2 EXP SUB DUP2 AND PUSH1 0x0 SWAP1 DUP2 MSTORE PUSH1 0x11 PUSH1 0x20 SWAP1 DUP2 MSTORE PUSH1 0x40 DUP1 DUP4 KECCAK256 PUSH1 0x12 DUP4 MSTORE DUP2 DUP5 KECCAK256 PUSH1 0x13 DUP5 MSTORE DUP3 DUP6 KECCAK256 PUSH1 0x14 SWAP1 SWAP5 MSTORE SWAP2 DUP5 KECCAK256 DUP3 SLOAD DUP2 SLOAD DUP7 SWAP6 PUSH1 0x60 SWAP6 SWAP4 SWAP1 SWAP3 SWAP1 SWAP2 PUSH2 0x4A3D SWAP2 DUP7 SWAP2 PUSH2 0x50EE JUMP JUMPDEST SWAP7 POP DUP7 ISZERO ISZERO PUSH2 0x4A77 JUMPI PUSH1 0x1 PUSH1 0x80 PUSH1 0x2 EXP SUB DUP9 AND PUSH1 0x0 SWAP1 DUP2 MSTORE PUSH1 0x16 PUSH1 0x20 MSTORE PUSH1 0x40 SWAP1 KECCAK256 PUSH2 0x4A6B DUP6 DUP6 DUP6 DUP6 DUP6 PUSH2 0x5130 JUMP JUMPDEST SWAP1 SWAP9 POP SWAP6 POP PUSH2 0x4AA6 SWAP1 POP JUMP JUMPDEST DUP3 SLOAD PUSH1 0x40 DUP1 MLOAD DUP3 DUP2 MSTORE PUSH1 0x20 DUP1 DUP5 MUL DUP3 ADD ADD SWAP1 SWAP2 MSTORE SWAP1 DUP1 ISZERO PUSH2 0x4AA2 JUMPI DUP2 PUSH1 0x20 ADD PUSH1 0x20 DUP3 MUL DUP1 CODESIZE DUP4 CODECOPY ADD SWAP1 POP JUMPDEST POP SWAP5 POP JUMPDEST PUSH1 0x0 PUSH2 0x4ACF DUP6 PUSH1 0x2 ADD SLOAD PUSH2 0x1CAA PUSH1 0xC SLOAD PUSH2 0x1CAA DUP9 DUP1 SLOAD SWAP1 POP PUSH1 0xD SLOAD PUSH2 0x4505 SWAP1 SWAP2 SWAP1 PUSH4 0xFFFFFFFF AND JUMP JUMPDEST SWAP1 POP PUSH1 0x0 JUMPDEST DUP5 SLOAD DUP2 LT ISZERO PUSH2 0x4B42 JUMPI PUSH1 0x0 DUP5 DUP3 DUP2 SLOAD DUP2 LT ISZERO ISZERO PUSH2 0x4AED JUMPI INVALID JUMPDEST PUSH1 0x0 SWAP2 DUP3 MSTORE PUSH1 0x20 DUP3 KECCAK256 ADD SWAP2 POP JUMPDEST DUP2 SLOAD DUP2 LT ISZERO PUSH2 0x4B38 JUMPI PUSH2 0x4B2E DUP3 DUP3 DUP2 SLOAD DUP2 LT ISZERO ISZERO PUSH2 0x4B14 JUMPI INVALID JUMPDEST SWAP1 PUSH1 0x0 MSTORE PUSH1 0x20 PUSH1 0x0 KECCAK256 ADD SLOAD DUP6 PUSH2 0x448B SWAP1 SWAP2 SWAP1 PUSH4 0xFFFFFFFF AND JUMP JUMPDEST SWAP4 POP PUSH1 0x1 ADD PUSH2 0x4AFA JUMP JUMPDEST POP POP PUSH1 0x1 ADD PUSH2 0x4AD4 JUMP JUMPDEST POP PUSH2 0x4B53 DUP2 DUP10 PUSH4 0xFFFFFFFF PUSH2 0x44A4 AND JUMP JUMPDEST SWAP1 POP PUSH1 0x0 JUMPDEST DUP5 SLOAD DUP2 LT ISZERO PUSH2 0x4B93 JUMPI PUSH2 0x4B89 DUP8 DUP3 DUP2 MLOAD DUP2 LT ISZERO ISZERO PUSH2 0x4B72 JUMPI INVALID JUMPDEST PUSH1 0x20 SWAP1 DUP2 MUL SWAP1 SWAP2 ADD ADD MLOAD DUP4 SWAP1 PUSH4 0xFFFFFFFF PUSH2 0x44A4 AND JUMP JUMPDEST SWAP2 POP PUSH1 0x1 ADD PUSH2 0x4B58 JUMP JUMPDEST POP DUP1 SWAP7 POP POP POP POP POP POP SWAP2 SWAP4 SWAP1 SWAP3 POP JUMP JUMPDEST DUP3 PUSH1 0x1 PUSH1 0xA0 PUSH1 0x2 EXP SUB AND PUSH4 0xA9059CBB DUP4 DUP4 PUSH1 0x40 MLOAD DUP4 PUSH4 0xFFFFFFFF AND PUSH1 0xE0 PUSH1 0x2 EXP MUL DUP2 MSTORE PUSH1 0x4 ADD DUP1 DUP4 PUSH1 0x1 PUSH1 0xA0 PUSH1 0x2 EXP SUB AND PUSH1 0x1 PUSH1 0xA0 PUSH1 0x2 EXP SUB AND DUP2 MSTORE PUSH1 0x20 ADD DUP3 DUP2 MSTORE PUSH1 0x20 ADD SWAP3 POP POP POP PUSH1 0x20 PUSH1 0x40 MLOAD DUP1 DUP4 SUB DUP2 PUSH1 0x0 DUP8 DUP1 EXTCODESIZE ISZERO DUP1 ISZERO PUSH2 0x4C06 JUMPI PUSH1 0x0 DUP1 REVERT JUMPDEST POP GAS CALL ISZERO DUP1 ISZERO PUSH2 0x4C1A JUMPI RETURNDATASIZE PUSH1 0x0 DUP1 RETURNDATACOPY RETURNDATASIZE PUSH1 0x0 REVERT JUMPDEST POP POP POP POP PUSH1 0x40 MLOAD RETURNDATASIZE PUSH1 0x20 DUP2 LT ISZERO PUSH2 0x4C30 JUMPI PUSH1 0x0 DUP1 REVERT JUMPDEST POP MLOAD ISZERO ISZERO PUSH2 0x4C3D JUMPI PUSH1 0x0 DUP1 REVERT JUMPDEST POP POP POP JUMP JUMPDEST PUSH2 0x4C53 PUSH1 0x5 DUP3 PUSH4 0xFFFFFFFF PUSH2 0x4EC7 AND JUMP JUMPDEST PUSH1 0x40 MLOAD PUSH1 0x1 PUSH1 0xA0 PUSH1 0x2 EXP SUB DUP3 AND SWAP1 PUSH32 0xCAAF71E540CBBAC3D0853179C2D500B98DCBED027C90B0C724045CF6E8AB5EAD SWAP1 PUSH1 0x0 SWAP1 LOG2 POP JUMP JUMPDEST PUSH2 0x4C9B PUSH1 0x8 DUP3 PUSH4 0xFFFFFFFF PUSH2 0x44B9 AND JUMP JUMPDEST PUSH1 0x40 MLOAD PUSH1 0x1 PUSH1 0xA0 PUSH1 0x2 EXP SUB DUP3 AND SWAP1 PUSH32 0xCD265EBAF09DF2871CC7BD4133404A235BA12EFF2041BB89D9C714A2621C7C7E SWAP1 PUSH1 0x0 SWAP1 LOG2 POP JUMP JUMPDEST PUSH2 0x4CE3 PUSH1 0x5 DUP3 PUSH4 0xFFFFFFFF PUSH2 0x44B9 AND JUMP JUMPDEST PUSH1 0x40 MLOAD PUSH1 0x1 PUSH1 0xA0 PUSH1 0x2 EXP SUB DUP3 AND SWAP1 PUSH32 0xCAE3E32C864033F518BD5399AF6DD09536236CE2B09D30F4445E1144DB198ED6 SWAP1 PUSH1 0x0 SWAP1 LOG2 POP JUMP JUMPDEST PUSH2 0x4D2B PUSH1 0x8 DUP3 PUSH4 0xFFFFFFFF PUSH2 0x4EC7 AND JUMP JUMPDEST PUSH1 0x40 MLOAD PUSH1 0x1 PUSH1 0xA0 PUSH1 0x2 EXP SUB DUP3 AND SWAP1 PUSH32 0x6719D08C1888103BEA251A4ED56406BD0C3E69723C8A1686E017E7BBE159B6F8 SWAP1 PUSH1 0x0 SWAP1 LOG2 POP JUMP JUMPDEST PUSH2 0x4D73 PUSH1 0x0 DUP3 PUSH4 0xFFFFFFFF PUSH2 0x4EC7 AND JUMP JUMPDEST PUSH1 0x40 MLOAD PUSH1 0x1 PUSH1 0xA0 PUSH1 0x2 EXP SUB DUP3 AND SWAP1 PUSH32 0xD04992BE14BDFCB19FB5A7DC0CDFEEAF1EC5DEE2E45CF1885279C0F9A670983E SWAP1 PUSH1 0x0 SWAP1 LOG2 POP JUMP JUMPDEST PUSH1 0x40 DUP1 MLOAD PUSH32 0x23B872DD00000000000000000000000000000000000000000000000000000000 DUP2 MSTORE PUSH1 0x1 PUSH1 0xA0 PUSH1 0x2 EXP SUB DUP6 DUP2 AND PUSH1 0x4 DUP4 ADD MSTORE DUP5 DUP2 AND PUSH1 0x24 DUP4 ADD MSTORE PUSH1 0x44 DUP3 ADD DUP5 SWAP1 MSTORE SWAP2 MLOAD SWAP2 DUP7 AND SWAP2 PUSH4 0x23B872DD SWAP2 PUSH1 0x64 DUP1 DUP3 ADD SWAP3 PUSH1 0x20 SWAP3 SWAP1 SWAP2 SWAP1 DUP3 SWAP1 SUB ADD DUP2 PUSH1 0x0 DUP8 DUP1 EXTCODESIZE ISZERO DUP1 ISZERO PUSH2 0x4E1E JUMPI PUSH1 0x0 DUP1 REVERT JUMPDEST POP GAS CALL ISZERO DUP1 ISZERO PUSH2 0x4E32 JUMPI RETURNDATASIZE PUSH1 0x0 DUP1 RETURNDATACOPY RETURNDATASIZE PUSH1 0x0 REVERT JUMPDEST POP POP POP POP PUSH1 0x40 MLOAD RETURNDATASIZE PUSH1 0x20 DUP2 LT ISZERO PUSH2 0x4E48 JUMPI PUSH1 0x0 DUP1 REVERT JUMPDEST POP MLOAD ISZERO ISZERO PUSH2 0x4E55 JUMPI PUSH1 0x0 DUP1 REVERT JUMPDEST POP POP POP POP JUMP JUMPDEST PUSH2 0x4E6C PUSH1 0x0 DUP3 PUSH4 0xFFFFFFFF PUSH2 0x44B9 AND JUMP JUMPDEST PUSH1 0x40 MLOAD PUSH1 0x1 PUSH1 0xA0 PUSH1 0x2 EXP SUB DUP3 AND SWAP1 PUSH32 0x185BCC05FFFD1C95F8177E6A0CBF6D9284BE33803496B7A05B3A80C8FE5AE874 SWAP1 PUSH1 0x0 SWAP1 LOG2 POP JUMP JUMPDEST PUSH1 0x0 DUP1 DUP3 GT PUSH2 0x4EB1 JUMPI PUSH1 0x0 DUP1 REVERT JUMPDEST PUSH1 0x0 DUP3 DUP5 DUP2 ISZERO ISZERO PUSH2 0x4EBE JUMPI INVALID JUMPDEST DIV SWAP5 SWAP4 POP POP POP POP JUMP JUMPDEST PUSH1 0x1 PUSH1 0xA0 PUSH1 0x2 EXP SUB DUP2 AND ISZERO ISZERO PUSH2 0x4EDC JUMPI PUSH1 0x0 DUP1 REVERT JUMPDEST PUSH2 0x4EE6 DUP3 DUP3 PUSH2 0x4434 JUMP JUMPDEST ISZERO PUSH2 0x4EF0 JUMPI PUSH1 0x0 DUP1 REVERT JUMPDEST PUSH1 0x1 PUSH1 0xA0 PUSH1 0x2 EXP SUB AND PUSH1 0x0 SWAP1 DUP2 MSTORE PUSH1 0x20 SWAP2 SWAP1 SWAP2 MSTORE PUSH1 0x40 SWAP1 KECCAK256 DUP1 SLOAD PUSH1 0xFF NOT AND PUSH1 0x1 OR SWAP1 SSTORE JUMP JUMPDEST PUSH1 0x0 PUSH2 0x4F1F PUSH2 0x5970 JUMP JUMPDEST POP POP PUSH1 0x40 DUP1 MLOAD PUSH2 0x200 DUP2 ADD DUP3 MSTORE PUSH1 0x0 DUP1 DUP3 MSTORE PUSH1 0x1 PUSH1 0x20 DUP4 ADD DUP2 SWAP1 MSTORE SWAP3 DUP3 ADD DUP4 SWAP1 MSTORE PUSH1 0x2 PUSH1 0x60 DUP4 ADD DUP2 SWAP1 MSTORE PUSH1 0x80 DUP4 ADD DUP5 SWAP1 MSTORE PUSH1 0xA0 DUP4 ADD DUP2 SWAP1 MSTORE PUSH1 0xC0 DUP4 ADD DUP2 SWAP1 MSTORE PUSH1 0x3 PUSH1 0xE0 DUP5 ADD DUP2 SWAP1 MSTORE PUSH2 0x100 DUP5 ADD SWAP5 SWAP1 SWAP5 MSTORE PUSH2 0x120 DUP4 ADD DUP2 SWAP1 MSTORE PUSH2 0x140 DUP4 ADD DUP2 SWAP1 MSTORE PUSH2 0x160 DUP4 ADD DUP5 SWAP1 MSTORE PUSH2 0x180 DUP4 ADD MSTORE PUSH2 0x1A0 DUP3 ADD DUP4 SWAP1 MSTORE PUSH2 0x1C0 DUP3 ADD SWAP3 SWAP1 SWAP3 MSTORE PUSH1 0x4 PUSH2 0x1E0 DUP3 ADD MSTORE DUP3 DUP1 ISZERO PUSH2 0x49EC JUMPI PUSH1 0x0 JUMPDEST PUSH1 0x40 DUP2 LT ISZERO PUSH2 0x4FF1 JUMPI PUSH2 0x4FE1 DUP4 PUSH1 0xF DUP5 AND PUSH1 0x10 DUP2 LT PUSH2 0x4FCC JUMPI INVALID JUMPDEST PUSH1 0x20 MUL ADD MLOAD DUP6 SWAP1 PUSH1 0xFF AND PUSH4 0xFFFFFFFF PUSH2 0x448B AND JUMP JUMPDEST SWAP4 POP PUSH1 0x10 SWAP1 SWAP2 DIV SWAP1 PUSH1 0x1 ADD PUSH2 0x4FB1 JUMP JUMPDEST POP POP POP SWAP2 SWAP1 POP JUMP JUMPDEST PUSH1 0x1 PUSH1 0xA0 PUSH1 0x2 EXP SUB DUP2 AND ISZERO ISZERO PUSH2 0x500E JUMPI PUSH1 0x0 DUP1 REVERT JUMPDEST PUSH1 0x9 SLOAD PUSH1 0x40 MLOAD PUSH1 0x1 PUSH1 0xA0 PUSH1 0x2 EXP SUB DUP1 DUP5 AND SWAP3 PUSH2 0x100 SWAP1 DIV AND SWAP1 PUSH32 0x8BE0079C531659141344CD1FD0A4F28419497F9722A3DAAFE3B4186F6B6457E0 SWAP1 PUSH1 0x0 SWAP1 LOG3 PUSH1 0x9 DUP1 SLOAD PUSH1 0x1 PUSH1 0xA0 PUSH1 0x2 EXP SUB SWAP1 SWAP3 AND PUSH2 0x100 MUL PUSH21 0xFFFFFFFFFFFFFFFFFFFFFFFFFFFFFFFFFFFFFFFF00 NOT SWAP1 SWAP3 AND SWAP2 SWAP1 SWAP2 OR SWAP1 SSTORE JUMP JUMPDEST PUSH1 0x40 DUP1 MLOAD PUSH1 0x20 DUP1 DUP3 MSTORE DUP2 DUP4 ADD SWAP1 SWAP3 MSTORE PUSH1 0x60 SWAP2 PUSH1 0x20 DUP3 ADD DUP2 DUP1 CODESIZE DUP4 CODECOPY POP POP POP PUSH1 0x20 DUP2 ADD SWAP3 SWAP1 SWAP3 MSTORE POP SWAP1 JUMP JUMPDEST PUSH1 0x40 DUP1 MLOAD DUP5 BLOCKHASH PUSH1 0x20 DUP1 DUP4 ADD SWAP2 SWAP1 SWAP2 MSTORE DUP2 DUP4 ADD DUP6 SWAP1 MSTORE DUP3 MLOAD DUP1 DUP4 SUB DUP5 ADD DUP2 MSTORE PUSH1 0x60 SWAP1 SWAP3 ADD SWAP1 SWAP3 MSTORE DUP1 MLOAD SWAP2 ADD KECCAK256 PUSH1 0x0 SWAP1 DUP3 SWAP1 DUP2 ISZERO ISZERO PUSH2 0x50E5 JUMPI INVALID JUMPDEST MOD SWAP5 SWAP4 POP POP POP POP JUMP JUMPDEST PUSH1 0x0 DUP3 ISZERO DUP1 ISZERO PUSH2 0x50FC JUMPI POP DUP2 ISZERO JUMPDEST ISZERO PUSH2 0x511F JUMPI PUSH1 0xC SLOAD PUSH1 0x2 DUP6 ADD SLOAD PUSH2 0x5118 SWAP2 PUSH4 0xFFFFFFFF PUSH2 0x448B AND JUMP JUMPDEST SWAP1 POP PUSH2 0x449D JUMP JUMPDEST DUP3 ISZERO ISZERO PUSH2 0x449D JUMPI POP POP POP PUSH1 0x2 ADD SLOAD SWAP1 JUMP JUMPDEST PUSH1 0x0 PUSH1 0x60 DUP1 DUP8 PUSH1 0x4 ADD SLOAD PUSH1 0x40 MLOAD SWAP1 DUP1 DUP3 MSTORE DUP1 PUSH1 0x20 MUL PUSH1 0x20 ADD DUP3 ADD PUSH1 0x40 MSTORE DUP1 ISZERO PUSH2 0x516D JUMPI DUP2 PUSH1 0x20 ADD JUMPDEST PUSH1 0x60 DUP2 MSTORE PUSH1 0x20 ADD SWAP1 PUSH1 0x1 SWAP1 SUB SWAP1 DUP2 PUSH2 0x5158 JUMPI SWAP1 POP JUMPDEST POP DUP8 SLOAD PUSH1 0x40 DUP1 MLOAD DUP3 DUP2 MSTORE PUSH1 0x20 DUP1 DUP5 MUL DUP3 ADD ADD SWAP1 SWAP2 MSTORE SWAP2 SWAP3 POP DUP1 ISZERO PUSH2 0x519B JUMPI DUP2 PUSH1 0x20 ADD PUSH1 0x20 DUP3 MUL DUP1 CODESIZE DUP4 CODECOPY ADD SWAP1 POP JUMPDEST POP SWAP2 POP PUSH1 0x0 SWAP3 POP PUSH1 0x0 PUSH2 0x51BF DUP10 PUSH1 0x4 ADD SLOAD DUP11 PUSH1 0x2 ADD SLOAD PUSH2 0x4EA3 SWAP1 SWAP2 SWAP1 PUSH4 0xFFFFFFFF AND JUMP JUMPDEST DUP7 SLOAD SWAP1 SWAP2 POP ISZERO ISZERO PUSH2 0x52D1 JUMPI PUSH1 0xC SLOAD SWAP4 POP PUSH1 0x0 JUMPDEST DUP9 SLOAD DUP2 LT ISZERO PUSH2 0x52CB JUMPI PUSH2 0x5205 PUSH1 0xD SLOAD DUP6 DUP4 DUP2 MLOAD DUP2 LT ISZERO ISZERO PUSH2 0x51EF JUMPI INVALID JUMPDEST PUSH1 0x20 SWAP1 DUP2 MUL SWAP1 SWAP2 ADD ADD MLOAD SWAP1 PUSH4 0xFFFFFFFF PUSH2 0x448B AND JUMP JUMPDEST DUP5 DUP3 DUP2 MLOAD DUP2 LT ISZERO ISZERO PUSH2 0x5213 JUMPI INVALID JUMPDEST PUSH1 0x20 SWAP1 DUP2 MUL SWAP1 SWAP2 ADD ADD MSTORE PUSH1 0x0 JUMPDEST DUP9 DUP3 DUP2 SLOAD DUP2 LT ISZERO ISZERO PUSH2 0x522E JUMPI INVALID JUMPDEST PUSH1 0x0 SWAP2 DUP3 MSTORE PUSH1 0x20 SWAP1 SWAP2 KECCAK256 ADD SLOAD DUP2 LT ISZERO PUSH2 0x52C2 JUMPI PUSH2 0x52A2 DUP10 DUP4 DUP2 SLOAD DUP2 LT ISZERO ISZERO PUSH2 0x5252 JUMPI INVALID JUMPDEST SWAP1 PUSH1 0x0 MSTORE PUSH1 0x20 PUSH1 0x0 KECCAK256 ADD DUP3 DUP2 SLOAD DUP2 LT ISZERO ISZERO PUSH2 0x5269 JUMPI INVALID JUMPDEST SWAP1 PUSH1 0x0 MSTORE PUSH1 0x20 PUSH1 0x0 KECCAK256 ADD SLOAD PUSH2 0x1CAA DUP8 DUP6 DUP2 MLOAD DUP2 LT ISZERO ISZERO PUSH2 0x5285 JUMPI INVALID JUMPDEST PUSH1 0x20 SWAP1 DUP2 MUL SWAP1 SWAP2 ADD ADD MLOAD DUP14 SLOAD PUSH2 0x1CAA SWAP1 DUP9 SWAP1 PUSH4 0xFFFFFFFF PUSH2 0x4EA3 AND JUMP JUMPDEST DUP6 DUP4 DUP2 MLOAD DUP2 LT ISZERO ISZERO PUSH2 0x52B0 JUMPI INVALID JUMPDEST PUSH1 0x20 SWAP1 DUP2 MUL SWAP1 SWAP2 ADD ADD MSTORE PUSH1 0x1 ADD PUSH2 0x5220 JUMP JUMPDEST POP PUSH1 0x1 ADD PUSH2 0x51D2 JUMP JUMPDEST POP PUSH2 0x56D9 JUMP JUMPDEST PUSH1 0x0 JUMPDEST DUP10 PUSH1 0x4 ADD SLOAD DUP2 LT ISZERO PUSH2 0x56D7 JUMPI PUSH2 0x52E8 PUSH2 0x5990 JUMP JUMPDEST POP PUSH1 0x40 DUP1 MLOAD PUSH1 0x80 DUP2 ADD DUP3 MSTORE PUSH1 0x0 DUP1 DUP3 MSTORE PUSH1 0x20 DUP1 DUP4 ADD DUP3 SWAP1 MSTORE DUP3 DUP5 ADD DUP3 SWAP1 MSTORE PUSH1 0x60 DUP4 ADD DUP3 SWAP1 MSTORE DUP5 DUP3 MSTORE DUP10 SWAP1 MSTORE SWAP2 DUP3 KECCAK256 SLOAD DUP10 SLOAD SWAP2 SWAP3 SWAP2 PUSH2 0x532B SWAP2 PUSH4 0xFFFFFFFF PUSH2 0x44A4 AND JUMP JUMPDEST DUP9 PUSH1 0x0 DUP6 DUP2 MSTORE PUSH1 0x20 ADD SWAP1 DUP2 MSTORE PUSH1 0x20 ADD PUSH1 0x0 KECCAK256 SLOAD LT ISZERO SWAP1 POP DUP11 DUP1 SLOAD SWAP1 POP PUSH1 0x40 MLOAD SWAP1 DUP1 DUP3 MSTORE DUP1 PUSH1 0x20 MUL PUSH1 0x20 ADD DUP3 ADD PUSH1 0x40 MSTORE DUP1 ISZERO PUSH2 0x5370 JUMPI DUP2 PUSH1 0x20 ADD PUSH1 0x20 DUP3 MUL DUP1 CODESIZE DUP4 CODECOPY ADD SWAP1 POP JUMPDEST POP DUP6 DUP5 DUP2 MLOAD DUP2 LT ISZERO ISZERO PUSH2 0x537F JUMPI INVALID JUMPDEST PUSH1 0x20 SWAP1 DUP2 MUL SWAP1 SWAP2 ADD ADD MSTORE PUSH1 0x0 JUMPDEST DUP12 SLOAD DUP2 LT ISZERO PUSH2 0x5552 JUMPI PUSH1 0x0 DUP13 DUP3 DUP2 SLOAD DUP2 LT ISZERO ISZERO PUSH2 0x53A5 JUMPI INVALID JUMPDEST SWAP1 PUSH1 0x0 MSTORE PUSH1 0x20 PUSH1 0x0 KECCAK256 SWAP1 PUSH1 0x6 MUL ADD SWAP1 POP PUSH2 0x542A DUP2 PUSH1 0x1 ADD SLOAD DUP14 DUP5 DUP2 SLOAD DUP2 LT ISZERO ISZERO PUSH2 0x53CB JUMPI INVALID JUMPDEST SWAP1 PUSH1 0x0 MSTORE PUSH1 0x20 PUSH1 0x0 KECCAK256 ADD DUP1 SLOAD DUP1 PUSH1 0x20 MUL PUSH1 0x20 ADD PUSH1 0x40 MLOAD SWAP1 DUP2 ADD PUSH1 0x40 MSTORE DUP1 SWAP3 SWAP2 SWAP1 DUP2 DUP2 MSTORE PUSH1 0x20 ADD DUP3 DUP1 SLOAD DUP1 ISZERO PUSH2 0x541F JUMPI PUSH1 0x20 MUL DUP3 ADD SWAP2 SWAP1 PUSH1 0x0 MSTORE PUSH1 0x20 PUSH1 0x0 KECCAK256 SWAP1 JUMPDEST DUP2 SLOAD DUP2 MSTORE PUSH1 0x20 ADD SWAP1 PUSH1 0x1 ADD SWAP1 DUP1 DUP4 GT PUSH2 0x540B JUMPI JUMPDEST POP POP POP POP POP DUP8 PUSH2 0x56E5 JUMP JUMPDEST DUP8 DUP7 DUP2 MLOAD DUP2 LT ISZERO ISZERO PUSH2 0x5438 JUMPI INVALID JUMPDEST SWAP1 PUSH1 0x20 ADD SWAP1 PUSH1 0x20 MUL ADD MLOAD DUP4 DUP2 MLOAD DUP2 LT ISZERO ISZERO PUSH2 0x544F JUMPI INVALID JUMPDEST PUSH1 0x20 SWAP1 DUP2 MUL SWAP1 SWAP2 ADD ADD MSTORE DUP7 MLOAD PUSH1 0x0 SWAP1 DUP9 SWAP1 DUP8 SWAP1 DUP2 LT PUSH2 0x546A JUMPI INVALID JUMPDEST SWAP1 PUSH1 0x20 ADD SWAP1 PUSH1 0x20 MUL ADD MLOAD DUP4 DUP2 MLOAD DUP2 LT ISZERO ISZERO PUSH2 0x5481 JUMPI INVALID JUMPDEST SWAP1 PUSH1 0x20 ADD SWAP1 PUSH1 0x20 MUL ADD MLOAD SWAP1 POP PUSH1 0x0 DUP7 PUSH1 0x1 SWAP1 PUSH1 0x2 EXP MUL DUP4 PUSH1 0x1 ADD SLOAD AND GT ISZERO PUSH2 0x5548 JUMPI PUSH1 0x0 DUP3 PUSH1 0x3 ADD SLOAD PUSH1 0x0 EQ PUSH2 0x54CB JUMPI PUSH1 0x1 DUP4 ADD SLOAD PUSH1 0x4 DUP5 ADD SLOAD PUSH1 0x0 SWAP2 AND PUSH1 0x2 DUP10 SWAP1 EXP AND GT PUSH2 0x54CE JUMP JUMPDEST DUP5 ISZERO JUMPDEST SWAP1 POP DUP5 ISZERO ISZERO DUP2 ISZERO ISZERO EQ ISZERO PUSH2 0x5510 JUMPI DUP6 MLOAD PUSH2 0x54EF SWAP1 PUSH1 0x1 PUSH4 0xFFFFFFFF PUSH2 0x448B AND JUMP JUMPDEST DUP7 MSTORE PUSH1 0x40 DUP7 ADD MLOAD PUSH2 0x5506 SWAP1 DUP4 PUSH4 0xFFFFFFFF PUSH2 0x448B AND JUMP JUMPDEST PUSH1 0x40 DUP8 ADD MSTORE PUSH2 0x5546 JUMP JUMPDEST PUSH1 0x20 DUP7 ADD MLOAD PUSH2 0x5526 SWAP1 PUSH1 0x1 PUSH4 0xFFFFFFFF PUSH2 0x448B AND JUMP JUMPDEST PUSH1 0x20 DUP8 ADD MSTORE PUSH1 0x60 DUP7 ADD MLOAD PUSH2 0x5540 SWAP1 DUP4 PUSH4 0xFFFFFFFF PUSH2 0x448B AND JUMP JUMPDEST PUSH1 0x60 DUP8 ADD MSTORE JUMPDEST POP JUMPDEST POP POP PUSH1 0x1 ADD PUSH2 0x538C JUMP JUMPDEST POP DUP2 MLOAD ISZERO DUP1 ISZERO PUSH2 0x5564 JUMPI POP PUSH1 0x20 DUP3 ADD MLOAD ISZERO JUMPDEST ISZERO PUSH2 0x5580 JUMPI PUSH2 0x5579 DUP5 DUP9 PUSH4 0xFFFFFFFF PUSH2 0x448B AND JUMP JUMPDEST SWAP7 POP PUSH2 0x56CD JUMP JUMPDEST PUSH1 0x0 JUMPDEST DUP12 SLOAD DUP2 LT ISZERO PUSH2 0x56CB JUMPI DUP12 SLOAD PUSH1 0x0 SWAP1 DUP2 SWAP1 DUP15 SWAP1 DUP5 SWAP1 DUP2 LT PUSH2 0x559F JUMPI INVALID JUMPDEST SWAP1 PUSH1 0x0 MSTORE PUSH1 0x20 PUSH1 0x0 KECCAK256 SWAP1 PUSH1 0x6 MUL ADD SWAP1 POP PUSH1 0x0 DUP7 PUSH1 0x1 SWAP1 PUSH1 0x2 EXP MUL DUP3 PUSH1 0x1 ADD SLOAD AND GT ISZERO PUSH2 0x5697 JUMPI PUSH1 0x0 DUP2 PUSH1 0x3 ADD SLOAD PUSH1 0x0 EQ PUSH2 0x55EB JUMPI PUSH1 0x1 DUP3 ADD SLOAD PUSH1 0x4 DUP4 ADD SLOAD AND PUSH1 0x2 DUP9 SWAP1 EXP AND ISZERO ISZERO PUSH2 0x55EE JUMP JUMPDEST DUP5 ISZERO JUMPDEST SWAP1 POP DUP5 ISZERO ISZERO DUP2 ISZERO ISZERO EQ ISZERO PUSH2 0x5695 JUMPI PUSH1 0x0 DUP10 DUP9 DUP2 MLOAD DUP2 LT ISZERO ISZERO PUSH2 0x560C JUMPI INVALID JUMPDEST SWAP1 PUSH1 0x20 ADD SWAP1 PUSH1 0x20 MUL ADD MLOAD DUP6 DUP2 MLOAD DUP2 LT ISZERO ISZERO PUSH2 0x5623 JUMPI INVALID JUMPDEST PUSH1 0x20 SWAP1 DUP2 MUL SWAP1 SWAP2 ADD ADD MLOAD SWAP1 POP PUSH2 0x563F DUP5 DUP3 PUSH4 0xFFFFFFFF PUSH2 0x448B AND JUMP JUMPDEST SWAP4 POP PUSH2 0x5670 DUP5 PUSH2 0x1CAA DUP10 PUSH1 0x40 ADD MLOAD PUSH2 0x5664 DUP12 PUSH1 0x60 ADD MLOAD DUP7 PUSH2 0x4505 SWAP1 SWAP2 SWAP1 PUSH4 0xFFFFFFFF AND JUMP JUMPDEST SWAP1 PUSH4 0xFFFFFFFF PUSH2 0x4EA3 AND JUMP JUMPDEST SWAP4 POP PUSH2 0x5691 DUP5 PUSH2 0x1CAA DUP10 PUSH1 0x40 ADD MLOAD PUSH2 0x5664 DUP14 DUP7 PUSH2 0x4505 SWAP1 SWAP2 SWAP1 PUSH4 0xFFFFFFFF AND JUMP JUMPDEST SWAP4 POP POP JUMPDEST POP JUMPDEST PUSH2 0x56A9 DUP3 DUP11 DUP6 DUP2 MLOAD DUP2 LT ISZERO ISZERO PUSH2 0x51EF JUMPI INVALID JUMPDEST DUP10 DUP5 DUP2 MLOAD DUP2 LT ISZERO ISZERO PUSH2 0x56B7 JUMPI INVALID JUMPDEST PUSH1 0x20 SWAP1 DUP2 MUL SWAP1 SWAP2 ADD ADD MSTORE POP POP PUSH1 0x1 ADD PUSH2 0x5583 JUMP JUMPDEST POP JUMPDEST POP POP PUSH1 0x1 ADD PUSH2 0x52D4 JUMP JUMPDEST POP JUMPDEST POP POP SWAP6 POP SWAP6 SWAP4 POP POP POP POP JUMP JUMPDEST PUSH1 0x0 PUSH1 0x2 DUP3 SWAP1 EXP DUP5 AND DUP2 LT ISZERO PUSH2 0x449D JUMPI PUSH1 0x0 PUSH2 0x570C PUSH2 0x100 DUP5 SWAP1 SUB PUSH1 0x2 EXP DUP1 DUP8 MUL DIV PUSH2 0x4F15 JUMP JUMPDEST SWAP1 POP DUP4 DUP2 DUP2 MLOAD DUP2 LT ISZERO ISZERO PUSH2 0x571C JUMPI INVALID JUMPDEST SWAP1 PUSH1 0x20 ADD SWAP1 PUSH1 0x20 MUL ADD MLOAD SWAP2 POP POP SWAP4 SWAP3 POP POP POP JUMP JUMPDEST PUSH1 0x40 DUP1 MLOAD PUSH1 0x60 DUP2 ADD DUP3 MSTORE PUSH1 0x0 DUP1 DUP3 MSTORE PUSH1 0x20 DUP3 ADD DUP2 SWAP1 MSTORE SWAP2 DUP2 ADD SWAP2 SWAP1 SWAP2 MSTORE SWAP1 JUMP JUMPDEST PUSH1 0x40 DUP1 MLOAD PUSH2 0x180 DUP2 ADD SWAP1 SWAP2 MSTORE PUSH1 0x0 DUP1 DUP3 MSTORE PUSH1 0x20 DUP3 ADD SWAP1 DUP2 MSTORE PUSH1 0x20 ADD PUSH1 0x0 PUSH1 0x1 PUSH1 0xA0 PUSH1 0x2 EXP SUB AND DUP2 MSTORE PUSH1 0x20 ADD PUSH1 0x0 DUP2 MSTORE PUSH1 0x20 ADD PUSH1 0x60 DUP2 MSTORE PUSH1 0x20 ADD PUSH1 0x0 DUP2 MSTORE PUSH1 0x20 ADD PUSH1 0x0 DUP2 MSTORE PUSH1 0x20 ADD PUSH1 0x0 PUSH1 0x1 PUSH1 0xA0 PUSH1 0x2 EXP SUB AND DUP2 MSTORE PUSH1 0x20 ADD PUSH1 0x0 ISZERO ISZERO DUP2 MSTORE PUSH1 0x20 ADD PUSH1 0x0 DUP2 MSTORE PUSH1 0x20 ADD PUSH1 0x0 DUP2 MSTORE PUSH1 0x20 ADD PUSH1 0x60 DUP2 MSTORE POP SWAP1 JUMP JUMPDEST PUSH1 0x40 DUP1 MLOAD DUP1 DUP3 ADD SWAP1 SWAP2 MSTORE PUSH1 0x0 DUP1 DUP3 MSTORE PUSH1 0x20 DUP3 ADD MSTORE SWAP1 JUMP JUMPDEST DUP3 DUP1 SLOAD PUSH1 0x1 DUP2 PUSH1 0x1 AND ISZERO PUSH2 0x100 MUL SUB AND PUSH1 0x2 SWAP1 DIV SWAP1 PUSH1 0x0 MSTORE PUSH1 0x20 PUSH1 0x0 KECCAK256 SWAP1 PUSH1 0x1F ADD PUSH1 0x20 SWAP1 DIV DUP2 ADD SWAP3 DUP3 PUSH1 0x1F LT PUSH2 0x581E JUMPI DUP3 DUP1 ADD PUSH1 0xFF NOT DUP3 CALLDATALOAD AND OR DUP6 SSTORE PUSH2 0x584B JUMP JUMPDEST DUP3 DUP1 ADD PUSH1 0x1 ADD DUP6 SSTORE DUP3 ISZERO PUSH2 0x584B JUMPI SWAP2 DUP3 ADD JUMPDEST DUP3 DUP2 GT ISZERO PUSH2 0x584B JUMPI DUP3 CALLDATALOAD DUP3 SSTORE SWAP2 PUSH1 0x20 ADD SWAP2 SWAP1 PUSH1 0x1 ADD SWAP1 PUSH2 0x5830 JUMP JUMPDEST POP PUSH2 0x5857 SWAP3 SWAP2 POP PUSH2 0x59B9 JUMP JUMPDEST POP SWAP1 JUMP JUMPDEST DUP3 PUSH1 0x8 DUP2 ADD SWAP3 DUP3 ISZERO PUSH2 0x584B JUMPI SWAP2 PUSH1 0x20 MUL DUP3 ADD DUP3 DUP2 GT ISZERO PUSH2 0x584B JUMPI DUP3 CALLDATALOAD DUP3 SSTORE SWAP2 PUSH1 0x20 ADD SWAP2 SWAP1 PUSH1 0x1 ADD SWAP1 PUSH2 0x5830 JUMP JUMPDEST PUSH1 0xC0 PUSH1 0x40 MLOAD SWAP1 DUP2 ADD PUSH1 0x40 MSTORE DUP1 PUSH1 0x0 PUSH1 0x1 PUSH1 0xA0 PUSH1 0x2 EXP SUB AND DUP2 MSTORE PUSH1 0x20 ADD PUSH1 0x0 DUP2 MSTORE PUSH1 0x20 ADD PUSH1 0x0 DUP2 MSTORE PUSH1 0x20 ADD PUSH1 0x0 DUP2 MSTORE PUSH1 0x20 ADD PUSH1 0x0 DUP2 MSTORE PUSH1 0x20 ADD PUSH1 0x60 DUP2 MSTORE POP SWAP1 JUMP JUMPDEST DUP3 DUP1 SLOAD PUSH1 0x1 DUP2 PUSH1 0x1 AND ISZERO PUSH2 0x100 MUL SUB AND PUSH1 0x2 SWAP1 DIV SWAP1 PUSH1 0x0 MSTORE PUSH1 0x20 PUSH1 0x0 KECCAK256 SWAP1 PUSH1 0x1F ADD PUSH1 0x20 SWAP1 DIV DUP2 ADD SWAP3 DUP3 PUSH1 0x1F LT PUSH2 0x5909 JUMPI DUP1 MLOAD PUSH1 0xFF NOT AND DUP4 DUP1 ADD OR DUP6 SSTORE PUSH2 0x584B JUMP JUMPDEST DUP3 DUP1 ADD PUSH1 0x1 ADD DUP6 SSTORE DUP3 ISZERO PUSH2 0x584B JUMPI SWAP2 DUP3 ADD JUMPDEST DUP3 DUP2 GT ISZERO PUSH2 0x584B JUMPI DUP3 MLOAD DUP3 SSTORE SWAP2 PUSH1 0x20 ADD SWAP2 SWAP1 PUSH1 0x1 ADD SWAP1 PUSH2 0x591B JUMP JUMPDEST DUP3 DUP1 SLOAD DUP3 DUP3 SSTORE SWAP1 PUSH1 0x0 MSTORE PUSH1 0x20 PUSH1 0x0 KECCAK256 SWAP1 DUP2 ADD SWAP3 DUP3 ISZERO PUSH2 0x584B JUMPI SWAP2 PUSH1 0x20 MUL DUP3 ADD DUP3 DUP2 GT ISZERO PUSH2 0x584B JUMPI DUP3 CALLDATALOAD DUP3 SSTORE SWAP2 PUSH1 0x20 ADD SWAP2 SWAP1 PUSH1 0x1 ADD SWAP1 PUSH2 0x5830 JUMP JUMPDEST PUSH2 0x200 PUSH1 0x40 MLOAD SWAP1 DUP2 ADD PUSH1 0x40 MSTORE DUP1 PUSH1 0x10 SWAP1 PUSH1 0x20 DUP3 MUL DUP1 CODESIZE DUP4 CODECOPY POP SWAP2 SWAP3 SWAP2 POP POP JUMP JUMPDEST PUSH1 0x80 PUSH1 0x40 MLOAD SWAP1 DUP2 ADD PUSH1 0x40 MSTORE DUP1 PUSH1 0x0 DUP2 MSTORE PUSH1 0x20 ADD PUSH1 0x0 DUP2 MSTORE PUSH1 0x20 ADD PUSH1 0x0 DUP2 MSTORE PUSH1 0x20 ADD PUSH1 0x0 DUP2 MSTORE POP SWAP1 JUMP JUMPDEST PUSH2 0x1F60 SWAP2 SWAP1 JUMPDEST DUP1 DUP3 GT ISZERO PUSH2 0x5857 JUMPI PUSH1 0x0 DUP2 SSTORE PUSH1 0x1 ADD PUSH2 0x59BF JUMP INVALID COINBASE PUSH14 0x6F756E742062656C6F77206D696E PUSH10 0x6D756D20666F72206E75 PUSH14 0x626572206F662061727469666163 PUSH21 0x73426F756E7479206E6F7420696E697469616C697A PUSH6 0x640000000000 STOP STOP STOP STOP STOP LOG1 PUSH6 0x627A7A723058 KECCAK256 0xf JUMP PUSH4 0x685EB5E1 0x4a 0xd9 0xdb 0xf LT 0x23 0xfb LOG0 PUSH30 0x417A42A84C4B18C694563A5DC0DF73470029000000000000000000000000 "
    }
  }
}