{
  "abi": [
    {
      "constant": false,
      "inputs": [],
      "name": "unanchor",
      "outputs": [],
      "payable": false,
      "stateMutability": "nonpayable",
      "type": "function"
    },
    {
      "constant": false,
      "inputs": [
        {
          "name": "account",
          "type": "address"
        }
      ],
      "name": "_addVerifier",
      "outputs": [],
      "payable": false,
      "stateMutability": "nonpayable",
      "type": "function"
    },
    {
      "constant": true,
      "inputs": [
        {
          "name": "account",
          "type": "address"
        }
      ],
      "name": "isVerifier",
      "outputs": [
        {
          "name": "",
          "type": "bool"
        }
      ],
      "payable": false,
      "stateMutability": "view",
      "type": "function"
    },
    {
      "constant": false,
      "inputs": [
        {
          "name": "account",
          "type": "address"
        }
      ],
      "name": "_removeVerifier",
      "outputs": [],
      "payable": false,
      "stateMutability": "nonpayable",
      "type": "function"
    },
    {
      "constant": true,
      "inputs": [
        {
          "name": "",
          "type": "uint256"
        }
      ],
      "name": "anchors",
      "outputs": [
        {
          "name": "blockHash",
          "type": "bytes32"
        },
        {
          "name": "blockNumber",
          "type": "uint256"
        },
        {
          "name": "processed",
          "type": "bool"
        }
      ],
      "payable": false,
      "stateMutability": "view",
      "type": "function"
    },
    {
      "constant": false,
      "inputs": [
        {
          "name": "newFeeManager",
          "type": "address"
        }
      ],
      "name": "setFeeManager",
      "outputs": [],
      "payable": false,
      "stateMutability": "nonpayable",
      "type": "function"
    },
    {
      "constant": true,
      "inputs": [
        {
          "name": "",
          "type": "bytes32"
        },
        {
          "name": "",
          "type": "uint256"
        }
      ],
      "name": "withdrawalApprovals",
      "outputs": [
        {
          "name": "",
          "type": "address"
        }
      ],
      "payable": false,
      "stateMutability": "view",
      "type": "function"
    },
    {
      "constant": true,
      "inputs": [],
      "name": "requiredVerifiers",
      "outputs": [
        {
          "name": "",
          "type": "uint256"
        }
      ],
      "payable": false,
      "stateMutability": "view",
      "type": "function"
    },
    {
      "constant": false,
      "inputs": [
        {
          "name": "_nctEthExchangeRate",
          "type": "uint256"
        }
      ],
      "name": "setNctEthExchangeRate",
      "outputs": [],
      "payable": false,
      "stateMutability": "nonpayable",
      "type": "function"
    },
    {
      "constant": false,
      "inputs": [],
      "name": "flush",
      "outputs": [],
      "payable": false,
      "stateMutability": "nonpayable",
      "type": "function"
    },
    {
      "constant": false,
      "inputs": [],
      "name": "renounceOwnership",
      "outputs": [],
      "payable": false,
      "stateMutability": "nonpayable",
      "type": "function"
    },
    {
      "constant": false,
      "inputs": [
        {
          "name": "destination",
          "type": "address"
        },
        {
          "name": "amount",
          "type": "uint256"
        },
        {
          "name": "txHash",
          "type": "bytes32"
        },
        {
          "name": "blockHash",
          "type": "bytes32"
        },
        {
          "name": "blockNumber",
          "type": "uint256"
        }
      ],
      "name": "approveWithdrawal",
      "outputs": [],
      "payable": false,
      "stateMutability": "nonpayable",
      "type": "function"
    },
    {
      "constant": true,
      "inputs": [],
      "name": "owner",
      "outputs": [
        {
          "name": "",
          "type": "address"
        }
      ],
      "payable": false,
      "stateMutability": "view",
      "type": "function"
    },
    {
      "constant": true,
      "inputs": [],
      "name": "isOwner",
      "outputs": [
        {
          "name": "",
          "type": "bool"
        }
      ],
      "payable": false,
      "stateMutability": "view",
      "type": "function"
    },
    {
      "constant": false,
      "inputs": [
        {
          "name": "blockHash",
          "type": "bytes32"
        },
        {
          "name": "blockNumber",
          "type": "uint256"
        }
      ],
      "name": "anchor",
      "outputs": [],
      "payable": false,
      "stateMutability": "nonpayable",
      "type": "function"
    },
    {
      "constant": false,
      "inputs": [
        {
          "name": "account",
          "type": "address"
        }
      ],
      "name": "addVerifier",
      "outputs": [],
      "payable": false,
      "stateMutability": "nonpayable",
      "type": "function"
    },
    {
      "constant": false,
      "inputs": [
        {
          "name": "txHash",
          "type": "bytes32"
        },
        {
          "name": "blockHash",
          "type": "bytes32"
        },
        {
          "name": "blockNumber",
          "type": "uint256"
        }
      ],
      "name": "unapproveWithdrawal",
      "outputs": [],
      "payable": false,
      "stateMutability": "nonpayable",
      "type": "function"
    },
    {
      "constant": true,
      "inputs": [],
      "name": "fees",
      "outputs": [
        {
          "name": "",
          "type": "uint256"
        }
      ],
      "payable": false,
      "stateMutability": "view",
      "type": "function"
    },
    {
      "constant": true,
      "inputs": [],
      "name": "nctEthExchangeRate",
      "outputs": [
        {
          "name": "",
          "type": "uint256"
        }
      ],
      "payable": false,
      "stateMutability": "view",
      "type": "function"
    },
    {
      "constant": false,
      "inputs": [
        {
          "name": "newVerifierManager",
          "type": "address"
        }
      ],
      "name": "setVerifierManager",
      "outputs": [],
      "payable": false,
      "stateMutability": "nonpayable",
      "type": "function"
    },
    {
      "constant": false,
      "inputs": [
        {
          "name": "account",
          "type": "address"
        }
      ],
      "name": "removeVerifier",
      "outputs": [],
      "payable": false,
      "stateMutability": "nonpayable",
      "type": "function"
    },
    {
      "constant": true,
      "inputs": [
        {
          "name": "",
          "type": "bytes32"
        },
        {
          "name": "",
          "type": "uint256"
        }
      ],
      "name": "anchorApprovals",
      "outputs": [
        {
          "name": "",
          "type": "address"
        }
      ],
      "payable": false,
      "stateMutability": "view",
      "type": "function"
    },
    {
      "constant": true,
      "inputs": [],
      "name": "flushBlock",
      "outputs": [
        {
          "name": "",
          "type": "uint256"
        }
      ],
      "payable": false,
      "stateMutability": "view",
      "type": "function"
    },
    {
      "constant": true,
      "inputs": [
        {
          "name": "",
          "type": "bytes32"
        }
      ],
      "name": "withdrawals",
      "outputs": [
        {
          "name": "destination",
          "type": "address"
        },
        {
          "name": "amount",
          "type": "uint256"
        },
        {
          "name": "processed",
          "type": "bool"
        }
      ],
      "payable": false,
      "stateMutability": "view",
      "type": "function"
    },
    {
      "constant": true,
      "inputs": [],
      "name": "feeWallet",
      "outputs": [
        {
          "name": "",
          "type": "address"
        }
      ],
      "payable": false,
      "stateMutability": "view",
      "type": "function"
    },
    {
      "constant": false,
      "inputs": [
        {
          "name": "newOwner",
          "type": "address"
        }
      ],
      "name": "transferOwnership",
      "outputs": [],
      "payable": false,
      "stateMutability": "nonpayable",
      "type": "function"
    },
    {
      "constant": true,
      "inputs": [],
      "name": "verifierCount",
      "outputs": [
        {
          "name": "",
          "type": "uint256"
        }
      ],
      "payable": false,
      "stateMutability": "view",
      "type": "function"
    },
    {
      "constant": true,
      "inputs": [],
      "name": "VERSION",
      "outputs": [
        {
          "name": "",
          "type": "string"
        }
      ],
      "payable": false,
      "stateMutability": "view",
      "type": "function"
    },
    {
      "inputs": [
        {
          "name": "_token",
          "type": "address"
        },
        {
          "name": "_nctEthExchangeRate",
          "type": "uint256"
        },
        {
          "name": "_feeWallet",
          "type": "address"
        },
        {
          "name": "_verifiers",
          "type": "address[]"
        }
      ],
      "payable": false,
      "stateMutability": "nonpayable",
      "type": "constructor"
    },
    {
      "payable": true,
      "stateMutability": "payable",
      "type": "fallback"
    },
    {
      "anonymous": false,
      "inputs": [
        {
          "indexed": true,
          "name": "blockHash",
          "type": "bytes32"
        },
        {
          "indexed": true,
          "name": "blockNumber",
          "type": "uint256"
        }
      ],
      "name": "AnchoredBlock",
      "type": "event"
    },
    {
      "anonymous": false,
      "inputs": [
        {
          "indexed": true,
          "name": "blockHash",
          "type": "bytes32"
        },
        {
          "indexed": true,
          "name": "blockNumber",
          "type": "uint256"
        }
      ],
      "name": "ContestedBlock",
      "type": "event"
    },
    {
      "anonymous": false,
      "inputs": [],
      "name": "Flush",
      "type": "event"
    },
    {
      "anonymous": false,
      "inputs": [
        {
          "indexed": false,
          "name": "newFees",
          "type": "uint256"
        }
      ],
      "name": "FeesChanged",
      "type": "event"
    },
    {
      "anonymous": false,
      "inputs": [
        {
          "indexed": true,
          "name": "destination",
          "type": "address"
        },
        {
          "indexed": false,
          "name": "amount",
          "type": "uint256"
        },
        {
          "indexed": false,
          "name": "txHash",
          "type": "bytes32"
        },
        {
          "indexed": false,
          "name": "blockHash",
          "type": "bytes32"
        },
        {
          "indexed": false,
          "name": "blockNumber",
          "type": "uint256"
        }
      ],
      "name": "WithdrawalProcessed",
      "type": "event"
    },
    {
      "anonymous": false,
      "inputs": [
        {
          "indexed": true,
          "name": "previousOwner",
          "type": "address"
        },
        {
          "indexed": true,
          "name": "newOwner",
          "type": "address"
        }
      ],
      "name": "OwnershipTransferred",
      "type": "event"
    },
    {
      "anonymous": false,
      "inputs": [
        {
          "indexed": true,
          "name": "account",
          "type": "address"
        }
      ],
      "name": "AddedVerifier",
      "type": "event"
    },
    {
      "anonymous": false,
      "inputs": [
        {
          "indexed": true,
          "name": "account",
          "type": "address"
        }
      ],
      "name": "RemovedVerifier",
      "type": "event"
    },
    {
      "anonymous": false,
      "inputs": [
        {
          "indexed": true,
          "name": "previousManager",
          "type": "address"
        },
        {
          "indexed": true,
          "name": "newManager",
          "type": "address"
        }
      ],
      "name": "NewVerifierManager",
      "type": "event"
    },
    {
      "anonymous": false,
      "inputs": [
        {
          "indexed": true,
          "name": "previousManager",
          "type": "address"
        },
        {
          "indexed": true,
          "name": "newManager",
          "type": "address"
        }
      ],
      "name": "NewFeeManager",
      "type": "event"
    }
  ],
  "contractName": "ERC20Relay",
  "evm": {
    "bytecode": {
      "linkReferences": {},
      "object": "60806040523480156200001157600080fd5b506040516200221238038062002212833981018060405260808110156200003757600080fd5b81516020830151604084015160608501805193959294919391830192916401000000008111156200006757600080fd5b820160208101848111156200007b57600080fd5b81518560208202830111640100000000821117156200009957600080fd5b50506000805433600160a060020a03199182168117909255600180549091169091179055805190935083925060031115905062000122576040517f08c379a0000000000000000000000000000000000000000000000000000000008152600401808060200182810382526025815260200180620021ed6025913960400191505060405180910390fd5b8051600481905562000161906003906200014c90600264010000000062001c13620002c982021704565b9064010000000062001c3e6200030182021704565b60025560005b8151811015620001ae57620001a582828151811015156200018457fe5b60209081029091010151600390640100000000620019746200032782021704565b60010162000167565b505060058054600160a060020a031916331790819055604051600160a060020a0391909116906000907f8be0079c531659141344cd1fd0a4f28419497f9722a3daafe3b4186f6b6457e0908290a3600160a060020a03841615156200027457604080517f08c379a000000000000000000000000000000000000000000000000000000000815260206004820152601560248201527f496e76616c696420746f6b656e20616464726573730000000000000000000000604482015290519081900360640190fd5b60068390556200028c64010000000062000382810204565b60075550600e8054600160a060020a03948516600160a060020a031991821617909155600880549290941691161790915550600060095562000459565b6000821515620002dc57506000620002fb565b828202828482811515620002ec57fe5b0414620002f857600080fd5b90505b92915050565b60008082116200031057600080fd5b600082848115156200031e57fe5b04949350505050565b600160a060020a03811615156200033d57600080fd5b6200035282826401000000006200040e810204565b156200035d57600080fd5b600160a060020a0316600090815260209190915260409020805460ff19166001179055565b600080620003c962011ef2620003b460045461d41d620002c96401000000000262001c13179091906401000000009004565b90640100000000620019c26200044682021704565b6006549091506200040890620003f3836404a817c80064010000000062001c13620002c982021704565b9064010000000062001c13620002c982021704565b91505090565b6000600160a060020a03821615156200042657600080fd5b50600160a060020a03166000908152602091909152604090205460ff1690565b600082820183811015620002f857600080fd5b611d8480620004696000396000f3fe6080604052600436106101d4576000357c0100000000000000000000000000000000000000000000000000000000900480638f5bae2e11610109578063cadef232116100a7578063f25f4b5611610081578063f25f4b561461064d578063f2fde38b14610662578063fb4adf5214610695578063ffa1ad74146106aa576101d4565b8063cadef232146105b4578063cd772459146105e4578063efbf64a7146105f9576101d4565b80639af1d35a116100e35780639af1d35a146105245780639f371bf314610539578063bc9e080e1461054e578063ca2dfd0a14610581576101d4565b80638f5bae2e1461048b5780639000b3d6146104bb5780639a02d3ac146104ee576101d4565b8063531d4c6c11610176578063715018a611610150578063715018a614610401578063783a2cca146104165780638da5cb5b146104615780638f32d59b14610476576101d4565b8063531d4c6c1461039b57806363cb344e146103c25780636b9f96ea146103ec576101d4565b806333127ad1116101b257806333127ad11461029f578063368b733e146102d2578063472d35b91461031c578063485b77801461034f576101d4565b806309bf284c1461020e5780630dc63ad6146102255780633310521814610258575b60405160e560020a62461bcd028152600401808060200182810382526029815260200180611d306029913960400191505060405180910390fd5b34801561021a57600080fd5b50610223610734565b005b34801561023157600080fd5b506102236004803603602081101561024857600080fd5b5035600160a060020a0316610923565b34801561026457600080fd5b5061028b6004803603602081101561027b57600080fd5b5035600160a060020a03166109a4565b604080519115158252519081900360200190f35b3480156102ab57600080fd5b50610223600480360360208110156102c257600080fd5b5035600160a060020a03166109bd565b3480156102de57600080fd5b506102fc600480360360208110156102f557600080fd5b5035610a95565b604080519384526020840192909252151582820152519081900360600190f35b34801561032857600080fd5b506102236004803603602081101561033f57600080fd5b5035600160a060020a0316610ac9565b34801561035b57600080fd5b5061037f6004803603604081101561037257600080fd5b5080359060200135610b31565b60408051600160a060020a039092168252519081900360200190f35b3480156103a757600080fd5b506103b0610b68565b60408051918252519081900360200190f35b3480156103ce57600080fd5b50610223600480360360208110156103e557600080fd5b5035610b6e565b3480156103f857600080fd5b50610223610bcc565b34801561040d57600080fd5b50610223610c66565b34801561042257600080fd5b50610223600480360360a081101561043957600080fd5b50600160a060020a038135169060208101359060408101359060608101359060800135610cc3565b34801561046d57600080fd5b5061037f611161565b34801561048257600080fd5b5061028b611171565b34801561049757600080fd5b50610223600480360360408110156104ae57600080fd5b5080359060200135611182565b3480156104c757600080fd5b50610223600480360360208110156104de57600080fd5b5035600160a060020a03166115ae565b3480156104fa57600080fd5b506102236004803603606081101561051157600080fd5b50803590602081013590604001356115dc565b34801561053057600080fd5b506103b061180e565b34801561054557600080fd5b506103b0611814565b34801561055a57600080fd5b506102236004803603602081101561057157600080fd5b5035600160a060020a031661181a565b34801561058d57600080fd5b50610223600480360360208110156105a457600080fd5b5035600160a060020a0316611885565b3480156105c057600080fd5b5061037f600480360360408110156105d757600080fd5b50803590602001356118a5565b3480156105f057600080fd5b506103b06118c0565b34801561060557600080fd5b506106236004803603602081101561061c57600080fd5b50356118c6565b60408051600160a060020a0390941684526020840192909252151582820152519081900360600190f35b34801561065957600080fd5b5061037f6118f4565b34801561066e57600080fd5b506102236004803603602081101561068557600080fd5b5035600160a060020a0316611903565b3480156106a157600080fd5b506103b0611922565b3480156106b657600080fd5b506106bf611928565b6040805160208082528351818301528351919283929083019185019080838360005b838110156106f95781810151838201526020016106e1565b50505050905090810190601f1680156107265780820380516001836020036101000a031916815260200191505b509250505060405180910390f35b61073d336109a4565b151561074857600080fd5b600c80546000919061076190600163ffffffff61195f16565b8154811061076b57fe5b60009182526020909120600390910201600281015490915060ff16156107db576040805160e560020a62461bcd02815260206004820152601e60248201527f426c6f636b20616e63686f7220616c72656164792070726f6365737365640000604482015290519081900360640190fd5b805460018201546040805160208082019490945280820192909252805180830382018152606090920181528151918301919091206000818152600d909352908220805491929091905b8181101561091c578254339084908390811061083c57fe5b600091825260209091200154600160a060020a03161415610914578261086983600163ffffffff61195f16565b8154811061087357fe5b6000918252602090912001548354600160a060020a039091169084908390811061089957fe5b60009182526020909120018054600160a060020a031916600160a060020a0392909216919091179055826108ce83600161195f565b815481106108d857fe5b60009182526020909120018054600160a060020a0319169055825461090490600163ffffffff61195f16565b61090e8482611c62565b5061091c565b600101610824565b5050505050565b600154600160a060020a0316331461093a57600080fd5b61094b60038263ffffffff61197416565b60045461095f90600163ffffffff6119c216565b60045561096a6119db565b600255604051600160a060020a038216907f79346defec0557b2fd2876f982ae0d61324effb9180c3406fe3547cdecc2706c90600090a250565b60006109b760038363ffffffff611a0916565b92915050565b600154600160a060020a031633146109d457600080fd5b6004546003906109eb90600163ffffffff61195f16565b1015610a2b5760405160e560020a62461bcd02815260040180806020018281038252603d815260200180611cf3603d913960400191505060405180910390fd5b610a3c60038263ffffffff611a4016565b600454610a5090600163ffffffff61195f16565b600455610a5b6119db565b600255604051600160a060020a038216907f8372299fd647e0ae03cd621e70cc2a963ea2f073b7657fd23252c1878794b49e90600090a250565b600c805482908110610aa357fe5b600091825260209091206003909102018054600182015460029092015490925060ff1683565b600054600160a060020a03163314610ae057600080fd5b60008054600160a060020a03838116600160a060020a03198316178084556040519282169391169183917fb64dddc215b4d83b6100e7e425ba0d57f6e67562d748aa63865deb5c1578b5fe91a35050565b600b60205281600052604060002081815481101515610b4c57fe5b600091825260209091200154600160a060020a03169150829050565b60025481565b600054600160a060020a03163314610b8557600080fd5b6006819055610b92611a8c565b600781905560408051918252517f3dda580d2b9d92da338ef46ec718e7b1dd0a2c505e3df4aa8d40360192a0f8229181900360200190a150565b610bd4611171565b1515610bdf57600080fd5b60095415610c37576040805160e560020a62461bcd02815260206004820152601860248201527f436f6e747261637420616c726561647920666c75736865640000000000000000604482015290519081900360640190fd5b436009556040517f0c0adcef1ca5bbf843985f21efffb63e6817af6b8dd1f00e7344a8ad05ab2d5190600090a1565b610c6e611171565b1515610c7957600080fd5b600554604051600091600160a060020a0316907f8be0079c531659141344cd1fd0a4f28419497f9722a3daafe3b4186f6b6457e0908390a360058054600160a060020a0319169055565b610ccc336109a4565b1515610cd757600080fd5b600160a060020a0385161515610d37576040805160e560020a62461bcd02815260206004820152601b60248201527f496e76616c69642064657374696e6174696f6e20616464726573730000000000604482015290519081900360640190fd5b600854600160a060020a038681169116148015610d545750600084115b80610d60575060075484115b1515610da05760405160e560020a62461bcd02815260040180806020018281038252602f815260200180611cc4602f913960400191505060405180910390fd5b60095415610de25760405160e560020a62461bcd028152600401808060200182810382526024815260200180611ca06024913960400191505060405180910390fd5b60408051602080820186905281830185905260608083018590528351808403909101815260809092019092528051910120600854600090600160a060020a0388811691161415610e325785610e46565b600754610e4690879063ffffffff61195f16565b6000838152600a6020526040902054909150600160a060020a03161515610ece5760408051606081018252600160a060020a03898116825260208083018581526000848601818152888252600a9093529490942092518354600160a060020a03191692169190911782559151600182015590516002909101805460ff19169115159190911790555b6000828152600a60209081526040808320600b9092529091208154600160a060020a038a8116911614610f4b576040805160e560020a62461bcd02815260206004820152601460248201527f44657374696e6174696f6e206d69736d61746368000000000000000000000000604482015290519081900360640190fd5b60018201548314610fa6576040805160e560020a62461bcd02815260206004820152600f60248201527f416d6f756e74206d69736d617463680000000000000000000000000000000000604482015290519081900360640190fd5b60005b81548110156110355781543390839083908110610fc257fe5b600091825260209091200154600160a060020a0316141561102d576040805160e560020a62461bcd02815260206004820152601b60248201527f416c726561647920617070726f766564207769746864726177616c0000000000604482015290519081900360640190fd5b600101610fa9565b508054600181018255600082815260209020018054600160a060020a031916331790556002548154108015906110705750600282015460ff16155b1561115657600754158015906110905750600854600160a060020a031615155b80156110aa5750600854600160a060020a038a8116911614155b156110d657600854600754600e546110d692600160a060020a039182169291169063ffffffff611aea16565b600e546110f390600160a060020a03168a8563ffffffff611aea16565b60028201805460ff191660011790556040805184815260208101899052808201889052606081018790529051600160a060020a038b16917f795e632c8461fc35886225b3713f3022719e2b40847c5f3bd3fef5c54b4c0fb0919081900360800190a25b505050505050505050565b600554600160a060020a03165b90565b600554600160a060020a0316331490565b61118b336109a4565b151561119657600080fd5b600c5415806111d75750600c80548391906111b890600163ffffffff61195f16565b815481106111c257fe5b90600052602060002090600302016000015414155b806112145750600c80548291906111f590600163ffffffff61195f16565b815481106111ff57fe5b90600052602060002090600302016001015414155b1561137c57600c54600010801561125e5750600c805461123b90600163ffffffff61195f16565b8154811061124557fe5b600091825260209091206002600390920201015460ff16155b156112ce57600c80546000919061127c90600163ffffffff61195f16565b8154811061128657fe5b90600052602060002090600302019050806001015481600001547f440750fc70d2814ebe93fab90c552c6e989469a47f75541e3f3cd74274b681cd60405160405180910390a3505b60408051606081018252838152602081018381526000928201838152600c8054600181018255945291517fdf6966c971051c3d54ec59162606531493a51404a002842f56009d7e5cf4a8c7600390940293840155517fdf6966c971051c3d54ec59162606531493a51404a002842f56009d7e5cf4a8c8830155517fdf6966c971051c3d54ec59162606531493a51404a002842f56009d7e5cf4a8c9909101805460ff19169115159190911790555b60408051602080820185905281830184905282518083038401815260609092019092528051910120600c8054600091906113bd90600163ffffffff61195f16565b815481106113c757fe5b60009182526020808320858452600d9091526040909220600390910290910180549092508514611441576040805160e560020a62461bcd02815260206004820152601360248201527f426c6f636b2068617368206d69736d6174636800000000000000000000000000604482015290519081900360640190fd5b6001820154841461149c576040805160e560020a62461bcd02815260206004820152601560248201527f426c6f636b206e756d626572206d69736d617463680000000000000000000000604482015290519081900360640190fd5b60005b815481101561152b57815433908390839081106114b857fe5b600091825260209091200154600160a060020a03161415611523576040805160e560020a62461bcd02815260206004820152601d60248201527f416c726561647920617070726f76656420616e63686f7220626c6f636b000000604482015290519081900360640190fd5b60010161149f565b508054600181018255600082815260209020018054600160a060020a031916331790556002548154108015906115665750600282015460ff16155b1561091c5760028201805460ff19166001179055604051849086907f198104b631d8692edfa7bf87354778d7b71bacaafdc2034f592afad56d3b711990600090a35050505050565b600154600160a060020a031633146115c557600080fd5b6115ce81610923565b6115d6611a8c565b60075550565b6115e5336109a4565b15156115f057600080fd5b604080516020808201869052818301859052606080830185905283518084039091018152608090920183528151918101919091206000818152600a90925291902054600160a060020a03161515611691576040805160e560020a62461bcd02815260206004820152601260248201527f4e6f2073756368207769746864726177616c0000000000000000000000000000604482015290519081900360640190fd5b6000818152600a60209081526040808320600b909252909120600282015460ff1615611707576040805160e560020a62461bcd02815260206004820152601c60248201527f5769746864726177616c20616c72656164792070726f63657373656400000000604482015290519081900360640190fd5b805460005b81811015611804578254339084908390811061172457fe5b600091825260209091200154600160a060020a031614156117fc578261175183600163ffffffff61195f16565b8154811061175b57fe5b6000918252602090912001548354600160a060020a039091169084908390811061178157fe5b60009182526020909120018054600160a060020a031916600160a060020a0392909216919091179055826117b683600161195f565b815481106117c057fe5b60009182526020909120018054600160a060020a031916905582546117ec90600163ffffffff61195f16565b6117f68482611c62565b50611804565b60010161170c565b5050505050505050565b60075481565b60065481565b600154600160a060020a0316331461183157600080fd5b60018054600160a060020a03838116600160a060020a03198316179283905560405191811692169082907f97039b7abaf01675096881f9397deabe983bc7991ff9a271244e50b4758a271f90600090a35050565b600154600160a060020a0316331461189c57600080fd5b6115ce816109bd565b600d60205281600052604060002081815481101515610b4c57fe5b60095481565b600a60205260009081526040902080546001820154600290920154600160a060020a03909116919060ff1683565b600854600160a060020a031681565b61190b611171565b151561191657600080fd5b61191f81611ba2565b50565b60045481565b60408051808201909152600581527f312e322e30000000000000000000000000000000000000000000000000000000602082015281565b60008282111561196e57600080fd5b50900390565b600160a060020a038116151561198957600080fd5b6119938282611a09565b1561199d57600080fd5b600160a060020a0316600090815260209190915260409020805460ff19166001179055565b6000828201838110156119d457600080fd5b9392505050565b6000611a0460036119f86002600454611c1390919063ffffffff16565b9063ffffffff611c3e16565b905090565b6000600160a060020a0382161515611a2057600080fd5b50600160a060020a03166000908152602091909152604090205460ff1690565b600160a060020a0381161515611a5557600080fd5b611a5f8282611a09565b1515611a6a57600080fd5b600160a060020a0316600090815260209190915260409020805460ff19169055565b600080611ab962011ef2611aad60045461d41d611c1390919063ffffffff16565b9063ffffffff6119c216565b600654909150611ae490611ad8836404a817c80063ffffffff611c1316565b9063ffffffff611c1316565b91505090565b82600160a060020a031663a9059cbb83836040518363ffffffff167c01000000000000000000000000000000000000000000000000000000000281526004018083600160a060020a0316600160a060020a0316815260200182815260200192505050602060405180830381600087803b158015611b6657600080fd5b505af1158015611b7a573d6000803e3d6000fd5b505050506040513d6020811015611b9057600080fd5b50511515611b9d57600080fd5b505050565b600160a060020a0381161515611bb757600080fd5b600554604051600160a060020a038084169216907f8be0079c531659141344cd1fd0a4f28419497f9722a3daafe3b4186f6b6457e090600090a360058054600160a060020a031916600160a060020a0392909216919091179055565b6000821515611c24575060006109b7565b828202828482811515611c3357fe5b04146119d457600080fd5b6000808211611c4c57600080fd5b60008284811515611c5957fe5b04949350505050565b815481835581811115611b9d57600083815260209020611b9d91810190830161116e91905b80821115611c9b5760008155600101611c87565b509056fe436f6e747261637420697320666c75736865642c2063616e6e6f742077697468647261775769746864726177616c20616d6f756e74206973206c657373207468616e206f7220657175616c20746f206665657352656d6f76696e6720766572696669657220776f756c6420707574206e756d626572206f66207665726966696572732062656c6f77206d696e696d756d446f206e6f7420616c6c6f772073656e64696e672045746820746f207468697320636f6e7472616374a165627a7a7230582040af5ddda922c19a64f60706319bc4418d78fce05d15a9aef53b35f0efa33d4500294e756d626572206f6620766572696669657273206c657373207468616e206d696e696d756d",
      "opcodes": "PUSH1 0x80 PUSH1 0x40 MSTORE CALLVALUE DUP1 ISZERO PUSH3 0x11 JUMPI PUSH1 0x0 DUP1 REVERT JUMPDEST POP PUSH1 0x40 MLOAD PUSH3 0x2212 CODESIZE SUB DUP1 PUSH3 0x2212 DUP4 CODECOPY DUP2 ADD DUP1 PUSH1 0x40 MSTORE PUSH1 0x80 DUP2 LT ISZERO PUSH3 0x37 JUMPI PUSH1 0x0 DUP1 REVERT JUMPDEST DUP2 MLOAD PUSH1 0x20 DUP4 ADD MLOAD PUSH1 0x40 DUP5 ADD MLOAD PUSH1 0x60 DUP6 ADD DUP1 MLOAD SWAP4 SWAP6 SWAP3 SWAP5 SWAP2 SWAP4 SWAP2 DUP4 ADD SWAP3 SWAP2 PUSH5 0x100000000 DUP2 GT ISZERO PUSH3 0x67 JUMPI PUSH1 0x0 DUP1 REVERT JUMPDEST DUP3 ADD PUSH1 0x20 DUP2 ADD DUP5 DUP2 GT ISZERO PUSH3 0x7B JUMPI PUSH1 0x0 DUP1 REVERT JUMPDEST DUP2 MLOAD DUP6 PUSH1 0x20 DUP3 MUL DUP4 ADD GT PUSH5 0x100000000 DUP3 GT OR ISZERO PUSH3 0x99 JUMPI PUSH1 0x0 DUP1 REVERT JUMPDEST POP POP PUSH1 0x0 DUP1 SLOAD CALLER PUSH1 0x1 PUSH1 0xA0 PUSH1 0x2 EXP SUB NOT SWAP2 DUP3 AND DUP2 OR SWAP1 SWAP3 SSTORE PUSH1 0x1 DUP1 SLOAD SWAP1 SWAP2 AND SWAP1 SWAP2 OR SWAP1 SSTORE DUP1 MLOAD SWAP1 SWAP4 POP DUP4 SWAP3 POP PUSH1 0x3 GT ISZERO SWAP1 POP PUSH3 0x122 JUMPI PUSH1 0x40 MLOAD PUSH32 0x8C379A000000000000000000000000000000000000000000000000000000000 DUP2 MSTORE PUSH1 0x4 ADD DUP1 DUP1 PUSH1 0x20 ADD DUP3 DUP2 SUB DUP3 MSTORE PUSH1 0x25 DUP2 MSTORE PUSH1 0x20 ADD DUP1 PUSH3 0x21ED PUSH1 0x25 SWAP2 CODECOPY PUSH1 0x40 ADD SWAP2 POP POP PUSH1 0x40 MLOAD DUP1 SWAP2 SUB SWAP1 REVERT JUMPDEST DUP1 MLOAD PUSH1 0x4 DUP2 SWAP1 SSTORE PUSH3 0x161 SWAP1 PUSH1 0x3 SWAP1 PUSH3 0x14C SWAP1 PUSH1 0x2 PUSH5 0x100000000 PUSH3 0x1C13 PUSH3 0x2C9 DUP3 MUL OR DIV JUMP JUMPDEST SWAP1 PUSH5 0x100000000 PUSH3 0x1C3E PUSH3 0x301 DUP3 MUL OR DIV JUMP JUMPDEST PUSH1 0x2 SSTORE PUSH1 0x0 JUMPDEST DUP2 MLOAD DUP2 LT ISZERO PUSH3 0x1AE JUMPI PUSH3 0x1A5 DUP3 DUP3 DUP2 MLOAD DUP2 LT ISZERO ISZERO PUSH3 0x184 JUMPI INVALID JUMPDEST PUSH1 0x20 SWAP1 DUP2 MUL SWAP1 SWAP2 ADD ADD MLOAD PUSH1 0x3 SWAP1 PUSH5 0x100000000 PUSH3 0x1974 PUSH3 0x327 DUP3 MUL OR DIV JUMP JUMPDEST PUSH1 0x1 ADD PUSH3 0x167 JUMP JUMPDEST POP POP PUSH1 0x5 DUP1 SLOAD PUSH1 0x1 PUSH1 0xA0 PUSH1 0x2 EXP SUB NOT AND CALLER OR SWAP1 DUP2 SWAP1 SSTORE PUSH1 0x40 MLOAD PUSH1 0x1 PUSH1 0xA0 PUSH1 0x2 EXP SUB SWAP2 SWAP1 SWAP2 AND SWAP1 PUSH1 0x0 SWAP1 PUSH32 0x8BE0079C531659141344CD1FD0A4F28419497F9722A3DAAFE3B4186F6B6457E0 SWAP1 DUP3 SWAP1 LOG3 PUSH1 0x1 PUSH1 0xA0 PUSH1 0x2 EXP SUB DUP5 AND ISZERO ISZERO PUSH3 0x274 JUMPI PUSH1 0x40 DUP1 MLOAD PUSH32 0x8C379A000000000000000000000000000000000000000000000000000000000 DUP2 MSTORE PUSH1 0x20 PUSH1 0x4 DUP3 ADD MSTORE PUSH1 0x15 PUSH1 0x24 DUP3 ADD MSTORE PUSH32 0x496E76616C696420746F6B656E20616464726573730000000000000000000000 PUSH1 0x44 DUP3 ADD MSTORE SWAP1 MLOAD SWAP1 DUP2 SWAP1 SUB PUSH1 0x64 ADD SWAP1 REVERT JUMPDEST PUSH1 0x6 DUP4 SWAP1 SSTORE PUSH3 0x28C PUSH5 0x100000000 PUSH3 0x382 DUP2 MUL DIV JUMP JUMPDEST PUSH1 0x7 SSTORE POP PUSH1 0xE DUP1 SLOAD PUSH1 0x1 PUSH1 0xA0 PUSH1 0x2 EXP SUB SWAP5 DUP6 AND PUSH1 0x1 PUSH1 0xA0 PUSH1 0x2 EXP SUB NOT SWAP2 DUP3 AND OR SWAP1 SWAP2 SSTORE PUSH1 0x8 DUP1 SLOAD SWAP3 SWAP1 SWAP5 AND SWAP2 AND OR SWAP1 SWAP2 SSTORE POP PUSH1 0x0 PUSH1 0x9 SSTORE PUSH3 0x459 JUMP JUMPDEST PUSH1 0x0 DUP3 ISZERO ISZERO PUSH3 0x2DC JUMPI POP PUSH1 0x0 PUSH3 0x2FB JUMP JUMPDEST DUP3 DUP3 MUL DUP3 DUP5 DUP3 DUP2 ISZERO ISZERO PUSH3 0x2EC JUMPI INVALID JUMPDEST DIV EQ PUSH3 0x2F8 JUMPI PUSH1 0x0 DUP1 REVERT JUMPDEST SWAP1 POP JUMPDEST SWAP3 SWAP2 POP POP JUMP JUMPDEST PUSH1 0x0 DUP1 DUP3 GT PUSH3 0x310 JUMPI PUSH1 0x0 DUP1 REVERT JUMPDEST PUSH1 0x0 DUP3 DUP5 DUP2 ISZERO ISZERO PUSH3 0x31E JUMPI INVALID JUMPDEST DIV SWAP5 SWAP4 POP POP POP POP JUMP JUMPDEST PUSH1 0x1 PUSH1 0xA0 PUSH1 0x2 EXP SUB DUP2 AND ISZERO ISZERO PUSH3 0x33D JUMPI PUSH1 0x0 DUP1 REVERT JUMPDEST PUSH3 0x352 DUP3 DUP3 PUSH5 0x100000000 PUSH3 0x40E DUP2 MUL DIV JUMP JUMPDEST ISZERO PUSH3 0x35D JUMPI PUSH1 0x0 DUP1 REVERT JUMPDEST PUSH1 0x1 PUSH1 0xA0 PUSH1 0x2 EXP SUB AND PUSH1 0x0 SWAP1 DUP2 MSTORE PUSH1 0x20 SWAP2 SWAP1 SWAP2 MSTORE PUSH1 0x40 SWAP1 KECCAK256 DUP1 SLOAD PUSH1 0xFF NOT AND PUSH1 0x1 OR SWAP1 SSTORE JUMP JUMPDEST PUSH1 0x0 DUP1 PUSH3 0x3C9 PUSH3 0x11EF2 PUSH3 0x3B4 PUSH1 0x4 SLOAD PUSH2 0xD41D PUSH3 0x2C9 PUSH5 0x100000000 MUL PUSH3 0x1C13 OR SWAP1 SWAP2 SWAP1 PUSH5 0x100000000 SWAP1 DIV JUMP JUMPDEST SWAP1 PUSH5 0x100000000 PUSH3 0x19C2 PUSH3 0x446 DUP3 MUL OR DIV JUMP JUMPDEST PUSH1 0x6 SLOAD SWAP1 SWAP2 POP PUSH3 0x408 SWAP1 PUSH3 0x3F3 DUP4 PUSH5 0x4A817C800 PUSH5 0x100000000 PUSH3 0x1C13 PUSH3 0x2C9 DUP3 MUL OR DIV JUMP JUMPDEST SWAP1 PUSH5 0x100000000 PUSH3 0x1C13 PUSH3 0x2C9 DUP3 MUL OR DIV JUMP JUMPDEST SWAP2 POP POP SWAP1 JUMP JUMPDEST PUSH1 0x0 PUSH1 0x1 PUSH1 0xA0 PUSH1 0x2 EXP SUB DUP3 AND ISZERO ISZERO PUSH3 0x426 JUMPI PUSH1 0x0 DUP1 REVERT JUMPDEST POP PUSH1 0x1 PUSH1 0xA0 PUSH1 0x2 EXP SUB AND PUSH1 0x0 SWAP1 DUP2 MSTORE PUSH1 0x20 SWAP2 SWAP1 SWAP2 MSTORE PUSH1 0x40 SWAP1 KECCAK256 SLOAD PUSH1 0xFF AND SWAP1 JUMP JUMPDEST PUSH1 0x0 DUP3 DUP3 ADD DUP4 DUP2 LT ISZERO PUSH3 0x2F8 JUMPI PUSH1 0x0 DUP1 REVERT JUMPDEST PUSH2 0x1D84 DUP1 PUSH3 0x469 PUSH1 0x0 CODECOPY PUSH1 0x0 RETURN INVALID PUSH1 0x80 PUSH1 0x40 MSTORE PUSH1 0x4 CALLDATASIZE LT PUSH2 0x1D4 JUMPI PUSH1 0x0 CALLDATALOAD PUSH29 0x100000000000000000000000000000000000000000000000000000000 SWAP1 DIV DUP1 PUSH4 0x8F5BAE2E GT PUSH2 0x109 JUMPI DUP1 PUSH4 0xCADEF232 GT PUSH2 0xA7 JUMPI DUP1 PUSH4 0xF25F4B56 GT PUSH2 0x81 JUMPI DUP1 PUSH4 0xF25F4B56 EQ PUSH2 0x64D JUMPI DUP1 PUSH4 0xF2FDE38B EQ PUSH2 0x662 JUMPI DUP1 PUSH4 0xFB4ADF52 EQ PUSH2 0x695 JUMPI DUP1 PUSH4 0xFFA1AD74 EQ PUSH2 0x6AA JUMPI PUSH2 0x1D4 JUMP JUMPDEST DUP1 PUSH4 0xCADEF232 EQ PUSH2 0x5B4 JUMPI DUP1 PUSH4 0xCD772459 EQ PUSH2 0x5E4 JUMPI DUP1 PUSH4 0xEFBF64A7 EQ PUSH2 0x5F9 JUMPI PUSH2 0x1D4 JUMP JUMPDEST DUP1 PUSH4 0x9AF1D35A GT PUSH2 0xE3 JUMPI DUP1 PUSH4 0x9AF1D35A EQ PUSH2 0x524 JUMPI DUP1 PUSH4 0x9F371BF3 EQ PUSH2 0x539 JUMPI DUP1 PUSH4 0xBC9E080E EQ PUSH2 0x54E JUMPI DUP1 PUSH4 0xCA2DFD0A EQ PUSH2 0x581 JUMPI PUSH2 0x1D4 JUMP JUMPDEST DUP1 PUSH4 0x8F5BAE2E EQ PUSH2 0x48B JUMPI DUP1 PUSH4 0x9000B3D6 EQ PUSH2 0x4BB JUMPI DUP1 PUSH4 0x9A02D3AC EQ PUSH2 0x4EE JUMPI PUSH2 0x1D4 JUMP JUMPDEST DUP1 PUSH4 0x531D4C6C GT PUSH2 0x176 JUMPI DUP1 PUSH4 0x715018A6 GT PUSH2 0x150 JUMPI DUP1 PUSH4 0x715018A6 EQ PUSH2 0x401 JUMPI DUP1 PUSH4 0x783A2CCA EQ PUSH2 0x416 JUMPI DUP1 PUSH4 0x8DA5CB5B EQ PUSH2 0x461 JUMPI DUP1 PUSH4 0x8F32D59B EQ PUSH2 0x476 JUMPI PUSH2 0x1D4 JUMP JUMPDEST DUP1 PUSH4 0x531D4C6C EQ PUSH2 0x39B JUMPI DUP1 PUSH4 0x63CB344E EQ PUSH2 0x3C2 JUMPI DUP1 PUSH4 0x6B9F96EA EQ PUSH2 0x3EC JUMPI PUSH2 0x1D4 JUMP JUMPDEST DUP1 PUSH4 0x33127AD1 GT PUSH2 0x1B2 JUMPI DUP1 PUSH4 0x33127AD1 EQ PUSH2 0x29F JUMPI DUP1 PUSH4 0x368B733E EQ PUSH2 0x2D2 JUMPI DUP1 PUSH4 0x472D35B9 EQ PUSH2 0x31C JUMPI DUP1 PUSH4 0x485B7780 EQ PUSH2 0x34F JUMPI PUSH2 0x1D4 JUMP JUMPDEST DUP1 PUSH4 0x9BF284C EQ PUSH2 0x20E JUMPI DUP1 PUSH4 0xDC63AD6 EQ PUSH2 0x225 JUMPI DUP1 PUSH4 0x33105218 EQ PUSH2 0x258 JUMPI JUMPDEST PUSH1 0x40 MLOAD PUSH1 0xE5 PUSH1 0x2 EXP PUSH3 0x461BCD MUL DUP2 MSTORE PUSH1 0x4 ADD DUP1 DUP1 PUSH1 0x20 ADD DUP3 DUP2 SUB DUP3 MSTORE PUSH1 0x29 DUP2 MSTORE PUSH1 0x20 ADD DUP1 PUSH2 0x1D30 PUSH1 0x29 SWAP2 CODECOPY PUSH1 0x40 ADD SWAP2 POP POP PUSH1 0x40 MLOAD DUP1 SWAP2 SUB SWAP1 REVERT JUMPDEST CALLVALUE DUP1 ISZERO PUSH2 0x21A JUMPI PUSH1 0x0 DUP1 REVERT JUMPDEST POP PUSH2 0x223 PUSH2 0x734 JUMP JUMPDEST STOP JUMPDEST CALLVALUE DUP1 ISZERO PUSH2 0x231 JUMPI PUSH1 0x0 DUP1 REVERT JUMPDEST POP PUSH2 0x223 PUSH1 0x4 DUP1 CALLDATASIZE SUB PUSH1 0x20 DUP2 LT ISZERO PUSH2 0x248 JUMPI PUSH1 0x0 DUP1 REVERT JUMPDEST POP CALLDATALOAD PUSH1 0x1 PUSH1 0xA0 PUSH1 0x2 EXP SUB AND PUSH2 0x923 JUMP JUMPDEST CALLVALUE DUP1 ISZERO PUSH2 0x264 JUMPI PUSH1 0x0 DUP1 REVERT JUMPDEST POP PUSH2 0x28B PUSH1 0x4 DUP1 CALLDATASIZE SUB PUSH1 0x20 DUP2 LT ISZERO PUSH2 0x27B JUMPI PUSH1 0x0 DUP1 REVERT JUMPDEST POP CALLDATALOAD PUSH1 0x1 PUSH1 0xA0 PUSH1 0x2 EXP SUB AND PUSH2 0x9A4 JUMP JUMPDEST PUSH1 0x40 DUP1 MLOAD SWAP2 ISZERO ISZERO DUP3 MSTORE MLOAD SWAP1 DUP2 SWAP1 SUB PUSH1 0x20 ADD SWAP1 RETURN JUMPDEST CALLVALUE DUP1 ISZERO PUSH2 0x2AB JUMPI PUSH1 0x0 DUP1 REVERT JUMPDEST POP PUSH2 0x223 PUSH1 0x4 DUP1 CALLDATASIZE SUB PUSH1 0x20 DUP2 LT ISZERO PUSH2 0x2C2 JUMPI PUSH1 0x0 DUP1 REVERT JUMPDEST POP CALLDATALOAD PUSH1 0x1 PUSH1 0xA0 PUSH1 0x2 EXP SUB AND PUSH2 0x9BD JUMP JUMPDEST CALLVALUE DUP1 ISZERO PUSH2 0x2DE JUMPI PUSH1 0x0 DUP1 REVERT JUMPDEST POP PUSH2 0x2FC PUSH1 0x4 DUP1 CALLDATASIZE SUB PUSH1 0x20 DUP2 LT ISZERO PUSH2 0x2F5 JUMPI PUSH1 0x0 DUP1 REVERT JUMPDEST POP CALLDATALOAD PUSH2 0xA95 JUMP JUMPDEST PUSH1 0x40 DUP1 MLOAD SWAP4 DUP5 MSTORE PUSH1 0x20 DUP5 ADD SWAP3 SWAP1 SWAP3 MSTORE ISZERO ISZERO DUP3 DUP3 ADD MSTORE MLOAD SWAP1 DUP2 SWAP1 SUB PUSH1 0x60 ADD SWAP1 RETURN JUMPDEST CALLVALUE DUP1 ISZERO PUSH2 0x328 JUMPI PUSH1 0x0 DUP1 REVERT JUMPDEST POP PUSH2 0x223 PUSH1 0x4 DUP1 CALLDATASIZE SUB PUSH1 0x20 DUP2 LT ISZERO PUSH2 0x33F JUMPI PUSH1 0x0 DUP1 REVERT JUMPDEST POP CALLDATALOAD PUSH1 0x1 PUSH1 0xA0 PUSH1 0x2 EXP SUB AND PUSH2 0xAC9 JUMP JUMPDEST CALLVALUE DUP1 ISZERO PUSH2 0x35B JUMPI PUSH1 0x0 DUP1 REVERT JUMPDEST POP PUSH2 0x37F PUSH1 0x4 DUP1 CALLDATASIZE SUB PUSH1 0x40 DUP2 LT ISZERO PUSH2 0x372 JUMPI PUSH1 0x0 DUP1 REVERT JUMPDEST POP DUP1 CALLDATALOAD SWAP1 PUSH1 0x20 ADD CALLDATALOAD PUSH2 0xB31 JUMP JUMPDEST PUSH1 0x40 DUP1 MLOAD PUSH1 0x1 PUSH1 0xA0 PUSH1 0x2 EXP SUB SWAP1 SWAP3 AND DUP3 MSTORE MLOAD SWAP1 DUP2 SWAP1 SUB PUSH1 0x20 ADD SWAP1 RETURN JUMPDEST CALLVALUE DUP1 ISZERO PUSH2 0x3A7 JUMPI PUSH1 0x0 DUP1 REVERT JUMPDEST POP PUSH2 0x3B0 PUSH2 0xB68 JUMP JUMPDEST PUSH1 0x40 DUP1 MLOAD SWAP2 DUP3 MSTORE MLOAD SWAP1 DUP2 SWAP1 SUB PUSH1 0x20 ADD SWAP1 RETURN JUMPDEST CALLVALUE DUP1 ISZERO PUSH2 0x3CE JUMPI PUSH1 0x0 DUP1 REVERT JUMPDEST POP PUSH2 0x223 PUSH1 0x4 DUP1 CALLDATASIZE SUB PUSH1 0x20 DUP2 LT ISZERO PUSH2 0x3E5 JUMPI PUSH1 0x0 DUP1 REVERT JUMPDEST POP CALLDATALOAD PUSH2 0xB6E JUMP JUMPDEST CALLVALUE DUP1 ISZERO PUSH2 0x3F8 JUMPI PUSH1 0x0 DUP1 REVERT JUMPDEST POP PUSH2 0x223 PUSH2 0xBCC JUMP JUMPDEST CALLVALUE DUP1 ISZERO PUSH2 0x40D JUMPI PUSH1 0x0 DUP1 REVERT JUMPDEST POP PUSH2 0x223 PUSH2 0xC66 JUMP JUMPDEST CALLVALUE DUP1 ISZERO PUSH2 0x422 JUMPI PUSH1 0x0 DUP1 REVERT JUMPDEST POP PUSH2 0x223 PUSH1 0x4 DUP1 CALLDATASIZE SUB PUSH1 0xA0 DUP2 LT ISZERO PUSH2 0x439 JUMPI PUSH1 0x0 DUP1 REVERT JUMPDEST POP PUSH1 0x1 PUSH1 0xA0 PUSH1 0x2 EXP SUB DUP2 CALLDATALOAD AND SWAP1 PUSH1 0x20 DUP2 ADD CALLDATALOAD SWAP1 PUSH1 0x40 DUP2 ADD CALLDATALOAD SWAP1 PUSH1 0x60 DUP2 ADD CALLDATALOAD SWAP1 PUSH1 0x80 ADD CALLDATALOAD PUSH2 0xCC3 JUMP JUMPDEST CALLVALUE DUP1 ISZERO PUSH2 0x46D JUMPI PUSH1 0x0 DUP1 REVERT JUMPDEST POP PUSH2 0x37F PUSH2 0x1161 JUMP JUMPDEST CALLVALUE DUP1 ISZERO PUSH2 0x482 JUMPI PUSH1 0x0 DUP1 REVERT JUMPDEST POP PUSH2 0x28B PUSH2 0x1171 JUMP JUMPDEST CALLVALUE DUP1 ISZERO PUSH2 0x497 JUMPI PUSH1 0x0 DUP1 REVERT JUMPDEST POP PUSH2 0x223 PUSH1 0x4 DUP1 CALLDATASIZE SUB PUSH1 0x40 DUP2 LT ISZERO PUSH2 0x4AE JUMPI PUSH1 0x0 DUP1 REVERT JUMPDEST POP DUP1 CALLDATALOAD SWAP1 PUSH1 0x20 ADD CALLDATALOAD PUSH2 0x1182 JUMP JUMPDEST CALLVALUE DUP1 ISZERO PUSH2 0x4C7 JUMPI PUSH1 0x0 DUP1 REVERT JUMPDEST POP PUSH2 0x223 PUSH1 0x4 DUP1 CALLDATASIZE SUB PUSH1 0x20 DUP2 LT ISZERO PUSH2 0x4DE JUMPI PUSH1 0x0 DUP1 REVERT JUMPDEST POP CALLDATALOAD PUSH1 0x1 PUSH1 0xA0 PUSH1 0x2 EXP SUB AND PUSH2 0x15AE JUMP JUMPDEST CALLVALUE DUP1 ISZERO PUSH2 0x4FA JUMPI PUSH1 0x0 DUP1 REVERT JUMPDEST POP PUSH2 0x223 PUSH1 0x4 DUP1 CALLDATASIZE SUB PUSH1 0x60 DUP2 LT ISZERO PUSH2 0x511 JUMPI PUSH1 0x0 DUP1 REVERT JUMPDEST POP DUP1 CALLDATALOAD SWAP1 PUSH1 0x20 DUP2 ADD CALLDATALOAD SWAP1 PUSH1 0x40 ADD CALLDATALOAD PUSH2 0x15DC JUMP JUMPDEST CALLVALUE DUP1 ISZERO PUSH2 0x530 JUMPI PUSH1 0x0 DUP1 REVERT JUMPDEST POP PUSH2 0x3B0 PUSH2 0x180E JUMP JUMPDEST CALLVALUE DUP1 ISZERO PUSH2 0x545 JUMPI PUSH1 0x0 DUP1 REVERT JUMPDEST POP PUSH2 0x3B0 PUSH2 0x1814 JUMP JUMPDEST CALLVALUE DUP1 ISZERO PUSH2 0x55A JUMPI PUSH1 0x0 DUP1 REVERT JUMPDEST POP PUSH2 0x223 PUSH1 0x4 DUP1 CALLDATASIZE SUB PUSH1 0x20 DUP2 LT ISZERO PUSH2 0x571 JUMPI PUSH1 0x0 DUP1 REVERT JUMPDEST POP CALLDATALOAD PUSH1 0x1 PUSH1 0xA0 PUSH1 0x2 EXP SUB AND PUSH2 0x181A JUMP JUMPDEST CALLVALUE DUP1 ISZERO PUSH2 0x58D JUMPI PUSH1 0x0 DUP1 REVERT JUMPDEST POP PUSH2 0x223 PUSH1 0x4 DUP1 CALLDATASIZE SUB PUSH1 0x20 DUP2 LT ISZERO PUSH2 0x5A4 JUMPI PUSH1 0x0 DUP1 REVERT JUMPDEST POP CALLDATALOAD PUSH1 0x1 PUSH1 0xA0 PUSH1 0x2 EXP SUB AND PUSH2 0x1885 JUMP JUMPDEST CALLVALUE DUP1 ISZERO PUSH2 0x5C0 JUMPI PUSH1 0x0 DUP1 REVERT JUMPDEST POP PUSH2 0x37F PUSH1 0x4 DUP1 CALLDATASIZE SUB PUSH1 0x40 DUP2 LT ISZERO PUSH2 0x5D7 JUMPI PUSH1 0x0 DUP1 REVERT JUMPDEST POP DUP1 CALLDATALOAD SWAP1 PUSH1 0x20 ADD CALLDATALOAD PUSH2 0x18A5 JUMP JUMPDEST CALLVALUE DUP1 ISZERO PUSH2 0x5F0 JUMPI PUSH1 0x0 DUP1 REVERT JUMPDEST POP PUSH2 0x3B0 PUSH2 0x18C0 JUMP JUMPDEST CALLVALUE DUP1 ISZERO PUSH2 0x605 JUMPI PUSH1 0x0 DUP1 REVERT JUMPDEST POP PUSH2 0x623 PUSH1 0x4 DUP1 CALLDATASIZE SUB PUSH1 0x20 DUP2 LT ISZERO PUSH2 0x61C JUMPI PUSH1 0x0 DUP1 REVERT JUMPDEST POP CALLDATALOAD PUSH2 0x18C6 JUMP JUMPDEST PUSH1 0x40 DUP1 MLOAD PUSH1 0x1 PUSH1 0xA0 PUSH1 0x2 EXP SUB SWAP1 SWAP5 AND DUP5 MSTORE PUSH1 0x20 DUP5 ADD SWAP3 SWAP1 SWAP3 MSTORE ISZERO ISZERO DUP3 DUP3 ADD MSTORE MLOAD SWAP1 DUP2 SWAP1 SUB PUSH1 0x60 ADD SWAP1 RETURN JUMPDEST CALLVALUE DUP1 ISZERO PUSH2 0x659 JUMPI PUSH1 0x0 DUP1 REVERT JUMPDEST POP PUSH2 0x37F PUSH2 0x18F4 JUMP JUMPDEST CALLVALUE DUP1 ISZERO PUSH2 0x66E JUMPI PUSH1 0x0 DUP1 REVERT JUMPDEST POP PUSH2 0x223 PUSH1 0x4 DUP1 CALLDATASIZE SUB PUSH1 0x20 DUP2 LT ISZERO PUSH2 0x685 JUMPI PUSH1 0x0 DUP1 REVERT JUMPDEST POP CALLDATALOAD PUSH1 0x1 PUSH1 0xA0 PUSH1 0x2 EXP SUB AND PUSH2 0x1903 JUMP JUMPDEST CALLVALUE DUP1 ISZERO PUSH2 0x6A1 JUMPI PUSH1 0x0 DUP1 REVERT JUMPDEST POP PUSH2 0x3B0 PUSH2 0x1922 JUMP JUMPDEST CALLVALUE DUP1 ISZERO PUSH2 0x6B6 JUMPI PUSH1 0x0 DUP1 REVERT JUMPDEST POP PUSH2 0x6BF PUSH2 0x1928 JUMP JUMPDEST PUSH1 0x40 DUP1 MLOAD PUSH1 0x20 DUP1 DUP3 MSTORE DUP4 MLOAD DUP2 DUP4 ADD MSTORE DUP4 MLOAD SWAP2 SWAP3 DUP4 SWAP3 SWAP1 DUP4 ADD SWAP2 DUP6 ADD SWAP1 DUP1 DUP4 DUP4 PUSH1 0x0 JUMPDEST DUP4 DUP2 LT ISZERO PUSH2 0x6F9 JUMPI DUP2 DUP2 ADD MLOAD DUP4 DUP3 ADD MSTORE PUSH1 0x20 ADD PUSH2 0x6E1 JUMP JUMPDEST POP POP POP POP SWAP1 POP SWAP1 DUP2 ADD SWAP1 PUSH1 0x1F AND DUP1 ISZERO PUSH2 0x726 JUMPI DUP1 DUP3 SUB DUP1 MLOAD PUSH1 0x1 DUP4 PUSH1 0x20 SUB PUSH2 0x100 EXP SUB NOT AND DUP2 MSTORE PUSH1 0x20 ADD SWAP2 POP JUMPDEST POP SWAP3 POP POP POP PUSH1 0x40 MLOAD DUP1 SWAP2 SUB SWAP1 RETURN JUMPDEST PUSH2 0x73D CALLER PUSH2 0x9A4 JUMP JUMPDEST ISZERO ISZERO PUSH2 0x748 JUMPI PUSH1 0x0 DUP1 REVERT JUMPDEST PUSH1 0xC DUP1 SLOAD PUSH1 0x0 SWAP2 SWAP1 PUSH2 0x761 SWAP1 PUSH1 0x1 PUSH4 0xFFFFFFFF PUSH2 0x195F AND JUMP JUMPDEST DUP2 SLOAD DUP2 LT PUSH2 0x76B JUMPI INVALID JUMPDEST PUSH1 0x0 SWAP2 DUP3 MSTORE PUSH1 0x20 SWAP1 SWAP2 KECCAK256 PUSH1 0x3 SWAP1 SWAP2 MUL ADD PUSH1 0x2 DUP2 ADD SLOAD SWAP1 SWAP2 POP PUSH1 0xFF AND ISZERO PUSH2 0x7DB JUMPI PUSH1 0x40 DUP1 MLOAD PUSH1 0xE5 PUSH1 0x2 EXP PUSH3 0x461BCD MUL DUP2 MSTORE PUSH1 0x20 PUSH1 0x4 DUP3 ADD MSTORE PUSH1 0x1E PUSH1 0x24 DUP3 ADD MSTORE PUSH32 0x426C6F636B20616E63686F7220616C72656164792070726F6365737365640000 PUSH1 0x44 DUP3 ADD MSTORE SWAP1 MLOAD SWAP1 DUP2 SWAP1 SUB PUSH1 0x64 ADD SWAP1 REVERT JUMPDEST DUP1 SLOAD PUSH1 0x1 DUP3 ADD SLOAD PUSH1 0x40 DUP1 MLOAD PUSH1 0x20 DUP1 DUP3 ADD SWAP5 SWAP1 SWAP5 MSTORE DUP1 DUP3 ADD SWAP3 SWAP1 SWAP3 MSTORE DUP1 MLOAD DUP1 DUP4 SUB DUP3 ADD DUP2 MSTORE PUSH1 0x60 SWAP1 SWAP3 ADD DUP2 MSTORE DUP2 MLOAD SWAP2 DUP4 ADD SWAP2 SWAP1 SWAP2 KECCAK256 PUSH1 0x0 DUP2 DUP2 MSTORE PUSH1 0xD SWAP1 SWAP4 MSTORE SWAP1 DUP3 KECCAK256 DUP1 SLOAD SWAP2 SWAP3 SWAP1 SWAP2 SWAP1 JUMPDEST DUP2 DUP2 LT ISZERO PUSH2 0x91C JUMPI DUP3 SLOAD CALLER SWAP1 DUP5 SWAP1 DUP4 SWAP1 DUP2 LT PUSH2 0x83C JUMPI INVALID JUMPDEST PUSH1 0x0 SWAP2 DUP3 MSTORE PUSH1 0x20 SWAP1 SWAP2 KECCAK256 ADD SLOAD PUSH1 0x1 PUSH1 0xA0 PUSH1 0x2 EXP SUB AND EQ ISZERO PUSH2 0x914 JUMPI DUP3 PUSH2 0x869 DUP4 PUSH1 0x1 PUSH4 0xFFFFFFFF PUSH2 0x195F AND JUMP JUMPDEST DUP2 SLOAD DUP2 LT PUSH2 0x873 JUMPI INVALID JUMPDEST PUSH1 0x0 SWAP2 DUP3 MSTORE PUSH1 0x20 SWAP1 SWAP2 KECCAK256 ADD SLOAD DUP4 SLOAD PUSH1 0x1 PUSH1 0xA0 PUSH1 0x2 EXP SUB SWAP1 SWAP2 AND SWAP1 DUP5 SWAP1 DUP4 SWAP1 DUP2 LT PUSH2 0x899 JUMPI INVALID JUMPDEST PUSH1 0x0 SWAP2 DUP3 MSTORE PUSH1 0x20 SWAP1 SWAP2 KECCAK256 ADD DUP1 SLOAD PUSH1 0x1 PUSH1 0xA0 PUSH1 0x2 EXP SUB NOT AND PUSH1 0x1 PUSH1 0xA0 PUSH1 0x2 EXP SUB SWAP3 SWAP1 SWAP3 AND SWAP2 SWAP1 SWAP2 OR SWAP1 SSTORE DUP3 PUSH2 0x8CE DUP4 PUSH1 0x1 PUSH2 0x195F JUMP JUMPDEST DUP2 SLOAD DUP2 LT PUSH2 0x8D8 JUMPI INVALID JUMPDEST PUSH1 0x0 SWAP2 DUP3 MSTORE PUSH1 0x20 SWAP1 SWAP2 KECCAK256 ADD DUP1 SLOAD PUSH1 0x1 PUSH1 0xA0 PUSH1 0x2 EXP SUB NOT AND SWAP1 SSTORE DUP3 SLOAD PUSH2 0x904 SWAP1 PUSH1 0x1 PUSH4 0xFFFFFFFF PUSH2 0x195F AND JUMP JUMPDEST PUSH2 0x90E DUP5 DUP3 PUSH2 0x1C62 JUMP JUMPDEST POP PUSH2 0x91C JUMP JUMPDEST PUSH1 0x1 ADD PUSH2 0x824 JUMP JUMPDEST POP POP POP POP POP JUMP JUMPDEST PUSH1 0x1 SLOAD PUSH1 0x1 PUSH1 0xA0 PUSH1 0x2 EXP SUB AND CALLER EQ PUSH2 0x93A JUMPI PUSH1 0x0 DUP1 REVERT JUMPDEST PUSH2 0x94B PUSH1 0x3 DUP3 PUSH4 0xFFFFFFFF PUSH2 0x1974 AND JUMP JUMPDEST PUSH1 0x4 SLOAD PUSH2 0x95F SWAP1 PUSH1 0x1 PUSH4 0xFFFFFFFF PUSH2 0x19C2 AND JUMP JUMPDEST PUSH1 0x4 SSTORE PUSH2 0x96A PUSH2 0x19DB JUMP JUMPDEST PUSH1 0x2 SSTORE PUSH1 0x40 MLOAD PUSH1 0x1 PUSH1 0xA0 PUSH1 0x2 EXP SUB DUP3 AND SWAP1 PUSH32 0x79346DEFEC0557B2FD2876F982AE0D61324EFFB9180C3406FE3547CDECC2706C SWAP1 PUSH1 0x0 SWAP1 LOG2 POP JUMP JUMPDEST PUSH1 0x0 PUSH2 0x9B7 PUSH1 0x3 DUP4 PUSH4 0xFFFFFFFF PUSH2 0x1A09 AND JUMP JUMPDEST SWAP3 SWAP2 POP POP JUMP JUMPDEST PUSH1 0x1 SLOAD PUSH1 0x1 PUSH1 0xA0 PUSH1 0x2 EXP SUB AND CALLER EQ PUSH2 0x9D4 JUMPI PUSH1 0x0 DUP1 REVERT JUMPDEST PUSH1 0x4 SLOAD PUSH1 0x3 SWAP1 PUSH2 0x9EB SWAP1 PUSH1 0x1 PUSH4 0xFFFFFFFF PUSH2 0x195F AND JUMP JUMPDEST LT ISZERO PUSH2 0xA2B JUMPI PUSH1 0x40 MLOAD PUSH1 0xE5 PUSH1 0x2 EXP PUSH3 0x461BCD MUL DUP2 MSTORE PUSH1 0x4 ADD DUP1 DUP1 PUSH1 0x20 ADD DUP3 DUP2 SUB DUP3 MSTORE PUSH1 0x3D DUP2 MSTORE PUSH1 0x20 ADD DUP1 PUSH2 0x1CF3 PUSH1 0x3D SWAP2 CODECOPY PUSH1 0x40 ADD SWAP2 POP POP PUSH1 0x40 MLOAD DUP1 SWAP2 SUB SWAP1 REVERT JUMPDEST PUSH2 0xA3C PUSH1 0x3 DUP3 PUSH4 0xFFFFFFFF PUSH2 0x1A40 AND JUMP JUMPDEST PUSH1 0x4 SLOAD PUSH2 0xA50 SWAP1 PUSH1 0x1 PUSH4 0xFFFFFFFF PUSH2 0x195F AND JUMP JUMPDEST PUSH1 0x4 SSTORE PUSH2 0xA5B PUSH2 0x19DB JUMP JUMPDEST PUSH1 0x2 SSTORE PUSH1 0x40 MLOAD PUSH1 0x1 PUSH1 0xA0 PUSH1 0x2 EXP SUB DUP3 AND SWAP1 PUSH32 0x8372299FD647E0AE03CD621E70CC2A963EA2F073B7657FD23252C1878794B49E SWAP1 PUSH1 0x0 SWAP1 LOG2 POP JUMP JUMPDEST PUSH1 0xC DUP1 SLOAD DUP3 SWAP1 DUP2 LT PUSH2 0xAA3 JUMPI INVALID JUMPDEST PUSH1 0x0 SWAP2 DUP3 MSTORE PUSH1 0x20 SWAP1 SWAP2 KECCAK256 PUSH1 0x3 SWAP1 SWAP2 MUL ADD DUP1 SLOAD PUSH1 0x1 DUP3 ADD SLOAD PUSH1 0x2 SWAP1 SWAP3 ADD SLOAD SWAP1 SWAP3 POP PUSH1 0xFF AND DUP4 JUMP JUMPDEST PUSH1 0x0 SLOAD PUSH1 0x1 PUSH1 0xA0 PUSH1 0x2 EXP SUB AND CALLER EQ PUSH2 0xAE0 JUMPI PUSH1 0x0 DUP1 REVERT JUMPDEST PUSH1 0x0 DUP1 SLOAD PUSH1 0x1 PUSH1 0xA0 PUSH1 0x2 EXP SUB DUP4 DUP2 AND PUSH1 0x1 PUSH1 0xA0 PUSH1 0x2 EXP SUB NOT DUP4 AND OR DUP1 DUP5 SSTORE PUSH1 0x40 MLOAD SWAP3 DUP3 AND SWAP4 SWAP2 AND SWAP2 DUP4 SWAP2 PUSH32 0xB64DDDC215B4D83B6100E7E425BA0D57F6E67562D748AA63865DEB5C1578B5FE SWAP2 LOG3 POP POP JUMP JUMPDEST PUSH1 0xB PUSH1 0x20 MSTORE DUP2 PUSH1 0x0 MSTORE PUSH1 0x40 PUSH1 0x0 KECCAK256 DUP2 DUP2 SLOAD DUP2 LT ISZERO ISZERO PUSH2 0xB4C JUMPI INVALID JUMPDEST PUSH1 0x0 SWAP2 DUP3 MSTORE PUSH1 0x20 SWAP1 SWAP2 KECCAK256 ADD SLOAD PUSH1 0x1 PUSH1 0xA0 PUSH1 0x2 EXP SUB AND SWAP2 POP DUP3 SWAP1 POP JUMP JUMPDEST PUSH1 0x2 SLOAD DUP2 JUMP JUMPDEST PUSH1 0x0 SLOAD PUSH1 0x1 PUSH1 0xA0 PUSH1 0x2 EXP SUB AND CALLER EQ PUSH2 0xB85 JUMPI PUSH1 0x0 DUP1 REVERT JUMPDEST PUSH1 0x6 DUP2 SWAP1 SSTORE PUSH2 0xB92 PUSH2 0x1A8C JUMP JUMPDEST PUSH1 0x7 DUP2 SWAP1 SSTORE PUSH1 0x40 DUP1 MLOAD SWAP2 DUP3 MSTORE MLOAD PUSH32 0x3DDA580D2B9D92DA338EF46EC718E7B1DD0A2C505E3DF4AA8D40360192A0F822 SWAP2 DUP2 SWAP1 SUB PUSH1 0x20 ADD SWAP1 LOG1 POP JUMP JUMPDEST PUSH2 0xBD4 PUSH2 0x1171 JUMP JUMPDEST ISZERO ISZERO PUSH2 0xBDF JUMPI PUSH1 0x0 DUP1 REVERT JUMPDEST PUSH1 0x9 SLOAD ISZERO PUSH2 0xC37 JUMPI PUSH1 0x40 DUP1 MLOAD PUSH1 0xE5 PUSH1 0x2 EXP PUSH3 0x461BCD MUL DUP2 MSTORE PUSH1 0x20 PUSH1 0x4 DUP3 ADD MSTORE PUSH1 0x18 PUSH1 0x24 DUP3 ADD MSTORE PUSH32 0x436F6E747261637420616C726561647920666C75736865640000000000000000 PUSH1 0x44 DUP3 ADD MSTORE SWAP1 MLOAD SWAP1 DUP2 SWAP1 SUB PUSH1 0x64 ADD SWAP1 REVERT JUMPDEST NUMBER PUSH1 0x9 SSTORE PUSH1 0x40 MLOAD PUSH32 0xC0ADCEF1CA5BBF843985F21EFFFB63E6817AF6B8DD1F00E7344A8AD05AB2D51 SWAP1 PUSH1 0x0 SWAP1 LOG1 JUMP JUMPDEST PUSH2 0xC6E PUSH2 0x1171 JUMP JUMPDEST ISZERO ISZERO PUSH2 0xC79 JUMPI PUSH1 0x0 DUP1 REVERT JUMPDEST PUSH1 0x5 SLOAD PUSH1 0x40 MLOAD PUSH1 0x0 SWAP2 PUSH1 0x1 PUSH1 0xA0 PUSH1 0x2 EXP SUB AND SWAP1 PUSH32 0x8BE0079C531659141344CD1FD0A4F28419497F9722A3DAAFE3B4186F6B6457E0 SWAP1 DUP4 SWAP1 LOG3 PUSH1 0x5 DUP1 SLOAD PUSH1 0x1 PUSH1 0xA0 PUSH1 0x2 EXP SUB NOT AND SWAP1 SSTORE JUMP JUMPDEST PUSH2 0xCCC CALLER PUSH2 0x9A4 JUMP JUMPDEST ISZERO ISZERO PUSH2 0xCD7 JUMPI PUSH1 0x0 DUP1 REVERT JUMPDEST PUSH1 0x1 PUSH1 0xA0 PUSH1 0x2 EXP SUB DUP6 AND ISZERO ISZERO PUSH2 0xD37 JUMPI PUSH1 0x40 DUP1 MLOAD PUSH1 0xE5 PUSH1 0x2 EXP PUSH3 0x461BCD MUL DUP2 MSTORE PUSH1 0x20 PUSH1 0x4 DUP3 ADD MSTORE PUSH1 0x1B PUSH1 0x24 DUP3 ADD MSTORE PUSH32 0x496E76616C69642064657374696E6174696F6E20616464726573730000000000 PUSH1 0x44 DUP3 ADD MSTORE SWAP1 MLOAD SWAP1 DUP2 SWAP1 SUB PUSH1 0x64 ADD SWAP1 REVERT JUMPDEST PUSH1 0x8 SLOAD PUSH1 0x1 PUSH1 0xA0 PUSH1 0x2 EXP SUB DUP7 DUP2 AND SWAP2 AND EQ DUP1 ISZERO PUSH2 0xD54 JUMPI POP PUSH1 0x0 DUP5 GT JUMPDEST DUP1 PUSH2 0xD60 JUMPI POP PUSH1 0x7 SLOAD DUP5 GT JUMPDEST ISZERO ISZERO PUSH2 0xDA0 JUMPI PUSH1 0x40 MLOAD PUSH1 0xE5 PUSH1 0x2 EXP PUSH3 0x461BCD MUL DUP2 MSTORE PUSH1 0x4 ADD DUP1 DUP1 PUSH1 0x20 ADD DUP3 DUP2 SUB DUP3 MSTORE PUSH1 0x2F DUP2 MSTORE PUSH1 0x20 ADD DUP1 PUSH2 0x1CC4 PUSH1 0x2F SWAP2 CODECOPY PUSH1 0x40 ADD SWAP2 POP POP PUSH1 0x40 MLOAD DUP1 SWAP2 SUB SWAP1 REVERT JUMPDEST PUSH1 0x9 SLOAD ISZERO PUSH2 0xDE2 JUMPI PUSH1 0x40 MLOAD PUSH1 0xE5 PUSH1 0x2 EXP PUSH3 0x461BCD MUL DUP2 MSTORE PUSH1 0x4 ADD DUP1 DUP1 PUSH1 0x20 ADD DUP3 DUP2 SUB DUP3 MSTORE PUSH1 0x24 DUP2 MSTORE PUSH1 0x20 ADD DUP1 PUSH2 0x1CA0 PUSH1 0x24 SWAP2 CODECOPY PUSH1 0x40 ADD SWAP2 POP POP PUSH1 0x40 MLOAD DUP1 SWAP2 SUB SWAP1 REVERT JUMPDEST PUSH1 0x40 DUP1 MLOAD PUSH1 0x20 DUP1 DUP3 ADD DUP7 SWAP1 MSTORE DUP2 DUP4 ADD DUP6 SWAP1 MSTORE PUSH1 0x60 DUP1 DUP4 ADD DUP6 SWAP1 MSTORE DUP4 MLOAD DUP1 DUP5 SUB SWAP1 SWAP2 ADD DUP2 MSTORE PUSH1 0x80 SWAP1 SWAP3 ADD SWAP1 SWAP3 MSTORE DUP1 MLOAD SWAP2 ADD KECCAK256 PUSH1 0x8 SLOAD PUSH1 0x0 SWAP1 PUSH1 0x1 PUSH1 0xA0 PUSH1 0x2 EXP SUB DUP9 DUP2 AND SWAP2 AND EQ ISZERO PUSH2 0xE32 JUMPI DUP6 PUSH2 0xE46 JUMP JUMPDEST PUSH1 0x7 SLOAD PUSH2 0xE46 SWAP1 DUP8 SWAP1 PUSH4 0xFFFFFFFF PUSH2 0x195F AND JUMP JUMPDEST PUSH1 0x0 DUP4 DUP2 MSTORE PUSH1 0xA PUSH1 0x20 MSTORE PUSH1 0x40 SWAP1 KECCAK256 SLOAD SWAP1 SWAP2 POP PUSH1 0x1 PUSH1 0xA0 PUSH1 0x2 EXP SUB AND ISZERO ISZERO PUSH2 0xECE JUMPI PUSH1 0x40 DUP1 MLOAD PUSH1 0x60 DUP2 ADD DUP3 MSTORE PUSH1 0x1 PUSH1 0xA0 PUSH1 0x2 EXP SUB DUP10 DUP2 AND DUP3 MSTORE PUSH1 0x20 DUP1 DUP4 ADD DUP6 DUP2 MSTORE PUSH1 0x0 DUP5 DUP7 ADD DUP2 DUP2 MSTORE DUP9 DUP3 MSTORE PUSH1 0xA SWAP1 SWAP4 MSTORE SWAP5 SWAP1 SWAP5 KECCAK256 SWAP3 MLOAD DUP4 SLOAD PUSH1 0x1 PUSH1 0xA0 PUSH1 0x2 EXP SUB NOT AND SWAP3 AND SWAP2 SWAP1 SWAP2 OR DUP3 SSTORE SWAP2 MLOAD PUSH1 0x1 DUP3 ADD SSTORE SWAP1 MLOAD PUSH1 0x2 SWAP1 SWAP2 ADD DUP1 SLOAD PUSH1 0xFF NOT AND SWAP2 ISZERO ISZERO SWAP2 SWAP1 SWAP2 OR SWAP1 SSTORE JUMPDEST PUSH1 0x0 DUP3 DUP2 MSTORE PUSH1 0xA PUSH1 0x20 SWAP1 DUP2 MSTORE PUSH1 0x40 DUP1 DUP4 KECCAK256 PUSH1 0xB SWAP1 SWAP3 MSTORE SWAP1 SWAP2 KECCAK256 DUP2 SLOAD PUSH1 0x1 PUSH1 0xA0 PUSH1 0x2 EXP SUB DUP11 DUP2 AND SWAP2 AND EQ PUSH2 0xF4B JUMPI PUSH1 0x40 DUP1 MLOAD PUSH1 0xE5 PUSH1 0x2 EXP PUSH3 0x461BCD MUL DUP2 MSTORE PUSH1 0x20 PUSH1 0x4 DUP3 ADD MSTORE PUSH1 0x14 PUSH1 0x24 DUP3 ADD MSTORE PUSH32 0x44657374696E6174696F6E206D69736D61746368000000000000000000000000 PUSH1 0x44 DUP3 ADD MSTORE SWAP1 MLOAD SWAP1 DUP2 SWAP1 SUB PUSH1 0x64 ADD SWAP1 REVERT JUMPDEST PUSH1 0x1 DUP3 ADD SLOAD DUP4 EQ PUSH2 0xFA6 JUMPI PUSH1 0x40 DUP1 MLOAD PUSH1 0xE5 PUSH1 0x2 EXP PUSH3 0x461BCD MUL DUP2 MSTORE PUSH1 0x20 PUSH1 0x4 DUP3 ADD MSTORE PUSH1 0xF PUSH1 0x24 DUP3 ADD MSTORE PUSH32 0x416D6F756E74206D69736D617463680000000000000000000000000000000000 PUSH1 0x44 DUP3 ADD MSTORE SWAP1 MLOAD SWAP1 DUP2 SWAP1 SUB PUSH1 0x64 ADD SWAP1 REVERT JUMPDEST PUSH1 0x0 JUMPDEST DUP2 SLOAD DUP2 LT ISZERO PUSH2 0x1035 JUMPI DUP2 SLOAD CALLER SWAP1 DUP4 SWAP1 DUP4 SWAP1 DUP2 LT PUSH2 0xFC2 JUMPI INVALID JUMPDEST PUSH1 0x0 SWAP2 DUP3 MSTORE PUSH1 0x20 SWAP1 SWAP2 KECCAK256 ADD SLOAD PUSH1 0x1 PUSH1 0xA0 PUSH1 0x2 EXP SUB AND EQ ISZERO PUSH2 0x102D JUMPI PUSH1 0x40 DUP1 MLOAD PUSH1 0xE5 PUSH1 0x2 EXP PUSH3 0x461BCD MUL DUP2 MSTORE PUSH1 0x20 PUSH1 0x4 DUP3 ADD MSTORE PUSH1 0x1B PUSH1 0x24 DUP3 ADD MSTORE PUSH32 0x416C726561647920617070726F766564207769746864726177616C0000000000 PUSH1 0x44 DUP3 ADD MSTORE SWAP1 MLOAD SWAP1 DUP2 SWAP1 SUB PUSH1 0x64 ADD SWAP1 REVERT JUMPDEST PUSH1 0x1 ADD PUSH2 0xFA9 JUMP JUMPDEST POP DUP1 SLOAD PUSH1 0x1 DUP2 ADD DUP3 SSTORE PUSH1 0x0 DUP3 DUP2 MSTORE PUSH1 0x20 SWAP1 KECCAK256 ADD DUP1 SLOAD PUSH1 0x1 PUSH1 0xA0 PUSH1 0x2 EXP SUB NOT AND CALLER OR SWAP1 SSTORE PUSH1 0x2 SLOAD DUP2 SLOAD LT DUP1 ISZERO SWAP1 PUSH2 0x1070 JUMPI POP PUSH1 0x2 DUP3 ADD SLOAD PUSH1 0xFF AND ISZERO JUMPDEST ISZERO PUSH2 0x1156 JUMPI PUSH1 0x7 SLOAD ISZERO DUP1 ISZERO SWAP1 PUSH2 0x1090 JUMPI POP PUSH1 0x8 SLOAD PUSH1 0x1 PUSH1 0xA0 PUSH1 0x2 EXP SUB AND ISZERO ISZERO JUMPDEST DUP1 ISZERO PUSH2 0x10AA JUMPI POP PUSH1 0x8 SLOAD PUSH1 0x1 PUSH1 0xA0 PUSH1 0x2 EXP SUB DUP11 DUP2 AND SWAP2 AND EQ ISZERO JUMPDEST ISZERO PUSH2 0x10D6 JUMPI PUSH1 0x8 SLOAD PUSH1 0x7 SLOAD PUSH1 0xE SLOAD PUSH2 0x10D6 SWAP3 PUSH1 0x1 PUSH1 0xA0 PUSH1 0x2 EXP SUB SWAP2 DUP3 AND SWAP3 SWAP2 AND SWAP1 PUSH4 0xFFFFFFFF PUSH2 0x1AEA AND JUMP JUMPDEST PUSH1 0xE SLOAD PUSH2 0x10F3 SWAP1 PUSH1 0x1 PUSH1 0xA0 PUSH1 0x2 EXP SUB AND DUP11 DUP6 PUSH4 0xFFFFFFFF PUSH2 0x1AEA AND JUMP JUMPDEST PUSH1 0x2 DUP3 ADD DUP1 SLOAD PUSH1 0xFF NOT AND PUSH1 0x1 OR SWAP1 SSTORE PUSH1 0x40 DUP1 MLOAD DUP5 DUP2 MSTORE PUSH1 0x20 DUP2 ADD DUP10 SWAP1 MSTORE DUP1 DUP3 ADD DUP9 SWAP1 MSTORE PUSH1 0x60 DUP2 ADD DUP8 SWAP1 MSTORE SWAP1 MLOAD PUSH1 0x1 PUSH1 0xA0 PUSH1 0x2 EXP SUB DUP12 AND SWAP2 PUSH32 0x795E632C8461FC35886225B3713F3022719E2B40847C5F3BD3FEF5C54B4C0FB0 SWAP2 SWAP1 DUP2 SWAP1 SUB PUSH1 0x80 ADD SWAP1 LOG2 JUMPDEST POP POP POP POP POP POP POP POP POP JUMP JUMPDEST PUSH1 0x5 SLOAD PUSH1 0x1 PUSH1 0xA0 PUSH1 0x2 EXP SUB AND JUMPDEST SWAP1 JUMP JUMPDEST PUSH1 0x5 SLOAD PUSH1 0x1 PUSH1 0xA0 PUSH1 0x2 EXP SUB AND CALLER EQ SWAP1 JUMP JUMPDEST PUSH2 0x118B CALLER PUSH2 0x9A4 JUMP JUMPDEST ISZERO ISZERO PUSH2 0x1196 JUMPI PUSH1 0x0 DUP1 REVERT JUMPDEST PUSH1 0xC SLOAD ISZERO DUP1 PUSH2 0x11D7 JUMPI POP PUSH1 0xC DUP1 SLOAD DUP4 SWAP2 SWAP1 PUSH2 0x11B8 SWAP1 PUSH1 0x1 PUSH4 0xFFFFFFFF PUSH2 0x195F AND JUMP JUMPDEST DUP2 SLOAD DUP2 LT PUSH2 0x11C2 JUMPI INVALID JUMPDEST SWAP1 PUSH1 0x0 MSTORE PUSH1 0x20 PUSH1 0x0 KECCAK256 SWAP1 PUSH1 0x3 MUL ADD PUSH1 0x0 ADD SLOAD EQ ISZERO JUMPDEST DUP1 PUSH2 0x1214 JUMPI POP PUSH1 0xC DUP1 SLOAD DUP3 SWAP2 SWAP1 PUSH2 0x11F5 SWAP1 PUSH1 0x1 PUSH4 0xFFFFFFFF PUSH2 0x195F AND JUMP JUMPDEST DUP2 SLOAD DUP2 LT PUSH2 0x11FF JUMPI INVALID JUMPDEST SWAP1 PUSH1 0x0 MSTORE PUSH1 0x20 PUSH1 0x0 KECCAK256 SWAP1 PUSH1 0x3 MUL ADD PUSH1 0x1 ADD SLOAD EQ ISZERO JUMPDEST ISZERO PUSH2 0x137C JUMPI PUSH1 0xC SLOAD PUSH1 0x0 LT DUP1 ISZERO PUSH2 0x125E JUMPI POP PUSH1 0xC DUP1 SLOAD PUSH2 0x123B SWAP1 PUSH1 0x1 PUSH4 0xFFFFFFFF PUSH2 0x195F AND JUMP JUMPDEST DUP2 SLOAD DUP2 LT PUSH2 0x1245 JUMPI INVALID JUMPDEST PUSH1 0x0 SWAP2 DUP3 MSTORE PUSH1 0x20 SWAP1 SWAP2 KECCAK256 PUSH1 0x2 PUSH1 0x3 SWAP1 SWAP3 MUL ADD ADD SLOAD PUSH1 0xFF AND ISZERO JUMPDEST ISZERO PUSH2 0x12CE JUMPI PUSH1 0xC DUP1 SLOAD PUSH1 0x0 SWAP2 SWAP1 PUSH2 0x127C SWAP1 PUSH1 0x1 PUSH4 0xFFFFFFFF PUSH2 0x195F AND JUMP JUMPDEST DUP2 SLOAD DUP2 LT PUSH2 0x1286 JUMPI INVALID JUMPDEST SWAP1 PUSH1 0x0 MSTORE PUSH1 0x20 PUSH1 0x0 KECCAK256 SWAP1 PUSH1 0x3 MUL ADD SWAP1 POP DUP1 PUSH1 0x1 ADD SLOAD DUP2 PUSH1 0x0 ADD SLOAD PUSH32 0x440750FC70D2814EBE93FAB90C552C6E989469A47F75541E3F3CD74274B681CD PUSH1 0x40 MLOAD PUSH1 0x40 MLOAD DUP1 SWAP2 SUB SWAP1 LOG3 POP JUMPDEST PUSH1 0x40 DUP1 MLOAD PUSH1 0x60 DUP2 ADD DUP3 MSTORE DUP4 DUP2 MSTORE PUSH1 0x20 DUP2 ADD DUP4 DUP2 MSTORE PUSH1 0x0 SWAP3 DUP3 ADD DUP4 DUP2 MSTORE PUSH1 0xC DUP1 SLOAD PUSH1 0x1 DUP2 ADD DUP3 SSTORE SWAP5 MSTORE SWAP2 MLOAD PUSH32 0xDF6966C971051C3D54EC59162606531493A51404A002842F56009D7E5CF4A8C7 PUSH1 0x3 SWAP1 SWAP5 MUL SWAP4 DUP5 ADD SSTORE MLOAD PUSH32 0xDF6966C971051C3D54EC59162606531493A51404A002842F56009D7E5CF4A8C8 DUP4 ADD SSTORE MLOAD PUSH32 0xDF6966C971051C3D54EC59162606531493A51404A002842F56009D7E5CF4A8C9 SWAP1 SWAP2 ADD DUP1 SLOAD PUSH1 0xFF NOT AND SWAP2 ISZERO ISZERO SWAP2 SWAP1 SWAP2 OR SWAP1 SSTORE JUMPDEST PUSH1 0x40 DUP1 MLOAD PUSH1 0x20 DUP1 DUP3 ADD DUP6 SWAP1 MSTORE DUP2 DUP4 ADD DUP5 SWAP1 MSTORE DUP3 MLOAD DUP1 DUP4 SUB DUP5 ADD DUP2 MSTORE PUSH1 0x60 SWAP1 SWAP3 ADD SWAP1 SWAP3 MSTORE DUP1 MLOAD SWAP2 ADD KECCAK256 PUSH1 0xC DUP1 SLOAD PUSH1 0x0 SWAP2 SWAP1 PUSH2 0x13BD SWAP1 PUSH1 0x1 PUSH4 0xFFFFFFFF PUSH2 0x195F AND JUMP JUMPDEST DUP2 SLOAD DUP2 LT PUSH2 0x13C7 JUMPI INVALID JUMPDEST PUSH1 0x0 SWAP2 DUP3 MSTORE PUSH1 0x20 DUP1 DUP4 KECCAK256 DUP6 DUP5 MSTORE PUSH1 0xD SWAP1 SWAP2 MSTORE PUSH1 0x40 SWAP1 SWAP3 KECCAK256 PUSH1 0x3 SWAP1 SWAP2 MUL SWAP1 SWAP2 ADD DUP1 SLOAD SWAP1 SWAP3 POP DUP6 EQ PUSH2 0x1441 JUMPI PUSH1 0x40 DUP1 MLOAD PUSH1 0xE5 PUSH1 0x2 EXP PUSH3 0x461BCD MUL DUP2 MSTORE PUSH1 0x20 PUSH1 0x4 DUP3 ADD MSTORE PUSH1 0x13 PUSH1 0x24 DUP3 ADD MSTORE PUSH32 0x426C6F636B2068617368206D69736D6174636800000000000000000000000000 PUSH1 0x44 DUP3 ADD MSTORE SWAP1 MLOAD SWAP1 DUP2 SWAP1 SUB PUSH1 0x64 ADD SWAP1 REVERT JUMPDEST PUSH1 0x1 DUP3 ADD SLOAD DUP5 EQ PUSH2 0x149C JUMPI PUSH1 0x40 DUP1 MLOAD PUSH1 0xE5 PUSH1 0x2 EXP PUSH3 0x461BCD MUL DUP2 MSTORE PUSH1 0x20 PUSH1 0x4 DUP3 ADD MSTORE PUSH1 0x15 PUSH1 0x24 DUP3 ADD MSTORE PUSH32 0x426C6F636B206E756D626572206D69736D617463680000000000000000000000 PUSH1 0x44 DUP3 ADD MSTORE SWAP1 MLOAD SWAP1 DUP2 SWAP1 SUB PUSH1 0x64 ADD SWAP1 REVERT JUMPDEST PUSH1 0x0 JUMPDEST DUP2 SLOAD DUP2 LT ISZERO PUSH2 0x152B JUMPI DUP2 SLOAD CALLER SWAP1 DUP4 SWAP1 DUP4 SWAP1 DUP2 LT PUSH2 0x14B8 JUMPI INVALID JUMPDEST PUSH1 0x0 SWAP2 DUP3 MSTORE PUSH1 0x20 SWAP1 SWAP2 KECCAK256 ADD SLOAD PUSH1 0x1 PUSH1 0xA0 PUSH1 0x2 EXP SUB AND EQ ISZERO PUSH2 0x1523 JUMPI PUSH1 0x40 DUP1 MLOAD PUSH1 0xE5 PUSH1 0x2 EXP PUSH3 0x461BCD MUL DUP2 MSTORE PUSH1 0x20 PUSH1 0x4 DUP3 ADD MSTORE PUSH1 0x1D PUSH1 0x24 DUP3 ADD MSTORE PUSH32 0x416C726561647920617070726F76656420616E63686F7220626C6F636B000000 PUSH1 0x44 DUP3 ADD MSTORE SWAP1 MLOAD SWAP1 DUP2 SWAP1 SUB PUSH1 0x64 ADD SWAP1 REVERT JUMPDEST PUSH1 0x1 ADD PUSH2 0x149F JUMP JUMPDEST POP DUP1 SLOAD PUSH1 0x1 DUP2 ADD DUP3 SSTORE PUSH1 0x0 DUP3 DUP2 MSTORE PUSH1 0x20 SWAP1 KECCAK256 ADD DUP1 SLOAD PUSH1 0x1 PUSH1 0xA0 PUSH1 0x2 EXP SUB NOT AND CALLER OR SWAP1 SSTORE PUSH1 0x2 SLOAD DUP2 SLOAD LT DUP1 ISZERO SWAP1 PUSH2 0x1566 JUMPI POP PUSH1 0x2 DUP3 ADD SLOAD PUSH1 0xFF AND ISZERO JUMPDEST ISZERO PUSH2 0x91C JUMPI PUSH1 0x2 DUP3 ADD DUP1 SLOAD PUSH1 0xFF NOT AND PUSH1 0x1 OR SWAP1 SSTORE PUSH1 0x40 MLOAD DUP5 SWAP1 DUP7 SWAP1 PUSH32 0x198104B631D8692EDFA7BF87354778D7B71BACAAFDC2034F592AFAD56D3B7119 SWAP1 PUSH1 0x0 SWAP1 LOG3 POP POP POP POP POP JUMP JUMPDEST PUSH1 0x1 SLOAD PUSH1 0x1 PUSH1 0xA0 PUSH1 0x2 EXP SUB AND CALLER EQ PUSH2 0x15C5 JUMPI PUSH1 0x0 DUP1 REVERT JUMPDEST PUSH2 0x15CE DUP2 PUSH2 0x923 JUMP JUMPDEST PUSH2 0x15D6 PUSH2 0x1A8C JUMP JUMPDEST PUSH1 0x7 SSTORE POP JUMP JUMPDEST PUSH2 0x15E5 CALLER PUSH2 0x9A4 JUMP JUMPDEST ISZERO ISZERO PUSH2 0x15F0 JUMPI PUSH1 0x0 DUP1 REVERT JUMPDEST PUSH1 0x40 DUP1 MLOAD PUSH1 0x20 DUP1 DUP3 ADD DUP7 SWAP1 MSTORE DUP2 DUP4 ADD DUP6 SWAP1 MSTORE PUSH1 0x60 DUP1 DUP4 ADD DUP6 SWAP1 MSTORE DUP4 MLOAD DUP1 DUP5 SUB SWAP1 SWAP2 ADD DUP2 MSTORE PUSH1 0x80 SWAP1 SWAP3 ADD DUP4 MSTORE DUP2 MLOAD SWAP2 DUP2 ADD SWAP2 SWAP1 SWAP2 KECCAK256 PUSH1 0x0 DUP2 DUP2 MSTORE PUSH1 0xA SWAP1 SWAP3 MSTORE SWAP2 SWAP1 KECCAK256 SLOAD PUSH1 0x1 PUSH1 0xA0 PUSH1 0x2 EXP SUB AND ISZERO ISZERO PUSH2 0x1691 JUMPI PUSH1 0x40 DUP1 MLOAD PUSH1 0xE5 PUSH1 0x2 EXP PUSH3 0x461BCD MUL DUP2 MSTORE PUSH1 0x20 PUSH1 0x4 DUP3 ADD MSTORE PUSH1 0x12 PUSH1 0x24 DUP3 ADD MSTORE PUSH32 0x4E6F2073756368207769746864726177616C0000000000000000000000000000 PUSH1 0x44 DUP3 ADD MSTORE SWAP1 MLOAD SWAP1 DUP2 SWAP1 SUB PUSH1 0x64 ADD SWAP1 REVERT JUMPDEST PUSH1 0x0 DUP2 DUP2 MSTORE PUSH1 0xA PUSH1 0x20 SWAP1 DUP2 MSTORE PUSH1 0x40 DUP1 DUP4 KECCAK256 PUSH1 0xB SWAP1 SWAP3 MSTORE SWAP1 SWAP2 KECCAK256 PUSH1 0x2 DUP3 ADD SLOAD PUSH1 0xFF AND ISZERO PUSH2 0x1707 JUMPI PUSH1 0x40 DUP1 MLOAD PUSH1 0xE5 PUSH1 0x2 EXP PUSH3 0x461BCD MUL DUP2 MSTORE PUSH1 0x20 PUSH1 0x4 DUP3 ADD MSTORE PUSH1 0x1C PUSH1 0x24 DUP3 ADD MSTORE PUSH32 0x5769746864726177616C20616C72656164792070726F63657373656400000000 PUSH1 0x44 DUP3 ADD MSTORE SWAP1 MLOAD SWAP1 DUP2 SWAP1 SUB PUSH1 0x64 ADD SWAP1 REVERT JUMPDEST DUP1 SLOAD PUSH1 0x0 JUMPDEST DUP2 DUP2 LT ISZERO PUSH2 0x1804 JUMPI DUP3 SLOAD CALLER SWAP1 DUP5 SWAP1 DUP4 SWAP1 DUP2 LT PUSH2 0x1724 JUMPI INVALID JUMPDEST PUSH1 0x0 SWAP2 DUP3 MSTORE PUSH1 0x20 SWAP1 SWAP2 KECCAK256 ADD SLOAD PUSH1 0x1 PUSH1 0xA0 PUSH1 0x2 EXP SUB AND EQ ISZERO PUSH2 0x17FC JUMPI DUP3 PUSH2 0x1751 DUP4 PUSH1 0x1 PUSH4 0xFFFFFFFF PUSH2 0x195F AND JUMP JUMPDEST DUP2 SLOAD DUP2 LT PUSH2 0x175B JUMPI INVALID JUMPDEST PUSH1 0x0 SWAP2 DUP3 MSTORE PUSH1 0x20 SWAP1 SWAP2 KECCAK256 ADD SLOAD DUP4 SLOAD PUSH1 0x1 PUSH1 0xA0 PUSH1 0x2 EXP SUB SWAP1 SWAP2 AND SWAP1 DUP5 SWAP1 DUP4 SWAP1 DUP2 LT PUSH2 0x1781 JUMPI INVALID JUMPDEST PUSH1 0x0 SWAP2 DUP3 MSTORE PUSH1 0x20 SWAP1 SWAP2 KECCAK256 ADD DUP1 SLOAD PUSH1 0x1 PUSH1 0xA0 PUSH1 0x2 EXP SUB NOT AND PUSH1 0x1 PUSH1 0xA0 PUSH1 0x2 EXP SUB SWAP3 SWAP1 SWAP3 AND SWAP2 SWAP1 SWAP2 OR SWAP1 SSTORE DUP3 PUSH2 0x17B6 DUP4 PUSH1 0x1 PUSH2 0x195F JUMP JUMPDEST DUP2 SLOAD DUP2 LT PUSH2 0x17C0 JUMPI INVALID JUMPDEST PUSH1 0x0 SWAP2 DUP3 MSTORE PUSH1 0x20 SWAP1 SWAP2 KECCAK256 ADD DUP1 SLOAD PUSH1 0x1 PUSH1 0xA0 PUSH1 0x2 EXP SUB NOT AND SWAP1 SSTORE DUP3 SLOAD PUSH2 0x17EC SWAP1 PUSH1 0x1 PUSH4 0xFFFFFFFF PUSH2 0x195F AND JUMP JUMPDEST PUSH2 0x17F6 DUP5 DUP3 PUSH2 0x1C62 JUMP JUMPDEST POP PUSH2 0x1804 JUMP JUMPDEST PUSH1 0x1 ADD PUSH2 0x170C JUMP JUMPDEST POP POP POP POP POP POP POP POP JUMP JUMPDEST PUSH1 0x7 SLOAD DUP2 JUMP JUMPDEST PUSH1 0x6 SLOAD DUP2 JUMP JUMPDEST PUSH1 0x1 SLOAD PUSH1 0x1 PUSH1 0xA0 PUSH1 0x2 EXP SUB AND CALLER EQ PUSH2 0x1831 JUMPI PUSH1 0x0 DUP1 REVERT JUMPDEST PUSH1 0x1 DUP1 SLOAD PUSH1 0x1 PUSH1 0xA0 PUSH1 0x2 EXP SUB DUP4 DUP2 AND PUSH1 0x1 PUSH1 0xA0 PUSH1 0x2 EXP SUB NOT DUP4 AND OR SWAP3 DUP4 SWAP1 SSTORE PUSH1 0x40 MLOAD SWAP2 DUP2 AND SWAP3 AND SWAP1 DUP3 SWAP1 PUSH32 0x97039B7ABAF01675096881F9397DEABE983BC7991FF9A271244E50B4758A271F SWAP1 PUSH1 0x0 SWAP1 LOG3 POP POP JUMP JUMPDEST PUSH1 0x1 SLOAD PUSH1 0x1 PUSH1 0xA0 PUSH1 0x2 EXP SUB AND CALLER EQ PUSH2 0x189C JUMPI PUSH1 0x0 DUP1 REVERT JUMPDEST PUSH2 0x15CE DUP2 PUSH2 0x9BD JUMP JUMPDEST PUSH1 0xD PUSH1 0x20 MSTORE DUP2 PUSH1 0x0 MSTORE PUSH1 0x40 PUSH1 0x0 KECCAK256 DUP2 DUP2 SLOAD DUP2 LT ISZERO ISZERO PUSH2 0xB4C JUMPI INVALID JUMPDEST PUSH1 0x9 SLOAD DUP2 JUMP JUMPDEST PUSH1 0xA PUSH1 0x20 MSTORE PUSH1 0x0 SWAP1 DUP2 MSTORE PUSH1 0x40 SWAP1 KECCAK256 DUP1 SLOAD PUSH1 0x1 DUP3 ADD SLOAD PUSH1 0x2 SWAP1 SWAP3 ADD SLOAD PUSH1 0x1 PUSH1 0xA0 PUSH1 0x2 EXP SUB SWAP1 SWAP2 AND SWAP2 SWAP1 PUSH1 0xFF AND DUP4 JUMP JUMPDEST PUSH1 0x8 SLOAD PUSH1 0x1 PUSH1 0xA0 PUSH1 0x2 EXP SUB AND DUP2 JUMP JUMPDEST PUSH2 0x190B PUSH2 0x1171 JUMP JUMPDEST ISZERO ISZERO PUSH2 0x1916 JUMPI PUSH1 0x0 DUP1 REVERT JUMPDEST PUSH2 0x191F DUP2 PUSH2 0x1BA2 JUMP JUMPDEST POP JUMP JUMPDEST PUSH1 0x4 SLOAD DUP2 JUMP JUMPDEST PUSH1 0x40 DUP1 MLOAD DUP1 DUP3 ADD SWAP1 SWAP2 MSTORE PUSH1 0x5 DUP2 MSTORE PUSH32 0x312E322E30000000000000000000000000000000000000000000000000000000 PUSH1 0x20 DUP3 ADD MSTORE DUP2 JUMP JUMPDEST PUSH1 0x0 DUP3 DUP3 GT ISZERO PUSH2 0x196E JUMPI PUSH1 0x0 DUP1 REVERT JUMPDEST POP SWAP1 SUB SWAP1 JUMP JUMPDEST PUSH1 0x1 PUSH1 0xA0 PUSH1 0x2 EXP SUB DUP2 AND ISZERO ISZERO PUSH2 0x1989 JUMPI PUSH1 0x0 DUP1 REVERT JUMPDEST PUSH2 0x1993 DUP3 DUP3 PUSH2 0x1A09 JUMP JUMPDEST ISZERO PUSH2 0x199D JUMPI PUSH1 0x0 DUP1 REVERT JUMPDEST PUSH1 0x1 PUSH1 0xA0 PUSH1 0x2 EXP SUB AND PUSH1 0x0 SWAP1 DUP2 MSTORE PUSH1 0x20 SWAP2 SWAP1 SWAP2 MSTORE PUSH1 0x40 SWAP1 KECCAK256 DUP1 SLOAD PUSH1 0xFF NOT AND PUSH1 0x1 OR SWAP1 SSTORE JUMP JUMPDEST PUSH1 0x0 DUP3 DUP3 ADD DUP4 DUP2 LT ISZERO PUSH2 0x19D4 JUMPI PUSH1 0x0 DUP1 REVERT JUMPDEST SWAP4 SWAP3 POP POP POP JUMP JUMPDEST PUSH1 0x0 PUSH2 0x1A04 PUSH1 0x3 PUSH2 0x19F8 PUSH1 0x2 PUSH1 0x4 SLOAD PUSH2 0x1C13 SWAP1 SWAP2 SWAP1 PUSH4 0xFFFFFFFF AND JUMP JUMPDEST SWAP1 PUSH4 0xFFFFFFFF PUSH2 0x1C3E AND JUMP JUMPDEST SWAP1 POP SWAP1 JUMP JUMPDEST PUSH1 0x0 PUSH1 0x1 PUSH1 0xA0 PUSH1 0x2 EXP SUB DUP3 AND ISZERO ISZERO PUSH2 0x1A20 JUMPI PUSH1 0x0 DUP1 REVERT JUMPDEST POP PUSH1 0x1 PUSH1 0xA0 PUSH1 0x2 EXP SUB AND PUSH1 0x0 SWAP1 DUP2 MSTORE PUSH1 0x20 SWAP2 SWAP1 SWAP2 MSTORE PUSH1 0x40 SWAP1 KECCAK256 SLOAD PUSH1 0xFF AND SWAP1 JUMP JUMPDEST PUSH1 0x1 PUSH1 0xA0 PUSH1 0x2 EXP SUB DUP2 AND ISZERO ISZERO PUSH2 0x1A55 JUMPI PUSH1 0x0 DUP1 REVERT JUMPDEST PUSH2 0x1A5F DUP3 DUP3 PUSH2 0x1A09 JUMP JUMPDEST ISZERO ISZERO PUSH2 0x1A6A JUMPI PUSH1 0x0 DUP1 REVERT JUMPDEST PUSH1 0x1 PUSH1 0xA0 PUSH1 0x2 EXP SUB AND PUSH1 0x0 SWAP1 DUP2 MSTORE PUSH1 0x20 SWAP2 SWAP1 SWAP2 MSTORE PUSH1 0x40 SWAP1 KECCAK256 DUP1 SLOAD PUSH1 0xFF NOT AND SWAP1 SSTORE JUMP JUMPDEST PUSH1 0x0 DUP1 PUSH2 0x1AB9 PUSH3 0x11EF2 PUSH2 0x1AAD PUSH1 0x4 SLOAD PUSH2 0xD41D PUSH2 0x1C13 SWAP1 SWAP2 SWAP1 PUSH4 0xFFFFFFFF AND JUMP JUMPDEST SWAP1 PUSH4 0xFFFFFFFF PUSH2 0x19C2 AND JUMP JUMPDEST PUSH1 0x6 SLOAD SWAP1 SWAP2 POP PUSH2 0x1AE4 SWAP1 PUSH2 0x1AD8 DUP4 PUSH5 0x4A817C800 PUSH4 0xFFFFFFFF PUSH2 0x1C13 AND JUMP JUMPDEST SWAP1 PUSH4 0xFFFFFFFF PUSH2 0x1C13 AND JUMP JUMPDEST SWAP2 POP POP SWAP1 JUMP JUMPDEST DUP3 PUSH1 0x1 PUSH1 0xA0 PUSH1 0x2 EXP SUB AND PUSH4 0xA9059CBB DUP4 DUP4 PUSH1 0x40 MLOAD DUP4 PUSH4 0xFFFFFFFF AND PUSH29 0x100000000000000000000000000000000000000000000000000000000 MUL DUP2 MSTORE PUSH1 0x4 ADD DUP1 DUP4 PUSH1 0x1 PUSH1 0xA0 PUSH1 0x2 EXP SUB AND PUSH1 0x1 PUSH1 0xA0 PUSH1 0x2 EXP SUB AND DUP2 MSTORE PUSH1 0x20 ADD DUP3 DUP2 MSTORE PUSH1 0x20 ADD SWAP3 POP POP POP PUSH1 0x20 PUSH1 0x40 MLOAD DUP1 DUP4 SUB DUP2 PUSH1 0x0 DUP8 DUP1 EXTCODESIZE ISZERO DUP1 ISZERO PUSH2 0x1B66 JUMPI PUSH1 0x0 DUP1 REVERT JUMPDEST POP GAS CALL ISZERO DUP1 ISZERO PUSH2 0x1B7A JUMPI RETURNDATASIZE PUSH1 0x0 DUP1 RETURNDATACOPY RETURNDATASIZE PUSH1 0x0 REVERT JUMPDEST POP POP POP POP PUSH1 0x40 MLOAD RETURNDATASIZE PUSH1 0x20 DUP2 LT ISZERO PUSH2 0x1B90 JUMPI PUSH1 0x0 DUP1 REVERT JUMPDEST POP MLOAD ISZERO ISZERO PUSH2 0x1B9D JUMPI PUSH1 0x0 DUP1 REVERT JUMPDEST POP POP POP JUMP JUMPDEST PUSH1 0x1 PUSH1 0xA0 PUSH1 0x2 EXP SUB DUP2 AND ISZERO ISZERO PUSH2 0x1BB7 JUMPI PUSH1 0x0 DUP1 REVERT JUMPDEST PUSH1 0x5 SLOAD PUSH1 0x40 MLOAD PUSH1 0x1 PUSH1 0xA0 PUSH1 0x2 EXP SUB DUP1 DUP5 AND SWAP3 AND SWAP1 PUSH32 0x8BE0079C531659141344CD1FD0A4F28419497F9722A3DAAFE3B4186F6B6457E0 SWAP1 PUSH1 0x0 SWAP1 LOG3 PUSH1 0x5 DUP1 SLOAD PUSH1 0x1 PUSH1 0xA0 PUSH1 0x2 EXP SUB NOT AND PUSH1 0x1 PUSH1 0xA0 PUSH1 0x2 EXP SUB SWAP3 SWAP1 SWAP3 AND SWAP2 SWAP1 SWAP2 OR SWAP1 SSTORE JUMP JUMPDEST PUSH1 0x0 DUP3 ISZERO ISZERO PUSH2 0x1C24 JUMPI POP PUSH1 0x0 PUSH2 0x9B7 JUMP JUMPDEST DUP3 DUP3 MUL DUP3 DUP5 DUP3 DUP2 ISZERO ISZERO PUSH2 0x1C33 JUMPI INVALID JUMPDEST DIV EQ PUSH2 0x19D4 JUMPI PUSH1 0x0 DUP1 REVERT JUMPDEST PUSH1 0x0 DUP1 DUP3 GT PUSH2 0x1C4C JUMPI PUSH1 0x0 DUP1 REVERT JUMPDEST PUSH1 0x0 DUP3 DUP5 DUP2 ISZERO ISZERO PUSH2 0x1C59 JUMPI INVALID JUMPDEST DIV SWAP5 SWAP4 POP POP POP POP JUMP JUMPDEST DUP2 SLOAD DUP2 DUP4 SSTORE DUP2 DUP2 GT ISZERO PUSH2 0x1B9D JUMPI PUSH1 0x0 DUP4 DUP2 MSTORE PUSH1 0x20 SWAP1 KECCAK256 PUSH2 0x1B9D SWAP2 DUP2 ADD SWAP1 DUP4 ADD PUSH2 0x116E SWAP2 SWAP1 JUMPDEST DUP1 DUP3 GT ISZERO PUSH2 0x1C9B JUMPI PUSH1 0x0 DUP2 SSTORE PUSH1 0x1 ADD PUSH2 0x1C87 JUMP JUMPDEST POP SWAP1 JUMP INVALID NUMBER PUSH16 0x6E747261637420697320666C75736865 PUSH5 0x2C2063616E PUSH15 0x6F7420776974686472617757697468 PUSH5 0x726177616C KECCAK256 PUSH2 0x6D6F PUSH22 0x6E74206973206C657373207468616E206F7220657175 PUSH2 0x6C20 PUSH21 0x6F206665657352656D6F76696E6720766572696669 PUSH6 0x7220776F756C PUSH5 0x2070757420 PUSH15 0x756D626572206F6620766572696669 PUSH6 0x72732062656C PUSH16 0x77206D696E696D756D446F206E6F7420 PUSH2 0x6C6C PUSH16 0x772073656E64696E672045746820746F KECCAK256 PUSH21 0x68697320636F6E7472616374A165627A7A72305820 BLOCKHASH 0xaf 0x5d 0xdd 0xa9 0x22 0xc1 SWAP11 PUSH5 0xF60706319B 0xc4 COINBASE DUP14 PUSH25 0xFCE05D15A9AEF53B35F0EFA33D4500294E756D626572206F66 KECCAK256 PUSH23 0x6572696669657273206C657373207468616E206D696E69 PUSH14 0x756D000000000000000000000000 "
    }
  }
}